:020000040800F2
:10000000000003205D0600080D2400080F240008EE
:100010001124000813240008152400080000000023
:10002000000000000000000000000000017A00084D
:100030001724000800000000917A000821730008CE
:10004000AD060008AD060008AD060008AD060008C4
:10005000AD060008AD060008AD060008AD060008B4
:10006000AD060008AD060008AD060008AD060008A4
:10007000AD060008AD060008AD060008AD06000894
:10008000AD060008AD06000819240008AD060008FA
:10009000AD060008AD060008AD060008AD06000874
:1000A000AD060008AD060008AD060008AD06000864
:1000B000AD060008AD060008AD060008AD06000854
:1000C000AD060008AD060008AD060008AD06000844
:1000D000AD060008AD060008AD060008AD06000834
:1000E000AD060008AD060008AD060008AD06000824
:1000F000AD060008AD060008AD060008AD06000814
:10010000AD060008AD060008AD060008AD06000803
:10011000AD060008AD06000835240008AD0600084D
:10012000AD060008AD060008AD060008AD060008E3
:10013000AD060008AD060008AD060008AD060008D3
:10014000AD060008AD060008AD060008AD060008C3
:10015000AD060008AD060008AD060008AD060008B3
:10016000AD060008AD060008AD060008AD060008A3
:10017000AD060008AD060008AD060008000000004E
:10018000AD060008AD060008AD060008AD06000883
:10019000AD060008AD060008AD060008AD06000873
:0C01A00041240008AD0600084D240008B2
:1001B00010B5054C237833B9044B13B10448AFF3A1
:1001C00000800123237010BD800300200000000088
:1001D0006C3E020808B5034B1BB103490348AFF35B
:1001E000008008BD00000000840300206C3E02086F
:1001F00001F0FF01102A2BDB10F0070F08D010F8D8
:10020000013B013A8B422DD010F0070F42B3F6D1DB
:10021000F0B441EA012141EA014122F007047FF0F4
:1002200000070023F0E80256083C85EA010586EA4B
:10023000010685FA47F5A3FA87F586FA47F6A5FA87
:1002400087F68EB9EED1F0BC01F0FF0102F0070293
:1002500032B110F8013B013A83EA010313B1F8D13E
:100260000020704701387047002D06BF354603381F
:10027000073815F0010F07D1013015F4807F02BF58
:10028000013015F4C03F0130F0BC0138704700BFA9
:100290007BB972B90029BEBF00204FF0004106E0D3
:1002A00008BF00281CBF6FF000414FF0FF3000F086
:1002B000D3B9ADF1080C6DE904CE002909DB002BA0
:1002C0001ADB00F04DF8DDF804E0DDE9022304B0AC
:1002D0007047404261EB4101002B1BDB00F040F80E
:1002E000DDF804E0DDE9022304B0404261EB4101A6
:1002F000524263EB43037047524263EB430300F007
:100300002FF8DDF804E0DDE9022304B0404261EBA0
:1003100041017047524263EB430300F021F8DDF8DE
:1003200004E0DDE9022304B0524263EB430370476B
:1003300053B94AB9002908BF00281CBF4FF0FF314C
:100340004FF0FF3000F088B9ADF1080C6DE904CE34
:1003500000F006F8DDF804E0DDE9022304B07047A0
:100360002DE9F047089D8E4604468846002B4AD169
:100370008A42174662D9B2FA82F64EB1C6F120031C
:1003800001FA06F820FA03F3B74043EA0808B4403C
:100390004FEA174E1FFA87FCB8FBFEF1230C0EFB49
:1003A000118843EA084301FB0CF29A4209D9FB1871
:1003B00001F1FF3080F0EA809A4240F2E780023992
:1003C0003B449A1AA3B2B2FBFEF00EFB102243EAA2
:1003D000024300FB0CFC9C4509D9FB1800F1FF32DD
:1003E00080F0D6809C4540F2D3803B44023840EAFE
:1003F0000140A3EB0C0300211DB1F3400022C5E92D
:100400000032BDE8F0878B4205D90DB1C5E9000186
:1004100000210846F5E7B3FA83F1002946D1734578
:1004200002D3824200F20581841A6EEB030201209E
:100430009046002DE5D0C5E90048E2E7002A00F02B
:100440009080B2FA82F6002E40F0A4808A1A030C43
:100450004FEA174E80B2BCB20121B2FBFEFC0EFB8C
:100460001C2243EA024304FB0CF29A4207D9FB1810
:100470000CF1FF3802D29A4200F2E080C4469B1A87
:10048000B3FBFEF20EFB123340EA034302FB04F41B
:100490009C4207D9FB1802F1FF3002D29C4200F2C5
:1004A000CA8002461B1B42EA0C40A5E7C1F12006A8
:1004B0008B4022FA06F71F430EFA01F420FA06F3E6
:1004C0002EFA06FE4FEA1749234300FA01F81FFAF5
:1004D00087FCBEFBF9F01C0C09FB10EE44EA0E444D
:1004E00000FB0CFEA64502FA01F209D93C1900F105
:1004F000FF3A80F09C80A64540F2998002383C4447
:10050000A4EB0E041FFA83FEB4FBF9F309FB1344BA
:100510004EEA044403FB0CFCA44508D93C1903F142
:10052000FF3E80F08280A4457FD9023B3C4443EAF1
:100530000040A4EB0C04A0FB02EC64457346E146CA
:1005400062D35FD05DB1B8EB030264EB090404FA37
:1005500006F622FA01F31E43CC40C5E900640021EF
:100560004FE7B1FBF2FC010C41EA0E4180B240EAD8
:1005700001423B4638463C46B846BE462026B1FBC3
:10058000F7F1A2EB080241EA0C4166E7014618E7E1
:1005900010462CE7C6F120022EFA02F3B740B14014
:1005A00020FA02F24FEA174E0A43B3FBFEF8BCB240
:1005B0000EFB1833110C41EA034108FB04F9B0406B
:1005C00089454FEA104380B23ED9791808F1FF3CC3
:1005D00001D289451FD8A1EB0901B1FBFEF909FB46
:1005E00004F80EFB191192B242EA0142424529D2A7
:1005F000BA1809F1FF31C4D24245C2D2A9F10201B1
:100600003A44BEE7F0459DD2BEEB02036CEB070C0B
:100610000138E14696E7A7EB09094944A8F1020C25
:10062000B1FBFEF909FB04F8DBE773467FE75046B0
:1006300066E70846FDE63B44023A33E7ACF1020CBC
:100640003B441CE749469CE7A1EB0901C446B1FBCA
:10065000FEF909FB04F8C4E7704700BFDFF834D0A7
:10066000002103E00C4B5B58435004310B480C4B0A
:1006700042189A42F6D30B4A02E0002342F8043BA8
:10068000094B9A42F9D304F0F5F922F081FE01F00A
:10069000AFF87047000003206CE60208000000205D
:1006A00080010020800300208C420120FEE770477B
:1006B00008B500F0BBFDBDE8084000F03FBD00F00C
:1006C000B7BD704710B50421044621F074FC2046E4
:1006D00010BD000038B50C4B0C4C18800C4B822020
:1006E00019806368984740F6110398420AD1094D72
:1006F00023682C60822098472B688220DB6898470B
:10070000002038BD0120FCE7A6030020680000207F
:10071000A4030020A80300204FF4A071F020FFF7ED
:10072000D9BF0000F7B5394D2B6804461B698220FC
:100730009847208000284ED02B680DF106025B6997
:1007400001A982209847324B1B78002B4BD0BDF873
:10075000062040F674639A423FD9ADF80630BDF8E2
:1007600006209B1A9BB20A2B42D90B22B3FBF2F351
:10077000284A1288934201D9013A93B2BDF8042065
:10078000254840F6B8318A4234D8C2F571620E323B
:10079000016892B20F25B2FBF5F2204D2D88AA42D6
:1007A00084BF05F1FF35AAB28A4215468EB22AD916
:1007B000921B91B21A4E3768BB42BAB28CBF9A1ADA
:1007C000D21A92B211440529C4BF05603360036890
:1007D00063803368A38003B0F0BDB32A9CBFB4220A
:1007E000ADF80620BBE7BDF80630A3F5B473B9E752
:1007F0000023C3E7C2F56D62083292B20E2A016887
:10080000C8D800252A46891A89B2D3E7A803002050
:10081000E8220020A4030020A0030020A60300205B
:100820009C03002037B568460D461446FFF77AFF53
:10083000BDF8000030B1BDF802302B60BDF80430C7
:100840002360012003B030BD032821D8DFE800F089
:10085000020B12190F4B1A68B2FA82F252090421E4
:100860000D4804F073BD0B4B5A68B2FA82F252097C
:100870000821F5E7074B9A68B2FA82F25209102173
:10088000EEE7044BDA68B2FA82F252092021E7E778
:10089000704700BFAC03002000100240032821D89D
:1008A000DFE800F0020B12190F4B1A68003A18BF6C
:1008B000012204210D4804F049BD0B4B5A68003A4F
:1008C00018BF01220821F5E7074B9A68003A18BFC4
:1008D00001221021EEE7044BDA68003A18BF01222A
:1008E0002021E7E7704700BFAC0300200010024062
:1008F00003280DD8DFE800F00206080A04210548A5
:1009000004F029BD0821FAE71021F8E72021F6E7D5
:10091000704700BF0010024008B5032811D8DFE877
:1009200000F0020A0C0E0421074804F009FD431EE2
:100930005842584108BD0821F6E71021F4E720216C
:10094000F2E70020F3E700BF0010024070B5084D49
:1009500000240126E0B2FFF7DFFF18B12B68012B5E
:1009600018BF2E600134052C05F10405F2D170BDCD
:10097000AC030020012380F8781080F879307047AC
:100980007047002070470000034B4164003918BFD6
:1009900001211970704700BF4B35012070470020BE
:1009A0007047836B0BB10846184770474FF6FF70CE
:1009B0007047406803689B691847704770477047E5
:1009C0007047704710B5044600F048FD236803499E
:1009D000D3F890302046BDE810401847000000D002
:1009E00008B503680446D3F8843098472368204646
:1009F000DB6F984700F0ECF8236820465B6F984760
:100A0000292001F0C3F900F0E3F8236820465B6F6A
:100A10009847F8E710B5044609F0E8FD236820463A
:100A2000D3F8BC30BDE81040184700F0FBBC00F024
:100A3000FFBC00F031BD00F0D1BC00F041BD00F0C2
:100A400049BD00F0D5BC08F0FFBF10B584210446B5
:100A500021F0B1FA204610BD10B590F8341090F88E
:100A600078400C4B8C421A7809D03AB90A4A0B49A3
:100A70001488088810800C8001221A7010BD002A8A
:100A8000FCD0054A05491488088810800C80002293
:100A9000F3E700BF443501204035012042350120F5
:100AA00070B50D46194635B9094B0A4A0A4840F255
:100AB000FF2122F0BDF9C0E90F52084B003A18BFE0
:100AC00001221A700368BDE87040D3F890301847CF
:100AD000DC3E0208143F0208623F02084A3501204A
:100AE00008B5094B1B888B4203D8084B1B889342DF
:100AF00005D9074B074A0848A32122F099F9074B6B
:100B00001980074B1A8008BD40350120423501206D
:100B1000A73F02080A400208623F0208463501204A
:100B200048350120034690F87A0018B158680368E8
:100B30001B68184770470000012108B500220846CD
:100B400006F078FC0A4B186028B90A4B0A4A28219B
:100B50000A4822F06DF900220421012006F009FD67
:100B6000074B186018B9074B034A2C21F0E708BD62
:100B7000C00300204D40020896400208C54002080C
:100B8000BC03002018410208024B4FF0FF311868E7
:100B900006F09ABCC0030020014B186806F0C0BCE8
:100BA000C0030020024B0021186806F08DBC00BF76
:100BB000C0030020FFF7F0BF03480449006800238A
:100BC0001A4606F011BD00BFBC030020040000203F
:100BD00013B5084C00231A4601A9206806F035FD1C
:100BE00020684FF0FF33002201A906F02EFD02B06D
:100BF00010BD00BFBC03002003685B6C18470120D8
:100C0000704703689B6A1847FEE740F2EF30704771
:100C1000054B0360054B4FF08062C3F88820BFF39B
:100C20004F8FBFF36F8F7047184B020800E100E051
:100C300010B504464FF45A61FFF7EAFF204621F051
:100C4000BAF9204610BD000082B0002301930E4B7C
:100C50001A6B42F400021A631A6B02F4000201924A
:100C6000019A1A6942F400021A611A6922F4000218
:100C70001A61064B064A1A61064A5A61064B4FF042
:100C800080629A6002B07047003802407C240020E5
:100C9000E90E0008090C000800E100E008B50A2888
:100CA00009D8DFE800F006100E0808080810101038
:100CB0001000022008BD054B054A0648902122F08D
:100CC000B7F80020F6E70120F4E700BF5A41020818
:100CD00075410208C041020838B50C46887FFFF70D
:100CE000DDFFA58AE28A164B2169586342EA054274
:100CF0005A64628BD963521B1A642568082D0ED181
:100D00009A611A615862207F0E4A42EA0062DA61F3
:100D1000E2681A620C4A5961D9601A6038BD002233
:100D2000D8611A61E1680A0A480902F4784200F4BD
:100D3000FC600243C1F3C4010A439A63034AECE72F
:100D400000B002400900010001230200012303005A
:100D500008B50B280BD8DFE800F00612100A0A0AC3
:100D60000A0808080808022008BD0520FCE7054B12
:100D7000054A06486F2122F05BF80020F4E70120C5
:100D8000F2E700BF5A41020811420208C0410208BE
:100D90002DE9F04191F81D800C464046FFF7D8FF41
:100DA000A77F05463846FFF7D3FF06463846FFF7CC
:100DB00075FFA18A628B444B521A1A649A61228B86
:100DC000521A1A61E28A586342EA01425A6421695E
:100DD0006268D963DA602068802828D0227F0FD823
:100DE000202867D0402865D004281AD0364B45EA21
:100DF000026545F40035B845DD6161D0334A44E011
:100E0000B0F5807F04D0B0F5007FEFD1304800E02E
:100E1000304840EA0262DA61E2681A625E62596151
:100E200032E045EA026242F40032DA61F6E7A06895
:100E3000021DDA62227F45EA026545F40035DD6174
:100E40005E625961017841B1012921D0224B234AC8
:100E500023484FF48D7121F0EBFFDA69418822F4C9
:100E60007F42013922F0100242EA0122DA610121B7
:100E7000154BDA6942F02002DA61DA699206FCD495
:100E800010229A600029B9D0164A1A60BDE8F08194
:100E9000B2F1FF01DA69408822F47F4200F1FF30AD
:100EA00022F0100242EA002242F0100218BF012193
:100EB000DA61DDE745EA0262034B42F40032B4E74F
:100EC00042F20132E1E700BF00B00240012301001D
:100ED000090002000A0002005B4202087542020893
:100EE000C041020801230200024B1B6858680368D6
:100EF0005B6918474C35012070B5044625460A4BFE
:100F00000C30002660602672667245F8203B602235
:100F1000294609F0C1FC04F55A63EE6024359D4270
:100F2000FBD1204670BD00BF184B0208034B1A6866
:100F3000D207FCD423229A60704700BF00B0024061
:100F40007047000030B50F4C2568ED07FCD4232511
:100F50000904A56041F001010225FF2B656361646E
:100F6000E0630AD00849656241EA0363E361074B25
:100F700022626061E060236030BDE561039BA36392
:100F8000034BF8E700B00240090001000100020035
:100F90000100030030B50E4C2568ED07FCD4232575
:100FA0001204A56042F001020225FF2B6563626412
:100FB000E063E16008D01B0643F00213E361054BD8
:100FC00065626061236030BD034BE3610123F9E793
:100FD00000B0024001000200020002FF30B50B4CDD
:100FE0002568ED07FCD4232512041B06A56043F4F5
:100FF0000033022542F0010265636264E063E16050
:10100000E361034B65626061236030BD00B0024064
:1010100001000200012070470C2070470C2303FBE5
:101020000100083070470C2303FB010008307047B3
:10103000012070474FF45D6070474FF45D6303FB20
:101040000100083070474FF45D6303FB0100083076
:101050007047012070471020704700EB01100830E6
:10106000704700EB011008307047084602F054BA90
:1010700010B5034B0360044608F03DFA204610BD4E
:10108000D04B020810B50446FFF7F2FF20461421AA
:1010900020F091FF204610BD10B5034B03600446BD
:1010A00008F029FA204610BD9C4B020810B50446F2
:1010B000FFF7F2FF204640F6D85120F07CFF204693
:1010C00010BD000010B5034B0360044608F013FA8E
:1010D000204610BD684B020810B50446FFF7F2FF2A
:1010E0002046182120F067FF204610BD10B5084BA0
:1010F0000360044600F60460FFF7BAFF04F12C0019
:10110000FFF7CAFF04F11400FFF7DCFF204610BD13
:10111000044C020808B50248FFF7E8FF08BD00BF0D
:101120009C12002010B50446FFF7E0FF204640F671
:10113000787120F040FF204610BD00002DE9F341FA
:1011400001F0F8F9054601F0F9F9002401462346BB
:1011500028462246009411F09BFE274B274A1A602E
:10116000204602F095FE264D264B274A27489A60D6
:1011700011F0F6FD2B68BFF35B8FDB0735D42846F3
:1011800020F01BFF88B3224C224B236004F61C6620
:1011900004F1140004F12C0804F604676060C4F83C
:1011A0000880E760266108F0A7F91B4B63614046A1
:1011B00008F0A2F9194BE362384608F09DF9184B84
:1011C000C4F8043E04F6186003F0E6F8224604F67C
:1011D0001861304603F098F8304602F09DF9114846
:1011E00021F044FE284620F0F4FE0F4802B0BDE88E
:1011F000F041FFF7E7BB00BFB035012048040020F5
:1012000098120020680400204C04002008000020F0
:101210009C120020044C0208684B02089C4B0208F8
:10122000D04B020815110008C403002070470000CD
:101230000148FFF7D5BB00BFC403002070B5264EA0
:10124000264C274D274B23603046FFF755FE284696
:1012500016F024FF24480FF02BFB244B2448DC60BD
:1012600000224FF48071C3E9121222491A86C3E9A1
:101270001A12214983F85820C3E91E011F49C3F8F7
:1012800080101F491F480B60F021C3E90422C3E905
:101290000622C3E90822C3E90A22C3E90E22C3E9F0
:1012A0001022C3E91422C3E917225A6683F870207A
:1012B0005A67C3E9016501801348018013484FF460
:1012C000A07101801248018012490A70012283F83E
:1012D0003420114A1A6070BDF404002094120020DA
:1012E00068040020CC3E02084C040020C403002007
:1012F0000000010101000001000450001A00140068
:101300004C35012040350120463501204235012071
:1013100048350120443501202C4A02080148FFF7D6
:1013200077BC00BFF4040020002070478180704724
:10133000C180704701817047418170477047704795
:1013400070477047704710B4C4880368121B8488C4
:101350005B6D091B12B25DF8044B09B218474FF6DA
:10136000FF7383814FF0FF3303621368C361106022
:101370007047002070478B8883800120704770473A
:1013800080F82610704790F82600704710B50022AC
:10139000B1F90840B1F90A10028042808480C1800E
:1013A00010BD0022028042808280C2807047017797
:1013B000704780ED080A704780F82410704780F865
:1013C0002510704701207047983070478C30704767
:1013D000843070477047704770470000034B90227D
:1013E00083F85A2383F85823704700BF00E100E0D8
:1013F000094A0A49D3680A48C3F30A03013B9BB26E
:101400000B801169C1F30A01013901801364536B28
:1014100043F0010353637047006801401622002027
:1014200014220020014BD3F8AC0070470068014043
:10143000024B0122C3F8AC105A62704700680140A9
:1014400010B52C21044620F0B6FD204610BD10B585
:10145000BC21044620F0AFFD204610BD70B5044607
:1014600008F047FB23689D6E0DF0BAFF0146204649
:10147000A8472368054AD3F88C502046AC46002381
:10148000BDE87040A2F51631604700BF00B004D03F
:1014900008F016BB08F020BB08F0DCBA08F04BBC23
:1014A00090F8252012B103685B691847704790F8DF
:1014B00025201AB190F8242002B11860704700006E
:1014C000034B4FF080629A604FF080729A607047D1
:1014D00000E100E0084B4FF08062C3F88820BFF3C2
:1014E0004F8FBFF36F8F4FF08072C3F88820BFF328
:1014F0004F8FBFF36F8F704700E100E070B500239E
:10150000124E8380124B0360336893F858200546CF
:101510000AB1D86C00B998680368DB6A98473368E9
:10152000B0FA80F4D86C640930B10368DB6A98477C
:10153000002808BF44F001042CB9064B064A0748AE
:101540002C2121F075FC284670BD00BF4C350120D0
:10155000184C0208B3420208114302084A43020829
:1015600070B5254E3568BFF35B8F15F0010540D18E
:10157000304620F022FD00283BD0204C204B256136
:1015800004F13400C4E90035C4E90255E584A562DC
:10159000A5850FF072FC04F158000AF031FE194BDA
:1015A000A3652046184B40F8843BFFF7A7FF174B75
:1015B000C4F884302433C4F88C304FF4C803C4E931
:1015C00028350023C4F8AC30C4F8B030C4F8B430C7
:1015D000C4F8B8300E480F4BC4F89050C4F89C5073
:1015E000C4F8A850C4F8983021F040FC304620F0F0
:1015F000F0FC024870BD00BF182200201C22002011
:1016000034550208384C0208B04C0208E85402086D
:10161000D9130008C854020838B5184C23685BB3C6
:10162000174B184A1B6C11888B4216D1164B198820
:1016300004F094FC236893F86A200025013283F8B3
:101640006A2083F87C50FFF7B7FA206808F0CEFFD5
:101650002846BDE83840FFF7F7B804F07FFC24685F
:10166000236820461B6A9847012384F87C300020B9
:10167000BDE83840FFF712B938BD00BF4C35012036
:1016800000680140162200201422002007B5064BF6
:10169000ADF806001B68054801220DF1060105F0B2
:1016A000FDF903B05DF804FB0C00002028230020A6
:1016B00008B5642005F0B2FEFBE70000204A904226
:1016C00013B5204C2ED103F0C9FA1F4B18802368A4
:1016D000013323602368022B22D11B4A1388A3F510
:1016E00000631BB2B3F5967F24DC13F5967F23DBF2
:1016F0005388A3F500631BB2B3F5967F1EDC13F588
:10170000967FB4BF0223042310488DF807300023CE
:101710001A4600680DF1070105F066FF00232360FB
:1017200002B010BD0A4A9042D4D103F097FA064B9A
:101730005880CCE70423E7E70323E5E70123E3E749
:101740000C250020D8220020E4220020E0220020E6
:10175000C424002030B595B0102200210AA821F041
:101760006EFD1422002103A821F069FD00241E4B08
:1017700001941A6C42F080521A641B6C03F080537F
:101780000193019B194B02941A6842F440421A607B
:101790001B6803F4404302930122029B4FF4803301
:1017A000CDE9082302254FF480030821CDE90E532B
:1017B0004FF4B473CDE9101308A8042313931295C2
:1017C00004F024FC04F0E8FB0F23CDE903354FF4CB
:1017D000A0504FF48053CDE90603052103A80594DA
:1017E00004F0F0FD15B030BD00380240007000403C
:1017F0002DE980489BB003F04BF9FFF7ABFF1422B3
:1018000000210DA821F01BFD0024C84B00941A6B89
:10181000C748C84D42F010021A631A6B02F010025A
:101820000092009A01941A6B42F020021A631A6B1C
:1018300002F020020192019A02941A6B42F0800297
:101840001A631A6B02F080020292029A03941A6BD6
:1018500042F004021A631A6B02F004020392039A24
:1018600004941A6B42F001021A631A6B02F001022F
:101870000492049A05941A6B42F002021A631A6BDE
:1018800002F002020592059A06941A6B42F0400299
:101890001A631A6B02F040020692069A07941A6BBA
:1018A00042F008021A631B6B03F0080322460793F9
:1018B0003C21079B03F04AFD9F480122022103F0CF
:1018C00045FD22469C48042103F040FD22469B48EA
:1018D0004FF4405103F03AFD01263C23CDE90D368B
:1018E00093480F9403230DA90227109303F044FC9F
:1018F00091480DA9CDE90D76CDE90F4403F03CFCEC
:1019000004238D480DA9CDE90D36CDE90F4703F02D
:1019100033FC0DA94FF440538848CDE90D36CDE98D
:101920000F4703F029FC8648864B036003F01AFB3F
:101930008548864B2C62C5E900034FF48043284656
:10194000C5E90434C5E90244C5E9064403F00CFFC7
:101950001021284604F050F92146284604F06BF97E
:101960007B4DDFF80CC2AC624FF48273C5E900C353
:101970004FF4007E1823C5E906E328460A23C5E98B
:101980000244C5E90444C5E90844EB6205F02AF8BD
:101990008F232246394668488DF824308DF834402C
:1019A00003F0D4FC32464FF47A7309A9284605F0B7
:1019B00075F84FF47A7332460DA9284605F01AFAE5
:1019C000324639465C48634D03F0C0FC9DF8343024
:1019D000D32B04BF604B1E70604B0126C5E9003657
:1019E0004FF0100840230024C5E904834FF4C0736E
:1019F000C5E906344FF40063C5E908344FF40053D9
:101A00004FF0020A04274FF0030BAB620DA9072326
:101A10002846CDE90DA3CDE90F734FF00809CDE9B4
:101A200011BAC5E90247CDF84CA004F0BFFE4FF64D
:101A3000FF7209A92846CDE90A96089409960C94E4
:101A400004F0D4FE304603F04FF84FF6FF7209A9B8
:101A50002846CDE909A9CDE90B6404F0C7FE4FF68D
:101A6000FF7209A92846CDE909B9CDE90B7404F044
:101A7000BDFE4FF40C730893089B0C934FF6FF7256
:101A800009A92846CDE909790B9604F0AFFE40F28A
:101A90006A51284604F0C8FE342221460DEB0200AC
:101AA00021F0CDFB2E4D2F4B2C61C5E900340923CD
:101AB000C5E905361D23C5E9073B40F20D1240F28A
:101AC0004313C5E9092340F2171140F24713284692
:101AD000C5E90B13C5E90244AC8685F8364004F02D
:101AE00045F9FF21F022CDE912144FF005094FF41A
:101AF00080614FF4A073CDE90E24CDE91419CDE92E
:101B000016420DA922462846CDE9103A164D1893E3
:101B10000D94ADF864408DF8664004F0F2F9134B73
:101B20002B601B6898472B6824E000BF00380240F8
:101B3000001002402824002000080240000C02404F
:101B4000BC24002000300240005C0040A086010060
:101B500028230020F4220020E8220020400100A0D9
:101B60008023002000680140DC220020300000209B
:101B7000005001403A4DDB6898473A4B2846C5E98A
:101B80000034C5E902A4C5E90A4AC5E90C4403F0DA
:101B9000F9F93146284603F0ABFA334DDFF8F8A0E7
:101BA000424621460DA821F04AFB304BAC604FF471
:101BB000803B2846C5E9003B2C612C7685F8204007
:101BC000EC62C5F828A0EC60EE6185F830406E61EB
:101BD00002F09EFF0D230DA92846CDE90D36244DB8
:101BE0000F9403F0CFF8424621460DA821F027FBC1
:101BF000204BAC602846C5E9003BC5E90AA42C612E
:101C00002C7685F82040EC60EE6185F830406E61FE
:101C100002F07EFF0DA92846CDE90D960F9403F042
:101C2000B1F8FEF745FDFEF742FD05F087FB124ACD
:101C30003146384605F09DFC104B114A186021468C
:101C4000104805F0A7FB104B104A186021461048B9
:101C500005F0A0FB0F4B186005F082FBFEE700BF0C
:101C60007C24002000B002400C2500200020014010
:101C7000C42400200021014014000020E0220020A4
:101C8000184D0208B1160008F0220020F44C02089A
:101C9000BF060008EC2200200100000F70477047CB
:101CA0007FB5094B8DF817201B6802930DF11702C1
:101CB0000123009201930A460146044803F0FCFD0B
:101CC00007B05DF804FB00BF1000002028240020AE
:101CD0007FB500238DF81730084B1B6802930A4626
:101CE00001230DF11701009101930146044803F00F
:101CF00073FE9DF8170007B05DF804FB100000208C
:101D0000282400201FB5084C24680092CDE9013436
:101D10000A4601230146054803F05EFE003818BF5D
:101D2000012004B010BD00BF1000002028240020B6
:101D300002F0DABE10B5064C00222046042103F062
:101D400005FB20460122BDE81040042103F0FEBA45
:101D50000008024038B50B4D044601220A484FF4F2
:101D6000005103F0F3FA00220421284603F0EEFAB2
:101D70002046FFF78BFC28460122BDE838400421AD
:101D800003F0E4BA00080240000C024038B50B4DE5
:101D9000044600220A484FF4005103F0D7FA00220B
:101DA0000421284603F0D2FA2046FFF76FFC2846AC
:101DB0000122BDE83840042103F0C8BA00080240FF
:101DC000000C0240F7B5144E144F05460C46304641
:101DD0000022042103F0BAFA00224FF400513846E1
:101DE00003F0B4FA2846FFF751FC0D4B0D481B6871
:101DF000224601A904F0FEFF384601224FF40051AB
:101E0000019C03F0A3FA30460122042103F09EFA5C
:101E1000204603B0F0BD00BF00080240000C0240A5
:101E20000C0000202823002002F05EBE0268034B55
:101E30009A4201D102F046BE704700BF0010004038
:101E40007047000082B00E4B00220092596C41F4A2
:101E500080415964596C01F48041009100990192CC
:101E6000196C41F0805119641B6C03F0805301938D
:101E7000019B0F216FF0010002B003F033B800BFE7
:101E80000038024010B514228AB0044600210DEB40
:101E9000020021F0D4F92368254A934227D1254B2B
:101EA0002548002401945A6C42F480725A645A6C9A
:101EB00002F480720192019A02941A6B42F00402B9
:101EC0001A631B6B03F0040302930821029B032394
:101ED000CDE9051305A903F04FF91220224605218B
:101EE00003F000F8122003F02FF80AB010BD134AD7
:101EF0009342FAD10F4B1248002403945A6C42F4D7
:101F000000725A645A6C02F400720392039A0494A9
:101F10001A6B42F001021A631B6B03F00103049376
:101F2000049B20220323CDE9052305A9D3E700BFA5
:101F3000002001400038024000080240002101401A
:101F4000000002400268094B9A4282B00BD1002384
:101F50000193074B1A6B42F480521A631B6B03F414
:101F600080530193019B02B0704700BF00300240D4
:101F70000038024007B50F4B02689A4216D1002282
:101F8000A3F5F0430192196B41F4000119631B6B37
:101F900003F40003019305215A20019B02F0A2FFE4
:101FA0005A2003B05DF804EB02F0CEBF03B05DF839
:101FB00004FB00BF00B002402DE9F043044689B0A5
:101FC0001422002103A821F03AF92268244B9A42F6
:101FD00043D1244C244800250095236B43F004038F
:101FE0002363236B03F004030093009B0195236B91
:101FF00043F001032363236B03F001030193019B6F
:102000004FF012094FF400734FF001080327042624
:1020100003A9CDE90339CDE90587079603F0ACF8AC
:102020004FF480731148079603A9CDE90339CDE930
:10203000058703F0A1F80295236C43F400032364A1
:10204000236C03F400030293029B236A43F400030E
:102050002362236A23F40003236209B0BDE8F083FE
:10206000005C0040003802400008024000000240CE
:10207000F0B599B004461422002107A821F0DFF83A
:1020800030220DEB0200002121F0D9F822685E4BCE
:102090009A4240F0B78008230C93C0231093042386
:1020A00012930CA84FF40033159304F053FA08B1BF
:1020B000FFF7C6FE554B5648002400945A6C42F078
:1020C00080625A645A6C02F080620092009A019415
:1020D0001A6B42F020021A631A6B02F0200201927E
:1020E000019A02941A6B42F001021A631A6B02F011
:1020F00001020292029A03941A6B42F002021A63DE
:102100001A6B02F002020392039A04941A6B42F0D3
:1021100040021A631A6B02F040020492049A05947A
:102120001A6B42F004021A631A6B02F00402059261
:10213000059A06941A6B42F008021A631B6B03F0AF
:102140000803069302250E26069B0B964FF4806328
:1021500007A9CDE90735CDE9094503F00DF841F6AA
:1021600058032C480B9607A9CDE907350927CDE977
:10217000094503F001F8032327480B9707A9CDE988
:102180000735CDE9094502F0F7FF4FF470632248A7
:102190000B9607A9CDE90735CDE9094502F0ECFF1B
:1021A0004FF40C631D480B9607A9CDE90735CDE91F
:1021B000094502F0E1FFC02319480B9607A9CDE9B4
:1021C0000735CDE9094502F0D7FF082315480B96DE
:1021D00007A9CDE90735CDE9094502F0CDFF4FF458
:1021E000A0530E480B9707A9CDE90735CDE909455E
:1021F00002F0C2FF58202246052102F073FE58204B
:1022000002F0A2FE19B0F0BD0068014000380240A3
:102210000014024000000240000402400018024086
:1022200000080240000C024010B5044688B0142299
:10223000002103A821F003F82268144B9A4223D10D
:1022400003F56843002101915A6C114842F4801251
:102250005A645A6C02F480120192019A02911A6B2C
:1022600042F020021A631B6B03F020030293029BCF
:102270004FF4607202230321CDE903230523CDE946
:10228000061303A902F078FF08B010BD005001400A
:10229000001402402DE9F04186B0002303932B4B3C
:1022A0001C68002C4FD14FF00108C3F80080284B68
:1022B00000949A6B274842EA08029A639B6B03EAF0
:1022C00008030093022703260C25009B01A94FF663
:1022D0003F03CDE90137CDE9046502F04DFF1E480B
:1022E000059501A9CDE90187CDE9034602F044FF38
:1022F00048F233131948059501A9CDE90137CDE915
:10230000034602F039FF4FF683731548059501A97E
:10231000CDE90137CDE9034602F02EFF4CF20373FD
:102320001048059501A9CDE90137CDE9034602F032
:1023300023FF60230C48059501A9CDE90137CDE9BC
:10234000034602F019FF06B0BDE8F08154250020D5
:102350000038024000140240000802400018024009
:1023600000100240000C02400004024070B588B02A
:1023700000230293204B1A6C42F010021A641B6C6B
:1023800003F010030293054601A903A8029B04F081
:10239000C3F8069B4BBB04F0AFF8184E184B3360E4
:1023A00040F2E733F360174BB0FBF3F3013B73608C
:1023B000304600233361B360B36104F0EBFE0446A2
:1023C00080B9304604F0BCFD044658B9362002F00E
:1023D000BBFD0F2D0DD822462946362002F082FD86
:1023E000094B1D60204608B070BD04F085F8400020
:1023F000D3E70124F6E700BF00380240582500204B
:102400000010004040420F00980000207047FEE797
:10241000FEE7FEE7FEE7704708B5044802F023FC3C
:10242000BDE80840024802F01EBC00BF0C25002099
:10243000C4240020014804F0C1BD00BF582500207D
:10244000014803F001BD00BF80230020014802F0D5
:10245000C5BD00BF7C2400200120704708B520F0D6
:1024600091FF162303604FF0FF3008BD08B520F040
:1024700089FF16230360FEE770B50D4614460E462D
:10248000731B9C4201DC204670BDAFF3008006F850
:10249000010BF5E770B50D4614460E46731B9C42C2
:1024A00001DC204670BD16F8010BAFF30080F5E7A4
:1024B0004FF0FF3070474FF400534B6000207047DF
:1024C00001207047002070470A4A116808B503468A
:1024D00009B9094911601068694603448B4206D95D
:1024E00020F050FF0C2303604FF0FF3008BD136055
:1024F000FCE700BFA025002090420120704710B5E6
:10250000042104461FF057FD204610BD012908B5DF
:1025100006D0022908D059B901F006FD006808BDAF
:1025200001F002FD4068FAE701F0FEFC8068F6E782
:102530000020F4E700487047504D02080220704721
:10254000806A7047704730B5036885B06D46018179
:10255000D3F88430014604462846984795E807009A
:102560003C3484E8070005B030BD30B5036885B061
:102570006D464181D3F88430014604462846984789
:1025800095E807003C3484E8070005B030BD002220
:10259000028042808280C280704780F83610704787
:1025A00070B5036804461B6B154698472368294697
:1025B00020465B6EBDE87040184700207047806C75
:1025C000704770477047704710B5082104461FF0E8
:1025D000F2FC204610BD10B54C2104461FF0EBFC68
:1025E000204610BD10B540F6EC2104461FF0E3FC78
:1025F000204610BD08B5FEF753FF08BD036870B54F
:102600005E6B124B1B6804468DB22BB9104B114AFE
:102610006C21114820F00CFC1049828D09889142F0
:1026200003D80F4B0B4A6D21F3E713F812200D4B23
:102630001B6853F8220003681B6B9847291A33461E
:10264000204609B2BDE87040184700BFA4350120FC
:10265000D0430208124402084D440208A835012064
:1026600094440208AC350120074A02600022C0E908
:102670000122C0E90322C0E90522C0E907224FF484
:1026800080728284704700BF285802082DE9F0410B
:102690001D460368BDF918701B6B04461646984723
:1026A0002368314620465B6B9847236829462046BD
:1026B0009B6B9847236839462046DB6BBDE8F041A9
:1026C0001847000010B50446FFF7CEFF024B236009
:1026D0000023A362204610BD0854020810B526222C
:1026E0000446002120F0ABFD2046FFF7BDFFFF238D
:1026F000044A84F826300023A3622260E362238622
:10270000204610BDF056020800224FF0FF31C0E90C
:1027100000218260704710B50446FFF7F5FF2046A0
:1027200010BD000038B526220446002120F087FDA8
:102730002046FFF799FF0B4B23600B4BA3624FF62C
:10274000FF730025A3854FF47F03C4E90C5325874D
:1027500004F13C00FFF7D8FF044B2360A56420463A
:1027600038BD00BFF8550208804D0208904D0208A0
:102770002DE9F04F0446BBB0FFF7A4FF2246D74B2C
:1027800042F82C3B04F1580610460392FFF79AFFDB
:102790003046FFF7A3FF04F18C0318460493FFF7BC
:1027A000C1FF04F1D80318460593FFF78BFF04F52A
:1027B000827318462393FFF791FF04F59C73184624
:1027C0000693FFF7AFFF04F5C27318460793FFF7B0
:1027D00079FF04F5D87318462493FFF77FFF04F5BB
:1027E000F27318460893FFF79DFF04F50C73184623
:1027F0000993FFF767FF04F5177318462593FFF752
:102800006DFF04F5247318460A93FFF78BFF04F558
:10281000377318460B93FFF755FF04F542731846BC
:102820002693FFF75BFF04F54F7318460C93FFF7F1
:1028300079FF04F5627318460D93FFF743FF04F523
:102840006D7318462793FFF749FF04F57A7318460E
:102850000E93FFF767FF04F2344318460F93FFF718
:1028600031FF04F58C6318462893FFF737FF04F215
:10287000944318461993FFF755FF04F59C631846D7
:102880001093FFF71FFF04F20C5318462993FFF72C
:1028900025FF04F5A86318461A93FFF743FF04F2D7
:1028A0008C5318461193FFF70DFF04F5B7631846D4
:1028B0002A93FFF713FF04F2EC5318461B93FFF71C
:1028C00031FF04F5C76318461293FFF7FBFE04F2CD
:1028D000646318462B93FFF701FF04F5D363184692
:1028E0001C93FFF71FFF04F2E46318461393FFF7EE
:1028F000E9FE04F5E26318462C93FFF7EFFE04F2BD
:10290000447318461D93FFF70DFF04F5F263184654
:102910001493FFF7D7FE04F2BC7318462D93FFF70C
:10292000DDFE04F5FE6318461E93FFF7FBFE04F67A
:102930003C0318461593FFF7C5FE04F668031846D6
:102940002E93FFF7CBFE04F69C0318461F93FFF768
:10295000E9FE04F6E80318461693FFF7B3FE04F603
:10296000141318462F93FFF7B9FE04F648131846C0
:102970002093FFF7D7FE04F6941318461793FFF73A
:10298000A1FE04F51C6318463093FFF7A7FE04F67A
:10299000F41318462193FFF7C5FE04F52463184687
:1029A0001893FFF78FFE04F66C2318463193FFF758
:1029B00095FE04F52A6318463C252293FFF7B2FEE4
:1029C00000224FF0F013A360039800952B461146A8
:1029D000FFF75CFE00222B46114630460095FFF7BC
:1029E00055FE3F4B3F4A0398DFF8FCB04FF0050817
:1029F0004FF00F09C4E920323146A4F8888006F070
:102A00008DFD0498CDF800902B4617220021FFF78A
:102A10003DFED4F88C300499D3F8843000264FF072
:102A20007F4A32A8C4F8BCA0A4F8C060984732A975
:102A300007C937AF04F1C80383E8070012230498DD
:102A4000ADF8E0303946CDF8DCB009F071FFDDE9D2
:102A5000030106F063FD0399204606F05FFD05982B
:102A600000952B4632462946FFF710FE2398009525
:102A70002B4632463146FFF709FE194B194A239976
:102A80000598A4F83481C4E94B3206F047FD069856
:102A9000CDF800902B4617223146FFF7F7FDD4F80A
:102AA00038310699D3F88430C4F868A132A8A4F864
:102AB0006C61984732A907C904F5BA7383E8070027
:102AC0000698CDF8DCB03946ADF8E09009F030FF5B
:102AD000DDE9050106F022FD08E000BF204E0208F6
:102AE00098CCEDFFDAE0E6FF804D0208059920461C
:102AF00006F014FD079800952B4632467821FFF723
:102B0000C5FD249800952B4632463146FFF7BEFDA1
:102B1000CE4BCF4A24990798A4F8E081C4E97632D5
:102B200006F0FCFC0898CDF800902B4617223146A1
:102B3000FFF7ACFDD4F8E4310899D3F88430C4F839
:102B400014A232A8A4F81862984732A907C904F55C
:102B5000087383E807000E230898ADF8E030394683
:102B6000CDF8DCB009F0E4FEDDE9070106F0D6FCA3
:102B70000799204606F0D2FC099800952B4632466C
:102B8000B421FFF783FD259800952B463246314648
:102B9000FFF77CFDAD4BAE4A25990998A4F88C82CD
:102BA000C4E9A13206F0BAFC0A98CDF800902B4691
:102BB00017223146FFF76AFDD4F890320A99D3F80C
:102BC0008430C4F8C0A232A8A4F8C462984732A9DD
:102BD00007C904F5337383E807000D230A98ADF89D
:102BE000E0303946CDF8DCB009F0A2FEDDE909019C
:102BF00006F094FC0999204606F090FC0B9800958D
:102C00002B462A463146FFF741FD269800952B4674
:102C100032463146FFF73AFD8C4B8D4A26990B9888
:102C2000A4F83883C4E9CC3206F078FC0C98CDF8CF
:102C300000902B4617223146FFF728FDD4F83C338D
:102C40000C99D3F88430C4F86CA332A8A4F870634C
:102C5000984732A907C904F55E7383E807000C237F
:102C60000C98ADF8E0303946CDF8DCB009F060FEE4
:102C7000DDE90B0106F052FC0B99204606F04EFCF4
:102C80000D9800952B462A462946FFF7FFFC27980A
:102C900000952B4632463146FFF7F8FC6B4B6C4AE9
:102CA00027990D98A4F8E483C4E9F73206F036FCBE
:102CB0000E98CDF800902B4617223146FFF7E6FC20
:102CC000D4F8E8330E99D3F88430C4F818A432A8A5
:102CD000A4F81C64984732A907C904F2244383E886
:102CE00007000B230E98ADF8E0303946CDF8DCB084
:102CF00009F01EFEDDE90D0106F010FC0D992046DD
:102D000006F00CFC0F9800952B462A467821FFF719
:102D1000BDFC289800952B4632463146FFF7B6FC9D
:102D20004A4B4B4A28990F98C4F88834C4F88C242D
:102D3000A4F8908406F0F2FB2B4631461998CDF8A2
:102D400000901722FFF7A2FCC4F8C4A4A4F8C8643A
:102D50003846FFF7D9FC97E8070004F59A6383E843
:102D600007000A231998ADF8E0303946CDF8DCB0F9
:102D700009F0DEFD19990F9806F0D0FB0F99204657
:102D800006F0CCFB109800952B462A46B421FFF79D
:102D90007DFC299800952B4632463146FFF776FC9C
:102DA0002A4B2B4A29991098C4F83435C4F8382591
:102DB000A4F83C8506F0B2FB2B4631461A98CDF8B4
:102DC00000901722FFF762FCC4F870A5A4F87465A0
:102DD0003846FFF799FC97E8070004F27C5383E834
:102DE000070009231A98ADF8E0303946CDF8DCB079
:102DF00009F09EFD1A99109806F090FB1099204654
:102E000006F08CFB119800952B4631467822FFF78F
:102E10003DFC2A9800952B4632463146FFF736FC9A
:102E20000A4B0B4A2A991198C4F8E035C4F8E425F6
:102E3000A4F8E88506F072FB2B4631461B98CDF8C6
:102E400000901722FFF722FC04E000BF98CCEDFFB2
:102E5000DAE0E6FFC4F81CA6A4F820663846FFF7BF
:102E600053FC97E8070004F5C56383E807000823CF
:102E70001B98ADF8E0303946CDF8DCB009F058FDCC
:102E80001B99119806F04AFB1199204606F046FB63
:102E9000129800952B4629467822FFF7F7FB2B98CE
:102EA00000952B4632463146FFF7F0FBD34BD44A10
:102EB0002B991298C4F88C36C4F89026A4F89486FE
:102EC00006F02CFB2B4631461C98CDF800901722BB
:102ED000FFF7DCFBC4F8C8A6A4F8CC663846FFF7B9
:102EE00013FC97E8070004F2D46383E80700072384
:102EF0001C98ADF8E0303946CDF8DCB009F018FD8B
:102F00001C99129806F00AFB1299204606F006FB5F
:102F10007822139800952B461146FFF7B7FB2C98A3
:102F200000952B4632463146FFF7B0FBB34BB44A0F
:102F30002C991398C4F83837C4F83C27A4F8408774
:102F400006F0ECFA2B4631461D98CDF8009017227A
:102F5000FFF79CFBC4F874A7A4F878673846FFF71E
:102F6000D3FB97E8070004F5F06383E80700062326
:102F70001D98ADF8E0303946CDF8DCB009F0D8FC4A
:102F80001D99139806F0CAFA1399204606F0C6FA5E
:102F9000149800952B467822B421FFF777FB2D98E3
:102FA00000952B4632463146FFF770FB934B944A0F
:102FB0002D991498C4F8E437C4F8E827A4F8EC87EE
:102FC00006F0ACFA2B4631461E98CDF80090172239
:102FD000FFF75CFBC4F820A8A4F824683846FFF784
:102FE00093FB97E8070004F62C0383E807001E987C
:102FF000CDF8DCB03946ADF8E08009F099FC1E99B7
:10300000149806F08BFA1499204606F087FA159862
:1030100000952B463146B422FFF738FB2E980095D9
:103020002B4632463146FFF731FB744B744A2E99DA
:103030001598C4F89038C4F89428A4F8988806F035
:103040006DFA2B4631461F98CDF800901722FFF7F6
:103050001DFBC4F8CCA8A4F8D0683846FFF754FB91
:1030600097E8070004F6D80383E8070004231F98B5
:10307000ADF8E0303946CDF8DCB009F059FC1F99C5
:10308000159806F04BFA1599204606F047FA16985F
:1030900000952B462946B422FFF7F8FA2F980095A1
:1030A0002B4632463146FFF7F1FA544B544A2F99DA
:1030B0001698C4F83C39C4F84029A4F8448906F0AD
:1030C0002DFA2B4631462098CDF800901722FFF7B5
:1030D000DDFAC4F878A9A4F87C693846FFF714FB38
:1030E00097E8070004F6841383E807000323209879
:1030F000ADF8E0303946CDF8DCB009F019FC209984
:10310000169806F00BFA1699204606F007FA17985B
:1031100000952B46B4227821FFF7B8FA3098009535
:103120002B4632463146FFF7B1FA344B344A3099D8
:103130001798C4F8E839C4F8EC29A4F8F08906F027
:10314000EDF92B4631462198CDF800901722FFF774
:103150009DFAC4F824AAA4F8286A3846FFF7D4FADE
:1031600097E8070004F5236383E80700022321980A
:10317000ADF8E0303946CDF8DCB009F0D9FB219943
:10318000179806F0CBF91799204606F0C7F9B42234
:10319000189800952B461146FFF778FA319800955C
:1031A0002B4632463146FFF771FA144B144A3199D7
:1031B0001898C4F8943AC4F8982AA4F89C8A06F09F
:1031C000ADF92B4631462298CDF800901722FFF733
:1031D0005DFAC4F8D0AAA4F8D46A3846FFF794FA86
:1031E00097E8070004F6DC2383E807000123229810
:1031F000ADF8E0303946CDF8DCB003E098CCEDFF17
:10320000DAE0E6FF09F094FB2299189806F086F9B7
:103210002046189906F082F920463BB0BDE8F08FB1
:1032200013B5002451B1036801948DF8034001AA3D
:103230009C680DF10303A04702B010BD0846FBE7F0
:10324000C0897047008A7047C0887047808870477F
:10325000807A00F07F007047807AC00970470020B4
:10326000704700009FED010A704700BF000000009A
:103270007047704700F598730868496803C3704742
:10328000704770474160704770477047064BC0F801
:103290004C310023C0F8503100F5A273C0F848014A
:1032A000C0F84031704700BF4D330008012303725E
:1032B0007047704710B4C26841685410034601EB70
:1032C0006200D20748BF0A599B685DF8044B48BFAB
:1032D000D35818470346406830B19A681AB9D8687D
:1032E00000F0010070470120704710B50C21044622
:1032F0001EF061FE204610BD10B5102104461EF0E0
:103300005AFE204610BD10B54FF4AE7104461EF0B3
:1033100052FE204610BD10B50CF062F80368BDE8FF
:103320001040DB6B184710B50446D0F8400158B187
:103330000368DB68984738B1D4F8400103689B689C
:1033400098470023C4F8403110BD00002DE9F14F2B
:10335000D0E9556A0746B06803681B6A9847B0F51C
:103360005D6F05D2444B454AA32145481FF060FDDF
:10337000706803681B6A98470F2803D8414B3F4A7F
:10338000A421F2E7F06803681B6A98470B2803D86A
:103390003D4B3A4AA521E8E70CF022F8DFF8F0901F
:1033A00004300CF042F8D9F8000010B10368DB6873
:1033B0009847D9F8000010B103681B689847DFF8F8
:1033C000D480D8F8000010B103685B699847D7F83B
:1033D0003C0110B103685B689847D8F8000010B151
:1033E00003681B689847D7F83C0110B103689B68D5
:1033F0009847F068036800215B6A98474FF0000B1C
:10340000224BC0F804B0044680F808B00360B068EE
:10341000036859465B6A9847054600F0F1FF7068FB
:10342000036859465B6A98472946064600F0C6FF7E
:10343000331DC7F83C61C9F80040C8F80050CAF80D
:1034400000302B68C6F808A02846DB68EE63984772
:10345000336830461B689847214628460EF070F9BD
:10346000236820461B69984723685B69204601B0A2
:10347000BDE8F04F184700BFD2440208604502087B
:1034800032460208794602081C470208204F02080B
:103490009435012090350120044B1B6893F8582087
:1034A0000AB1D86C00B99868704700BF4C3501204C
:1034B000F8B5174604460E460CF054F8124B1C6043
:1034C000124B2360124B0025C4E95135114BC4E95E
:1034D00053551868036801219B68C4E94F55C4E936
:1034E00055769847284600F0D3FCFFF7D5FF16F035
:1034F0007EFCFFF7D1FF16F0F5FCFFF7CDFF16F0CD
:10350000FDFC2046F8BD00BFA0350120CC4E0208CE
:10351000B44E02084C350120064BC0F84C31002354
:10352000C0F8503100F5A273C0F84801C0F840312E
:10353000704700BF4D330008406A7047806A70478B
:1035400070478A880B8810B5D20A4C88C1699BB233
:1035500051F8220043EA0443184410BD10B5044654
:10356000BAB1107B68B1537BD27A1B0203F4E063DB
:103570001A43236A03EB82031A888A4202D193F921
:10358000020010BD05D8013880B204330028F3D101
:10359000F7E70020F5E710B52C2104461EF00BFDDF
:1035A000204610BD30B58BB00446BDF8605008957C
:1035B000BDF85C5007959DF8505006959DF84C500D
:1035C00005959DF8485004959DF8445003959DF845
:1035D000405002959DF83C500195BDF8385000953B
:1035E0000DF008FD064B2360159BE361169B2362DB
:1035F000199B63621A9BA36220460BB030BD00BFCB
:10360000444F0208704770477047704770477047D3
:1036100030B4C26844685510034604EB6200D20718
:1036200048BF62599B6830BC48BFD358184703460F
:10363000406830B19A681AB9D86800F00100704744
:103640000120704790F82D3080F89A3080F85C3077
:10365000704790F82D3080F85C30704710B56421C9
:1036600004461EF0A8FC204610BD10B5B421044647
:103670001EF0A1FC204610BD10B5102104461EF01E
:103680009AFC204610BD10B54FF41D7104461EF083
:1036900092FC204610BD0146343091F82C3013B115
:1036A000623109F0A1BA6031FBE708B590F82C301F
:1036B0003BB100F1B0031B68C0F89430FFF7EBFF9B
:1036C00008BD00F1AC03F6E710B50446006B50B13D
:1036D0000368DB68984730B1206B036821469B681C
:1036E000BDE81040184710BD00F1B0028A4203D176
:1036F0000368D3F88C30184770470B7970B590F891
:103700002C6004460D460BB916B170BD002EFCD0DE
:10371000B3FA83F35B0984F82C3023682046D3F88E
:103720008C309847236820465B699847002EECD080
:103730002B79012BE9D123682046D3F88830BDE8E6
:103740007040184770B5036804461B6B15469847D0
:103750002368294620465B6BBDE87040184770B56A
:10376000036804469B6B1546984723682946204604
:10377000DB6BBDE8704018470B8870B5A0F860306F
:103780000546138825F8623F044628460FF094FB4F
:10379000064628460FF0C4FB314602462046FFF796
:1037A000DEFF23682046D3F88C30BDE87040184710
:1037B00010B52622044600211FF041FD2046FEF7E9
:1037C00053FF044B2360FF2384F826300023A362B9
:1037D000204610BD8856020810B526220446002156
:1037E0001FF02DFD2046FEF73FFF0A4B23600A4BDA
:1037F000A3624FF6FF73A3854FF47F020023C4E951
:103800000C3223874FF0FF32C4E91023E3632046D4
:1038100010BD00BFF8550208804D020838B50446B7
:1038200000F16405284609F083F8B4F90A20B4F9D8
:1038300008102846FFF793FF38BD0000F7B504468F
:10384000FEF712FF4FF47F432546A3850123002690
:1038500084F82430164BA662266345F8343B4FF6B5
:10386000FF77262231462846ADF804701FF0E7FCAA
:103870002846FEF7F9FE0F4B6363BDF80430A4F849
:103880005A3001A9284684F85C7009F0ADF9324637
:1038900031462846A4F86070A4F86270FFF752FF22
:1038A0002046294605F03AFE204603B0F0BD00BF91
:1038B000AC4F02085857020838B504462546FFF7B2
:1038C000BDFF074B45F8643B2846FFF785FF002303
:1038D0002046C4E92B33294605F020FE204638BD9A
:1038E0004C5002082DE9F04F04468DB0A04600254B
:1038F000FEF7BAFE7E4BA56248F82C3B04F1580A4D
:103900004046FFF755FF04F18409504604F1B00723
:10391000FFF74EFF484604F5B276FFF749FF3846F9
:10392000FFF7CAFF3046FFF7C7FF04F506731846D6
:103930000393FFF751FF6F4BC4F818326E4BDFF85B
:10394000CCB1C4F86052C4E999346C4BC4E99B35DE
:103950006B4BA3604FF4A0732A4600932946F023D3
:103960004046FEF793FEC4F854B04146204605F0A9
:10397000D5FD322300934FF4877229465046F02339
:10398000FEF784FE5F4BC4F880305146204605F0B8
:10399000C5FD142300930222F02329464846FEF772
:1039A00075FEC4F8ACB04946204605F0B7FD4FF0AF
:1039B000010B0AAA09A93846ADF82450ADF828B081
:1039C000FFF7DAFE2A46294604F1E400FFF7BAFEC3
:1039D0004FF02408DFF83891CDF828904FF011030C
:1039E0000AA93846ADF82C30FFF718FF29460A22FD
:1039F00004F58A70CDF800806423FEF747FE424B41
:103A00004FF07F4AC4E9573A3846FFF74EFE04F5B7
:103A10001973C4F8E03040F2151264233846CDF82B
:103A200000808221FEF732FE3946204605F076FD01
:103A30000AAA0DEB08013046ADF82450ADF828B0C5
:103A4000FFF79AFE2A46294604F5CC70FFF77AFE66
:103A500010230AA93046ADF82C30CDF82890FFF796
:103A6000DDFE29460A2204F5E470CDF800806423C7
:103A7000FEF70CFE244B3046C4E9843AFFF715FEEE
:103A8000642340F215123046CDF800800B21FEF77A
:103A9000FDFD3146204605F041FD112303980093BA
:103AA000052268234421FEF7F1FDD4F8183203996A
:103AB000D3F88430C4F848A204AE3046A4F84C527F
:103AC000984796E8070004F5157383E80700039804
:103AD000CDF828900AA9ADF82C5008F029FF20460F
:103AE000039905F01BFD20460DB0BDE8F08F00BF27
:103AF00004510208904D0208EC500208E936000813
:103B0000F000400170630BFF393947FFDAE0E6FF50
:103B1000804D020870477047704770477047704784
:103B20000368DB6A184710B504466C3000F032FCBD
:103B300004F53970BDE8104000F0C8BB094B10B562
:103B40000360094BC0F8E432044600F53970FEF713
:103B500039FD2046054B40F86C3FFFF757FD2046E6
:103B600010BD00BF9C510208D4510208BC5202088B
:103B700010B50446FFF7E2FF20464FF45D611EF0EA
:103B80001AFA204610BD00002DE9F84304460DF056
:103B90002BFC264B2360264B0025C4E910354FF43F
:103BA000807304F16C09A4F86430FF2384F8663054
:103BB00004F53978C4E91255C4E91455C4E9165519
:103BC000E5632566A566484600F0C4FB04F140069F
:103BD000404600F0D9F92A4629463046FFF7B2FDA3
:103BE0003046F021FDF7A6FB30464FF4A071FDF7FB
:103BF000A3FB271D4FF07F43A3663146384605F0EF
:103C00008DFC2A4629464846FFF79CFD4946384622
:103C100005F084FC162229464046FFF793FD3846FE
:103C2000414605F07BFC2046BDE8F8839C51020824
:103C3000885602087047000030B5164D2C6814F005
:103C400001048FB0BFF35B8F21D128461EF0B5F978
:103C5000E8B13F230993104B0893104B10491148CA
:103C60000A94CDE9064301220423CDE903320A2355
:103C700000930B22CDE90B44CDE901440594FFF7F5
:103C800091FC09481FF0F2F828461EF0A2F90548F9
:103C90000FB030BDA42500200C750208187502086D
:103CA00058720208A8250020353C00087047000023
:103CB00030B5174D2C6814F001048FB0BFF35B8F43
:103CC00022D128461EF079F9F0B13F230993114B18
:103CD0000893114B07930123CDE905430493042373
:103CE000CDE902430C230D4900931B220F23CDE99C
:103CF0000B440B480A940194FFF754FC09481FF049
:103D0000B5F828461EF065F905480FB030BD00BF74
:103D1000D4250020107502081C750208F4720208F0
:103D2000D8250020AD3C00087047000030B5174D85
:103D30002C6814F001048FB0BFF35B8F22D12846AA
:103D40001EF03BF9F0B13F230993114B0893114B3F
:103D5000114912480A94CDE9064301220423CDE912
:103D60000332282300930B222923CDE90B44CDE90C
:103D700001440594FFF716FC09481FF077F8284620
:103D80001EF027F905480FB030BD00BF0426002003
:103D900014750208207502087074020808260020B5
:103DA000293D000800207047002070470EB403B57D
:103DB00003AB002153F8042B01930CF099FB02B0E4
:103DC0005DF804EB03B070470CB407B504AB53F8CF
:103DD000042B01930CF08CFB03B05DF804EB02B0F4
:103DE00070470000436C10B5044673B3038F2BB9C2
:103DF000184B194AC52119481FF01AF8C38E00EB59
:103E000043035B8C0BB30EF0F4F9238F012B03D823
:103E1000134B144ACB21EEE7E28E531C9BB2092BC5
:103E2000194688BFA3F10A0104EB410140F63F1097
:103E3000498C814209D10A2B04EB420228BF00239E
:103E400004EB4303508C588451842046BDE8104055
:103E50000EF0D2B8BF470208C847020873480208EC
:103E6000BD480208CB4802080EF08DB810B586B0E8
:103E700002AC84E806001A460AAB05930193099B3D
:103E800000932146089B0AF049FE06B010BD0000D1
:103E900038B518BB124B13481C681349B4B12268DB
:103EA00022440260626822440A60A26814440F4BF4
:103EB00000221A8000F038F8054600F033F80C4B69
:103EC0001C600C4B1D600C4B188007E00B4B036013
:103ED0000B4B0B600B4B1C68002CE8D138BD00BFAE
:103EE0004026002038260020342600203C260020D2
:103EF000A4350120AC350120A835012070750208D9
:103F0000247502089C750208044B1B6853F82100B5
:103F1000034B1B6803EB4000704700BF34260020B2
:103F200038260020132070470048704744260020A0
:103F300010B5FFF7BDFE044C2060FFF7F7FE606090
:103F4000FFF77AFEA06010BD4426002010B50024C3
:103F500004600C6014601C6010BD000010B5034BC1
:103F600003600446FEF72EFB204610BDD451020824
:103F700010B50446FFF7F2FF204640F6EC211EF094
:103F80001AF8204610BD000010B50446FEF7F0FBFD
:103F9000034B2360034B0222DA605A60204610BDB7
:103FA000D451020890270020054B06491A6843F2B5
:103FB000390001FB02001860C0F30E40704700BFDB
:103FC0002C0000206D4EC641024B02EB810253F8DB
:103FD00022007047902700202DE9F0411E4A00245E
:103FE000A0B00646254617461146002351F8040B9B
:103FF00038B920A800EB8500013540F8804C40F826
:10400000403C0133042BF1D10134042C02F11002A5
:10401000EAD1002D1CDD3046FFF7C6FF20AAB0FB19
:10402000F5F303FB150302EB8303304653F8808C52
:1040300053F8405CFFF7B8FF0A23B0FBF3F202FB32
:104040001300002805EB880518BF022447F8254017
:1040500020B0BDE8F08100BF902700202D4A2DE957
:10406000F0410024154620461646A046AE461035BF
:104070002F46032357F8041D013B61B919465EF82A
:1040800021C0BCF1000F3ED001EB8401C7F800C095
:1040900046F821800120002BECD10134042CE5D11D
:1040A0001F4602F10C0C9E460CEB07040321256809
:1040B00054F8048D454504D11DB16D00C4E900E5F7
:1040C00001200139F3D11037402FEDD10C4696462F
:1040D00010321746032557F8041D013D61B92946E2
:1040E0005EF821C0BCF1000F10D001EB8301C7F8CE
:1040F00000C046F821400120002DECD10133042BF3
:10410000E5D1BDE8F0810139B9D2C4E70139E7D280
:10411000F2E700BF9027002030B50C4900220B4683
:10412000042053F8044B7CB1032A02D0DD68AC4272
:104130000AD0013805D10132042A01F11001EED173
:1041400030BD1D68AC42ECD10120F9E7902700207A
:104150000022084B104619680844596808449968B9
:1041600001320844D968042A084403F11003F2D14B
:10417000704700BF9027002002EB81020F2A37D83A
:10418000DFE802F0080A0C0F1215181B1E21242765
:104190002A2D30332C307047D830704700F5C2706C
:1041A000704700F50C70704700F53770704700F5E8
:1041B0006270704700F23440704700F59C607047B1
:1041C00000F28C50704700F5C760704700F2E46061
:1041D000704700F5F260704700F63C00704700F64B
:1041E000E800704700F69410704700F524607047AF
:1041F0000020704702EB81020F2A38D8DFE802F076
:10420000080A0D101316191C1F2225282B2E3134D5
:104210008C30704700F59C70704700F5F270704765
:1042200000F52470704700F54F70704700F57A7004
:10423000704700F29440704700F5A860704700F2A4
:10424000EC50704700F5D360704700F2447070473F
:1042500000F5FE60704700F69C00704700F64810BD
:10426000704700F6F410704700F52A607047002090
:10427000704700002DE9F041054614461E46FFF741
:104280007BFF07461EB980F82560BDE8F081224615
:104290002846FFF7AFFF0B4A012387F8253004EBD0
:1042A00081041423054603FB042420463346064AB2
:1042B0000A210EF047FD2B68AC6428465B69BDE817
:1042C000F0411847502600209D49020808B5FEF726
:1042D0007AF900F003FC014B186008BD2C000020A7
:1042E000704710B54FF4AE7104461DF064FE2046D1
:1042F00010BD10B50446D0F8580100F050F8204623
:10430000BDE810400BF0EEB810B50446FFF7D0F84A
:10431000014B2360204610BD68520208D0F8743269
:1043200003B118477047000010B5034B0360044603
:10433000FFF76CF9204610BDBC52020810B50446C8
:10434000FFF7F2FF20464FF41E711DF034FE2046A9
:1043500010BD000010B50446FFF7C4FA014B2360FE
:10436000204610BDBC52020838B5084D084A044624
:104370000B46284606210EF0E5FCC4F8605204F511
:104380000670BDE838400CF0DDB900BFD027002032
:104390009D490208FFF73BB9002202607047704751
:1043A000704704387047704710B5102104461DF05F
:1043B00002FE204610BDA0F10400F5E70022826055
:1043C000024A026018324260C160704754530208CA
:1043D0007047000010B5034B03600446FFF7AEFBC7
:1043E000204610BD7C53020810B50446FFF7F2FFCB
:1043F00020464FF45D611DF0DEFD204610BD00003B
:1044000010B50446FFF7C0FB024B2360024B204669
:104410001C6010BD7C530208E0270020F8B500F5B1
:10442000397407462046FFF719FEE8B12046FFF72A
:10443000D3FD002600252A4631462046FFF7C4FD5D
:104440002A460346314620460135FFF713FF042D67
:10445000F1D10136042EEDD12046FFF779FE014659
:1044600007F16C00FFF780FF2046BDE8F840FFF73A
:1044700053BE000038B5074D2B680322013393FB70
:10448000F2F202EB42029C1A2B6002D1FFF7C6FF48
:104490002C6038BDDC270020F8B50446FFF743FB4D
:1044A000002604F5397700252A4631463846FFF7BD
:1044B0008BFD2A460346314638460135FFF7DAFEC2
:1044C000042DF1D10136042EEDD1002104F16C0050
:1044D000FFF74AFF014BC4F8E032F8BD2145000860
:1044E00070B504464FF400616C3004F53974FFF781
:1044F0003BFF2046FFF7EAFE002600252A4631460C
:104500002046FFF761FD2A46034631462046013525
:10451000FFF7B0FE042DF1D10136042EEDD170BDB0
:10452000024B186808B1FFF7DBBF7047E027002097
:10453000FFF7F6BAF02070474FF4A07070472920BB
:10454000FDF724BC2820FDF721BC08B5FDF7F2FBE0
:10455000CA20FDF71BFCC320FDF7FCFB0820FDF77C
:10456000F9FB5020FDF7F6FBCF20FDF70FFC0020F4
:10457000FDF7F0FBC120FDF7EDFB3020FDF7EAFB76
:10458000ED20FDF703FC6420FDF7E4FB0320FDF7BD
:10459000E1FB1220FDF7DEFB8120FDF7DBFBE820CD
:1045A000FDF7F4FB8520FDF7D5FB0020FDF7D2FBDE
:1045B0007820FDF7CFFBCB20FDF7E8FB3920FDF796
:1045C000C9FB2C20FDF7C6FB0020FDF7C3FB342000
:1045D000FDF7C0FB0220FDF7BDFBF720FDF7D6FB82
:1045E0002020FDF7B7FBEA20FDF7D0FB0020FDF708
:1045F000B1FB0020FDF7AEFBB120FDF7C7FB0020AB
:10460000FDF7A8FB1B20FDF7A5FBB620FDF7BEFBC1
:104610000A20FDF79FFBA220FDF79CFBC020FDF7C1
:10462000B5FB1020FDF796FBC120FDF7AFFB102076
:10463000FDF790FBC520FDF7A9FB4520FDF78AFBA0
:104640001520FDF787FBC720FDF7A0FB9020FDF7A5
:1046500081FB3620FDF79AFBC820FDF77BFBF2209B
:10466000FDF794FB0020FDF775FBB020FDF78EFBF6
:10467000C220FDF76FFBB620FDF788FB0A20FDF78F
:1046800069FBA720FDF766FB2720FDF763FB0420ED
:10469000FDF760FB2A20FDF779FB0020FDF75AFBB0
:1046A0000020FDF757FB0020FDF754FBEF20FDF73E
:1046B00051FB2B20FDF76AFB0020FDF74BFB002090
:1046C000FDF748FB0120FDF745FB3F20FDF742FBCE
:1046D000F620FDF75BFB0120FDF73CFB0020FDF71A
:1046E00039FB0620FDF736FB2C20FDF74FFBC820D9
:1046F000FDF79AFB2620FDF749FB0120FDF72AFB79
:10470000E020FDF743FB0F20FDF724FB2920FDF7F8
:1047100021FB2420FDF71EFB0C20FDF71BFB0E20C8
:10472000FDF718FB0920FDF715FB4E20FDF712FBE6
:104730007820FDF70FFB3C20FDF70CFB0920FDF76F
:1047400009FB1320FDF706FB0520FDF703FB1720EF
:10475000FDF700FB1120FDF7FDFA0020FDF7FAFA46
:10476000E120FDF713FB0020FDF7F4FA1620FDF71A
:10477000F1FA1B20FDF7EEFA0420FDF7EBFA112009
:10478000FDF7E8FA0720FDF7E5FA3120FDF7E2FA38
:104790003320FDF7DFFA4220FDF7DCFA0520FDF7B4
:1047A000D9FA0C20FDF7D6FA0A20FDF7D3FA282013
:1047B000FDF7D0FA2F20FDF7CDFA0F20FDF7CAFA4A
:1047C0001120FDF7E3FAC820FDF72EFB2920FDF7A5
:1047D000DDFABDE808402C20FDF7D8BA08B5FDF792
:1047E000A9FA0321D320FDF7EDFA80B208BD10B578
:1047F000C4B2022203212046FDF752FA0A20FDF737
:1048000097FA204600220321FDF74AFABDE810403E
:104810000220FDF78DBA38B50446E4B2FDF73EFA42
:1048200000212046FDF754FA012105462046FDF7F8
:104830004FFA40EA052080B238BD10B5C4B240211D
:104840002046FDF745FA030607D54C212046FDF723
:104850003FFA003818BF012010BD01224B2120462D
:10486000FDF71EFA204600224B21FDF719FA002021
:10487000F2E773B50423C4B20E461546D7210DEBFB
:1048800003022046FDF73EFA019B1BBA1A0DC3F343
:104890000B23328020462B8001224B21FDF700FAAA
:1048A00000224B212046FDF7FBF902B070BD00004D
:1048B00010B50A4A1378984204460DD051788842C0
:1048C0000AD00BB141B90123D454FDF7E7F92046D2
:1048D000BDE81040FFF78BBF10BD00BFE4270020EC
:1048E00010B5C4B209212046FDF7F2F940F00102EB
:1048F000D2B220460921BDE81040FDF7D1B910B56C
:10490000C4B209212046FDF7E3F9092100F0FE02B7
:104910002046BDE81040FDF7C3B938B5C4B20D4616
:1049200020460A21FDF7D4F940EA0502D2B220461A
:104930000A21BDE83840FDF7B3B910B50446FDF7CC
:10494000AEF920461F21FFF7E8FF2046BDE81040E2
:10495000FFF7C6BF38B5C4B20D4620460A21FDF7A1
:10496000B7F920EA0502D2B220460A21BDE8384054
:10497000FDF796B910B50446FFF7C1FF20461F2189
:10498000BDE81040FFF7E6BF10B5C0B20C460B21E2
:10499000FDF79EF9204010BD1F21FFF7F5BF0A4625
:1049A000C0B20B21FDF77CB91F21FFF7F8BF38B566
:1049B000C4B20D4620461721FDF78AF920EA050208
:1049C000D2B220461721BDE83840FDF769B970B56D
:1049D000C4B2064604212046FDF77AF9042100F00E
:1049E000FB0205462046FDF75BF93046F021FFF754
:1049F000DEFF05F0F80220460421FDF751F94922B7
:104A000020212046FDF74CF90220FDF791F92046C0
:104A100001222121FDF744F920469A224121FDF788
:104A20003FF9204601224A21FDF73AF920460122AA
:104A30004B21FDF735F9204600224B21FDF730F9D7
:104A4000204601225621FDF72BF92046012258214C
:104A5000FDF726F9204601224021FDF721F92046E5
:104A6000FF220B21FDF71CF9BDE870400220FDF785
:104A70005FB90000054BD3F8882042F47002C3F8F8
:104A800088204FF000629A60704700BF00ED00E0A0
:104A900008B50B4B1A6842F400721A601A6842F4A7
:104AA00080621A601A6842F480721A60032000F073
:104AB00007FA0020FDF75AFCFDF7C4F9002008BDF5
:104AC000003C0240034A044B11681B780B441360FE
:104AD000704700BFE827002094000020014B1868B1
:104AE000704700BFE827002038B50446FFF7F6FFFF
:104AF000631C1CBF054B1B78054618BFE418FFF765
:104B0000EDFF431BA342FAD338BD00BF9400002041
:104B100038B50446002800F09B80056C25B9FDF7E8
:104B2000B1F9656484F83C50236CDB0600F18E809B
:104B3000236C23F4885323F0020343F0020323641D
:104B4000444B5A6822F440325A605A6861680A43FA
:104B50005A60236821695A6822F480725A605A6840
:104B600042EA01225A605A68A16822F040725A60F3
:104B70005A680A435A609A68E16822F400629A60AF
:104B80009A680A439A603449A26A8A4252D0996864
:104B900021F07061996099680A439A609A68E16AA5
:104BA00022F040529A609A680A439A609A6822F00A
:104BB00002029A609A68217E42EA41029A6094F861
:104BC0002020002A3ED05A68616A42F400625A608E
:104BD0005A6822F460425A605A68013942EA413206
:104BE0005A60DA6AE16922F47002DA62DA6A01393B
:104BF00042EA0152DA629A6822F400729A609A6874
:104C000094F8301042EA41229A609A68616922F46D
:104C100080629A609A68002042EA81229A60606409
:104C2000236C23F0030343F001032364002384F87F
:104C30003C3038BD9A6822F070629A609A6822F01F
:104C40004052B2E75A6822F40062C9E70120EDE75A
:104C50000120EEE7002301400100000F0368D86C3B
:104C6000704770477047036870B51E685D68B2078B
:104C700004462BD5A80629D5226CD1065EBF226C2E
:104C800042F4007222649A6812F0405F17D1227ECB
:104C9000AAB9DA6A12F4700F02D09A6852050ED4DB
:104CA0005A6822F020025A60236C23F48073236434
:104CB000236CD8045EBF236C43F0010323642046B9
:104CC000FCF7FCFC23686FF012021A60710733D501
:104CD0002A0631D5236CDB065EBF236C43F40053F8
:104CE000236423689A6812F4401F1ED19A6B12F451
:104CF000401F02D09A68500517D45A68510514D441
:104D00009A6812F0405F10D1227E72B95A6822F080
:104D100080025A60236C23F480532364236CDA05E9
:104D20005EBF236C43F001032364204600F0C6F805
:104D300023686FF00C021A60F30710D568060ED5D1
:104D400023681B68D9070AD5236C43F48033236496
:104D50002046FFF786FF23686FF001021A60B20653
:104D60000ED56B010CD5636C43F0020363642368BA
:104D70006FF020051D602046FFF774FF23681D605B
:104D800070BD0000F7B50023019390F83C30012B73
:104D9000054600F08680012380F83C3008682B68C7
:104DA0008E68092884B233D904EB4402DF681E3AC6
:104DB0004FF0070C0CFA02FC27EA0C07DF60DF68F3
:104DC00006FA02F23A43DA604968062901EB8102E9
:104DD0002DD8596B053A1F26964021EA06015963E2
:104DE000596B04FA02F20A435A632F4A93420AD1DA
:104DF000122837D12D4B5A6822F400025A605A68A3
:104E000042F480025A60002085F83C0003B0F0BDF7
:104E10001A6900EB400C072707FA0CF722EA070291
:104E20001A611A6906FA0CF616431E61CCE70C29C2
:104E30004FF01F010BD81E6B233A914026EA010167
:104E40001963196B04FA02F20A431A63CDE7DE6AAA
:104E5000413A914026EA0101D962D96A94400C4353
:104E6000DC62C2E7124B984201D01128CBD10F4B24
:104E70005A6822F480025A605A6842F400025A606A
:104E80000B4B9842BFD10B4B0B4A1B68B3FBF2F3A1
:104E90000A2253430193019B002BB4D0019B013B99
:104EA000F8E70220B2E700BF0020014000230140E4
:104EB000120000109000002040420F0070470000D8
:104EC0000749CA6822F4E0620302120403F4E063B3
:104ED000120C134343F0BF6343F40033CB607047BD
:104EE00000ED00E0164B30B5DC68C4F30224C4F1D9
:104EF0000703251D042B28BF0423062D4FF0FF3583
:104F00008CBF033C002405FA03F321EA0303A54008
:104F100022EA0502A340002843EA0203ACBF00F1E5
:104F20006040084A4FEA0313B8BF00F00F00DBB23D
:104F3000AABF00F56140135480F8003330BD00BFB4
:104F400000ED00E014ED00E0002807DB044A410911
:104F5000012300F01F00834042F82130704700BF5A
:104F600000E100E010B5044650B1437903F0FF02C0
:104F700013B90271FCF7E6FF01236371002010BD35
:104F80000120FCE710B5044620B390F8393003F057
:104F9000FF021BB980F83820FCF7ECFF022384F8ED
:104FA0003930236861681A6822F440320A431A6073
:104FB0005A6BA16822F007020A435A631A6CE1682F
:104FC0006FF30D020A431A6400200123E06384F8A2
:104FD000393010BD0120FCE770477047036870B599
:104FE0005E681D68F207044614D5E90512D51A68F3
:104FF00022F480721A60C26B42F00102C263012285
:105000009A60042380F83930002380F838304369EF
:1050100003B19847B20616D5AB0414D523681A68B5
:1050200022F400521A6020229A60E36B43F00203DC
:10503000E363042384F83930002384F8383063694B
:105040000BB120469847300716D5290514D523689B
:105050001A6822F400621A6008229A60E36B43F037
:105060000403E363042384F83930002384F83830E0
:1050700063690BB12046984772070BD56B0509D5BC
:1050800023681A6822F480621A6004229A6020461B
:10509000FFF7A2FFB00714D5A90512D523681A6837
:1050A00022F400721A6002229A60E36BE363012328
:1050B00084F83930002384F8383023690BB1204656
:1050C0009847F20613D5EB0411D523681A6822F429
:1050D00080521A6010229A60E36BE363012384F824
:1050E0003930002384F838302046FFF776FF70BD52
:1050F000F0B590F83820012A03464FF002002BD07B
:10510000012283F8382083F8390003EB0112D2E939
:105110000740556A174F44EA0040093C012C9CBFE8
:1051200005F07F4210434FEA01161A6888BF40EA33
:10513000056091B9516A394001435162012C996966
:10514000916103D8596A21F07F41916201220020C8
:1051500083F8392083F83800F0BDD1693940014324
:10516000D1619919012C896911619CBF25F07F4596
:105170001562EBE7F0FFFC002DE9F74FDFF8BC917B
:105180006C4A00230D6801249C4004EA0506AC43E8
:1051900040F0B7804D68032705F003044FEA430849
:1051A00007FA08FC671E012F6FEA0C0C34D88768D9
:1051B00007EA0C0ECF6807FA08F747EA0E07876080
:1051C000476827EA060EC5F300179F4047EA0E0717
:1051D0004760C76807EA0C0E8F6807FA08F747EAC6
:1051E0000E07022CC76019D14FEAD30A00EB8A0AD6
:1051F00003F0070BDAF820704FEA8B0B4FF00F0E1D
:105200000EFA0BFE27EA0E0E0F6907FA0BF747EAB4
:105210000E07CAF8207001E0032CDAD1076804FAFF
:1052200008F407EA0C073C4315F4403F046068D0DB
:1052300000240194D9F8444044F48044C9F844401F
:10524000D9F8444023F0030707F1804704F4804471
:1052500007F59C37019403F0030C019CD7F808E094
:105260004FEA8C0C0F2404FA0CF42EEA040E324C94
:10527000A0424DD004F58064A0424BD004F5806478
:10528000A04249D004F58064A04247D004F5806470
:10529000A04245D004F58064A04243D004F5806468
:1052A000A04241D004F58064A0423FD004F5806460
:1052B000A0423DD004F58064A04214BF0A24092412
:1052C00004FA0CF444EA0E04BC609468F74315F445
:1052D000801F0CBF3C4034439460D46815F4001F19
:1052E0000CBF3C403443D460546815F4003F0CBFFD
:1052F0003C40344354601468ED0354BF3C40344395
:1053000014600133102B7FF43DAF03B0BDE8F08F84
:105310000024D5E70124D3E70224D1E70324CFE713
:105320000424CDE70524CBE70624C9E70724C7E713
:105330000824C5E7003C014000000240003802405C
:105340000369194214BF0120002070470AB181612E
:1053500070470904FBE7436901EA030221EA0301FC
:1053600041EA02418161704701684B6913F480632F
:105370004FF0000210D06FF480634B612023026372
:1053800080F83D3080F83E20036C80F83C2043F0EC
:105390000403036401207047184670472DE9F8465E
:1053A00006460F4691461D464FEA114A3368BAF148
:1053B000010F0CBF5C699C6927EA0404A4B2B4FA2B
:1053C00084F46409A14501D0002025E06A1CEED0D8
:1053D000FFF784FB089BC01AA84201D8002DE5D135
:1053E0003368BAF1010F0CBF5B699B6927EA0303BD
:1053F0009BB2B3FA83F35B099945D7D100232022EE
:10540000336386F83D2086F83E30326C86F83C30B7
:1054100042F0200232640120BDE8F8862DE9F04117
:1054200004460F46164698462568686927EA000034
:1054300080B2C0B16B695A0517D52B6843F400736D
:105440002B606FF480636B6120220023236384F858
:105450003D2084F83E30236C43F004032364002392
:1054600084F83C300120BDE8F081731CDDD0FFF7EB
:1054700035FBA0EB0800B04201D8002ED4D1236840
:105480005A6927EA020292B2002ACDD000232022D4
:10549000236384F83D2084F83E30236C1343DDE71A
:1054A00070B504460D46164623685B691B0601D598
:1054B00000201EE02046FFF757FFC8B96A1CF3D052
:1054C000FFF70CFB801BA84201D8002DECD123680C
:1054D0005B6913F08003E7D12022236384F83D2029
:1054E00084F83E30226C84F83C3042F02002226482
:1054F000012070BD2DE9F0431546026885B0DDE955
:105500000C789946136843F4807313600E463B464B
:10551000CDF8008000224FF001110446FFF73EFF56
:10552000236838B11B68DB0502D54FF40073236490
:10553000032620E006F0FE061E611A4943463A465D
:105540002046FFF76BFFA8B9236803905A690392BE
:105550009B690393424639462046039BFFF7A0FF11
:10556000064660B1236C042B01BF2268136843F424
:10557000007313600126304605B0BDE8F083B9F131
:10558000010F236802D1EDB21D61F4E72A0A1A6106
:10559000394642462046FFF783FF0028E2D12368C0
:1055A000F1E700BF020001002DE9FF479A460368BA
:1055B00015461A6842F480621A601A68DDE90C78B0
:1055C00042F480721A600E463B46CDF800800022FD
:1055D0004FF001110446FFF7E1FE236838B11B6864
:1055E000DB0544BF4FF400732364032021E05FFA1E
:1055F00086F906F0FE061E612B4943463A462046D0
:10560000FFF70CFFA0B9236803905A6903929B69C6
:105610000393424639462046039BFFF741FF58B1AA
:10562000236C042B01BF2268136843F400731360DA
:10563000012004B0BDE8F087BAF1010F23681AD148
:10564000EDB242461D6139462046FFF729FF02466A
:105650000028E5D121680B6843F480730B60204675
:10566000CDF800803B464FF00111FFF797FE22680E
:1056700060B11368B4E72A0A1A61394642462046E7
:10568000FFF70EFF0028CBD12368D9E749F00103CB
:105690001361054943463A462046FFF7BFFE0038EE
:1056A00018BF0120C5E700BF0200010070B5044625
:1056B0000D46164623685B695B0701D500201EE096
:1056C0002046FFF751FEC8B96A1CF3D0FFF706FA6F
:1056D000801BA84201D8002DECD123685B6913F030
:1056E0000403E7D12022236384F83D2084F83E3070
:1056F000226C84F83C3042F020022264012070BD0C
:1057000070B504460D46164621684B6913F04003F8
:1057100001D0002011E04A69D2060FD56FF01002C7
:105720004A612022236384F83D2084F83E30236CB4
:105730002364002384F83C30012070BDFFF7CEF9CC
:10574000801BA84201D8002DDED123685B6913F0CD
:105750004003D9D12022236384F83D2084F83E30D1
:10576000236C1343E4E7000070B5044608B9012038
:1057700070BD90F83D3003F0FF021BB980F83C206B
:10578000FCF71AFC242384F83D3023681A6822F0C1
:1057900001021A601A6842F400421A601A6822F480
:1057A00000421A6000F0A8FE3F4B65689D4294BF1E
:1057B0003E4B3F4B98428CBF00230123002BD6D198
:1057C0002268394E51683B4BB0FBF3F321F03F01A7
:1057D0001943B542516088BF4FF49676116A88BF6D
:1057E000734321F03F0184BF4FF47A76B3FBF6F3A5
:1057F00001330B431362D169431E2B4821F44F41FF
:10580000854221F0FF0132D86D0040F6FC70B3FBF9
:10581000F5F30133034242D0C3F30B031943D161C3
:10582000D4E907301168034321F0C0010B43136032
:105830009168D4E9030321F40341034321F0FF01FC
:105840000B439360D4E90530D168034321F0FF0195
:105850000B43D360136843F001031360002020233F
:10586000206484F83D30206384F83E0080E7A0681F
:1058700050B905EB4505B3FBF5F30133C3F30B0357
:105880007BB143F40043C9E719206843B3FBF0F34D
:105890000133C3F30B0323B143F44043BEE70423B6
:1058A000BCE70123BAE700BFA08601007F841E0089
:1058B000FF083D0040420F002DE9F743044699469A
:1058C0000C9E0F469046FFF709F994F83D30202BC7
:1058D000054603D0022003B0BDE8F08300903C49A8
:1058E000192301222046FFF759FD0028F2D194F830
:1058F0003C30012BEED02068012384F83C30036853
:10590000D9075EBF036843F001030360036823F413
:1059100000630360212384F83D30402384F83E3047
:10592000002323640A9B6362BDF82C306385638D7A
:105930002385284BE3624246CDE900654B46394654
:105940002046FFF7D7FD00282AD00120C3E7FFF744
:10595000A7FD40B1236C042B01BF2268136843F4F8
:1059600000731360F1E7636A27681A4612F8011B97
:1059700039616262628D218D013A92B262857A69E3
:10598000481E80B2520720850AD548B15A783A613C
:1059900002336362638D013B02399BB221856385CB
:1059A000238D2A4631462046002BD0D1FFF77EFEBC
:1059B0000028CFD12268136843F4007313602023BA
:1059C00084F83D3084F83C0084F83E0083E700BF53
:1059D000020010000000FFFF2DE9F043044687B0ED
:1059E0009946109F0D469046FFF778F894F83D30A1
:1059F000202B064604D00225284607B0BDE8F083D8
:105A000000907A49192301222046FFF7C7FC00289D
:105A1000F1D194F83C30012BEDD02068012384F8BB
:105A20003C300368DB075EBF036843F0010303609B
:105A3000036823F400630360222384F83D3040238D
:105A400084F83E30002323640E9B6362BDF83C3033
:105A50006385638D2385664BE3622946CDE9007635
:105A60004B4642462046FFF79FFD054608B10125FB
:105A7000C2E7228D2368B2B902905A6902929A69EC
:105A80000292029A1A6842F400721A60DFF8648186
:105A9000238D002B2CD1202284F83D2084F83C302B
:105AA00084F83E30A8E7012A0AD11A6822F48062FD
:105AB0001A6003905A6903929A690392039AE1E784
:105AC000022A0ED11A6822F480621A601A6842F41F
:105AD00000621A6004905A6904929B690493049BC3
