:020000040800F2
:100000000000032021060008B5210008B7210008E0
:10001000B9210008BB210008BD2100080000000034
:10002000000000000000000000000000016F000858
:10003000BF21000800000000916F0008216800083F
:1000400071060008710600087106000871060008B4
:1000500071060008710600087106000871060008A4
:100060007106000871060008710600087106000894
:100070007106000871060008710600087106000884
:100080007106000871060008710600087106000874
:100090007106000871060008710600087106000864
:1000A0007106000871060008710600087106000854
:1000B0007106000871060008710600087106000844
:1000C0007106000871060008710600087106000834
:1000D0007106000871060008710600087106000824
:1000E0007106000871060008710600087106000814
:1000F0007106000871060008710600087106000804
:1001000071060008710600087106000871060008F3
:100110007106000871060008C12100087106000878
:1001200071060008710600087106000871060008D3
:1001300071060008710600087106000871060008C3
:1001400071060008710600087106000871060008B3
:1001500071060008710600087106000871060008A3
:100160007106000871060008710600087106000893
:100170007106000871060008710600080000000002
:100180007106000871060008710600087106000873
:100190007106000871060008710600087106000863
:0C01A000CD21000871060008D9210008DC
:1001B00010B5054C237833B9044B13B10448AFF3A1
:1001C00000800123237010BD800300200000000088
:1001D000942C020808B5034B1BB103490348AFF345
:1001E000008008BD0000000084030020942C020859
:1001F00001F0FF01102A2BDB10F0070F08D010F8D8
:10020000013B013A8B422DD010F0070F42B3F6D1DB
:10021000F0B441EA012141EA014122F007047FF0F4
:1002200000070023F0E80256083C85EA010586EA4B
:10023000010685FA47F5A3FA87F586FA47F6A5FA87
:1002400087F68EB9EED1F0BC01F0FF0102F0070293
:1002500032B110F8013B013A83EA010313B1F8D13E
:100260000020704701387047002D06BF354603381F
:10027000073815F0010F07D1013015F4807F02BF58
:10028000013015F4C03F0130F0BC0138704700BFA9
:100290007BB972B90029BEBF00204FF0004106E0D3
:1002A00008BF00281CBF6FF000414FF0FF3000F086
:1002B000B5B9ADF1080C6DE904CE002909DB002BBE
:1002C0001ADB00F04DF8DDF804E0DDE9022304B0AC
:1002D0007047404261EB4101002B1BDB00F040F80E
:1002E000DDF804E0DDE9022304B0404261EB4101A6
:1002F000524263EB43037047524263EB430300F007
:100300002FF8DDF804E0DDE9022304B0404261EBA0
:1003100041017047524263EB430300F021F8DDF8DE
:1003200004E0DDE9022304B0524263EB430370476B
:1003300053B94AB9002908BF00281CBF4FF0FF314C
:100340004FF0FF3000F06AB9ADF1080C6DE904CE52
:1003500000F006F8DDF804E0DDE9022304B07047A0
:100360002DE9F047089D0C46002B4ED194468C4554
:100370008646B2FA82F262D94AB1C2F120039140B4
:1003800020FA03F30CFA02FC194300FA02FE4FEACA
:100390001C471FFA8CF6B1FBF7F44FEA1E4307FB2C
:1003A000141143EA014304FB06F199420AD91CEBFC
:1003B000030304F1FF3080F01281994240F20F8173
:1003C000023C6344591A1FFA8EF3B1FBF7F007FBA6
:1003D000101143EA014300FB06F69E420AD91CEBCA
:1003E000030300F1FF3180F0FC809E4240F2F9806F
:1003F000634402389B1B40EA044000211DB1D340F6
:100400000022C5E90032BDE8F0878B4205D90DB165
:10041000C5E9000100210846F5E7B3FA83F1002998
:1004200046D1A34202D39042C0F0F080861A64EB1A
:1004300003030120002DE6D0C5E90063E3E7002AAD
:1004400040F09080A1EB0C044FEA1C481FFA8CF797
:100450000121B4FBF8F64FEA1E4308FB164443EAB9
:10046000044307FB06F0984208D91CEB030306F18E
:10047000FF3402D2984200F2CD8026461C1A1FFAA1
:100480008EF3B4FBF8F008FB104443EA044300FB8E
:1004900007F79F4208D91CEB030300F1FF3402D297
:1004A0009F4200F2B0802046DB1B40EA0640A5E7F1
:1004B000C1F120068B4022FA06F71F4320FA06FC02
:1004C00004FA01F343EA0C03F44000FA01F8380C93
:1004D0004FEA1349B4FBF0FE1FFA87FC00FB1E44F1
:1004E00049EA04440EFB0CF9A14502FA01F20AD9CB
:1004F0003C190EF1FF3A80F08480A14540F28180E2
:10050000AEF1020E3C44A4EB09041FFA83F9B4FBDC
:10051000F0F300FB134449EA044403FB0CFCA4453C
:1005200007D93C1903F1FF3067D2A44565D9023BD6
:100530003C4443EA0E40A0FB0293A4EB0C049C4213
:10054000CE469C4651D34ED055B1B8EB0E0364EB6A
:100550000C0404FA06F6CB401E43CC40C5E9006407
:10056000002150E7C2F1200320FA03F10CFA02FC4B
:1005700024FA03F394400C434FEA1C4800FA02FEAD
:100580001FFA8CF7B3FBF8F008FB1031230C43EA99
:10059000014300FB07F1994208D91CEB030300F16A
:1005A000FF362CD299422AD9023863445B1AA4B28E
:1005B000B3FBF8F108FB113344EA034401FB07F3F2
:1005C000A34208D91CEB040401F1FF3613D2A34265
:1005D00011D902396444E41A41EA004139E704467A
:1005E000F0E6084606E7C845AED2B9EB020E63EB6B
:1005F000070C0138A8E73146EDE7034699E7304696
:10060000D4E7D6467FE7634402384DE706462346E3
:1006100008460FE7023E634430E700BF704700BF63
:10062000DFF834D0002103E00C4B5B584350043119
:100630000B480C4B42189A42F6D30B4A02E00023B7
:1006400042F8043B094B9A42F9D303F047FE21F0EC
:10065000B1FD01F05FF87047000003209CC3020861
:100660000000002064010020800300204840012099
:10067000FEE7704708B500F0B7FDBDE8084000F0A0
:100680003BBD00F0B3BD704710B50421044620F017
:100690009AFB204610BD000038B50C4B0C4C18805E
:1006A0000C4B822019806368984740F611039842EA
:1006B0000AD1094D23682C60822098472B6882203C
:1006C000DB689847002038BD0120FCE7A603002026
:1006D0004C000020A4030020A80300204FF4A071C8
:1006E000F020FFF7D9BF0000F7B5374D2B6804465F
:1006F0001B6982209847208000284ED02B680DF17E
:1007000006025B6901A982209847304B1B78002BB9
:100710004BD0BDF8063040F6746293423FD9ADF835
:100720000620BDF80630D21A92B20A2A42D90B230B
:10073000B2FBF3F2264B1B889A4201D9013B9AB2D5
:10074000BDF8043040F6B8318B4235D8C3F571633B
:100750000E339BB20F21B3FBF1F31E4909888B4284
:1007600001D901398BB21C4E1C4D30682F68834271
:1007700081B28CBF591AC91AB8B2BA428CBF101ACA
:10078000801A89B280B201440529C8BF336033683A
:10079000C8BF2A6063802B68A38003B0F0BDB32B71
:1007A0009CBFB423ADF80630BBE7BDF80620A2F528
:1007B000B472B9E70022C3E7C3F56D6308339BB297
:1007C0000E2BC7D80023CEE7A8030020C8220020A4
:1007D000A4030020A6030020A00300209C03002007
:1007E00037B568460D461446FFF77EFFBDF800009A
:1007F00030B1BDF802302B60BDF804302360012019
:1008000003B030BD032821D8DFE800F0020B121935
:100810000F4B1A68B2FA82F2520904210D4803F014
:10082000F3BF0B4B5A68B2FA82F252090821F5E77E
:10083000074B9A68B2FA82F252091021EEE7044B94
:10084000DA68B2FA82F252092021E7E7704700BF66
:10085000AC03002000100240032821D8DFE800F09C
:10086000020B12190F4B1A68003A18BF012204211B
:100870000D4803F0C9BF0B4B5A68003A18BF01225C
:100880000821F5E7074B9A68003A18BF01221021AA
:10089000EEE7044BDA68003A18BF01222021E7E7AF
:1008A000704700BFAC0300200010024003280DD8A1
:1008B000DFE800F00206080A0421054803F0A9BF9A
:1008C0000821FAE71021F8E72021F6E7704700BF7A
:1008D0000010024008B5032811D8DFE800F0020A32
:1008E0000C0E0421074803F089FF431E584258416B
:1008F00008BD0821F6E71021F4E72021F2E70020E7
:10090000F3E700BF0010024070B5084D0024012637
:10091000E0B2FFF7DFFF18B12B68012B18BF2E6084
:100920000134052C05F10405F2D170BDAC030020A3
:10093000012380F8781080F87930704770470020E4
:1009400070470000034B4164003918BF0121197042
:10095000704700BF07330120704700207047836B4A
:100960000BB10846184770474FF6FF707047406854
:1009700003689B6918477047704770477047704716
:1009800010B5044600F048FD23680349D3F89030C1
:100990002046BDE810401847000000D008B50368A5
:1009A0000446D3F88430984723682046DB6F984785
:1009B00000F0ECF8236820465B6F9847292001F08F
:1009C00019F900F0E3F8236820465B6F9847F8E7D1
:1009D00010B5044609F08CF823682046D3F8BC30E3
:1009E000BDE81040184700F0F9BC00F0FDBC00F075
:1009F00031BD00F0CFBC00F041BD00F049BD00F0BA
:100A0000D3BC08F0A3BA10B58421044620F0DBF96A
:100A1000204610BD10B590F8341090F878400C4B7B
:100A20008C421A7809D03AB90A4A0B4914880888C6
:100A300010800C8001221A7010BD002AFCD0054ADB
:100A400005491488088810800C800022F3E700BF55
:100A500000330120FC320120FE32012070B50D462A
:100A6000194635B9094B0A4A0A4840F2FF2121F0DC
:100A7000F1F8C0E90F52084B003A18BF01221A7072
:100A80000368BDE87040D3F890301847042D020881
:100A90003C2D02088A2D02080633012008B5094BB7
:100AA0001B888B4203D8084B1B88934205D9074B00
:100AB000074A0848A32121F0CDF8074B1980074BBE
:100AC0001A8008BDFC320120FE320120CF2D020821
:100AD000322E02088A2D020802330120043301203D
:100AE000034690F87A0018B1586803681B681847E5
:100AF00070470000012108B50022084605F01DFFDF
:100B00000A4B186028B90A4B0A4A28210A4821F0E2
:100B1000A1F800220421012005F0AEFF074B186068
:100B200018B9074B034A2C21F0E708BDC003002089
:100B3000642F0208AD2F0208DC2F0208BC0300203E
:100B400023300208024B4FF0FF31186805F03FBF19
:100B5000C0030020014B186805F065BFC0030020EA
:100B6000024B0021186805F032BF00BFC00300200F
:100B7000FFF7F0BF03480449006800231A4605F058
:100B8000B6BF00BFBC0300200400002013B5084C12
:100B900000231A4601A9206805F0DAFF20684FF00B
:100BA000FF33002201A905F0D3FF02B010BD00BF42
:100BB000BC03002003685B6C184701207047036882
:100BC0009B6A1847FEE740F2EF307047054B036021
:100BD000054B4FF08062C3F88820BFF34F8FBFF3FF
:100BE0006F8F7047BC31020800E100E010B5044689
:100BF0004FF45A61FFF7EAFF204620F0E4F8204660
:100C000010BD000082B0002301930E4B1A6B42F41A
:100C100000021A631A6B02F400020192019A1A6927
:100C200042F400021A611A6922F400021A61064BAA
:100C3000064A1A61064A5A61064B4FF080629A6072
:100C400002B07047003802405C240020A50E000866
:100C5000C50B000800E100E008B50A2809D8DFE864
:100C600000F006100E0808080810101010000220EE
:100C700008BD054B054A0648902120F0EBFF0020F7
:100C8000F6E70120F4E700BF653002088030020873
:100C9000CB30020838B50C46887FFFF7DDFFA58A08
:100CA000E28A164B2169586342EA05425A64628B14
:100CB000D963521B1A642568082D0ED19A611A61F6
:100CC0005862207F0E4A42EA0062DA61E2681A62E4
:100CD0000C4A5961D9601A6038BD0022D8611A6186
:100CE000E1680A0A480902F4784200F4FC60024311
:100CF000C1F3C4010A439A63034AECE700B002401F
:100D000009000100012302000123030008B50B289C
:100D10000BD8DFE800F00612100A0A0A0A080808D1
:100D20000808022008BD0520FCE7054B054A0648D7
:100D30006F2120F08FFF0020F4E70120F2E700BFD1
:100D40006530020810310208CB3002082DE9F0416D
:100D500091F81D800C464046FFF7D8FFA77F054657
:100D60003846FFF7D3FF06463846FFF775FFA18ADE
:100D7000628B444B521A1A649A61228B521A1A617E
:100D8000E28A586342EA01425A6421696268D9637F
:100D9000DA602068802828D0227F0FD8202867D0EA
:100DA000402865D004281AD0364B45EA026545F440
:100DB0000035B845DD6161D0334A44E0B0F5807F4D
:100DC00004D0B0F5007FEFD1304800E0304840EA71
:100DD0000262DA61E2681A625E62596132E045EAF3
:100DE000026242F40032DA61F6E7A068021DDA62BC
:100DF000227F45EA026545F40035DD615E62596196
:100E0000017841B1012921D0224B234A23484FF4D4
:100E10008D7120F01FFFDA69418822F47F42013989
:100E200022F0100242EA0122DA610121154BDA694F
:100E300042F02002DA61DA699206FCD410229A604C
:100E40000029B9D0164A1A60BDE8F081B2F1FF015D
:100E5000DA69408822F47F4200F1FF3022F010026C
:100E600042EA002242F0100218BF0121DA61DDE7F8
:100E700045EA0262034B42F40032B4E742F2013227
:100E8000E1E700BF00B002400123010009000200B9
:100E90000A0002005A31020874310208CB300208FD
:100EA00001230200024B1B68586803685B691847FE
:100EB0000833012070B5044625460A4B0C30002645
:100EC00060602672667245F8203B6022294608F071
:100ED00065FF04F55A63EE6024359D42FBD1204640
:100EE00070BD00BFBC310208034B1A68D207FCD4A6
:100EF00023229A60704700BF00B002407047000094
:100F000030B50F4C2568ED07FCD423250904A560F6
:100F100041F001010225FF2B65636164E0630AD0A3
:100F20000849656241EA0363E361074B226260613D
:100F3000E060236030BDE561039BA363034BF8E7EA
:100F400000B002400900010001000200010003009E
:100F500030B50E4C2568ED07FCD423251204A5609E
:100F600042F001020225FF2B65636264E063E160E9
:100F700008D01B0643F00213E361054B6562606114
:100F8000236030BD034BE3610123F9E700B0024069
:100F900001000200020002FF30B50B4C2568ED078E
:100FA000FCD4232512041B06A56043F4003302255C
:100FB00042F0010265636264E063E160E361034B58
:100FC00065626061236030BD00B002400100020034
:100FD000012070470C2070470C2303FB01000830F0
:100FE00070470C2303FB0100083070470120704755
:100FF00040F6BC50704740F6BC5303FB010008307C
:10100000704740F6BC5303FB0100083070470120D5
:1010100070471020704700EB01100830704700EB5C
:10102000011008307047084602F03CB910B5034B78
:101030000360044607F0E1FC204610BD743202084C
:1010400010B50446FFF7F2FF204614211FF0BBFE47
:10105000204610BD10B5034B0360044607F0CDFCDD
:10106000204610BD4032020810B50446FFF7F2FFDB
:10107000204640F6C4511FF0A6FE204610BD0000D9
:1010800010B5034B0360044607F0B7FC204610BDC3
:101090000C32020810B50446FFF7F2FF2046182173
:1010A0001FF091FE204610BD10B5084B03600446AA
:1010B00000F55F60FFF7BAFF04F12C00FFF7CAFFED
:1010C00004F11400FFF7DCFF204610BDA83202082F
:1010D00008B50248FFF7E8FF08BD00BF9C120020DA
:1010E00010B50446FFF7E0FF204640F664711FF09C
:1010F0006AFE204610BD00002DE9F34101F0E0F842
:10110000054601F0E1F80024014623462846224620
:10111000009410F0C5FD274B274A1A60204602F0C4
:1011200035FD264D264B274A27489A6010F020FDB2
:101130002B68BFF35B8FDB0735D428461FF045FED5
:1011400088B3224C224B236004F6086604F1140095
:1011500004F12C0804F55F676060C4F80880E7605C
:10116000266107F04BFC1B4B6361404607F046FCD1
:10117000194BE362384607F041FC184BC4F8F03DC8
:1011800004F6046002F0CAFD224604F6046130460B
:1011900002F098FD304602F085F8114820F078FD05
:1011A00028461FF01EFE0F4802B0BDE8F041FFF7D1
:1011B000E7BB00BF6C3301204804002098120020D8
:1011C000680400204C040020080000209C1200202D
:1011D000A83202080C3202084032020874320208B7
:1011E000D1100008C4030020704700000148FFF739
:1011F000D5BB00BFC403002070B5264E264C274D3A
:10120000274B23603046FFF755FE284615F04EFE6B
:1012100024480EF0D1FD244B2448DC6000224FF41A
:101220008071C3E9121222491A86C3E91A122149B0
:1012300083F85820C3E91E011F49C3F880101F49D5
:101240001F480B60F021C3E90422C3E90622C3E969
:101250000822C3E90A22C3E90E22C3E91022C3E926
:101260001422C3E917225A6683F870205A67C3E92B
:10127000016501801348018013484FF4A07101807B
:101280001248018012490A70012283F83420114A61
:101290001A6070BDF404002094120020680400203D
:1012A000F42C02084C040020C403002000000101BB
:1012B00001000001000450001A001400083301204E
:1012C000FC32012002330120FE32012004330120D0
:1012D00000330120802E02080148FFF777BC00BFD1
:1012E000F40400200020704781807047C18070475F
:1012F0000181704741817047704770477047704760
:10130000704710B4C4880368121B84885B6D091B86
:1013100012B25DF8044B09B218474FF6FF73838190
:101320004FF0FF3303621368C36110607047002001
:1013300070478B88838001207047704780F82610A3
:10134000704790F82600704710B50022B1F90840A8
:10135000B1F90A10028042808480C18010BD002251
:10136000028042808280C28070470177704780EDA2
:10137000080A704780F82410704780F825107047DD
:1013800001207047983070478C3070478430704728
:1013900070470000034B902283F85A2383F85823A8
:1013A000704700BF00E100E0094A0A49D3680A48D3
:1013B000C3F30A03013B9BB20B801169C1F30A011D
:1013C000013901801364536B43F001035363704789
:1013D000006801400222002000220020014BD3F8C7
:1013E000AC00704700680140024B0122C3F8AC100A
:1013F0005A627047006801407047704710B52C2151
:1014000004461FF0E0FC204610BD10B5BC21044688
:101410001FF0D9FC204610BD70B5044607F0EBFD67
:1014200023689D6E0DF060FA01462046A8472368A8
:10143000054AD3F88C502046AC460023BDE87040E6
:10144000A2F51631604700BF00B004D007F0BABD66
:1014500007F0C4BD07F080BD07F0EFBE90F825206F
:1014600012B103685B691847704790F825201AB1DC
:1014700090F8242002B1186070470000034B4FF031
:1014800080629A604FF080729A60704700E100E0DD
:10149000084B4FF08062C3F88820BFF34F8FBFF333
:1014A0006F8F4FF08072C3F88820BFF34F8FBFF368
:1014B0006F8F704700E100E070B50023124E83800B
:1014C000124B0360336893F8582005460AB1D86C74
:1014D00000B998680368DB6A98473368B0FA80F40B
:1014E000D86C640930B10368DB6A9847002808BFEC
:1014F00044F001042CB9064B064A07482C2120F081
:10150000A9FB284670BD00BF08330120B83302088C
:10151000B4320208123302084B33020870B5254E6C
:101520003568BFF35B8F15F0010540D130461FF0E1
:101530004CFC00283BD0204C204B256104F13400AA
:10154000C4E90035C4E90255E584A562A5850EF01D
:1015500018FF04F158000AF0D7F8194BA36520468C
:10156000184B40F8843BFFF7A7FF174BC4F88430B3
:101570002433C4F88C304FF4C803C4E92835002361
:10158000C4F8AC30C4F8B030C4F8B430C4F8B830E3
:101590000E480F4BC4F89050C4F89C50C4F8A850A3
:1015A000C4F8983020F074FB30461FF01AFC024853
:1015B00070BD00BF0422002008220020A4420208BF
:1015C000D833020850340208584202089113000828
:1015D0003842020838B5184C23685BB3174B184AD9
:1015E0001B6C11888B4216D1164B198803F01EFF15
:1015F000236893F86A200025013283F86A2083F873
:101600007C50FFF7B7FA206808F072FA2846BDE868
:101610003840FFF7F7B803F009FF24682368204635
:101620001B6A9847012384F87C300020BDE83840CD
:10163000FFF712B938BD00BF083301200068014030
:10164000022200200022002007B5064BADF806005C
:101650001B68054801220DF1060104F087FC03B068
:101660005DF804FB0C0000200823002008B564206E
:1016700005F057F9FBE7000030B595B010220021C6
:101680000AA820F0EEFC1422002103A820F0E9FCB7
:1016900000241E4B01941A6C42F080521A641B6C99
:1016A00003F080530193019B194B02941A6842F492
:1016B00040421A601B6803F4404302930122029BDC
:1016C0004FF48033CDE9082302254FF4800308212D
:1016D000CDE90E534FF4B473CDE9101308A80423D9
:1016E0001393129503F0FAFE03F0BEFE0F23CDE92B
:1016F00003354FF4A0504FF48053CDE90603052184
:1017000003A8059404F0C6F815B030BD00380240B7
:101710000070004080B59AB002F0EEFDFFF7ACFF1C
:10172000142200210DA820F09CFC0024C74B00943B
:101730001A6BC748C74DDFF8588342F010021A638E
:101740001A6B02F010020092009A01941A6B42F098
:1017500020021A631A6B02F020020192019A02948D
:101760001A6B42F080021A631A6B02F08002029236
:10177000029A03941A6B42F004021A631A6B02F085
:1017800004020392039A04941A6B42F001021A6352
:101790001A6B02F001020492049A05941A6B42F04B
:1017A00002021A631A6B02F002020592059A06946D
:1017B0001A6B42F040021A631A6B02F04002069262
:1017C000069A07941A6B42F008021A631B6B03F027
:1017D0000803224607933C21079B03F015F89E4817
:1017E0000122022103F010F822469B48042103F055
:1017F0000BF8224699484FF4405103F005F80126B2
:101800003C23CDE90D3692480F9403230DA90227FE
:10181000109302F00FFF90480DA9CDE90D76CDE9A8
:101820000F4402F007FF04238B480DA9CDE90D36C4
:10183000CDE90F4702F0FEFE0DA94FF44053874853
:10184000CDE90D36CDE90F4702F0F4FE8448854B13
:10185000036002F0E3FDDFF83CE2834B2C62C5E954
:1018600000E328464FF48043C5E90434C5E9024447
:10187000C5E9064403F0D6F91021284603F01AFC06
:1018800021462846794D03F034FC4FF48273C5E9B4
:1018900000834FF400791823C5E9069328460A23EC
:1018A000C5E90244C5E90444C5E90844AC62EB62F9
:1018B00004F000FB8F232246394667488DF8243018
:1018C0008DF8344002F0A0FF32464FF47A7309A934
:1018D000284604F04BFB4FF47A7332460DA9284694
:1018E00004F0F0FC324639465B48614D02F08CFF53
:1018F0009DF83430D32B04BF5E4B1E705E4B012627
:10190000C5E90036102240230024C5E904234FF422
:10191000C073C5E906344FF40063C5E908344FF4D9
:10192000005302274FF00409AB624FF0030A07236C
:101930000DA92846CDE90D73CDE90F934FF00808A6
:10194000C5E90249CDE911A7139704F097F94FF6BD
:10195000FF7209A92846CDE90A86089409960C94D5
:1019600004F0ACF9304602F0F3FC4FF6FF7209A91F
:101970002846CDE90978CDE90B6404F09FF94FF6CC
:10198000FF7209A92846CDE909A8CDE90B9404F016
:1019900095F94FF40C730893089B0C934FF6FF7264
:1019A00009A92846CDE909980B9604F087F940F279
:1019B0006A51284604F0A0F934220DEB02002146BA
:1019C00020F04FFB2D4D2E4B2C61C5E9003409232F
:1019D000C5E905361D23C5E9073A40F20D1140F26D
:1019E0004313C5E9091340F2171040F24713C5E944
:1019F0000B032846C5E90244AC8685F8364003F05F
:101A00001DFCFF214FF4806CF022CDE9121405215A
:101A1000CDE914C14FF4A0730DA9CDE90E24CDE991
:101A2000164228462246174D1893CDE910370D94DB
:101A3000ADF864408DF8664003F0CBFC124B2B6090
:101A40001B6898472B68114DDB6825E00038024081
:101A5000001002400824002000080240000C024050
:101A60009C24002000300240A086010008230020B2
:101A7000D4220020C8220020400100A060230020C2
:101A800000680140C4220020140000205C240020D3
:101A900000500140005C00409847134B2846C5E9C0
:101AA0000034C5E90274C5E90A47C5E90C4402F0EF
:101AB000C5FC3146284602F079FDFEF7DBFDFEF756
:101AC000D8FD04F0BBFE094A0948214604F0E2FEB5
:101AD000084B094A18602146084804F0DBFE084B11
:101AE000186004F0BDFEFEE700B00240D0340208EA
:101AF0006D160008D0220020AC34020883060008CE
:101B0000CC220020704770477FB5094B8DF8172015
:101B10001B6802930DF117020123009201930A46FC
:101B20000146044803F026F907B05DF804FB00BF46
:101B300010000020082400207FB500238DF8173006
:101B4000084B1B6802930A4601230DF1170100910F
:101B500001930146044803F09DF99DF8170007B072
:101B60005DF804FB10000020082400201FB5084C7D
:101B700024680092CDE901340A4601230146054854
:101B800003F088F9003818BF012004B010BD00BF71
:101B9000100000200824002002F0DABB10B5064C2B
:101BA00000222046042102F02FFE20460122BDE83B
:101BB0001040042102F028BE0008024038B50B4D49
:101BC000044601220A484FF4005102F01DFE002293
:101BD0000421284602F018FE2046FFF735FD28466E
:101BE0000122BDE83840042102F00EBE0008024088
:101BF000000C024038B50B4D044600220A484FF451
:101C0000005102F001FE00220421284602F0FCFDF2
:101C10002046FFF719FD28460122BDE8384004217F
:101C200002F0F2BD00080240000C0240F7B5144E6D
:101C3000144F05460C4630460022042102F0E4FD14
:101C400000224FF40051384602F0DEFD2846FFF72F
:101C5000FBFC0D4B0D481B68224601A904F032FB2A
:101C6000384601224FF40051019C02F0CDFD304670
:101C70000122042102F0C8FD204603B0F0BD00BFE0
:101C800000080240000C02400C0000200823002045
:101C900002F05EBB0268034B9A4201D102F046BBE0
:101CA000704700BF001000407047000082B00E4B2C
:101CB00000220092596C41F480415964596C01F43E
:101CC0008041009100990192196C41F08051196492
:101CD0001B6C03F080530193019B0F216FF00100F7
:101CE00002B002F05BBB00BF003802400268094B43
:101CF0009A4282B00BD100230193074B1A6B42F436
:101D000080521A631B6B03F480530193019B02B052
:101D1000704700BF003002400038024007B50F4B4B
:101D200002689A4216D10022A3F5F0430192196B82
:101D300041F4000119631B6B03F4000301930521B7
:101D40005A20019B02F02AFB5A2003B05DF804EBF5
:101D500002F056BB03B05DF804FB00BF00B00240C8
:101D60002DE9F043044689B01422002103A820F095
:101D700078F92268244B9A4243D1244C2448002508
:101D80000095236B43F004032363236B03F00403E8
:101D90000093009B0195236B43F001032363236BA6
:101DA00003F001030193019B4FF012094FF40073FC
:101DB0004FF001080327042603A9CDE90339CDE933
:101DC0000587079602F036FC4FF48073114807969A
:101DD00003A9CDE90339CDE9058702F02BFC029573
:101DE000236C43F400032364236C03F40003029385
:101DF000029B236A43F400032362236A23F4000353
:101E0000236209B0BDE8F083005C00400038024066
:101E10000008024000000240F0B599B004461422C8
:101E2000002107A820F01DF930220DEB020000214F
:101E300020F017F922685E4B9A4240F0B7800823E1
:101E40000C93C0231093042312930CA84FF4003377
:101E5000159303F0E7FD08B1FFF726FF554B5648F1
:101E6000002400945A6C42F080625A645A6C02F06A
:101E700080620092009A01941A6B42F020021A6369
:101E80001A6B02F020020192019A02941A6B42F03E
:101E900001021A631A6B02F001020292029A039481
:101EA0001A6B42F002021A631A6B02F002020392EA
:101EB000039A04941A6B42F040021A631A6B02F000
:101EC00040020492049A05941A6B42F004021A63C9
:101ED0001A6B02F004020592059A06941A6B42F0FE
:101EE00008021A631B6B03F00803069302250E26F3
:101EF000069B0B964FF4806307A9CDE90735CDE922
:101F0000094502F097FB41F658032C480B9607A9A8
:101F1000CDE907350927CDE9094502F08BFB0323FD
:101F200027480B9707A9CDE90735CDE9094502F008
:101F300081FB4FF4706322480B9607A9CDE9073562
:101F4000CDE9094502F076FB4FF40C631D480B9672
:101F500007A9CDE90735CDE9094502F06BFBC023A0
:101F600019480B9607A9CDE90735CDE9094502F0D7
:101F700061FB082315480B9607A9CDE90735CDE984
:101F8000094502F057FB4FF4A0530E480B9707A9E1
:101F9000CDE90735CDE9094502F04CFB5820224632
:101FA000052102F0FBF9582002F02AFA19B0F0BD21
:101FB0000068014000380240001402400000024066
:101FC000000402400018024000080240000C0240D9
:101FD00010B5044688B01422002103A820F041F86F
:101FE0002268144B9A4223D103F5684300210191E2
:101FF0005A6C114842F480125A645A6C02F48012EE
:102000000192019A02911A6B42F020021A631B6B33
:1020100003F020030293029B4FF46072022303211A
:10202000CDE903230523CDE9061303A902F002FB42
:1020300008B010BD00500140001402402DE9F041ED
:1020400086B0002303932B4B1C68002C4FD14FF01C
:102050000108C3F80080284B00949A6B274842EA95
:1020600008029A639B6B03EA080300930227032686
:102070000C25009B01A94FF63F03CDE90137CDE9BF
:10208000046502F0D7FA1E48059501A9CDE901873C
:10209000CDE9034602F0CEFA48F23313194805950C
:1020A00001A9CDE90137CDE9034602F0C3FA4FF6A5
:1020B00083731548059501A9CDE90137CDE903469C
:1020C00002F0B8FA4CF203731048059501A9CDE966
:1020D0000137CDE9034602F0ADFA60230C480595BF
:1020E00001A9CDE90137CDE9034602F0A3FA06B014
:1020F000BDE8F081A4240020003802400014024012
:10210000000802400018024000100240000C02408B
:102110000004024070B588B000230293204B1A6C73
:1021200042F010021A641B6C03F010030293054680
:1021300001A903A8029B03F057FC069B4BBB03F0CD
:1021400043FC184E184B336040F2E733F360174BF3
:10215000B0FBF3F3013B7360304600233361B3609F
:10216000B36104F093FA044680B9304604F050F9A4
:10217000044658B9362002F043F90F2D0DD82246F7
:102180002946362002F00AF9094B1D60204608B0A6
:1021900070BD03F019FC4000D3E70124F6E700BF4F
:1021A00000380240A82400200010004040420F00E8
:1021B0007C0000207047FEE7FEE7FEE7FEE7704781
:1021C000014804F063B900BFA8240020014803F0CF
:1021D000A3B800BF60230020014802F05DB900BF32
:1021E0005C2400200120704708B51FF0DDFF162396
:1021F00003604FF0FF3008BD08B51FF0D5FF162370
:102200000360FEE770B50D4614460E46731B9C42F4
:1022100001DC204670BDAFF3008006F8010BF5E746
:1022200070B50D4614460E46731B9C4201DC2046D9
:1022300070BD16F8010BAFF30080F5E74FF0FF30EB
:1022400070474FF400534B600020704701207047E7
:10225000002070470A4A116808B5034609B90949C0
:1022600011601068694603448B4206D91FF09CFF39
:102270000C2303604FF0FF3008BD1360FCE700BF84
:10228000F024002048400120704710B50421044686
:102290001EF099FD204610BD012908B506D002297F
:1022A00008D059B901F0BEFC006808BD01F0BAFCC5
:1022B0004068FAE701F0B6FC8068F6E70020F4E732
:1022C000004870470835020802207047806A70474E
:1022D000704730B50368018185B06D460146D3F87B
:1022E000843004462846984795E807003C3484E843
:1022F000070005B030BD30B50368418185B06D463B
:102300000146D3F8843004462846984795E80700EC
:102310003C3484E8070005B030BD002202804280D2
:102320008280C280704780F83610704770B50368AD
:1023300004461B6B154698472368294620465B6E6A
:10234000BDE87040184700207047806C70477047A8
:102350007047704710B5082104461EF034FD204632
:1023600010BD10B54C2104461EF02DFD204610BDB9
:1023700010B540F6EC2104461EF025FD204610BDA8
:1023800008B5FFF76BF808BD036870B55E6B124BBC
:102390001B6804468DB22BB9104B114A6C211148B1
:1023A0001FF058FC1049828D0988914203D80F4BC9
:1023B0000B4A6D21F3E713F812200D4B1B6853F8FD
:1023C000220003681B6B9847291A3346204609B23E
:1023D000BDE87040184700BF603301203035020867
:1023E00072350208AD35020864330120F435020865
:1023F00068330120074A02600022C0E90122C0E9D7
:102400000322C0E90522C0E907224FF480728284CA
:10241000704700BF984502082DE9F0411D4603684A
:10242000BDF918701B6B0446164698472368314661
:1024300020465B6B98472368294620469B6B98474C
:10244000236839462046DB6BBDE8F04118470000A1
:1024500010B50446FFF7CEFF024B23600023A362B2
:10246000204610BD7841020810B5262204460021FE
:102470001FF0F7FD2046FFF7BDFFFF23044A84F855
:1024800026300023A3622260E3622386204610BD2B
:102490006044020800224FF0FF31C0E90021826051
:1024A000704710B50446FFF7F5FF204610BD000049
:1024B00038B52622044600211FF0D3FD2046FFF741
:1024C00099FF0B4B23600B4BA3624FF6FF73002564
:1024D000A3854FF47F03C4E90C53258704F13C0026
:1024E000FFF7D8FF044B2360A564204638BD00BF2A
:1024F000684302083C3602084C3602082DE9F04FCA
:102500000446BBB0FFF7A4FF2246D74B42F82C3B52
:1025100004F1580610460392FFF79AFF3046FFF782
:10252000A3FF04F18C0318460493FFF7C1FF04F1E5
:10253000D80318460593FFF78BFF04F582731846FE
:102540002393FFF791FF04F59C7318460693FFF75A
:10255000AFFF04F5C27318460793FFF779FF04F540
:10256000D87318462493FFF77FFF04F5F2731846DB
:102570000893FFF79DFF04F50C7318460993FFF7C6
:1025800067FF04F5177318462593FFF76DFF04F5F1
:10259000247318460A93FFF78BFF04F53773184628
:1025A0000B93FFF755FF04F5427318462693FFF788
:1025B0005BFF04F54F7318460C93FFF779FF04F5A2
:1025C000627318460D93FFF743FF04F56D731846C9
:1025D0002793FFF749FF04F57A7318460E93FFF728
:1025E00067FF04F2344318460F93FFF731FF04F5F9
:1025F0008C6318462893FFF737FF04F2944318467C
:102600001993FFF755FF04F59C6318461093FFF7E5
:102610001FFF04F20C5318462993FFF725FF04F51A
:10262000A86318461A93FFF743FF04F28C53184629
:102630001193FFF70DFF04F5B76318462A93FFF7D0
:1026400013FF04F2EC5318461B93FFF731FF04F518
:10265000C76318461293FFF7FBFE04F26463184643
:102660002B93FFF701FF04F5D36318461C93FFF784
:102670001FFF04F2E46318461393FFF7E9FE04F525
:10268000E26318462C93FFF7EFFE04F244731846FA
:102690001D93FFF70DFF04F5F26318461493FFF73F
:1026A000D7FE04F2BC7318462D93FFF7DDFE04F548
:1026B000FE6318461E93FFF7FBFE04F63C03184624
:1026C0001593FFF7C5FE04F6680318462E93FFF72F
:1026D000CBFE04F69C0318461F93FFF7E9FE04F6B1
:1026E000E80318461693FFF7B3FE04F614131846D2
:1026F0002F93FFF7B9FE04F6481318462093FFF70F
:10270000D7FE04F6941318461793FFF7A1FE04F5BD
:102710001C6318463093FFF7A7FE04F6F41318461F
:102720002193FFF7C5FE04F5246318461893FFF7BD
:102730008FFE04F66C2318463193FFF795FE04F5DF
:102740002A6318463C252293FFF7B2FE00224FF081
:10275000F013A360039800952B461146FFF75CFE2B
:1027600000222B46114630460095FFF755FE3F4BA1
:102770003F4A0398DFF8FCB04FF005084FF00F090F
:10278000C4E920323146A4F8888006F049F904985B
:10279000CDF800902B4617220021FFF73DFED4F81C
:1027A0008C300499D3F8843000264FF07F4A32A849
:1027B000C4F8BCA0A4F8C060984732A907C937AFD5
:1027C00004F1C80383E8070012230498ADF8E03051
:1027D0003946CDF8DCB009F02FFBDDE9030106F046
:1027E0001FF90399204606F01BF9059800952B4622
:1027F00032462946FFF710FE239800952B463246B5
:102800003146FFF709FE194B194A23990598A4F898
:102810003481C4E94B3206F003F90698CDF80090F4
:102820002B4617223146FFF7F7FDD4F838310699C9
:10283000D3F88430C4F868A132A8A4F86C61984732
:1028400032A907C904F5BA7383E807000698CDF8E2
:10285000DCB03946ADF8E09009F0EEFADDE90501AB
:1028600006F0DEF808E000BFDC36020898CCEDFF89
:10287000DAE0E6FF3C3602080599204606F0D0F87B
:10288000079800952B4632467821FFF7C5FD24981E
:1028900000952B4632463146FFF7BEFDCE4BCF4A60
:1028A00024990798A4F8E081C4E9763206F0B8F8D4
:1028B0000898CDF800902B4617223146FFF7ACFD63
:1028C000D4F8E4310899D3F88430C4F814A232A8BB
:1028D000A4F81862984732A907C904F5087383E879
:1028E00007000E230898ADF8E0303946CDF8DCB08B
:1028F00009F0A2FADDE9070106F092F807992046EF
:1029000006F08EF8099800952B463246B421FFF761
:1029100083FD259800952B4632463146FFF77CFD16
:10292000AD4BAE4A25990998A4F88C82C4E9A1322E
:1029300006F076F80A98CDF800902B46172231461B
:10294000FFF76AFDD4F890320A99D3F88430C4F8BE
:10295000C0A232A8A4F8C462984732A907C904F5F6
:10296000337383E807000D230A98ADF8E030394649
:10297000CDF8DCB009F060FADDE9090106F050F8A5
:102980000999204606F04CF80B9800952B462A46EC
:102990003146FFF741FD269800952B4632463146D9
:1029A000FFF73AFD8C4B8D4A26990B98A4F8388393
:1029B000C4E9CC3206F034F80C98CDF800902B46E0
:1029C00017223146FFF728FDD4F83C330C99D3F891
:1029D0008430C4F86CA332A8A4F87063984732A975
:1029E00007C904F55E7383E807000C230C98ADF863
:1029F000E0303946CDF8DCB009F01EFADDE90B0114
:102A000006F00EF80B99204606F00AF80D9800958E
:102A10002B462A462946FFF7FFFC279800952B46B0
:102A200032463146FFF7F8FC6B4B6C4A27990D98FC
:102A3000A4F8E483C4E9F73205F0F2FF0E98CDF86C
:102A400000902B4617223146FFF7E6FCD4F8E83316
:102A50000E99D3F88430C4F818A432A8A4F81C64E2
:102A6000984732A907C904F2244383E807000B23DF
:102A70000E98ADF8E0303946CDF8DCB009F0DCF95D
:102A8000DDE90D0105F0CCFF0D99204605F0C8FFEA
:102A90000F9800952B462A467821FFF7BDFC289811
:102AA00000952B4632463146FFF7B6FC4A4B4B4A5F
:102AB00028990F98C4F88834C4F88C24A4F890841A
:102AC00005F0AEFF2B4631461998CDF8009017223D
:102AD000FFF7A2FCC4F8C4A4A4F8C8643846FFF702
:102AE000D9FC97E8070004F59A6383E807000A23F6
:102AF0001998ADF8E0303946CDF8DCB009F09CF912
:102B000019990F9805F08CFF0F99204605F088FF62
:102B1000109800952B462A46B421FFF77DFC299892
:102B200000952B4632463146FFF776FC2A4B2B4A5E
:102B300029991098C4F83435C4F83825A4F83C8590
:102B400005F06EFF2B4631461A98CDF800901722FB
:102B5000FFF762FCC4F870A5A4F874653846FFF767
:102B600099FC97E8070004F27C5383E807000923E7
:102B70001A98ADF8E0303946CDF8DCB009F05CF9D0
:102B80001A99109805F04CFF1099204605F048FF5F
:102B9000119800952B4631467822FFF73DFC2A9884
:102BA00000952B4632463146FFF736FC0A4B0B4A5E
:102BB0002A991198C4F8E035C4F8E425A4F8E8850A
:102BC00005F02EFF2B4631461B98CDF800901722BA
:102BD000FFF722FC04E000BF98CCEDFFDAE0E6FF4F
:102BE000C4F81CA6A4F820663846FFF753FC97E803
:102BF000070004F5C56383E8070008231B98ADF8B8
:102C0000E0303946CDF8DCB009F016F91B9911987F
:102C100005F006FF1199204605F002FF1298009575
:102C20002B4629467822FFF7F7FB2B9800952B4679
:102C300032463146FFF7F0FBD34BD44A2B9912981A
:102C4000C4F88C36C4F89026A4F8948605F0E8FE03
:102C50002B4631461C98CDF800901722FFF7DCFB7D
:102C6000C4F8C8A6A4F8CC663846FFF713FC97E86A
:102C7000070004F2D46383E8070007231C98ADF82B
:102C8000E0303946CDF8DCB009F0D6F81C9912983E
:102C900005F0C6FE1299204605F0C2FE7822139870
:102CA00000952B461146FFF7B7FB2C9800952B4655
:102CB00032463146FFF7B0FBB34BB44A2C99139818
:102CC000C4F83837C4F83C27A4F8408705F0A8FEBC
:102CD0002B4631461D98CDF800901722FFF79CFB3C
:102CE000C4F874A7A4F878673846FFF7D3FB97E8D1
:102CF000070004F5F06383E8070006231D98ADF88C
:102D0000E0303946CDF8DCB009F096F81D991398FB
:102D100005F086FE1399204605F082FE1498009572
:102D20002B467822B421FFF777FB2D9800952B4690
:102D300032463146FFF770FB934B944A2D99149815
:102D4000C4F8E437C4F8E827A4F8EC8705F068FE77
:102D50002B4631461E98CDF800901722FFF75CFBFA
:102D6000C4F820A8A4F824683846FFF793FB97E836
:102D7000070004F62C0383E807001E98CDF8DCB0AA
:102D80003946ADF8E08009F057F81E99149805F01F
:102D900047FE1499204605F043FE159800952B46F2
:102DA0003146B422FFF738FB2E9800952B46324669
:102DB0003146FFF731FB744B744A2E991598C4F8CD
:102DC0009038C4F89428A4F8988805F029FE2B467A
:102DD00031461F98CDF800901722FFF71DFBC4F86D
:102DE000CCA8A4F8D0683846FFF754FB97E8070052
:102DF00004F6D80383E8070004231F98ADF8E030F9
:102E00003946CDF8DCB009F017F81F99159805F090
:102E100007FE1599204605F003FE169800952B46EF
:102E20002946B422FFF7F8FA2F9800952B46324630
:102E30003146FFF7F1FA544B544A2F991698C4F8CB
:102E40003C39C4F84029A4F8448905F0E9FD2B4633
:102E500031462098CDF800901722FFF7DDFAC4F82C
:102E600078A9A4F87C693846FFF714FB97E80700B7
:102E700004F6841383E8070003232098ADF8E030BC
:102E80003946CDF8DCB008F0D7FF2099169805F048
:102E9000C7FD1699204605F0C3FD179800952B46EF
:102EA000B4227821FFF7B8FA309800952B463246C5
:102EB0003146FFF7B1FA344B344A30991798C4F8C9
:102EC000E839C4F8EC29A4F8F08905F0A9FD2B46EF
:102ED00031462198CDF800901722FFF79DFAC4F8EB
:102EE00024AAA4F8286A3846FFF7D4FA97E807001E
:102EF00004F5236383E8070002232198ADF8E0304E
:102F00003946CDF8DCB008F097FF2199179805F005
:102F100087FD1799204605F083FDB4221898009587
:102F20002B461146FFF778FA319800952B4632462A
:102F30003146FFF771FA144B144A31991898C4F8C6
:102F4000943AC4F8982AA4F89C8A05F069FD2B46A7
:102F500031462298CDF800901722FFF75DFAC4F8A9
:102F6000D0AAA4F8D46A3846FFF794FA97E8070085
:102F700004F6DC2383E8070001232298ADF8E03053
:102F80003946CDF8DCB003E098CCEDFFDAE0E6FF9F
:102F900008F052FF2299189805F042FD2046189932
:102FA00005F03EFD20463BB0BDE8F08F13B5002490
:102FB00051B1036801948DF8034001AA9C680DF19A
:102FC0000303A04702B010BD0846FBE7C089704765
:102FD000008A7047C088704780887047807A00F008
:102FE0007F007047807AC00970470020704700005A
:102FF0009FED010A704700BF000000007047704756
:1030000000F598730868496803C3704770477047B4
:103010004160704770470000064BC0F84C310023F8
:10302000C0F8503100F5A273C0F84801C0F8403133
:10303000704700BFD9300008012303727047704702
:10304000704710B4C26841685410034601EB620037
:10305000D20748BF0A599B685DF8044B48BFD35854
:1030600018470346406830B19A681AB9D86800F02A
:10307000010070470120704710B50C2104461DF077
:10308000A2FE204610BD10B5102104461DF09BFE87
:10309000204610BD10B54FF4AE7104461DF093FEEE
:1030A000204610BD10B50BF01FFC0368BDE81040B2
:1030B000DB6B184710B50446D0F8400158B10368DF
:1030C000DB68984738B1D4F8400103689B6898479B
:1030D0000023C4F8403110BD2DE9F14FD0E9556A05
:1030E0000746B06803681B6A984740F6BB5398428E
:1030F00005D8444B444AA32144481EF0ABFD7068F8
:1031000003681B6A98470F2803D8414B3E4AA42105
:10311000F2E7F06803681B6A98470B2803D83D4B19
:10312000394AA521E8E70BF0DFFBDFF8F090043027
:103130000BF0FFFBD9F8000010B10368DB6898477B
:10314000D9F8000010B103681B689847DFF8D080F9
:10315000D8F8000010B103685B699847D7F83C01C4
:1031600010B103685B689847D8F8000010B1036895
:103170001B689847D7F83C0110B103689B689847D3
:10318000F068036800215B6A98474FF0000B224B00
:10319000C0F804B0044680F808B00360B068036863
:1031A00059465B6A9847054600F0ECFD7068036875
:1031B00059465B6A98472946064600F0C1FD331D13
:1031C000C7F83C61C9F80040C8F80050CAF80030A0
:1031D0002B68C6F808A02846DB68EE63984733687A
:1031E00030461B689847214628460DF02DFD236880
:1031F00020461B69984723685B69204601B0BDE8FB
:10320000F04F184768370208F6370208C838020836
:103210000F390208B2390208CC3A020850330120B3
:103220004C330120044B1B6893F858200AB1D86C2A
:1032300000B99868704700BF08330120F8B51746F9
:1032400004460E460BF012FC124B1C60124B23601E
:10325000124B0025C4E95135114BC4E95355186888
:10326000036801219B68C4E94F55C4E95576984726
:10327000284600F08BFCFFF7D5FF15F0C0FCFFF7E8
:10328000D1FF15F037FDFFF7CDFF15F03FFD2046CC
:10329000F8BD00BF5C330120783A0208603A0208AA
:1032A00008330120064BC0F84C310023C0F85031E0
:1032B00000F5A273C0F84801C0F84031704700BF64
:1032C000D9300008406A7047806A704770478A8822
:1032D0000B8810B5D20A4C88C1699BB251F8220004
:1032E00043EA0443184410BD10B50446BAB1107B3C
:1032F00068B1537BD27A1B0203F4E0631A43236A5A
:1033000003EB82031A888A4202D193F9020010BDAE
:1033100005D8013880B204330028F3D1F7E7002044
:10332000F5E710B52C2104461DF04DFD204610BDDB
:1033300030B58BB00446BDF860500895BDF85C50C0
:1033400007959DF8505006959DF84C5005959DF8B1
:10335000485004959DF8445003959DF840500295BF
:103360009DF83C500195BDF8385000950DF0C6F819
:10337000064B2360159BE361169B2362199B6362D6
:103380001A9BA36220460BB030BD00BFF03A020882
:10339000704770477047704790F82D3080F89A302A
:1033A00080F85C30704790F82D3080F85C307047C2
:1033B00010B5642104461DF006FD204610BD10B571
:1033C000B42104461DF0FFFC204610BD10B54FF49B
:1033D000197104461DF0F7FC204610BD014634303B
:1033E00091F82C3013B1623108F082BE6031FBE7F6
:1033F00008B590F82C303BB100F1B0031B68C0F861
:103400009430FFF7EBFF08BD00F1AC03F6E710B511
:103410000446006B50B10368DB68984730B1206BFD
:10342000036821469B68BDE81040184710BD0B7922
:1034300070B590F82C6004460D460BB916B170BDFE
:10344000002EFCD0B3FA83F35B0984F82C30236898
:103450002046D3F88C309847236820465B6998470C
:10346000002EECD02B79012BE9D123682046D3F82C
:103470008830BDE87040184770B5036804461B6B80
:10348000154698472368294620465B6BBDE8704087
:10349000184770B5036804469B6B15469847236828
:1034A00029462046DB6BBDE8704018470B8870B595
:1034B000A0F860300546138825F8623F0446284688
:1034C0000EF002FC064628460EF032FC314602465B
:1034D0002046FFF7DEFF23682046D3F88C30BDE896
:1034E0007040184710B52622044600211EF0B9FD91
:1034F0002046FEF77FFF044B2360FF2384F826302D
:103500000023A362204610BDF843020810B526220E
:10351000044600211EF0A5FD2046FEF76BFF0A4B76
:1035200023600A4BA3624FF6FF73A3854FF47F021B
:103530000023C4E90C3223874FF0FF32C4E9102383
:10354000E363204610BD00BF684302083C36020812
:1035500038B5044600F16405284608F06DFCB4F95E
:103560000A20B4F908102846FFF793FF38BD000081
:10357000F7B50446FEF73EFF4FF47F432546A3858B
:103580000123002684F82430164BA662266345F8F2
:10359000343B4FF6FF77262231462846ADF80470BB
:1035A0001EF05FFD2846FEF725FF0F4B6363BDF855
:1035B0000430A4F85A3001A9284684F85C7008F059
:1035C00097FD324631462846A4F86070A4F8627030
:1035D000FFF752FF2046294605F022FA204603B0A5
:1035E000F0BD00BF583B0208C844020838B5044685
:1035F0002546FFF7BDFF074B45F8643B2846FFF71C
:1036000085FF00232046C4E92B33294605F008FA3C
:10361000204638BDF83B02082DE9F04F04468BB038
:10362000A1460025FEF7E6FE754BA56249F82C3B46
:1036300004F1580A484604F18407FFF753FF504647
:1036400004F59C76FFF74EFF3846FFF7CFFF04F5F1
:10365000F67B3046FFF7CAFF04F506785846FFF7B9
:1036600041FF4046FFF752FF664BC4F81832664BE5
:10367000A3604FF4A0732A46C4F860522946009311
:103680004846F023FEF7C8FE604B63654946204676
:1036900005F0C6F9322300934FF48772294650464D
:1036A000F023FEF7B9FE5A4BC4F88030514620464D
:1036B00005F0B6F94FF00102ADF8202007A908AADD
:1036C0003846ADF81C50FFF7F1FE2A46294604F1B2
:1036D000B800FFF7D1FE4F4B08934FF02409112398
:1036E00008A93846ADF82430FFF732FF2946642395
:1036F00004F1E800CDF800900A22FEF78DFE464A5C
:103700004FF07F4AC4E94C2A3846FFF771FE642324
:1037100040F215123846CDF800908221FEF77CFE6B
:103720003946204605F07CF94FF00101ADF8201034
:1037300008A90A46304607A9ADF81C50FFF7B6FEA7
:103740002A46294604F5B670FFF796FE314F0897D2
:10375000102308A93046ADF82430FFF7F9FE2946BA
:10376000642304F5CE70CDF800900A22FEF754FED3
:10377000294A3046C4E9792AFFF73AFE642340F229
:1037800015123046CDF800900B21FEF745FE31466C
:10379000204605F045F91423009302222946584695
:1037A000F023FEF739FE194BC4F81432594620466F
:1037B00005F036F9052240466321FFF75DFED4F897
:1037C0001832C4F848A202AE41463046D3F88430DD
:1037D000A4F84C52984796E8070004F5157383E85F
:1037E000070008A940460897ADF8245008F024FBCC
:1037F0002046414605F014F920460BB0BDE8F08F95
:10380000983C02084C360208F0004001DAE0E6FF7E
:1038100070630BFF3C360208393947FF7047704729
:1038200070477047704710B504466C3000F074FA6A
:1038300004F53470BDE8104000F02EBA094B10B505
:103840000360094BC0F8D032044600F53470FEF72F
:103850007EFD2046054B40F86C3FFFF799FD204662
:1038600010BD00BF2C3D0208403F0208284002085E
:1038700010B50446FFF7E2FF204640F6BC511DF0AC
:10388000A2FA204610BD00002DE9F8430446264662
:103890000DF02EF80025254BE56346F8403B244B00
:1038A0002566C4E910354FF4807304F16C09A4F85F
:1038B0006430FF2384F8663004F53478C4E9125587
:1038C000C4E91455C4E91655A566484600F01AFA2D
:1038D000404600F0D7F92A4629463046FFF7CCFD8E
:1038E0003046F021FDF704FD30464FF4A071FDF79E
:1038F00001FD271D4FF07F43A3663146384605F092
:103900008FF82A4629464846FFF7B6FD494638460D
:1039100005F086F8162229464046FFF7ADFD3846E9
:10392000414605F07DF82046BDE8F8832C3D0208AD
:10393000F84302087047000030B5164D2C68BFF3FD
:103940005B8F14F001048FB020D128461DF03DFAA2
:10395000E0B13F230993104B0893104B10491148D5
:103960000A940122CDE906430423CDE903320A2358
:103970000093CDE90B44CDE901440594FFF7D8FC51
:1039800009481EF085F928461DF02BFA05480FB0AE
:1039900030BD00BFF42400203C5202084852020807
:1039A0002C510208F8240020353900087047000027
:1039B00030B5174D2C68BFF35B8F14F001048FB046
:1039C00022D128461DF001FAF0B13F230993114B93
:1039D0000893114B07930123CDE905430493042376
:1039E000CDE902430C230D49009311220F23CDE9A9
:1039F0000B440B480A940194FFF79AFC09481EF007
:103A000047F928461DF0EDF905480FB030BD00BF5D
:103A100024250020405202084C5202083C51020862
:103A200028250020AD3900087047000030B5164D3C
:103A30002C68BFF35B8F14F001048FB020D12846AF
:103A40001DF0C3F9E0B13F230993104B0893104BCD
:103A5000104911480A940122CDE906430423CDE917
:103A6000033228230093CDE90B44CDE901440594AA
:103A7000FFF75EFC09481EF00BF928461DF0B1F96E
:103A800005480FB030BD00BF542500204452020845
:103A9000505202082C52020858250020293A0008EA
:103AA00000207047002070470EB403B503AB00211F
:103AB00053F8042B01930BF09FFF02B05DF804EB69
:103AC00003B070470CB407B504AB53F8042B019353
:103AD0000BF092FF03B05DF804EB02B070470000FA
:103AE000436C10B5044673B3038F2BB9184B194AB6
:103AF000C52119481EF0AEF8C38E00EB43035B8C62
:103B00000BB30DF0FAFD238F012B03D8134B144A8E
:103B1000CB21EEE7E28E531C9BB2092B194688BFDE
:103B2000A3F10A0104EB410140F63F10498C8142A8
:103B300009D10A2B04EB420228BF002304EB430304
:103B4000508C588451842046BDE810400DF0D8BCFC
:103B5000583D0208613D02080C3E0208563E02082C
:103B6000643E02080DF093BC10B586B002AC84E848
:103B700006001A460AAB05930193099B0093214660
:103B8000089B0AF04FFA06B010BD000038B518BB0C
:103B9000124B13481C681349B4B1226822440260D6
:103BA000626822440A60A26814440F4B00221A8003
:103BB00000F038F8054600F033F80C4B1C600C4B55
:103BC0001D600C4B188007E00B4B03600B4B0B6028
:103BD0000B4B1C68002CE8D138BD00BF902500209D
:103BE00088250020842500208C25002060330120BA
:103BF0006833012064330120A052020854520208A5
:103C0000CC520208044B1B6853F82100034B1B687D
:103C100003EB4000704700BF84250020882500206A
:103C200013207047004870479425002010B5FFF717
:103C3000BFFE044C2060FFF7F9FE6060FFF77CFEDA
:103C4000A06010BD9425002010B5002404600C6015
:103C500014601C6010BD000010B5034B03600446E7
:103C6000FEF775FB204610BD403F020810B5044624
:103C7000FFF7F2FF204640F6EC211DF0A4F82046A5
:103C800010BD000010B50446FEF738FC014B236060
:103C9000204610BD403F0208FEF75ABB704710B5E2
:103CA0004FF4AE7104461DF08EF8204610BD10B5DD
:103CB0000446D0F8580100F034F82046BDE8104022
:103CC0000AF094BE10B50446FFF7B8FA014B236022
:103CD000204610BDD43F020810B5034B03600446D4
:103CE000FFF756FB204610BD2840020810B50446D9
:103CF000FFF7F2FF20464FF419711DF064F82046DB
:103D000010BD000010B50446FFF786FC014B236090
:103D1000204610BD28400208FFF73BBB002202608E
:103D200070477047704704387047704710B51021CE
:103D300004461DF048F8204610BDA0F10400F5E748
:103D400000228260024A026018324260C1607047FD
:103D5000BC4002087047000010B5034B03600446E6
:103D6000FFF76CFD204610BDE440020810B5044684
:103D7000FFF7F2FF204640F6BC511DF024F8204624
:103D800010BD000010B50446FFF77EFD014B236017
:103D9000204610BDE4400208FFF745BDF020704703
:103DA0004FF4A07070472920FDF724BF2820FDF7AD
:103DB00021BF08B5FDF7F2FECA20FDF71BFFC320A7
:103DC000FDF7FCFE0820FDF7F9FE5020FDF7F6FE9A
:103DD000CF20FDF70FFF0020FDF7F0FEC120FDF71B
:103DE000EDFE3020FDF7EAFEED20FDF703FF642035
:103DF000FDF7E4FE0320FDF7E1FE1220FDF7DEFEF5
:103E00008120FDF7DBFEE820FDF7F4FE8520FDF7BD
:103E1000D5FE0020FDF7D2FE7820FDF7CFFECB20A7
:103E2000FDF7E8FE3920FDF7C9FE2C20FDF7C6FEA0
:103E30000020FDF7C3FE3420FDF7C0FE0220FDF791
:103E4000BDFEF720FDF7D6FE2020FDF7B7FEEA20E5
:103E5000FDF7D0FE0020FDF7B1FE0020FDF7AEFE1D
:103E6000B120FDF7C7FE0020FDF7A8FE1B20FDF7DF
:103E7000A5FEB620FDF7BEFE0A20FDF79FFEA2209C
:103E8000FDF79CFEC020FDF7B5FE1020FDF796FE65
:103E9000C120FDF7AFFE1020FDF790FEC520FDF715
:103EA000A9FE4520FDF78AFE1520FDF787FEC720F5
:103EB000FDF7A0FE9020FDF781FE3620FDF79AFE6B
:103EC000C820FDF77BFEF220FDF794FE0020FDF7F1
:103ED00075FEB020FDF78EFEC220FDF76FFEB62006
:103EE000FDF788FE0A20FDF769FEA720FDF766FEB4
:103EF0002720FDF763FE0420FDF760FE2A20FDF772
:103F000079FE0020FDF75AFE0020FDF757FE002045
:103F1000FDF754FEEF20FDF751FE2B20FDF76AFE62
:103F20000020FDF74BFE0020FDF748FE0120FDF7C5
:103F300045FE3F20FDF742FEF620FDF75BFE012027
:103F4000FDF73CFE0020FDF739FE0620FDF736FEAA
:103F50002C20FDF74FFEC820FDF79AFE2620FDF726
:103F600049FE0120FDF72AFEE020FDF743FE0F2069
:103F7000FDF724FE2920FDF721FE2420FDF71EFE7B
:103F80000C20FDF71BFE0E20FDF718FE0920FDF7A3
:103F900015FE4E20FDF712FE7820FDF70FFE3C20A7
:103FA000FDF70CFE0920FDF709FE1320FDF706FEC4
:103FB0000520FDF703FE1720FDF700FE1120FDF799
:103FC000FDFD0020FDF7FAFDE120FDF713FE0020C6
:103FD000FDF7F4FD1620FDF7F1FD1B20FDF7EEFDCA
:103FE0000420FDF7EBFD1120FDF7E8FD0720FDF7AC
:103FF000E5FD3120FDF7E2FD3320FDF7DFFD422036
:10400000FDF7DCFD0520FDF7D9FD0C20FDF7D6FD01
:104010000A20FDF7D3FD2820FDF7D0FD2F20FDF766
:10402000CDFD0F20FDF7CAFD1120FDF7E3FDC820EF
:10403000FDF72EFE2920FDF7DDFDBDE808402C2010
:10404000FDF7D8BD08B5FDF7A9FD0321D320FDF785
:10405000EDFD80B208BD10B5C4B202220321204696
:10406000FDF752FD0A20FDF797FD204600220321AF
:10407000FDF74AFDBDE810400220FDF78DBD38B5C3
:104080000446E4B2FDF73EFD00212046FDF754FD55
:10409000012105462046FDF74FFD40EA052080B28C
:1040A00038BD10B5C4B240212046FDF745FD0306DA
:1040B00007D54C212046FDF73FFD003818BF0120F1
:1040C00010BD01224B212046FDF71EFD2046002297
:1040D0004B21FDF719FD0020F2E773B50423C4B2AC
:1040E0000E461546D7210DEB03022046FDF73EFD97
:1040F000019B1BBA1A0DC3F30B23328020462B8081
:1041000001224B21FDF700FD00224B212046FDF747
:10411000FBFC02B070BD000010B50A4A137898424B
:1041200004460DD0517888420AD00BB141B9012321
:10413000D454FDF7E7FC2046BDE81040FFF78BBFE5
:1041400010BD00BFA025002010B5C4B20921204633
:10415000FDF7F2FC40F00102D2B220460921BDE891
:104160001040FDF7D1BC10B5C4B209212046FDF7BF
:10417000E3FC092100F0FE022046BDE81040FDF7F7
:10418000C3BC38B5C4B20D4620460A21FDF7D4FCA5
:1041900040EA0502D2B220460A21BDE83840FDF7C8
:1041A000B3BC10B50446FDF7AEFC20461F21FFF757
:1041B000E8FF2046BDE81040FFF7C6BF38B5C4B2DF
:1041C0000D4620460A21FDF7B7FC20EA0502D2B2CF
:1041D00020460A21BDE83840FDF796BC10B50446DC
:1041E000FFF7C1FF20461F21BDE81040FFF7E6BFE3
:1041F00010B5C0B20C460B21FDF79EFC204010BD4F
:104200001F21FFF7F5BF0A46C0B20B21FDF77CBCAA
:104210001F21FFF7F8BF38B5C4B20D46204617215D
:10422000FDF78AFC20EA0502D2B220461721BDE83C
:104230003840FDF769BC70B5C4B20646042120467B
:10424000FDF77AFC042100F0FB0205462046FDF74D
:104250005BFC3046F021FFF7DEFF05F0F802204658
:104260000421FDF751FC492220212046FDF74CFC9A
:104270000220FDF791FC204601222121FDF744FC9C
:1042800020469A224121FDF73FFC204601224A2187
:10429000FDF73AFC204601224B21FDF735FC204674
:1042A00000224B21FDF730FC204601225621FDF76C
:1042B0002BFC204601225821FDF726FC2046012236
:1042C0004021FDF721FC2046FF220B21FDF71CFCBD
:1042D000BDE870400220FDF75FBC0000054BD3F83D
:1042E000882042F47002C3F888204FF000629A6080
:1042F000704700BF00ED00E008B50B4B1A6842F4B0
:1043000000721A601A6842F480621A601A6842F4F5
:1043100080721A60032000F02FF80020FDF7FAFEEB
:10432000FDF7C4FC002008BD003C0240034A044BDA
:1043300011681B780B441360704700BFA425002050
:1043400078000020014B1868704700BFA4250020AA
:1043500038B50446FFF7F6FF631C1CBF054B1B78FE
:10436000054618BFE418FFF7EDFF431BA342FAD33D
:1043700038BD00BF780000200749CA6822F4E06217
:104380000302120403F4E063120C134343F0BF630F
:1043900043F40033CB60704700ED00E0164B30B5BE
:1043A000DC68C4F30224C4F10703251D042B28BFD5
:1043B0000423062D4FF0FF358CBF033C002405FA83
:1043C00003F321EA0303A54022EA0502A3400028E3
:1043D00043EA0203ACBF00F16040084A4FEA03130E
:1043E000B8BF00F00F00DBB2AABF00F56140135464
:1043F00080F8003330BD00BF00ED00E014ED00E0B8
:10440000002807DB044A4109012300F01F00834014
:1044100042F82130704700BF00E100E010B50446CB
:1044200050B1437903F0FF0213B90271FDF75EFC4E
:1044300001236371002010BD0120FCE710B5044684
:1044400030B390F8393003F0FF021BB980F8382000
:10445000FDF764FC22686168022384F83930136830
:1044600023F440330B431360536BA16823F007031D
:104470000B435363136CE16823F47F5323F03F0332
:104480000B43136400200123E06384F8393010BD2E
:104490000120FCE770477047036870B55E681D68CF
:1044A000F207044614D5E90512D51A6822F4807281
:1044B0001A60C26B42F00102C26301229A600423B7
:1044C00080F83930002380F83830436903B19847C9
:1044D000B20616D5AB0414D523681A6822F400522C
:1044E0001A6020229A60E36B43F00203E363042323
:1044F00084F83930002384F8383063690BB12046E2
:104500009847300716D5290514D523681A6822F470
:1045100000621A6008229A60E36B43F00403E363CD
:10452000042384F83930002384F8383063690BB1F0
:104530002046984772070BD56B0509D523681A6882
:1045400022F480621A6004229A602046FFF7A2FFDC
:10455000B00714D5A90512D523681A6822F4007291
:104560001A6002229A60E36BE363012384F8393016
:10457000002384F8383023690BB120469847F206AF
:1045800013D5EB0411D523681A6822F480521A60FF
:1045900010229A60E36BE363012384F8393000232F
:1045A00084F838302046FFF776FF70BDF0B590F8FC
:1045B0003820012A03464FF002002BD0012283F855
:1045C000382083F8390003EB0112D2E90740556A1D
:1045D000174F44EA0040093C012C9CBF05F07F4284
:1045E00010434FEA01161A6888BF40EA056091B986
:1045F000516A394001435162012C9969916103D894
:10460000596A21F07F4191620122002083F839200C
:1046100083F83800F0BDD16939400143D16199195F
:10462000012C896911619CBF25F07F451562EBE77C
:10463000F0FFFC002DE9F74FDFF8BC916C4A002336
:104640000D6801249C4004EA0506AC4340F0B780A5
:104650004D68032705F003044FEA430807FA08FCF6
:10466000671E012F6FEA0C0C34D8876807EA0C0E1E
:10467000CF6807FA08F747EA0E078760476827EA16
:10468000060EC5F300179F4047EA0E074760C7684C
:1046900007EA0C0E8F6807FA08F747EA0E07022CA4
:1046A000C76019D14FEAD30A00EB8A0A03F0070B5F
:1046B000DAF820704FEA8B0B4FF00F0E0EFA0BFE5C
:1046C00027EA0E0E0F6907FA0BF747EA0E07CAF83A
:1046D000207001E0032CDAD1076804FA08F407EA35
:1046E0000C073C4315F4403F046068D0002401945B
:1046F000D9F8444044F48044C9F84440D9F84440CF
:1047000023F0030707F1804704F4804407F59C3742
:10471000019403F0030C019CD7F808E04FEA8C0CDD
:104720000F2404FA0CF42EEA040E324CA0424DD0B1
:1047300004F58064A0424BD004F58064A04249D0C7
:1047400004F58064A04247D004F58064A04245D0BF
:1047500004F58064A04243D004F58064A04241D0B7
:1047600004F58064A0423FD004F58064A0423DD0AF
:1047700004F58064A04214BF0A24092404FA0CF44E
:1047800044EA0E04BC609468F74315F4801F0CBF24
:104790003C4034439460D46815F4001F0CBF3C4087
:1047A0003443D460546815F4003F0CBF3C4034439C
:1047B00054601468ED0354BF3C403443146001332B
:1047C000102B7FF43DAF03B0BDE8F08F0024D5E798
:1047D0000124D3E70224D1E70324CFE70424CDE763
:1047E0000524CBE70624C9E70724C7E70824C5E763
:1047F000003C0140000002400038024003691942B9
:1048000014BF0120002070470AB18161704709047C
:10481000FBE7436901EA030221EA030141EA02419D
:104820008161704701684B6913F480634FF00002A7
:1048300010D06FF480634B612023026380F83D3019
:1048400080F83E20036C80F83C2043F004030364AE
:1048500001207047184670472DE9F84606460F4676
:1048600091461D464FEA114A3368BAF1010F0CBF59
:104870005C699C6927EA0404A4B2B4FA84F464096C
:10488000A14501D0002025E06A1CEED0FFF75AFDBB
:10489000089BC01AA84201D8002DE5D13368BAF1AF
:1048A000010F0CBF5B699B6927EA03039BB2B3FA54
:1048B00083F35B099945D7D100232022336386F81F
:1048C0003D2086F83E30326C86F83C3042F02002C3
:1048D00032640120BDE8F8862DE9F04104460F4618
:1048E000164698462568686927EA000080B2C0B17C
:1048F0006B695A0517D52B6843F400732B606FF46E
:1049000080636B6120220023236384F83D2084F8B8
:104910003E30236C43F004032364002384F83C30CE
:104920000120BDE8F081731CDDD0FFF70BFDA0EB8B
:104930000800B04201D8002ED4D123685A6927EA72
:10494000020292B2002ACDD000232022236384F8F1
:104950003D2084F83E30236C1343DDE770B50446F8
:104960000D46164623685B691B0601D500201EE034
:104970002046FFF757FFC8B96A1CF3D0FFF7E2FCE7
:10498000801BA84201D8002DECD123685B6913F08D
:104990008003E7D12022236384F83D2084F83E3051
:1049A000226C84F83C3042F020022264012070BD69
:1049B0002DE9F0431546026885B0DDE90C7899468B
:1049C000136843F4807313600E463B46CDF80080B5
:1049D00000224FF001110446FFF73EFF236838B173
:1049E0001B68DB0502D54FF400732364032620E027
:1049F00006F0FE061E611A4943463A462046FFF776
:104A00006BFFA8B9236803905A6903929B690393CB
:104A1000424639462046039BFFF7A0FF064660B199
:104A2000236C042B01BF2268136843F400731360E6
:104A30000126304605B0BDE8F083B9F1010F2368C7
:104A400002D1EDB21D61F4E72A0A1A6139464246E5
:104A50002046FFF783FF0028E2D12368F1E700BF7B
:104A6000020001002DE9FF479A46036815461A68BF
:104A700042F480621A601A68DDE90C7842F48072B0
:104A80001A600E463B46CDF8008000224FF001111F
:104A90000446FFF7E1FE236838B11B68DB0544BF1D
:104AA0004FF400732364032021E05FFA86F906F0D7
:104AB000FE061E612B4943463A462046FFF70CFF8F
:104AC000A0B9236803905A6903929B6903934246F5
:104AD00039462046039BFFF741FF58B1236C042B56
:104AE00001BF2268136843F400731360012004B00F
:104AF000BDE8F087BAF1010F23681AD1EDB2424642
:104B00001D6139462046FFF729FF02460028E5D1FE
:104B100021680B6843F480730B602046CDF8008059
:104B20003B464FF00111FFF797FE226860B1136812
:104B3000B4E72A0A1A61394642462046FFF70EFFBB
:104B40000028CBD12368D9E749F001031361054957
:104B500043463A462046FFF7BFFE003818BF012003
:104B6000C5E700BF0200010070B504460D461646B9
:104B700023685B695B0701D500201EE02046FFF734
:104B800051FEC8B96A1CF3D0FFF7DCFB801BA842BA
:104B900001D8002DECD123685B6913F00403E7D141
:104BA0002022236384F83D2084F83E30226C84F870
:104BB0003C3042F020022264012070BD70B50446F2
:104BC0000D46164621684B6913F0400301D00020C2
:104BD00011E04A69D2060FD56FF010024A61202217
:104BE000236384F83D2084F83E30236C2364002343
:104BF00084F83C30012070BDFFF7A4FB801BA84265
:104C000001D8002DDED123685B6913F04003D9D1B0
:104C10002022236384F83D2084F83E30236C134324
:104C2000E4E7000070B5044608B9012070BD90F8B3
:104C30003D3003F0FF021BB980F83C20FDF790F8EF
:104C4000242384F83D3023681A6822F001021A6098
:104C50001A6842F400421A601A6822F400421A608C
:104C600000F0B2FE3F4B65689D4294BF3E4B3F4B08
:104C700098428CBF00230123002BD6D12268394EE5
:104C800051683B4BB0FBF3F321F03F011943B542B0
:104C9000516088BF4FF49676116A88BF734321F044
:104CA0003F0184BF4FF47A76B3FBF6F301330B4335
:104CB0001362D169431E2B4821F44F41854221F0F4
:104CC000FF0132D86D0040F6FC70B3FBF5F3013301
:104CD000034242D0C3F30B031943D161D4E9073037
:104CE0001168034321F0C0010B4313609168D4E9BC
:104CF000030321F40341034321F0FF010B439360BD
:104D0000D4E90530D168034321F0FF010B43D360A0
:104D1000136843F00103136000202023206484F80B
:104D20003D30206384F83E0080E7A06850B905EB71
:104D30004505B3FBF5F30133C3F30B037BB143F438
:104D40000043C9E719206843B3FBF0F30133C3F311
:104D50000B0323B143F44043BEE70423BCE7012324
:104D6000BAE700BFA08601007F841E00FF083D0057
:104D700040420F002DE9F743044699460C9E0F462A
:104D80009046FFF7DFFA94F83D30202B054603D01C
:104D9000022003B0BDE8F08300903C4919230122B2
:104DA0002046FFF759FD0028F2D194F83C30012B42
:104DB000EED02068012384F83C300368D9075EBF39
:104DC000036843F001030360036823F40063036096
:104DD000212384F83D30402384F83E3000232364AF
:104DE0000A9B6362BDF82C306385638D2385284B55
:104DF000E3624246CDE900654B4639462046FFF75F
:104E0000D7FD00282AD00120C3E7FFF7A7FD40B156
:104E1000236C042B01BF2268136843F400731360F2
:104E2000F1E7636A27681A4612F8011B396162626A
:104E3000628D218D013A92B262857A69481E80B2F4
:104E4000520720850AD548B15A783A610233636225
:104E5000638D013B02399BB221856385238D2A46F0
:104E600031462046002BD0D1FFF77EFE0028CFD15F
:104E70002268136843F400731360202384F83D30E4
:104E800084F83C0084F83E0083E700BF0200100075
:104E90000000FFFF2DE9F043044687B09946109FBC
:104EA0000D469046FFF74EFA94F83D30202B06460B
:104EB00004D00225284607B0BDE8F08300907A4967
:104EC000192301222046FFF7C7FC0028F1D194F8EE
:104ED0003C30012BEDD02068012384F83C3003687E
:104EE000DB075EBF036843F001030360036823F43C
:104EF00000630360222384F83D30402384F83E3071
:104F0000002323640E9B6362BDF83C306385638D90
:104F10002385664BE3622946CDE900764B4642463F
:104F20002046FFF79FFD054608B10125C2E7228D07
:104F30002368B2B902905A6902929A690292029A5F
:104F40001A6842F400721A60DFF86481238D002B26
:104F50002CD1202284F83D2084F83C3084F83E3067
:104F6000A8E7012A0AD11A6822F480621A60039025
:104F70005A6903929A690392039AE1E7022A0ED1D1
:104F80001A6822F480621A601A6842F400621A6099
:104F900004905A6904929B690493049BD4E705909A
:104FA0005A6905929B690593059BCDE7032B56D85B
:104FB000012B15D1324639462046FFF7FFFD002868
:104FC000B3D123681A69636A1A70636A0133636232
:104FD000238D013B2385638D013B9BB26385B5E740
:104FE000022B00963B464FF000024146204619D165
:104FF000FFF732FC002898D123681A6842F4007247
:105000001A601A69636A1A70626A531C6362238D9C
:10501000013B2385638D013B9BB2638523681B693C
:105020005370D2E7FFF718FC024600287FF47DAFEB
:105030002368196821F4806119601969636A19701D
:10504000636A01336362238D013B2385638D013BDA
:105050009BB26385414600963B462046C8E73246F0
:1050600039462046FFF7AAFD00287FF45EAF23688B
:105070001A69636A1A70628D616A013A92B24B1CB6
:10508000628522686362238D5069013B9BB24007B1
:1050900023857FF55BAF032B02BF136823F4806386
:1050A000136013694B7090E7020010000000FFFFCF
:1050B0000400010010B590F83D30202BDCB216D171
:1050C000242380F83D3003681A6822F001021A6038
:1050D0005A6A22F010025A625A6A114359621A68D7
:1050E00042F001021A6080F83D40002010BD02200D
:1050F000FCE730B590F83D30202BDCB216D10268C9
:10510000242380F83D30136823F001031360556AAF
:105110004FF6F0732B400B439BB25362136843F07E
:105120000103136080F83D40002030BD0220FCE701
:105130000068D1F800C0D201843283182DE9F04311
:10514000C6685D684C68D1F8189005F470455D60DC
:10515000C5680CF10107C5F30B45C6F30B463D448A
:10516000264445EA06455D60C668CD68C6F30A0672
:105170002E449D6805F470459D60C7688D68C7F32F
:105180000A0701353D4445EA06459D601D690E69E3
:1051900025F007051D614FF0000E1E619D6991F815
:1051A000327091F83180C3F818E091F8305045EA38
:1051B000096545EA082545EA07459D615D6925F0D1
:1051C000FF055D614D695D61DD6925F4E06525F0F0
:1051D0000705DD61D1E907573D43DD619D6A4D6AF1
:1051E000C3F828E09D621EB3012E23D0B51E022D08
:1051F00022D9072E14BF01250225DE6A06F0E0261B
:10520000DE62A4EB0C048E6AC96A6C436E430334FD
:1052100044EA0644DC621C6B24F4FF6424F00704B7
:105220001C631963835843F001038350BDE8F08386
:105230000425E2E70325E0E70225DEE738B504466A
:10524000002863D090F8A13003F0FF021BB980F86A
:10525000A020FCF7E1FD022384F8A13023689A69BD
:1052600022F070429A61D4E901200243E068996912
:105270000243206902430A439A619A68244960699B
:105280000A409A609A6842EA0042A06902439A6022
:10529000DA68E0690A40DA60DA6842EA0042206AC5
:1052A0000243DA601A69606A0A401A611A6942EABE
:1052B0000042A06A02431A615A690A405A615A6957
:1052C000E16A42EA0142216B0A435A61DA6A94F8C0
:1052D000350094F8361002F07F42DA62DD6A94F805
:1052E00034202A4342EA002242EA0142DA625A6B3F
:1052F00042F006025A639A6942F001029A61002064
:105300000123C4F8A40084F8A13038BD0120FCE7D3
:1053100000F800F070477047036870B59E6B5D6BD6
:105320007207044614D5690712D55A6B22F004029D
:105330005A630422DA63D0F8A43043F00103C0F8C2
:10534000A430002380F8A12080F8A030FFF7E2FF0E
:10535000B20716D5AB0714D523685A6B22F00202A8
:105360005A630222DA63D4F8A4301343C4F8A43099
:10537000042384F8A130002384F8A0302046FFF7EE
:10538000C9FFF00710D5E9070ED523685A6B22F044
:1053900001025A630122DA63002384F8A12084F811
:1053A000A0302046FCF716F9320711D52B070FD590
:1053B00023685A6B22F008025A630822DA63012339
:1053C00084F8A130002384F8A0302046FFF7A3FF23
:1053D00070BD2DE9F04190F8A030012B06460F4634
:1053E00094464FF002001FD04FF0010886F8A080CD
:1053F00086F8A10034240D4604FB02640FCD383436
:105400000FC40FCD0FC40FCD0FC42B6823603046DF
:1054100062463946FFF78CFE33680020C3F82480CB
:1054200086F8A18086F8A000BDE8F08190F8A02061
:10543000012A03464FF0020012D01A6883F8A10037
:10544000506B20F00100506306480164516B41F03D
:10545000010151630020012283F8A12083F8A000FC
:10546000704700BF0068014037B500230193184B17
:10547000184D1A6C42F080521A641B6C03F0805372
:105480000193019B144B01221A64FEF75BFF044653
:105490006B68DA030BD5104B0E4D01225A64FEF7F0
:1054A00051FF04466B689B030AD5002006E0FEF717
:1054B00049FF001BB0F57A7FEAD9032003B030BD65
:1054C000FEF740FF001BB0F57A7FEBD9F5E700BF90
:1054D000003802400070004000000E422DE9F34108
:1054E000044640B30368DE0710D423689D075BD4ED
:1054F0002368190700F19D8023685A0700F1BD80D9
:10550000A369002B40F0248100202CE08D4B9A6889
:1055100002F00C02042A07D09A6802F00C02082A52
:105520000BD15B68590208D5864B1B689A03DCD502
:105530006368002BD9D1012015E06368814DB3F574
:10554000803F13D12B6843F480332B60FEF7FAFEC3
:105550007C4E054633689B03C7D4FEF7F3FE401B21
:105560006428F7D9032002B0BDE8F081B3F5A02F7D
:1055700004D12B6843F480232B60E3E72A6822F4EC
:1055800080322A602A6822F480222A60002BDDD132
:10559000FEF7D8FE06462B689F03A6D5FEF7D2FE7F
:1055A000801B6428F7D9DDE7664B9A6812F00C0F70
:1055B00007D09A6802F00C02082A11D15B685D02DC
:1055C0000ED4604A1368990702D5E368012BB2D163
:1055D0001368216923F0F80343EAC103136087E7E6
:1055E000E268594BB2B101221A60FEF7ABFE554D8D
:1055F00006462B689B0707D52B68226923F0F80322
:1056000043EAC2032B6073E7FEF79CFE801B02286F
:10561000EFD9A7E71A60FEF795FE4A4E05463368B4
:105620009F077FF565AFFEF78DFE401B0228F6D978
:1056300098E76269444B82B10122C3F8802EFEF7DD
:1056400081FE404E0546736F9B073FF555AFFEF751
:1056500079FE401B0228F6D984E7C3F8802EFEF7B6
:1056600071FE384E0546736F9F077FF545AFFEF715
:1056700069FE401B0228F6D974E7324B1A6C12F00F
:10568000805228D101921A6C42F080521A641B6C2D
:1056900003F080530193019B01272C4D2B68D80503
:1056A0001BD5A368274D012B27D12B6F43F0010396
:1056B0002B67FEF747FE234E054641F28838336FCD
:1056C0009A0739D5002F3FF41BAF1E4A136C23F005
:1056D0008053136414E70027DFE72B6843F48073DB
:1056E0002B60FEF72FFE06462B68D905D9D4FEF7AE
:1056F00029FE801B0228F7D934E7052B04D12B6F34
:1057000043F004032B67D0E72A6F22F001022A67D7
:105710002A6F22F004022A67002BCAD1FEF712FE7C
:1057200041F2883806462B6F9B07CBD5FEF70AFE61
:10573000801B4045F7D915E7FEF704FE401B4045A6
:10574000BDD90FE70038024000004742007000401A
:10575000374DAA6802F00C02082A3ED0022B354BC6
:105760004FF000021A662BD1FEF7ECFD06462B68BF
:1057700099011FD4D4E907321343626A43EA8213C2
:10578000E26A43EA0263A26A5208013A43EA024328
:105790006B60284B264D01221A66FEF7D3FD0446A6
:1057A0002B689A013FF5B0AEFEF7CCFD001B022836
:1057B000F6D9D7E6FEF7C6FD801B0228D7D9D1E679
:1057C000FEF7C0FD04462B689B017FF59DAEFEF7FA
:1057D000B9FD001B0228F6D9C4E6012B3FF4ABAE9D
:1057E0006B68E26903F4800191427FF4A4AE216A00
:1057F00003F03F028A427FF49EAE616A47F6C072B0
:105800001A40B2EB811F7FF496AEA26A520803F4ED
:105810004031013AB1EB024F7FF48DAEE26A03F002
:105820007063B3EB026F14BF012000209BE600BF42
:105830000038024000004742134908B58B6803F066
:105840000C03042B1CD0082B1CD14A684B684968F8
:1058500013F4800314BF0D480D48C1F3881118BF1D
:10586000002302F03F02A1FB0001FAF761FD064BA5
:105870005B68C3F3014301335B00B0FBF3F008BD89
:105880000248FCE70248FAE70038024000127A00BA
:105890000024F4002DE9F0410D46044610B9012022
:1058A000BDE8F081434B1A6802F00F028A4228D308
:1058B00021688F072DD4C80740D43E4B1A6802F0E8
:1058C0000F02AA4265D8226851076BD4130707D587
:1058D000394A2169936823F4604343EAC103936022
:1058E000FFF7AAFF344B354A9B68C3F30313D35C1D
:1058F000D840334B1860334B1868FCF70BFC002082
:10590000CEE7CAB21A701B6803F00F038B42C6D1F0
:10591000CEE7294B11F0040F1EBF9A6842F4E05203
:105920009A600E0742BF9A6842F460429A609A6891
:10593000A06822F0F00202439A60BCE762681E4B46
:10594000012A1CD11B6813F4003FA8D01A4EB3687B
:1059500023F003031343B360FEF7F4FC41F28838ED
:105960000746B368626803F00C03B3EB820FA4D060
:10597000FEF7E8FCC01B4045F3D9032090E7911ED9
:1059800001291B6802D813F0007FDEE713F0020F35
:10599000DBE7EAB21A701B6803F00F03AB427FF437
:1059A0007EAF90E70449E0688B6823F4E05303433B
:1059B0008B608BE7003C024000380240184102082F
:1059C000740000207C000020044B054A9B68C3F350
:1059D0008223D35C034A1068D840704700380240E5
:1059E00010410208740000200F2303600B4B9A68DB
:1059F00002F0030242609A6802F0F00282609A6844
:105A000002F4E052C2609B68DB0803F4E0530361D8
:105A1000034B1B6803F00F030B6070470038024014
:105A2000003C0240036813F0430FF7B5044640F012
:105A30008880236813F00C0F45D08C4B8C4D0022CE
:105A40001A67FEF77FFC06462B68990000F1CB80B1
:105A500021684A0715D5D4E90403D5F888201B0628
:105A600002F0E04243EA80131343C5F88830D5F8CA
:105A70008C30226A23F4F853013A43EA0223C5F832
:105A80008C300B0714D57A4AA369D2F888102069A4
:105A90001B0701F0706143EA80130B43C2F88830A2
:105AA000D2F88C30616A23F440330B43C2F88C3057
:105AB0006E4B6F4E01221A67FEF744FC05463368B1
:105AC0009F0040F197802368980634D50023019306
:105AD000674B684D1A6C42F080521A641B6C03F0DD
