:020000040800F2
:1000000000000320C5100008592C00085B2C0008D4
:100010005D2C00085F2C0008612C00080000000027
:10002000000000000000000000000000A17B0008AC
:10003000632C000800000000317C0008C174000837
:1000400015110008151100081511000815110008F8
:1000500015110008151100081511000815110008E8
:1000600015110008151100081511000815110008D8
:1000700015110008151100081511000815110008C8
:1000800015110008151100081511000815110008B8
:1000900015110008151100081511000815110008A8
:1000A0001511000815110008151100081511000898
:1000B0001511000815110008151100081511000888
:1000C0001511000815110008151100081511000878
:1000D0001511000815110008151100081511000868
:1000E0001511000815110008151100081511000858
:1000F0001511000815110008151100081511000848
:100100001511000815110008151100081511000837
:100110001511000815110008652C000815110008BC
:100120001511000815110008151100081511000817
:100130001511000815110008151100081511000807
:1001400015110008151100081511000815110008F7
:1001500015110008151100081511000815110008E7
:1001600015110008151100081511000815110008D7
:1001700015110008151100081511000800000000F5
:1001800015110008151100081511000815110008B7
:1001900015110008151100081511000815110008A7
:0C01A000712C0008151100087D2C0008CF
:1001B00010B5054C237833B9044B13B10448AFF3A1
:1001C00000800123237010BDC00500200000000046
:1001D000A864040808B5034B1BB103490348AFF3F7
:1001E000008008BD00000000C4050020A8640408C9
:1001F00010F8012B11F8013B012A28BF9A42F7D0D1
:10020000D01A70470000000000000000000000004D
:1002100001F0FF01102A2BDB10F0070F08D010F8B7
:10022000013B013A8B422DD010F0070F42B3F6D1BB
:10023000F0B441EA012141EA014122F007047FF0D4
:1002400000070023F0E80256083C85EA010586EA2B
:10025000010685FA47F5A3FA87F586FA47F6A5FA67
:1002600087F68EB9EED1F0BC01F0FF0102F0070273
:1002700032B110F8013B013A83EA010313B1F8D11E
:100280000020704701387047002D06BF35460338FF
:10029000073815F0010F07D1013015F4807F02BF38
:1002A000013015F4C03F0130F0BC0138704700BF89
:1002B000034613F8012B002AFBD1181A01387047A6
:1002C00081F0004102E000BF83F0004330B54FEA07
:1002D00041044FEA430594EA050F08BF90EA020F74
:1002E0001FBF54EA000C55EA020C7FEA645C7FEA07
:1002F000655C00F0E2804FEA5454D4EB5555B8BF2A
:100300006D420CDD2C4480EA020281EA030382EA9A
:10031000000083EA010180EA020281EA0303362D2C
:1003200088BF30BD11F0004F4FEA01314FF4801CFF
:100330004CEA113102D0404261EB410113F0004F11
:100340004FEA03334CEA133302D0524263EB4303C8
:1003500094EA050F00F0A780A4F10104D5F1200E66
:100360000DDB02FA0EFC22FA05F2801841F10001C1
:1003700003FA0EF2801843FA05F359410EE0A5F195
:1003800020050EF1200E012A03FA0EFC28BF4CF0C6
:10039000020C43FA05F3C01851EBE37101F000457C
:1003A00007D54FF0000EDCF1000C7EEB00006EEB89
:1003B0000101B1F5801F1BD3B1F5001F0CD3490813
:1003C0005FEA30004FEA3C0C04F101044FEA44526A
:1003D00012F5800F80F09A80BCF1004F08BF5FEAF1
:1003E000500C50F1000041EB045141EA050130BDD1
:1003F0005FEA4C0C404141EB0101013C28BFB1F5E3
:10040000801FE9D291F0000F04BF01460020B1FA2D
:1004100081F308BF2033A3F10B03B3F120020CDA00
:100420000C3208DD02F1140CC2F10C0201FA0CF0DE
:1004300021FA02F10CE002F11402D8BFC2F1200C43
:1004400001FA02F120FA0CFCDCBF41EA0C019040F9
:10045000E41AA2BF01EB0451294330BD6FEA040442
:100460001F3C1CDA0C340EDC04F11404C4F120022D
:1004700020FA04F001FA02F340EA030021FA04F33F
:1004800045EA030130BDC4F10C04C4F1200220FA96
:1004900002F001FA04F340EA0300294630BD21FAD4
:1004A00004F0294630BD94F0000F83F4801306BF9A
:1004B00081F480110134013D4EE77FEA645C18BF8E
:1004C0007FEA655C29D094EA050F08BF90EA020F25
:1004D00005D054EA000C04BF1946104630BD91EA1D
:1004E000030F1EBF0021002030BD5FEA545C05D120
:1004F0004000494128BF41F0004130BD14F580045F
:100500003CBF01F5801130BD01F0004545F0FE41D2
:1005100041F470014FF0000030BD7FEA645C1ABF07
:10052000194610467FEA655C1CBF0B46024650EA3E
:10053000013406BF52EA033591EA030F41F400216A
:1005400030BD00BF90F0000F04BF0021704730B5F0
:100550004FF4806404F132044FF000054FF00001C5
:1005600050E700BF90F0000F04BF0021704730B586
:100570004FF4806404F1320410F0004548BF40425B
:100580004FF000013EE700BF42004FEAE2014FEAB0
:1005900031014FEA02701FBF12F07F4393F07F4F8B
:1005A00081F06051704732F07F4208BF704793F08E
:1005B0007F4F04BF41F40021704730B54FF46074A1
:1005C00001F0004521F000411CE700BF50EA0102A4
:1005D00008BF704730B54FF000050AE050EA01024D
:1005E00008BF704730B511F0004502D5404261EBBD
:1005F00041014FF4806404F132045FEA915C3FF4FE
:10060000D8AE4FF003025FEADC0C18BF03325FEA9A
:10061000DC0C18BF033202EBDC02C2F1200300FA4B
:1006200003FC20FA02F001FA03FE40EA0E0021FA70
:1006300002F11444BDE600BF70B54FF0FF0C4CF45E
:10064000E06C1CEA11541DBF1CEA135594EA0C0F10
:1006500095EA0C0F00F0DEF82C4481EA030621EA4B
:100660004C5123EA4C5350EA013518BF52EA033586
:1006700041F4801143F4801338D0A0FB02CE4FF038
:100680000005E1FB02E506F00042E0FB03E54FF068
:100690000006E1FB03569CF0000F18BF4EF0010E60
:1006A000A4F1FF04B6F5007F64F5407404D25FEA5C
:1006B0004E0E6D4146EB060642EAC62141EA55510F
:1006C0004FEAC52040EA5E504FEACE2EB4F1FD0C51
:1006D00088BFBCF5E06F1ED8BEF1004F08BF5FEACF
:1006E000500E50F1000041EB045170BD06F0004681
:1006F00046EA010140EA020081EA0301B4EB5C042E
:10070000C2BFD4EB0C0541EA045170BD41F4801125
:100710004FF0000E013C00F3AB8014F1360FDEBF4A
:10072000002001F0004170BDC4F10004203C35DA26
:100730000C341BDC04F11404C4F1200500FA05F3A9
:1007400020FA04F001FA05F240EA020001F000424A
:1007500021F0004110EBD37021FA04F642EB0601C0
:100760005EEA430E08BF20EAD37070BDC4F10C04EA
:10077000C4F1200500FA04F320FA05F001FA04F2AE
:1007800040EA020001F0004110EBD37041F100019A
:100790005EEA430E08BF20EAD37070BDC4F12005A5
:1007A00000FA05F24EEA020E20FA04F301FA05F20D
:1007B00043EA020321FA04F001F0004121FA04F2B5
:1007C00020EA020000EBD3705EEA430E08BF20EA85
:1007D000D37070BD94F0000F0FD101F000464000BF
:1007E00041EB010111F4801F08BF013CF7D041EA41
:1007F000060195F0000F18BF704703F00046520045
:1008000043EB030313F4801F08BF013DF7D043EA15
:100810000603704794EA0C0F0CEA135518BF95EACB
:100820000C0F0CD050EA410618BF52EA4306D1D152
:1008300081EA030101F000414FF0000070BD50EA71
:10084000410606BF1046194652EA430619D094EAFB
:100850000C0F02D150EA013613D195EA0C0F05D1E5
:1008600052EA03361CBF104619460AD181EA030139
:1008700001F0004141F0FE4141F470014FF00000F1
:1008800070BD41F0FE4141F4780170BD70B54FF08C
:10089000FF0C4CF4E06C1CEA11541DBF1CEA13550C
:1008A00094EA0C0F95EA0C0F00F0A7F8A4EB0504EE
:1008B00081EA030E52EA03354FEA013100F08880E5
:1008C0004FEA03334FF0805545EA131343EA1263AE
:1008D0004FEA022245EA111545EA10654FEA002663
:1008E0000EF000419D4208BF964244F1FD0404F51C
:1008F000407402D25B084FEA3202B61A65EB030578
:100900005B084FEA32024FF480104FF4002CB6EB34
:10091000020E75EB030E22BFB61A754640EA0C00B4
:100920005B084FEA3202B6EB020E75EB030E22BFF4
:10093000B61A754640EA5C005B084FEA3202B6EB35
:10094000020E75EB030E22BFB61A754640EA9C00F4
:100950005B084FEA3202B6EB020E75EB030E22BFC4
:10096000B61A754640EADC0055EA060E18D04FEA82
:10097000051545EA16754FEA06164FEAC30343EA22
:1009800052734FEAC2025FEA1C1CC0D111F4801FEF
:100990000BD141EA00014FF000004FF0004CB6E7E8
:1009A00011F4801F04BF01430020B4F1FD0C88BF87
:1009B000BCF5E06F3FF6AFAEB5EB030C04BFB6EB92
:1009C000020C5FEA500C50F1000041EB045170BD85
:1009D0000EF0004E4EEA113114EB5C04C2BFD4EBB2
:1009E0000C0541EA045170BD41F480114FF0000E36
:1009F000013C90E645EA060E8DE60CEA135594EAB2
:100A00000C0F08BF95EA0C0F3FF43BAF94EA0C0FB4
:100A10000AD150EA01347FF434AF95EA0C0F7FF429
:100A200025AF104619462CE795EA0C0F06D152EA7D
:100A300003353FF4FDAE1046194622E750EA410661
:100A400018BF52EA43067FF4C5AE50EA41047FF472
:100A50000DAF52EA43057FF4EBAE12E74FF0FF3CD7
:100A600006E000BF4FF0010C02E000BF4FF0010CA8
:100A70004DF804CD4FEA410C7FEA6C5C4FEA430C21
:100A800018BF7FEA6C5C1BD001B050EA410C0CBF70
:100A900052EA430C91EA030F02BF90EA020F0020D2
:100AA000704710F1000F91EA030F58BF994208BF39
:100AB00090422CBFD8176FEAE37040F001007047F6
:100AC0004FEA410C7FEA6C5C02D150EA013C07D14D
:100AD0004FEA430C7FEA6C5CD6D152EA033CD3D098
:100AE0005DF8040B704700BF8446104662468C4692
:100AF0001946634600E000BF01B5FFF7B7FF0028C5
:100B000048BF10F1000F01BD4DF808EDFFF7F4FFED
:100B10000CBF012000205DF808FB00BF4DF808ED78
:100B2000FFF7EAFF34BF012000205DF808FB00BF9B
:100B30004DF808EDFFF7E0FF94BF012000205DF8BD
:100B400008FB00BF4DF808EDFFF7CEFF94BF012072
:100B500000205DF808FB00BF4DF808EDFFF7C4FF6B
:100B600034BF012000205DF808FB00BF4FEA410CB4
:100B70007FEA6C5C02D150EA013C0AD14FEA430C97
:100B80007FEA6C5C02D152EA033C02D14FF00000D4
:100B900070474FF0010070474FEA410212F5001212
:100BA00015D211D56FF47873B3EB625212D94FEAB4
:100BB000C12343F0004343EA505311F0004F23FA9E
:100BC00002F018BF404270474FF00000704750EAF3
:100BD000013005D111F0004008BF6FF000407047B0
:100BE0004FF00000704700BF4A0011D212F500120A
:100BF00011D20DD56FF47873B3EB62520ED44FEA75
:100C0000C12343F0004343EA505323FA02F07047F4
:100C10004FF00000704750EA013002D14FF0FF3032
:100C200070474FF0000070474FEA4102B2F1E043D5
:100C300024BFB3F5001CDCF1FE5C0DD901F0004CC3
:100C40004FEAC0024CEA5070B2F1004F40EB830013
:100C500008BF20F00100704711F0804F21D113F13F
:100C60003872BCBF01F00040704741F480114FEA78
:100C70005252C2F11802C2F1200C10FA0CF320FA01
:100C800002F018BF40F001004FEAC1234FEAD3231E
:100C900003FA0CFC40EA0C0023FA02F34FEA430388
:100CA000CCE77FEA625307D150EA01331EBF4FF011
:100CB000FE4040F44000704701F0004040F0FE402C
:100CC00040F40000704700BF7BB972B90029BEBF75
:100CD00000204FF0004106E008BF00281CBF6FF065
:100CE00000414FF0FF3000F0EBB9ADF1080C6DE9B9
:100CF00004CE002909DB002B1ADB00F083F8DDF8B5
:100D000004E0DDE9022304B07047404261EB410199
:100D1000002B1BDB00F076F8DDF804E0DDE90223B0
:100D200004B0404261EB4101524263EB4303704720
:100D3000524263EB430300F065F8DDF804E0DDE9BF
:100D4000022304B0404261EB41017047524263EB21
:100D5000430300F057F8DDF804E0DDE9022304B0B6
:100D6000524263EB4303704753B94AB9002908BFA5
:100D700000281CBF4FF0FF314FF0FF3000F0A0B94A
:100D8000ADF1080C6DE904CE00F03CF8DDF804E0AC
:100D9000DDE9022304B0704738B500220023044681
:100DA0000D46FFF7BBFE28B920462946BDE838406E
:100DB00000F00AB8204605F1004100F005F8404275
:100DC00061EB410138BD00BFD0B50C4B0022064697
:100DD0000F46FFF731FCFFF707FF0446FFF7B2FBB2
:100DE000074B0022FFF728FC02460B4630463946E7
:100DF000FFF76AFAFFF7F8FE2146D0BD0000F03D8C
:100E00000000F0412DE9F047089D0C46002B4ED123
:100E100094468C458646B2FA82F262D94AB1C2F152
:100E20002003914020FA03F30CFA02FC194300FA64
:100E300002FE4FEA1C471FFA8CF6B1FBF7F44FEAAB
:100E40001E4307FB141143EA014304FB06F19942D8
:100E50000AD91CEB030304F1FF3080F012819942A0
:100E600040F20F81023C6344591A1FFA8EF3B1FB22
:100E7000F7F007FB101143EA014300FB06F69E4220
:100E80000AD91CEB030300F1FF3180F0FC809E4285
:100E900040F2F980634402389B1B40EA0440002181
:100EA0001DB1D3400022C5E90032BDE8F0878B4276
:100EB00005D90DB1C5E9000100210846F5E7B3FAEF
:100EC00083F1002946D1A34202D39042C0F0F080C2
:100ED000861A64EB03030120002DE6D0C5E9006308
:100EE000E3E7002A40F09080A1EB0C044FEA1C4895
:100EF0001FFA8CF70121B4FBF8F64FEA1E4308FBFA
:100F0000164443EA044307FB06F0984208D91CEB59
:100F1000030306F1FF3402D2984200F2CD80264648
:100F20001C1A1FFA8EF3B4FBF8F008FB104443EAD6
:100F3000044300FB07F79F4208D91CEB030300F1B1
:100F4000FF3402D29F4200F2B0802046DB1B40EA11
:100F50000640A5E7C1F120068B4022FA06F71F43A1
:100F600020FA06FC04FA01F343EA0C03F44000FA09
:100F700001F8380C4FEA1349B4FBF0FE1FFA87FC66
:100F800000FB1E4449EA04440EFB0CF9A14502FA99
:100F900001F20AD93C190EF1FF3A80F08480A14594
:100FA00040F28180AEF1020E3C44A4EB09041FFA2A
:100FB00083F9B4FBF0F300FB134449EA044403FB58
:100FC0000CFCA44507D93C1903F1FF3067D2A445B6
:100FD00065D9023B3C4443EA0E40A0FB0293A4EBDC
:100FE0000C049C42CE469C4651D34ED055B1B8EB32
:100FF0000E0364EB0C0404FA06F6CB401E43CC400F
:10100000C5E90064002150E7C2F1200320FA03F192
:101010000CFA02FC24FA03F394400C434FEA1C48F8
:1010200000FA02FE1FFA8CF7B3FBF8F008FB103150
:10103000230C43EA014300FB07F1994208D91CEB5A
:10104000030300F1FF362CD299422AD902386344B7
:101050005B1AA4B2B3FBF8F108FB113344EA034472
:1010600001FB07F3A34208D91CEB040401F1FF368E
:1010700013D2A34211D902396444E41A41EA00416F
:1010800039E70446F0E6084606E7C845AED2B9EBB4
:10109000020E63EB070C0138A8E73146EDE7034683
:1010A00099E73046D4E7D6467FE7634402384DE7F8
:1010B0000646234608460FE7023E634430E700BF7A
:1010C000704700BFDFF834D0002103E00C4B5B58C1
:1010D000435004310B480C4B42189A42F6D30B4A4A
:1010E00002E0002342F8043B094B9A42F9D303F093
:1010F00045FF41F00FF801F05FF870470000032052
:101100005C54050800000020C0030020C00500203A
:10111000885A0120FEE7704708B500F0B7FDBDE82A
:10112000084000F03BBD00F0B3BD704710B504218E
:10113000044621F014F8204610BD000038B50C4BD1
:101140000C4C18800C4B822019806368984740F63D
:10115000110398420AD1094D23682C6082209847D8
:101160002B688220DB689847002038BD0120FCE70F
:10117000E605002050000020E4050020E8050020DE
:101180004FF4A071F020FFF7D9BF0000F7B5374D3D
:101190002B6804461B6982209847208000284ED087
:1011A0002B680DF106025B6901A982209847304B3C
:1011B0001B78002B4BD0BDF8063040F6746293428A
:1011C0003FD9ADF80620BDF80630D21A92B20A2AED
:1011D00042D90B23B2FBF3F2264B1B889A4201D96A
:1011E000013B9AB2BDF8043040F6B8318B4235D895
:1011F000C3F571630E339BB20F21B3FBF1F31E49AC
:1012000009888B4201D901398BB21C4E1C4D3068C4
:101210002F68834281B28CBF591AC91AB8B2BA4238
:101220008CBF101A801A89B280B201440529C8BF48
:1012300033603368C8BF2A6063802B68A38003B023
:10124000F0BDB32B9CBFB423ADF80630BBE7BDF8AF
:101250000620A2F5B472B9E70022C3E7C3F56D63B7
:1012600008339BB20E2BC7D80023CEE7E805002039
:1012700008250020E4050020E6050020E005002008
:10128000DC05002037B568460D461446FFF77EFFA3
:10129000BDF8000030B1BDF802302B60BDF804305D
:1012A0002360012003B030BD032821D8DFE800F01F
:1012B000020B12190F4B1A68B2FA82F2520904217A
:1012C0000D4804F0F1B80B4B5A68B2FA82F2520999
:1012D0000821F5E7074B9A68B2FA82F25209102109
:1012E000EEE7044BDA68B2FA82F252092021E7E70E
:1012F000704700BFEC05002000100240032821D8F1
:10130000DFE800F0020B12190F4B1A68003A18BF01
:10131000012204210D4804F0C7B80B4B5A68003A6B
:1013200018BF01220821F5E7074B9A68003A18BF59
:1013300001221021EEE7044BDA68003A18BF0122BF
:101340002021E7E7704700BFEC05002000100240B5
:1013500003280DD8DFE800F00206080A042105483A
:1013600004F0A7B80821FAE71021F8E72021F6E7F2
:10137000704700BF0010024008B5032811D8DFE80D
:1013800000F0020A0C0E0421074804F087F8431EFF
:101390005842584108BD0821F6E71021F4E7202102
:1013A000F2E70020F3E700BF0010024070B5084DDF
:1013B00000240126E0B2FFF7DFFF18B12B68012BF4
:1013C00018BF2E600134052C05F10405F2D170BD63
:1013D000EC050020012380F8781080F87930704700
:1013E0007047002070470000034B4164003918BF6C
:1013F00001211970704700BFD736012070470020C7
:101400007047836B0BB10846184770474FF6FF7063
:101410007047406803689B6918477047704770477A
:101420007047704710B5044600F048FD2368034933
:10143000D3F890302046BDE810401847000000D097
:1014400008B503680446D3F88430984723682046DB
:10145000DB6F984700F0ECF8236820465B6F9847F5
:10146000292001F019F900F0E3F8236820465B6FAA
:101470009847F8E710B5044609F08AF92368204632
:10148000D3F8BC30BDE81040184700F0F9BC00F0BC
:10149000FDBC00F031BD00F0CFBC00F041BD00F05C
:1014A00049BD00F0D3BC08F0A1BB10B584210446AF
:1014B00020F055FE204610BD10B590F8341090F87D
:1014C00078400C4B8C421A7809D03AB90A4A0B4939
:1014D0001488088810800C8001221A7010BD002A20
:1014E000FCD0054A05491488088810800C80002229
:1014F000F3E700BFD0360120CC360120CE360120E4
:1015000070B50D46194635B9094B0A4A0A4840F2EA
:10151000FF213CF0EFFDC0E90F52084B003A18BF25
:1015200001221A700368BDE87040D3F89030184764
:10153000246504085C650408AA650408D636012001
:1015400008B5094B1B888B4203D8084B1B88934274
:1015500005D9074B074A0848A3213CF0CBFD074BB0
:101560001980074B1A8008BDCC360120CE360120E9
:10157000EF65040852660408AA650408D236012003
:10158000D4360120034690F87A0018B158680368F1
:101590001B68184770470000012108B50022084663
:1015A00006F01BF80A4B186028B90A4B0A4A282192
:1015B0000A483CF09FFD00220421012006F0ACF80F
:1015C000074B186018B9074B034A2C21F0E708BDF8
:1015D0000006002084670408CD670408FC6704083F
:1015E000FC05002043680408024B4FF0FF311868E7
:1015F00006F03DB800060020014B186806F063B8FD
:1016000000060020024B0021186806F030B800BF29
:1016100000060020FFF7F0BF0348044900680023DC
:101620001A4606F0B4B800BFFC05002004000020F4
:1016300013B5084C00231A4601A9206806F0D8F813
:1016400020684FF0FF33002201A906F0D1F802B064
:1016500010BD00BFFC05002003685B6C184701202B
:10166000704703689B6A1847FEE740F2EF30704707
:10167000054B0360054B4FF08062C3F88820BFF331
:101680004F8FBFF36F8F7047DC69040800E100E003
:1016900010B504464FF45A61FFF7EAFF204620F0E8
:1016A0005EFD204610BD000082B0002301930E4B6A
:1016B0001A6B42F400021A631A6B02F400020192E0
:1016C000019A1A6942F400021A611A6922F40002AE
:1016D0001A61064B064A1A61064A5A61064B4FF0D8
:1016E00080629A6002B07047003802409C26002059
:1016F000491900086916000800E100E008B50A2849
:1017000009D8DFE800F006100E08080808101010CD
:101710001000022008BD054B054A064890213CF008
:10172000E9FC0020F6E70120F4E700BF8568040823
:10173000A0680408EB68040838B50C46887FFFF7FA
:10174000DDFFA58AE28A164B2169586342EA054209
:101750005A64628BD963521B1A642568082D0ED116
:101760009A611A615862207F0E4A42EA0062DA6189
:10177000E2681A620C4A5961D9601A6038BD0022C9
:10178000D8611A61E1680A0A480902F4784200F453
:10179000FC600243C1F3C4010A439A63034AECE7C5
:1017A00000B00240090001000123020001230300F0
:1017B00008B50B280BD8DFE800F00612100A0A0A59
:1017C0000A0808080808022008BD0520FCE7054BA8
:1017D000054A06486F213CF08DFC0020F4E701200B
:1017E000F2E700BF8568040830690408EB68040864
:1017F0002DE9F04191F81D800C464046FFF7D8FFD7
:10180000A77F05463846FFF7D3FF06463846FFF761
:1018100075FFA18A628B444B521A1A649A61228B1B
:10182000521A1A61E28A586342EA01425A642169F3
:101830006268D963DA602068802828D0227F0FD8B8
:10184000202867D0402865D004281AD0364B45EAB6
:10185000026545F40035B845DD6161D0334A44E0A6
:10186000B0F5807F04D0B0F5007FEFD1304800E0C4
:10187000304840EA0262DA61E2681A625E625961E7
:1018800032E045EA026242F40032DA61F6E7A0682B
:10189000021DDA62227F45EA026545F40035DD610A
:1018A0005E625961017841B1012921D0224B234A5E
:1018B00023484FF48D713CF01DFCDA69418822F415
:1018C0007F42013922F0100242EA0122DA6101214D
:1018D000154BDA6942F02002DA61DA699206FCD42B
:1018E00010229A600029B9D0164A1A60BDE8F0812A
:1018F000B2F1FF01DA69408822F47F4200F1FF3043
:1019000022F0100242EA002242F0100218BF012128
:10191000DA61DDE745EA0262034B42F40032B4E7E4
:1019200042F20132E1E700BF00B0024001230100B2
:10193000090002000A0002007A6904089469040898
:10194000EB68040801230200024B1B685868036817
:101950005B691847D836012070B5044625460A4B06
:101960000C30002660602672667245F8203B6022CB
:10197000294609F063F804F55A63EE6024359D4268
:10198000FBD1204670BD00BFDC690408034B1A6818
:10199000D207FCD423229A60704700BF00B00240F7
:1019A0007047000030B50F4C2568ED07FCD42325A7
:1019B0000904A56041F001010225FF2B6563616404
:1019C000E0630AD00849656241EA0363E361074BBB
:1019D00022626061E060236030BDE561039BA36328
:1019E000034BF8E700B002400900010001000200CB
:1019F0000100030030B50E4C2568ED07FCD423250B
:101A00001204A56042F001020225FF2B65636264A7
:101A1000E063E16008D01B0643F00213E361054B6D
:101A200065626061236030BD034BE3610123F9E728
:101A300000B0024001000200020002FF30B50B4C72
:101A40002568ED07FCD4232512041B06A56043F48A
:101A50000033022542F0010265636264E063E160E5
:101A6000E361034B65626061236030BD00B00240FA
:101A700001000200012070470C2070470C2303FB7B
:101A80000100083070470C2303FB01000830704749
:101A90000120704740F6BC50704740F6BC5303FB32
:101AA00001000830704740F6BC5303FB01000830CA
:101AB0007047012070471020704700EB011008307C
:101AC000704700EB011008307047084602F03CB93F
:101AD00010B5034B0360044607F0DFFD204610BD40
:101AE000946A040810B50446FFF7F2FF204614215B
:101AF00020F035FB204610BD10B5034B03600446B3
:101B000007F0CBFD204610BD606A040810B50446FE
:101B1000FFF7F2FF204640F6C45120F020FB20469C
:101B200010BD000010B5034B0360044607F0B5FD7F
:101B3000204610BD2C6A040810B50446FFF7F2FFDA
:101B40002046182120F00BFB204610BD10B5084B95
:101B50000360044600F55F60FFF7BAFF04F12C0054
:101B6000FFF7CAFF04F11400FFF7DCFF204610BDA9
:101B7000C86A040808B50248FFF7E8FF08BD00BFBF
:101B8000DC14002010B50446FFF7E0FF204640F6C5
:101B9000647120F0E4FA204610BD00002DE9F34105
:101BA00001F0E0F8054601F0E1F800240146234683
:101BB00028462246009411F03FFA274B274A1A6024
:101BC000204602F03BFD264D264B274A27489A60C7
:101BD00011F09AF92B68BFF35B8FDB0735D42846E9
:101BE00020F0BFFA88B3224C224B236004F608662B
:101BF00004F1140004F12C0804F55F676060C4F878
:101C00000880E760266107F049FD1B4B6361404691
:101C100007F044FD194BE362384607F03FFD184BCF
:101C2000C4F8F03D04F6046002F0AAFE224604F671
:101C30000461304602F062FE304602F085F8114839
:101C40003CF076FA284620F098FA0F4802B0BDE83A
:101C5000F041FFF7E7BB00BF3C37012088060020BA
:101C6000D8140020A80600208C06002008000020C0
:101C7000DC140020C86A04082C6A0408606A04089E
:101C8000946A0408751B00080406002070470000D1
:101C90000148FFF7D5BB00BF0406002070B5264EF3
:101CA000264C274D274B23603046FFF755FE28462C
:101CB00016F0C8FA24480EF0CFFE244B2448DC600E
:101CC00000224FF48071C3E9121222491A86C3E937
:101CD0001A12214983F85820C3E91E011F49C3F88D
:101CE00080101F491F480B60F021C3E90422C3E99B
:101CF0000622C3E90822C3E90A22C3E90E22C3E986
:101D00001022C3E91422C3E917225A6683F870200F
:101D10005A67C3E9016501801348018013484FF4F5
:101D2000A07101801248018012490A70012283F8D3
:101D30003420114A1A6070BD34070020D4140020EA
:101D4000A8060020146504088C0600200406002064
:101D50000000010101000001000450001A001400FD
:101D6000D8360120CC360120D2360120CE360120D3
:101D7000D4360120D0360120A06604080148FFF7C0
:101D800077BC00BF34070020002070478180704777
:101D9000C18070470181704741817047704770472B
:101DA00070477047704710B4C4880368121B84885A
:101DB0005B6D091B12B25DF8044B09B218474FF670
:101DC000FF7383814FF0FF3303621368C3611060B8
:101DD0007047002070478B888380012070477047D0
:101DE00080F82610704790F82600704710B5002242
:101DF000B1F90840B1F90A10028042808480C180A4
:101E000010BD0022028042808280C280704701772C
:101E1000704780ED080A704780F82410704780F8FA
:101E20002510704701207047983070478C307047FC
:101E30008430704770470000034B902283F85A2388
:101E400083F85823704700BF00E100E0094A0A49BF
:101E5000D3680A48C3F30A03013B9BB20B801169A4
:101E6000C1F30A01013901801364536B43F001038C
:101E70005363704700680140422400204024002042
:101E8000014BD3F8AC00704700680140024B0122BF
:101E9000C3F8AC105A627047006801407047704741
:101EA00010B52C21044620F05AF9204610BD10B57B
:101EB000BC21044620F053F9204610BD70B50446FD
:101EC00007F0E9FE23689D6E0DF05EFB014620469B
:101ED000A8472368054AD3F88C502046AC46002317
:101EE000BDE87040A2F51631604700BF00B004D0D5
:101EF00007F0B8BE07F0C2BE07F07EBE07F0EDBF28
:101F000090F8252012B103685B691847704790F874
:101F100025201AB190F8242002B118607047000003
:101F2000034B4FF080629A604FF080729A60704766
:101F300000E100E0084B4FF08062C3F88820BFF357
:101F40004F8FBFF36F8F4FF08072C3F88820BFF3BD
:101F50004F8FBFF36F8F704700E100E070B5002333
:101F6000124E8380124B0360336893F85820054665
:101F70000AB1D86C00B998680368DB6A984733687F
:101F8000B0FA80F4D86C640930B10368DB6A984712
:101F9000002808BF44F001042CB9064B064A074844
:101FA0002C213CF0A7F8284670BD00BFD836012090
:101FB000D86B0408D46A0408326B04086B6B0408FD
:101FC00070B5254E3568BFF35B8F15F0010540D124
:101FD000304620F0C6F800283BD0204C204B25612D
:101FE00004F13400C4E90035C4E90255E584A56272
:101FF000A5850FF016F804F158000AF0D5F9194B31
:10200000A3652046184B40F8843BFFF7A7FF174B0A
:10201000C4F884302433C4F88C304FF4C803C4E9C6
:1020200028350023C4F8AC30C4F8B030C4F8B4305C
:10203000C4F8B8300E480F4BC4F89050C4F89C5008
:10204000C4F8A850C4F898303CF072F8304620F03C
:1020500094F8024870BD00BF4424002048240020AA
:10206000C47A0408F86B0408706C0408787A0408D1
:10207000351E0008587A040838B5184C23685BB33D
:10208000174B184A1B6C11888B4216D1164B1988B6
:1020900004F01CF8236893F86A200025013283F8C5
:1020A0006A2083F87C50FFF7B7FA206808F070FBCD
:1020B0002846BDE83840FFF7F7B804F007F8246871
:1020C000236820461B6A9847012384F87C3000204F
:1020D000BDE83840FFF712B938BD00BFD83601203F
:1020E00000680140422400204024002007B5064B30
:1020F000ADF806001B68054801220DF1060104F049
:1021000085FD03B05DF804FB0C000020482500208D
:1021100008B5642005F055FAFBE7000030B595B02E
:10212000102200210AA83EF03DF81422002103A845
:102130003EF038F800241E4B01941A6C42F0805295
:102140001A641B6C03F080530193019B194B02949A
:102150001A6842F440421A601B6803F44043029339
:102160000122029B4FF48033CDE9082302254FF46E
:1021700080030821CDE90E534FF4B473CDE9101359
:1021800008A804231393129503F0F8FF03F0BCFF93
:102190000F23CDE903354FF4A0504FF48053CDE920
:1021A0000603052103A8059404F0C4F915B030BD59
:1021B000003802400070004080B59AB002F0ECFE9A
:1021C000FFF7ACFF142200210DA83DF0EBFF002427
:1021D000C74B00941A6BC748C74DDFF8588342F0CD
:1021E00010021A631A6B02F010020092009A019416
:1021F0001A6B42F020021A631A6B02F0200201925D
:10220000019A02941A6B42F080021A631A6B02F070
:1022100080020292029A03941A6B42F004021A633B
:102220001A6B02F004020392039A04941A6B42F0B0
:1022300001021A631A6B02F001020492049A0594D7
:102240001A6B42F002021A631A6B02F00202059244
:10225000059A06941A6B42F040021A631A6B02F058
:1022600040020692069A07941A6B42F008021A631B
:102270001B6B03F00803224607933C21079B03F0E6
:1022800013F99E480122022103F00EF922469B48D1
:10229000042103F009F9224699484FF4405103F014
:1022A00003F901263C23CDE90D3692480F94032310
:1022B0000DA90227109303F00DF890480DA9CDE960
:1022C0000D76CDE90F4403F005F804238B480DA9E2
:1022D000CDE90D36CDE90F4702F0FCFF0DA94FF413
:1022E00040538748CDE90D36CDE90F4702F0F2FFA4
:1022F0008448854B036002F0E1FEDFF83CE2834B4B
:102300002C62C5E900E328464FF48043C5E9043454
:10231000C5E90244C5E9064403F0D4FA1021284671
:1023200003F018FD21462846794D03F032FD4FF4A5
:102330008273C5E900834FF400791823C5E9069339
:1023400028460A23C5E90244C5E90444C5E908440E
:10235000AC62EB6204F0FEFB8F23224639466748ED
:102360008DF824308DF8344003F09EF832464FF457
:102370007A7309A9284604F049FC4FF47A7332466F
:102380000DA9284604F0EEFD324639465B48614D02
:1023900003F08AF89DF83430D32B04BF5E4B1E70D7
:1023A0005E4B0126C5E90036102240230024C5E912
:1023B00004234FF4C073C5E906344FF40063C5E944
:1023C00008344FF4005302274FF00409AB624FF07A
:1023D000030A07230DA92846CDE90D73CDE90F9314
:1023E0004FF00808C5E90249CDE911A7139704F099
:1023F00095FA4FF6FF7209A92846CDE90A86089496
:1024000009960C9404F0AAFA304602F0F1FD4FF65A
:10241000FF7209A92846CDE90978CDE90B6404F0DB
:102420009DFA4FF6FF7209A92846CDE909A8CDE922
:102430000B9404F093FA4FF40C730893089B0C93DD
:102440004FF6FF7209A92846CDE909980B9604F0CA
:1024500085FA40F26A51284604F09EFA34220DEBC8
:10246000020021463DF09EFE2D4D2E4B2C61C5E90C
:1024700000340923C5E905361D23C5E9073A40F2B2
:102480000D1140F24313C5E9091340F2171040F251
:102490004713C5E90B032846C5E90244AC8685F815
:1024A000364003F01BFDFF214FF4806CF022CDE994
:1024B00012140521CDE914C14FF4A0730DA9CDE983
:1024C0000E24CDE9164228462246174D1893CDE931
:1024D00010370D94ADF864408DF8664003F0C9FDE7
:1024E000124B2B601B6898472B68114DDB6825E069
:1024F0000038024000100240482600200008024038
:10250000000C0240DC26002000300240A0860100C2
:10251000482500201425002008250020400100A0A7
:10252000A02500200068014004250020180000209C
:102530009C26002000500140005C00409847134B4F
:102540002846C5E90034C5E90274C5E90A47C5E96A
:102550000C4402F0C3FD3146284602F077FEFEF738
:10256000DBFDFEF7D8FD04F0B9FF094A0948214612
:1025700004F0E0FF084B094A18602146084804F0BF
:10258000D9FF084B186004F0BBFFFEE700B0024023
:10259000F06C04081121000810250020CC6C040800
:1025A000271100080C250020704770477FB5094BA4
:1025B0008DF817201B6802930DF11702012300927A
:1025C00001930A460146044803F024FA07B05DF877
:1025D00004FB00BF10000020482600207FB5002328
:1025E0008DF81730084B1B6802930A4601230DF142
:1025F0001701009101930146044803F09BFA9DF8EE
:10260000170007B05DF804FB1000002048260020EA
:102610001FB5084C24680092CDE901340A46012315
:102620000146054803F086FA003818BF012004B0BF
:1026300010BD00BF100000204826002002F0D8BCCA
:1026400010B5064C00222046042102F02DFF204642
:102650000122BDE81040042102F026BF000802401C
:1026600038B50B4D044601220A484FF4005102F0E0
:102670001BFF00220421284602F016FF2046FFF728
:1026800035FD28460122BDE83840042102F00CBF88
:1026900000080240000C024038B50B4D04460022F1
:1026A0000A484FF4005102F0FFFE002204212846A0
:1026B00002F0FAFE2046FFF719FD28460122BDE888
:1026C0003840042102F0F0BE00080240000C024035
:1026D000F7B5144E144F05460C463046002204212F
:1026E00002F0E2FE00224FF40051384602F0DCFE18
:1026F0002846FFF7FBFC0D4B0D481B68224601A93D
:1027000004F030FC384601224FF40051019C02F0E5
:10271000CBFE30460122042102F0C6FE204603B063
:10272000F0BD00BF00080240000C02400C00002079
:102730004825002002F05CBC0268034B9A4201D19C
:1027400002F044BC704700BF00100040704700001A
:1027500082B00E4B00220092596C41F480415964C2
:10276000596C01F48041009100990192196C41F07B
:10277000805119641B6C03F080530193019B0F215E
:102780006FF0010002B002F059BC00BF00380240F7
:102790000268094B9A4282B00BD100230193074B88
:1027A0001A6B42F480521A631B6B03F4805301933B
:1027B000019B02B0704700BF003002400038024069
:1027C00007B50F4B02689A4216D10022A3F5F043D9
:1027D0000192196B41F4000119631B6B03F40003B0
:1027E000019305215A20019B02F028FC5A2003B0D6
:1027F0005DF804EB02F054BC03B05DF804FB00BFCD
:1028000000B002402DE9F043044689B014220021B3
:1028100003A83DF0C7FC2268244B9A4243D1244CC4
:10282000244800250095236B43F004032363236BA6
:1028300003F004030093009B0195236B43F0010315
:102840002363236B03F001030193019B4FF01209F3
:102850004FF400734FF001080327042603A9CDE9C4
:102860000339CDE90587079602F034FD4FF48073F4
:102870001148079603A9CDE90339CDE9058702F090
:1028800029FD0295236C43F400032364236C03F4B5
:1028900000030293029B236A43F400032362236A2A
:1028A00023F40003236209B0BDE8F083005C00401C
:1028B000003802400008024000000240F0B599B024
:1028C00004461422002107A83DF06CFC30220DEBD9
:1028D000020000213DF066FC22685E4B9A4240F007
:1028E000B78008230C93C0231093042312930CA8E1
:1028F0004FF40033159303F0E5FE08B1FFF726FF10
:10290000554B5648002400945A6C42F080625A6439
:102910005A6C02F080620092009A01941A6B42F0A5
:1029200020021A631A6B02F020020192019A0294AB
:102930001A6B42F001021A631A6B02F00102029252
:10294000029A03941A6B42F002021A631A6B02F0A5
:1029500002020392039A04941A6B42F040021A6333
:102960001A6B02F040020492049A05941A6B42F02A
:1029700004021A631A6B02F004020592059A069487
:102980001A6B42F008021A631B6B03F008030693EC
:1029900002250E26069B0B964FF4806307A9CDE90E
:1029A0000735CDE9094502F095FC41F658032C485E
:1029B0000B9607A9CDE907350927CDE9094502F0AE
:1029C00089FC032327480B9707A9CDE90735CDE9F3
:1029D000094502F07FFC4FF4706322480B9607A96B
:1029E000CDE90735CDE9094502F074FC4FF40C63DD
:1029F0001D480B9607A9CDE90735CDE9094502F039
:102A000069FCC02319480B9607A9CDE90735CDE924
:102A1000094502F05FFC082315480B9607A9CDE98C
:102A20000735CDE9094502F055FC4FF4A0530E4897
:102A30000B9707A9CDE90735CDE9094502F04AFC16
:102A400058202246052102F0F9FA582002F028FB0E
:102A500019B0F0BD00680140003802400014024087
:102A6000000002400004024000180240000802403A
:102A7000000C024010B5044688B01422002103A8BF
:102A80003DF090FB2268144B9A4223D103F5684332
:102A9000002101915A6C114842F480125A645A6C18
:102AA00002F480120192019A02911A6B42F0200204
:102AB0001A631B6B03F020030293029B4FF46072B6
:102AC00002230321CDE903230523CDE9061303A93E
:102AD00002F000FC08B010BD00500140001402409C
:102AE0002DE9F04186B0002303932B4B1C68002C8A
:102AF0004FD14FF00108C3F80080284B00949A6B27
:102B0000274842EA08029A639B6B03EA0803009392
:102B1000022703260C25009B01A94FF63F03CDE9B0
:102B20000137CDE9046502F0D5FB1E48059501A9E2
:102B3000CDE90187CDE9034602F0CCFB48F233131F
:102B40001948059501A9CDE90137CDE9034602F001
:102B5000C1FB4FF683731548059501A9CDE90137EF
:102B6000CDE9034602F0B6FB4CF20373104805951D
:102B700001A9CDE90137CDE9034602F0ABFB6023A3
:102B80000C48059501A9CDE90137CDE9034602F0CE
:102B9000A1FB06B0BDE8F081E42600200038024029
:102BA00000140240000802400018024000100240D9
:102BB000000C02400004024070B588B0002302936C
:102BC000204B1A6C42F010021A641B6C03F01003C5
:102BD0000293054601A903A8029B03F055FD069B3D
:102BE0004BBB03F041FD184E184B336040F2E73306
:102BF000F360174BB0FBF3F3013B736030460023E7
:102C00003361B360B36104F091FB044680B9304690
:102C100004F04EFA044658B9362002F041FA0F2D5E
:102C20000DD822462946362002F008FA094B1D60CD
:102C3000204608B070BD03F017FD4000D3E7012423
:102C4000F6E700BF00380240E826002000100040F0
:102C500040420F00800000207047FEE7FEE7FEE7DD
:102C6000FEE77047014804F061BA00BFE826002083
:102C7000014803F0A1B900BFA0250020014802F0DF
:102C80005BBA00BF9C2600200120704708B53FF0CA
:102C90003BFA162303604FF0FF3008BD08B53FF044
:102CA00033FA16230360FEE770B50D4614460E4650
:102CB000731B9C4201DC204670BDAFF3008006F818
:102CC000010BF5E770B50D4614460E46731B9C428A
:102CD00001DC204670BD16F8010BAFF30080F5E76C
:102CE0004FF0FF3070474FF400534B6000207047A7
:102CF00001207047002070470A4A116808B5034652
:102D000009B9094911601068694603448B4206D924
:102D10003FF0FAF90C2303604FF0FF3008BD136059
:102D2000FCE700BF34270020885A0120704710B507
:102D3000042104461FF013FA204610BD012908B5EE
:102D400006D0022908D059B901F0C4FC006808BDBA
:102D500001F0C0FC4068FAE701F0BCFC8068F6E7CF
:102D60000020F4E700487047286D040802207047EF
:102D7000806A7047704730B50368018185B06D4641
:102D80000146D3F8843004462846984795E8070062
:102D90003C3484E8070005B030BD30B5036841819C
:102DA00085B06D460146D3F88430044628469847DE
:102DB00095E807003C3484E8070005B030BD0022E8
:102DC000028042808280C280704780F8361070474F
:102DD00070B5036804461B6B15469847236829465F
:102DE00020465B6EBDE87040184700207047806C3D
:102DF000704770477047704710B5082104461FF0B0
:102E0000AEF9204610BD10B54C2104461FF0A7F9BD
:102E1000204610BD10B540F6EC2104461FF09FF986
:102E2000204610BD08B5FFF76BF808BD036870B504
:102E30005E6B124B1B6804468DB22BB9104B114AC6
:102E40006C2111483BF056F91049828D0988914256
:102E500003D80F4B0B4A6D21F3E713F812200D4BEB
:102E60001B6853F8220003681B6B9847291A3346E6
:102E7000204609B2BDE87040184700BF3037012036
:102E8000506D0408926D0408CD6D0408343701209C
:102E9000146E040838370120074A02600022C0E996
:102EA0000122C0E90322C0E90522C0E907224FF44C
:102EB00080728284704700BFB87D04082DE9F0411C
:102EC0001D460368BDF918701B6B044616469847EB
:102ED0002368314620465B6B984723682946204685
:102EE0009B6B9847236839462046DB6BBDE8F04171
:102EF0001847000010B50446FFF7CEFF024B2360D1
:102F00000023A362204610BD9879040810B526223C
:102F1000044600213DF046F92046FFF7BDFFFF23A0
:102F2000044A84F826300023A3622260E3622386E9
:102F3000204610BD807C040800224FF0FF31C0E91C
:102F400000218260704710B50446FFF7F5FF204668
:102F500010BD000038B52622044600213DF022F9BC
:102F60002046FFF799FF0B4B23600B4BA3624FF6F4
:102F7000FF730025A3854FF47F03C4E90C53258715
:102F800004F13C00FFF7D8FF044B2360A564204602
:102F900038BD00BF887B04085C6E04086C6E0408B2
:102FA0002DE9F04F0446BBB0FFF7A4FF2246D74BF4
:102FB00042F82C3B04F1580610460392FFF79AFFA3
:102FC0003046FFF7A3FF04F18C0318460493FFF784
:102FD000C1FF04F1D80318460593FFF78BFF04F5F2
:102FE000827318462393FFF791FF04F59C731846EC
:102FF0000693FFF7AFFF04F5C27318460793FFF778
:1030000079FF04F5D87318462493FFF77FFF04F582
:10301000F27318460893FFF79DFF04F50C731846EA
:103020000993FFF767FF04F5177318462593FFF719
:103030006DFF04F5247318460A93FFF78BFF04F520
:10304000377318460B93FFF755FF04F54273184684
:103050002693FFF75BFF04F54F7318460C93FFF7B9
:1030600079FF04F5627318460D93FFF743FF04F5EB
:103070006D7318462793FFF749FF04F57A731846D6
:103080000E93FFF767FF04F2344318460F93FFF7E0
:1030900031FF04F58C6318462893FFF737FF04F2DD
:1030A000944318461993FFF755FF04F59C6318469F
:1030B0001093FFF71FFF04F20C5318462993FFF7F4
:1030C00025FF04F5A86318461A93FFF743FF04F29F
:1030D0008C5318461193FFF70DFF04F5B76318469C
:1030E0002A93FFF713FF04F2EC5318461B93FFF7E4
:1030F00031FF04F5C76318461293FFF7FBFE04F295
:10310000646318462B93FFF701FF04F5D363184659
:103110001C93FFF71FFF04F2E46318461393FFF7B5
:10312000E9FE04F5E26318462C93FFF7EFFE04F284
:10313000447318461D93FFF70DFF04F5F26318461C
:103140001493FFF7D7FE04F2BC7318462D93FFF7D4
:10315000DDFE04F5FE6318461E93FFF7FBFE04F642
:103160003C0318461593FFF7C5FE04F6680318469E
:103170002E93FFF7CBFE04F69C0318461F93FFF730
:10318000E9FE04F6E80318461693FFF7B3FE04F6CB
:10319000141318462F93FFF7B9FE04F64813184688
:1031A0002093FFF7D7FE04F6941318461793FFF702
:1031B000A1FE04F51C6318463093FFF7A7FE04F642
:1031C000F41318462193FFF7C5FE04F5246318464F
:1031D0001893FFF78FFE04F66C2318463193FFF720
:1031E00095FE04F52A6318463C252293FFF7B2FEAC
:1031F00000224FF0F013A360039800952B46114670
:10320000FFF75CFE00222B46114630460095FFF783
:1032100055FE3F4B3F4A0398DFF8FCB04FF00508DE
:103220004FF00F09C4E920323146A4F8888006F037
:1032300047FA0498CDF800902B4617220021FFF79B
:103240003DFED4F88C300499D3F8843000264FF03A
:103250007F4A32A8C4F8BCA0A4F8C060984732A93D
:1032600007C937AF04F1C80383E8070012230498A5
:10327000ADF8E0303946CDF8DCB009F02DFCDDE9E1
:10328000030106F01DFA0399204606F019FA059885
:1032900000952B4632462946FFF710FE23980095ED
:1032A0002B4632463146FFF709FE194B194A23993E
:1032B0000598A4F83481C4E94B3206F001FA069867
:1032C000CDF800902B4617223146FFF7F7FDD4F8D2
:1032D00038310699D3F88430C4F868A132A8A4F82C
:1032E0006C61984732A907C904F5BA7383E80700EF
:1032F0000698CDF8DCB03946ADF8E09009F0ECFB6B
:10330000DDE9050106F0DCF908E000BFFC6E040809
:1033100098CCEDFFDAE0E6FF5C6E040805992046E4
:1033200006F0CEF9079800952B4632467821FFF734
:10333000C5FD249800952B4632463146FFF7BEFD69
:10334000CE4BCF4A24990798A4F8E081C4E976329D
:1033500006F0B6F90898CDF800902B4617223146B2
:10336000FFF7ACFDD4F8E4310899D3F88430C4F801
:1033700014A232A8A4F81862984732A907C904F524
:10338000087383E807000E230898ADF8E03039464B
:10339000CDF8DCB009F0A0FBDDE9070106F090F9FB
:1033A0000799204606F08CF9099800952B4632467D
:1033B000B421FFF783FD259800952B463246314610
:1033C000FFF77CFDAD4BAE4A25990998A4F88C8295
:1033D000C4E9A13206F074F90A98CDF800902B46A2
:1033E00017223146FFF76AFDD4F890320A99D3F8D4
:1033F0008430C4F8C0A232A8A4F8C462984732A9A5
:1034000007C904F5337383E807000D230A98ADF864
:10341000E0303946CDF8DCB009F05EFBDDE90901AA
:1034200006F04EF90999204606F04AF90B980095E6
:103430002B462A463146FFF741FD269800952B463C
:1034400032463146FFF73AFD8C4B8D4A26990B9850
:10345000A4F83883C4E9CC3206F032F90C98CDF8E0
:1034600000902B4617223146FFF728FDD4F83C3355
:103470000C99D3F88430C4F86CA332A8A4F8706314
:10348000984732A907C904F55E7383E807000C2347
:103490000C98ADF8E0303946CDF8DCB009F01CFBF3
:1034A000DDE90B0106F00CF90B99204606F008F94E
:1034B0000D9800952B462A462946FFF7FFFC2798D2
:1034C00000952B4632463146FFF7F8FC6B4B6C4AB1
:1034D00027990D98A4F8E483C4E9F73206F0F0F8D0
:1034E0000E98CDF800902B4617223146FFF7E6FCE8
:1034F000D4F8E8330E99D3F88430C4F818A432A86D
:10350000A4F81C64984732A907C904F2244383E84D
:1035100007000B230E98ADF8E0303946CDF8DCB04B
:1035200009F0DAFADDE90D0106F0CAF80D99204636
:1035300006F0C6F80F9800952B462A467821FFF72B
:10354000BDFC289800952B4632463146FFF7B6FC65
:103550004A4B4B4A28990F98C4F88834C4F88C24F5
:10356000A4F8908406F0ACF82B4631461998CDF8B3
:1035700000901722FFF7A2FCC4F8C4A4A4F8C86402
:103580003846FFF7D9FC97E8070004F59A6383E80B
:1035900007000A231998ADF8E0303946CDF8DCB0C1
:1035A00009F09AFA19990F9806F08AF80F992046AF
:1035B00006F086F8109800952B462A46B421FFF7AE
:1035C0007DFC299800952B4632463146FFF776FC64
:1035D0002A4B2B4A29991098C4F83435C4F8382559
:1035E000A4F83C8506F06CF82B4631461A98CDF8C5
:1035F00000901722FFF762FCC4F870A5A4F8746568
:103600003846FFF799FC97E8070004F27C5383E8FB
:10361000070009231A98ADF8E0303946CDF8DCB040
:1036200009F05AFA1A99109806F04AF810992046AB
:1036300006F046F8119800952B4631467822FFF7A0
:103640003DFC2A9800952B4632463146FFF736FC62
:103650000A4B0B4A2A991198C4F8E035C4F8E425BE
:10366000A4F8E88506F02CF82B4631461B98CDF8D7
:1036700000901722FFF722FC04E000BF98CCEDFF7A
:10368000DAE0E6FFC4F81CA6A4F820663846FFF787
:1036900053FC97E8070004F5C56383E80700082397
:1036A0001B98ADF8E0303946CDF8DCB009F014FADB
:1036B0001B99119806F004F81199204606F000F8BD
:1036C000129800952B4629467822FFF7F7FB2B9896
:1036D00000952B4632463146FFF7F0FBD34BD44AD8
:1036E0002B991298C4F88C36C4F89026A4F89486C6
:1036F00005F0E6FF2B4631461C98CDF800901722C6
:10370000FFF7DCFBC4F8C8A6A4F8CC663846FFF780
:1037100013FC97E8070004F2D46383E8070007234B
:103720001C98ADF8E0303946CDF8DCB009F0D4F99A
:103730001C99129805F0C4FF1299204605F0C0FFAD
:103740007822139800952B461146FFF7B7FB2C986B
:1037500000952B4632463146FFF7B0FBB34BB44AD7
:103760002C991398C4F83837C4F83C27A4F840873C
:1037700005F0A6FF2B4631461D98CDF80090172284
:10378000FFF79CFBC4F874A7A4F878673846FFF7E6
:10379000D3FB97E8070004F5F06383E807000623EE
:1037A0001D98ADF8E0303946CDF8DCB009F094F959
:1037B0001D99139805F084FF1399204605F080FFAA
:1037C000149800952B467822B421FFF777FB2D98AB
:1037D00000952B4632463146FFF770FB934B944AD7
:1037E0002D991498C4F8E437C4F8E827A4F8EC87B6
:1037F00005F066FF2B4631461E98CDF80090172243
:10380000FFF75CFBC4F820A8A4F824683846FFF74B
:1038100093FB97E8070004F62C0383E807001E9843
:10382000CDF8DCB03946ADF8E08009F055F91E99C5
:10383000149805F045FF1499204605F041FF1598AE
:1038400000952B463146B422FFF738FB2E980095A1
:103850002B4632463146FFF731FB744B744A2E99A2
:103860001598C4F89038C4F89428A4F8988805F0FE
:1038700027FF2B4631461F98CDF800901722FFF7FF
:103880001DFBC4F8CCA8A4F8D0683846FFF754FB59
:1038900097E8070004F6D80383E8070004231F987D
:1038A000ADF8E0303946CDF8DCB009F015F91F99D4
:1038B000159805F005FF1599204605F001FF1698AB
:1038C00000952B462946B422FFF7F8FA2F98009569
:1038D0002B4632463146FFF7F1FA544B544A2F99A2
:1038E0001698C4F83C39C4F84029A4F8448905F076
:1038F000E7FE2B4631462098CDF800901722FFF7BF
:10390000DDFAC4F878A9A4F87C693846FFF714FBFF
:1039100097E8070004F6841383E807000323209840
:10392000ADF8E0303946CDF8DCB009F0D5F8209993
:10393000169805F0C5FE1699204605F0C1FE1798A9
:1039400000952B46B4227821FFF7B8FA30980095FD
:103950002B4632463146FFF7B1FA344B344A3099A0
:103960001798C4F8E839C4F8EC29A4F8F08905F0F0
:10397000A7FE2B4631462198CDF800901722FFF77D
:103980009DFAC4F824AAA4F8286A3846FFF7D4FAA6
:1039900097E8070004F5236383E8070002232198D2
:1039A000ADF8E0303946CDF8DCB009F095F8219952
:1039B000179805F085FE1799204605F081FEB42280
:1039C000189800952B461146FFF778FA3198009524
:1039D0002B4632463146FFF771FA144B144A31999F
:1039E0001898C4F8943AC4F8982AA4F89C8A05F068
:1039F00067FE2B4631462298CDF800901722FFF73C
:103A00005DFAC4F8D0AAA4F8D46A3846FFF794FA4D
:103A100097E8070004F6DC2383E8070001232298D7
:103A2000ADF8E0303946CDF8DCB003E098CCEDFFDE
:103A3000DAE0E6FF09F050F82299189805F040FE08
:103A40002046189905F03CFE20463BB0BDE8F08FBB
:103A500013B5002451B1036801948DF8034001AA05
:103A60009C680DF10303A04702B010BD0846FBE7B8
:103A7000C0897047008A7047C08870478088704747
:103A8000807A00F07F007047807AC009704700207C
:103A9000704700009FED010A704700BF0000000062
:103AA0007047704700F598730868496803C370470A
:103AB000704770474160704770470000064BC0F880
:103AC0004C310023C0F8503100F5A273C0F8480112
:103AD000C0F84031704700BF7D3B000801230372EE
:103AE00070477047704710B4C2684168541003466D
:103AF00001EB6200D20748BF0A599B685DF8044B8E
:103B000048BFD35818470346406830B19A681AB97D
:103B1000D86800F0010070470120704710B50C21F3
:103B200004461EF01CFB204610BD10B510210446B3
:103B30001EF015FB204610BD10B54FF4AE710446C3
:103B40001EF00DFB204610BD10B50BF01DFD0368E7
:103B5000BDE81040DB6B184710B50446D0F84001B3
:103B600058B10368DB68984738B1D4F8400103685E
:103B70009B6898470023C4F8403110BD2DE9F14FF0
:103B8000D0E9556A0746B06803681B6A984740F653
:103B9000BB53984205D8444B444AA32144483AF0C9
:103BA000A9FA706803681B6A98470F2803D8414B2D
:103BB0003E4AA421F2E7F06803681B6A98470B2885
:103BC00003D83D4B394AA521E8E70BF0DDFCDFF8CF
:103BD000F09004300BF0FDFCD9F8000010B1036840
:103BE000DB689847D9F8000010B103681B68984754
:103BF000DFF8D080D8F8000010B103685B699847FF
:103C0000D7F83C0110B103685B689847D8F800000A
:103C100010B103681B689847D7F83C0110B10368DE
:103C20009B689847F068036800215B6A98474FF0EB
:103C3000000B224BC0F804B0044680F808B00360C3
:103C4000B068036859465B6A9847054600F0CCFEA9
:103C50007068036859465B6A98472946064600F033
:103C6000A1FE331DC7F83C61C9F80040C8F80050F8
:103C7000CAF800302B68C6F808A02846DB68EE6357
:103C80009847336830461B689847214628460DF010
:103C90002BFE236820461B69984723685B692046F2
:103CA00001B0BDE8F04F1847886F0408167004088B
:103CB000E87004082F710408D2710408EC7204083B
:103CC000203701201C370120044B1B6893F8582033
:103CD0000AB1D86C00B99868704700BFD836012087
:103CE000F8B5174604460E460BF010FD124B1C604B
:103CF000124B2360124B0025C4E95135114BC4E926
:103D000053551868036801219B68C4E94F55C4E9FD
:103D100055769847284600F091FCFFF7D5FF16F03E
:103D20003AF9FFF7D1FF16F0B1F9FFF7CDFF16F022
:103D3000B9F92046F8BD00BF2C370120987204085D
:103D400080720408D8360120064BC0F84C3100239D
:103D5000C0F8503100F5A273C0F84801C0F84031F6
:103D6000704700BF7D3B0008406A7047806A70471B
:103D700070478A880B8810B5D20A4C88C1699BB2FB
:103D800051F8220043EA0443184410BD10B504461C
:103D9000BAB1107B68B1537BD27A1B0203F4E063A3
:103DA0001A43236A03EB82031A888A4202D193F9E9
:103DB000020010BD05D8013880B204330028F3D1C9
:103DC000F7E70020F5E710B52C2104461EF0C7F9EF
:103DD000204610BD30B58BB00446BDF86050089544
:103DE000BDF85C5007959DF8505006959DF84C50D5
:103DF00005959DF8485004959DF8445003959DF80D
:103E0000405002959DF83C500195BDF83850009502
:103E10000DF0C4F9064B2360159BE361169B2362EA
:103E2000199B63621A9BA36220460BB030BD00BF92
:103E300010730408704770477047704790F82D3032
:103E400080F89A3080F85C30704790F82D3080F818
:103E50005C30704710B5642104461EF080F920469E
:103E600010BD10B5B42104461EF079F9204610BDEE
:103E700010B54FF4197104461EF071F9204610BDBB
:103E80000146343091F82C3013B1623108F080BF14
:103E90006031FBE708B590F82C303BB100F1B0037E
:103EA0001B68C0F89430FFF7EBFF08BD00F1AC03CE
:103EB000F6E710B50446006B50B10368DB6898471D
:103EC00030B1206B036821469B68BDE8104018475D
:103ED00010BD0B7970B590F82C6004460D460BB9F7
:103EE00016B170BD002EFCD0B3FA83F35B0984F8E1
:103EF0002C3023682046D3F88C309847236820461E
:103F00005B699847002EECD02B79012BE9D123680F
:103F10002046D3F88830BDE87040184770B5036874
:103F200004461B6B154698472368294620465B6B61
:103F3000BDE87040184770B5036804469B6B154692
:103F40009847236829462046DB6BBDE87040184738
:103F50000B8870B5A0F860300546138825F8623FDD
:103F6000044628460FF07CF8064628460FF0ACF8C9
:103F7000314602462046FFF7DEFF23682046D3F88D
:103F80008C30BDE87040184710B526220446002149
:103F90003CF008F92046FEF77FFF044B2360FF2327
:103FA00084F826300023A362204610BD187C040844
:103FB00010B52622044600213CF0F4F82046FEF716
:103FC0006BFF0A4B23600A4BA3624FF6FF73A38576
:103FD0004FF47F020023C4E90C3223874FF0FF32F5
:103FE000C4E91023E363204610BD00BF887B0408AA
:103FF0005C6E040838B5044600F16405284608F0F4
:104000006BFDB4F90A20B4F908102846FFF793FFB6
:1040100038BD0000F7B50446FEF73EFF4FF47F437E
:104020002546A3850123002684F82430164BA6627A
:10403000266345F8343B4FF6FF7726223146284663
:10404000ADF804703CF0AEF82846FEF725FF0F4BA4
:104050006363BDF80430A4F85A3001A9284684F8F7
:104060005C7008F095FE324631462846A4F8607030
:10407000A4F86270FFF752FF2046294605F020FBA6
:10408000204603B0F0BD00BF78730408E87C040844
:1040900038B504462546FFF7BDFF074B45F8643B9E
:1040A0002846FFF785FF00232046C4E92B33294625
:1040B00005F006FB204638BD187404082DE9F04FC2
:1040C00004468DB0A0460025FEF7E6FE774BA562BC
:1040D00048F82C3B04F1580A4046FFF755FF04F11D
:1040E0008409504604F1B007FFF74EFF484604F537
:1040F000B276FFF749FF3846FFF7CAFF3046FFF7B1
:10410000C7FF04F5067318460393FFF751FF684B8A
:10411000C4F81832674BA3604FF4A0732A46DFF847
:10412000A0B1C4F86052294600934046F023FEF740
:10413000C5FEC4F854B04146204605F0C1FA32230A
:1041400000934FF4877229465046F023FEF7B6FEDF
:10415000594BC4F880305146204605F0B1FA14237B
:1041600000930222F02329464846FEF7A7FEC4F832
:10417000ACB04946204605F0A3FA4FF0010B0AAA5D
:1041800009A93846ADF82450ADF828B0FFF7E0FE95
:104190002A46294604F1E400FFF7C0FE4FF0240848
:1041A000DFF82091CDF8289011230AA93846ADF800
:1041B0002C30FFF71FFF29460A2204F58A70CDF83C
:1041C00000806423FEF77AFE3C4B4FF07F4AC4E93F
:1041D000573A3846FFF75EFE642340F21512384620
:1041E000CDF800808221FEF769FE3946204605F0B1
:1041F00067FA0AAA0DEB08013046ADF82450ADF875
:1042000028B0FFF7A5FE2A46294604F5CC70FFF733
:1042100085FE10230AA93046ADF82C30CDF8289041
:10422000FFF7E8FE29460A2204F5E470CDF8008085
:104230006423FEF743FE214B3046C4E9843AFFF77E
:1042400029FE642340F215123046CDF800800B2180
:10425000FEF734FE3146204605F032FA0398052277
:104260006321FFF75BFED4F818320399D3F884304A
:10427000C4F848A204AE3046A4F84C52984796E8D9
:10428000070004F5157383E807000398CDF828901C
:104290000AA9ADF82C5008F01FFC2046039905F040
:1042A0000FFA20460DB0BDE8F08F00BFB8740408C7
:1042B0006C6E0408F000400170630BFF393947FF52
:1042C000DAE0E6FF5C6E040870477047704770479D
:1042D000704710B504466C3000F050FB04F53470A4
:1042E000BDE8104000F0F4BA094B10B50360094B6B
:1042F000C0F8D032044600F53470FEF77AFD20464F
:10430000054B40F86C3FFFF795FD204610BD00BF00
:104310004C750408607704084878040810B5044612
:10432000FFF7E2FF204640F6BC511DF018FF204683
:1043300010BD00002DE9F843044626460DF028F98B
:104340000025254BE56346F8403B244B2566C4E930
:1043500010354FF4807304F16C09A4F86430FF2326
:1043600084F8663004F53478C4E91255C4E914556C
:10437000C4E91655A566484600F0E0FA404600F04C
:10438000D9F92A4629463046FFF7C8FD3046F021C4
:10439000FDF700FD30464FF4A071FDF7FDFC271D31
:1043A0004FF07F43A3663146384605F089F92A4627
:1043B00029464846FFF7B2FD4946384605F080F9E0
:1043C000162229464046FFF7A9FD3846414605F02A
:1043D00077F92046BDE8F8834C750408187C04087A
:1043E0007047000030B5164D2C68BFF35B8F14F09A
:1043F00001048FB021D128461DF0B3FEE8B13F2360
:104400000993104B0893104B104911480A94CDE9B9
:10441000064301220423CDE903320A2300930B2231
:10442000CDE90B44CDE901440594FFF7D3FC0948DD
:1044300039F07EFE28461DF0A0FE05480FB030BDC5
:1044400038270020D8E20408E4E2040824E0040845
:104450003C270020E14300087047000030B5174DAD
:104460002C68BFF35B8F14F001048FB022D1284673
:104470001DF077FEF0B13F230993114B0893114BC8
:1044800007930123CDE9054304930423CDE90243B7
:104490000C230D4900931B220F23CDE90B440B483D
:1044A0000A940194FFF796FC094839F041FE28462A
:1044B0001DF063FE05480FB030BD00BF6827002027
:1044C000DCE20408E8E20408C0E004086C270020ED
:1044D000594400087047000030B5174D2C68BFF3F1
:1044E0005B8F14F001048FB022D128461DF039FEF5
:1044F000F0B13F230993114B0893114B1149124816
:104500000A94CDE9064301220423CDE9033228238E
:1045100000930B222923CDE90B44CDE901440594F6
:10452000FFF758FC094839F003FE28461DF025FE28
:1045300005480FB030BD00BF98270020E0E2040816
:10454000ECE204083CE204089C270020D544000863
:1045500000207047002070470EB403B503AB002164
:1045600053F8042B01930CF097F802B05DF804EBBC
:1045700003B070470CB407B504AB53F8042B019398
:104580000CF08AF803B05DF804EB02B0704700004D
:10459000436C10B5044673B3038F2BB9184B194AFB
:1045A000C521194839F0A6FDC38E00EB43035B8C8F
:1045B0000BB30DF0F2FE238F012B03D8134B144ADB
:1045C000CB21EEE7E28E531C9BB2092B194688BF24
:1045D000A3F10A0104EB410140F63F10498C8142EE
:1045E00009D10A2B04EB420228BF002304EB43034A
:1045F000508C588451842046BDE810400DF0D0BD49
:1046000078750408817504082C7604087676040809
:10461000847604080DF08BBD10B586B002AC84E83A
:1046200006001A460AAB05930193099B00932146A5
:10463000089B0AF047FB06B010BD000038B518BB58
:10464000124B13481C681349B4B12268224402601B
:10465000626822440A60A26814440F4B00221A8048
:1046600000F038F8054600F033F80C4B1C600C4B9A
:104670001D600C4B188007E00B4B03600B4B0B606D
:104680000B4B1C68002CE8D138BD00BFD42700209C
:10469000CC270020C8270020D02700203037012059
:1046A00038370120343701203CE30408F0E20408E5
:1046B00068E30408044B1B6853F82100034B1B6894
:1046C00003EB4000704700BFC8270020CC27002024
:1046D0001320704700487047D827002010B5FFF717
:1046E000BDFE044C2060FFF7F7FE6060FFF77AFE26
:1046F000A06010BDD827002010B5002404600C6015
:1047000014601C6010BD000010B5034B036004462C
:10471000FEF76FFB204610BD6077040810B5044615
:10472000FFF7F2FF204640F6EC211DF018FD204671
:1047300010BD000010B50446FEF732FC034B2360A9
:10474000034B0222DA605A60204610BD60770408ED
:1047500024290020024B02EB810253F8220070470B
:104760002429002002EB81020F2A37D8DFE802F06B
:10477000080A0C0F1215181B1E2124272A2D30336E
:104780002C307047D830704700F5C270704700F584
:104790000C70704700F53770704700F56270704715
:1047A00000F23440704700F59C60704700F28C5076
:1047B000704700F5C760704700F2E460704700F58D
:1047C000F260704700F63C00704700F6E800704762
:1047D00000F69410704700F5246070470020704781
:1047E00002EB81020F2A38D8DFE802F0080A0D1028
:1047F0001316191C1F2225282B2E31348C3070479C
:1048000000F59C70704700F5F270704700F5247059
:10481000704700F54F70704700F57A70704700F2EE
:104820009440704700F5A860704700F2EC50704764
:1048300000F5D360704700F24470704700F5FE60E9
:10484000704700F69C00704700F64810704700F66D
:10485000F410704700F52A60704700207047000090
:104860002DE9F041054614461E46FFF77BFF07463B
:104870001EB980F82560BDE8F08122462846FFF782
:10488000AFFF0B4A012387F8253004EB8104142382
:10489000054603FB042420463346064A0A210EF04F
:1048A00025FB2B68AC6428465B69BDE8F0411847DE
:1048B000E4270020DBC6040801481DF09DBC00BFB2
:1048C0006429002001481DF0C3BD00BF64290020F9
:1048D000FEF790BA704710B54FF4AE7104461DF064
:1048E0003EFC204610BD10B50446D0F8580100F03B
:1048F0004AF82046BDE810400AF0C8BE10B504468C
:10490000FFF7EEF9014B2360204610BDF477040851
:1049100010B5034B03600446FFF78CFA204610BD28
:104920004878040810B50446FFF7F2FF20464FF41C
:1049300019711DF014FC204610BD000010B504468E
:10494000FFF7BCFB014B2360204610BD48780408EC
:1049500038B5084D084A04460B46284606210EF095
:10496000C5FAC4F8605204F50670BDE838400BF093
:10497000BDBF00BF66290020DBC60408FFF75BBA95
:1049800000220260704770477047043870477047D4
:1049900010B5102104461DF0E2FB204610BDA0F129
:1049A0000400F5E700228260024A02601832426089
:1049B000C1607047DC7804087047000010B5034BF5
:1049C00003600446FFF790FC204610BD04790408FC
:1049D00010B50446FFF7F2FF204640F6BC511DF02B
:1049E000BEFB204610BD000010B50446FFF7A2FC38
:1049F000014B2360204610BD04790408F8B5064633
:104A0000FFF767FC002506F5347700242246294687
:104A10003846FFF79FFE22460346294638460134B2
:104A2000FFF71EFF042CF1D10135042DEDD106F165
:104A30006C000C21BDE8F840FFF78ABFF0207047FA
:104A40004FF4A07070472920FDF726BE2820FDF7FF
:104A500023BE08B5FDF7F4FDCA20FDF71DFEC320F7
:104A6000FDF7FEFD0820FDF7FBFD5020FDF7F8FDEA
:104A7000CF20FDF711FE0020FDF7F2FDC120FDF76C
:104A8000EFFD3020FDF7ECFDED20FDF705FE642085
:104A9000FDF7E6FD0320FDF7E3FD1220FDF7E0FD45
:104AA0008120FDF7DDFDE820FDF7F6FD8520FDF70F
:104AB000D7FD0020FDF7D4FD7820FDF7D1FDCB20F8
:104AC000FDF7EAFD3920FDF7CBFD2C20FDF7C8FDF1
:104AD0000020FDF7C5FD3420FDF7C2FD0220FDF7E3
:104AE000BFFDF720FDF7D8FD2020FDF7B9FDEA2036
:104AF000FDF7D2FD0020FDF7B3FD0020FDF7B0FD6E
:104B0000B120FDF7C9FD0020FDF7AAFD1B20FDF730
:104B1000A7FDB620FDF7C0FD0A20FDF7A1FDA220EC
:104B2000FDF79EFDC020FDF7B7FD1020FDF798FDB5
:104B3000C120FDF7B1FD1020FDF792FDC520FDF766
:104B4000ABFD4520FDF78CFD1520FDF789FDC72045
:104B5000FDF7A2FD9020FDF783FD3620FDF79CFDBB
:104B6000C820FDF77DFDF220FDF796FD0020FDF742
:104B700077FDB020FDF790FDC220FDF771FDB62056
:104B8000FDF78AFD0A20FDF76BFDA720FDF768FD04
:104B90002720FDF765FD0420FDF762FD2A20FDF7C3
:104BA0007BFD0020FDF75CFD0020FDF759FD002096
:104BB000FDF756FDEF20FDF753FD2B20FDF76CFDB3
:104BC0000020FDF74DFD0020FDF74AFD0120FDF717
:104BD00047FD3F20FDF744FDF620FDF75DFD012078
:104BE000FDF73EFD0020FDF73BFD0620FDF738FDFB
:104BF0002C20FDF751FDC820FDF79CFD2620FDF778
:104C00004BFD0120FDF72CFDE020FDF745FD0F20B9
:104C1000FDF726FD2920FDF723FD2420FDF720FDCB
:104C20000C20FDF71DFD0E20FDF71AFD0920FDF7F4
:104C300017FD4E20FDF714FD7820FDF711FD3C20F7
:104C4000FDF70EFD0920FDF70BFD1320FDF708FD14
:104C50000520FDF705FD1720FDF702FD1120FDF7EA
:104C6000FFFC0020FDF7FCFCE120FDF715FD002016
:104C7000FDF7F6FC1620FDF7F3FC1B20FDF7F0FC1A
:104C80000420FDF7EDFC1120FDF7EAFC0720FDF7FD
:104C9000E7FC3120FDF7E4FC3320FDF7E1FC422086
:104CA000FDF7DEFC0520FDF7DBFC0C20FDF7D8FC52
:104CB0000A20FDF7D5FC2820FDF7D2FC2F20FDF7B8
:104CC000CFFC0F20FDF7CCFC1120FDF7E5FCC82040
:104CD000FDF730FD2920FDF7DFFCBDE808402C2062
:104CE000FDF7DABC08B5FDF7ABFC0321D320FDF7D7
:104CF000EFFC80B208BD10B5C4B2022203212046E9
:104D0000FDF754FC0A20FDF799FC20460022032100
:104D1000FDF74CFCBDE810400220FDF78FBC38B514
:104D20000446E4B2FDF740FC00212046FDF756FCA6
:104D3000012105462046FDF751FC40EA052080B2DE
:104D400038BD10B5C4B240212046FDF747FC03062C
:104D500007D54C212046FDF741FC003818BF012043
:104D600010BD01224B212046FDF720FC20460022E9
:104D70004B21FDF71BFC0020F2E773B50423C4B2FE
:104D80000E461546D7210DEB03022046FDF740FCE9
:104D9000019B1BBA1A0DC3F30B23328020462B80D4
:104DA00001224B21FDF702FC00224B212046FDF79A
:104DB000FDFB02B070BD000010B50A4A137898429E
:104DC00004460DD0517888420AD00BB141B9012375
:104DD000D454FDF7E9FB2046BDE81040FFF78BBF38
:104DE00010BD00BF7229002010B5C4B209212046B1
:104DF000FDF7F4FB40F00102D2B220460921BDE8E4
:104E00001040FDF7D3BB10B5C4B209212046FDF711
:104E1000E5FB092100F0FE022046BDE81040FDF749
:104E2000C5BB38B5C4B20D4620460A21FDF7D6FBF6
:104E300040EA0502D2B220460A21BDE83840FDF71B
:104E4000B5BB10B50446FDF7B0FB20461F21FFF7A8
:104E5000E8FF2046BDE81040FFF7C6BF38B5C4B232
:104E60000D4620460A21FDF7B9FB20EA0502D2B221
:104E700020460A21BDE83840FDF798BB10B504462E
:104E8000FFF7C1FF20461F21BDE81040FFF7E6BF36
:104E900010B5C0B20C460B21FDF7A0FB204010BDA1
:104EA0001F21FFF7F5BF0A46C0B20B21FDF77EBBFD
:104EB0001F21FFF7F8BF38B5C4B20D4620461721B1
:104EC000FDF78CFB20EA0502D2B220461721BDE88F
:104ED0003840FDF76BBB70B5C4B2064604212046CE
:104EE000FDF77CFB042100F0FB0205462046FDF7A0
:104EF0005DFB3046F021FFF7DEFF05F0F8022046AB
:104F00000421FDF753FB492220212046FDF74EFBEB
:104F10000220FDF793FB204601222121FDF746FBED
:104F200020469A224121FDF741FB204601224A21D9
:104F3000FDF73CFB204601224B21FDF737FB2046C5
:104F400000224B21FDF732FB204601225621FDF7BE
:104F50002DFB204601225821FDF728FB2046012287
:104F60004021FDF723FB2046FF220B21FDF71EFB0E
:104F7000BDE870400220FDF761BB0000054BD3F88F
:104F8000882042F47002C3F888204FF000629A60D3
:104F9000704700BF00ED00E008B50B4B1A6842F403
:104FA00000721A601A6842F480621A601A6842F449
:104FB00080721A60032000F02FF80020FDF7FCFD3E
:104FC000FDF7C6FB002008BD003C0240034A044B2D
:104FD00011681B780B441360704700BF74290020D0
:104FE0007C000020014B1868704700BF7429002026
:104FF00038B50446FFF7F6FF631C1CBF054B1B7852
:10500000054618BFE418FFF7EDFF431BA342FAD390
:1050100038BD00BF7C0000200749CA6822F4E06266
:105020000302120403F4E063120C134343F0BF6362
:1050300043F40033CB60704700ED00E0164B30B511
:10504000DC68C4F30224C4F10703251D042B28BF28
:105050000423062D4FF0FF358CBF033C002405FAD6
:1050600003F321EA0303A54022EA0502A340002836
:1050700043EA0203ACBF00F16040084A4FEA031361
:10508000B8BF00F00F00DBB2AABF00F561401354B7
:1050900080F8003330BD00BF00ED00E014ED00E00B
:1050A000002807DB044A4109012300F01F00834068
:1050B00042F82130704700BF00E100E010B504461F
:1050C00050B1437903F0FF0213B90271FDF760FBA1
:1050D00001236371002010BD0120FCE710B50446D8
:1050E00030B390F8393003F0FF021BB980F8382054
:1050F000FDF766FB22686168022384F83930136883
:1051000023F440330B431360536BA16823F0070370
:105110000B435363136CE16823F47F5323F03F0385
:105120000B43136400200123E06384F8393010BD81
:105130000120FCE770477047036870B55E681D6822
:10514000F207044614D5E90512D51A6822F48072D4
:105150001A60C26B42F00102C26301229A6004230A
:1051600080F83930002380F83830436903B198471C
:10517000B20616D5AB0414D523681A6822F400527F
:105180001A6020229A60E36B43F00203E363042376
:1051900084F83930002384F8383063690BB1204635
:1051A0009847300716D5290514D523681A6822F4C4
:1051B00000621A6008229A60E36B43F00403E36321
:1051C000042384F83930002384F8383063690BB144
:1051D0002046984772070BD56B0509D523681A68D6
:1051E00022F480621A6004229A602046FFF7A2FF30
:1051F000B00714D5A90512D523681A6822F40072E5
:105200001A6002229A60E36BE363012384F8393069
:10521000002384F8383023690BB120469847F20602
:1052200013D5EB0411D523681A6822F480521A6052
:1052300010229A60E36BE363012384F83930002382
:1052400084F838302046FFF776FF70BDF0B590F84F
:105250003820012A03464FF002002BD0012283F8A8
:10526000382083F8390003EB0112D2E90740556A70
:10527000174F44EA0040093C012C9CBF05F07F42D7
:1052800010434FEA01161A6888BF40EA056091B9D9
:10529000516A394001435162012C9969916103D8E7
:1052A000596A21F07F4191620122002083F8392060
:1052B00083F83800F0BDD16939400143D1619919B3
:1052C000012C896911619CBF25F07F451562EBE7D0
:1052D000F0FFFC002DE9F74FDFF8BC916C4A00238A
:1052E0000D6801249C4004EA0506AC4340F0B780F9
:1052F0004D68032705F003044FEA430807FA08FC4A
:10530000671E012F6FEA0C0C34D8876807EA0C0E71
:10531000CF6807FA08F747EA0E078760476827EA69
:10532000060EC5F300179F4047EA0E074760C7689F
:1053300007EA0C0E8F6807FA08F747EA0E07022CF7
:10534000C76019D14FEAD30A00EB8A0A03F0070BB2
:10535000DAF820704FEA8B0B4FF00F0E0EFA0BFEAF
:1053600027EA0E0E0F6907FA0BF747EA0E07CAF88D
:10537000207001E0032CDAD1076804FA08F407EA88
:105380000C073C4315F4403F046068D000240194AE
:10539000D9F8444044F48044C9F84440D9F8444022
:1053A00023F0030707F1804704F4804407F59C3796
:1053B000019403F0030C019CD7F808E04FEA8C0C31
:1053C0000F2404FA0CF42EEA040E324CA0424DD005
:1053D00004F58064A0424BD004F58064A04249D01B
:1053E00004F58064A04247D004F58064A04245D013
:1053F00004F58064A04243D004F58064A04241D00B
:1054000004F58064A0423FD004F58064A0423DD002
:1054100004F58064A04214BF0A24092404FA0CF4A1
:1054200044EA0E04BC609468F74315F4801F0CBF77
:105430003C4034439460D46815F4001F0CBF3C40DA
:105440003443D460546815F4003F0CBF3C403443EF
:1054500054601468ED0354BF3C403443146001337E
:10546000102B7FF43DAF03B0BDE8F08F0024D5E7EB
:105470000124D3E70224D1E70324CFE70424CDE7B6
:105480000524CBE70624C9E70724C7E70824C5E7B6
:10549000003C01400000024000380240036919420C
:1054A00014BF0120002070470AB1816170470904D0
:1054B000FBE7436901EA030221EA030141EA0241F1
:1054C0008161704701684B6913F480634FF00002FB
:1054D00010D06FF480634B612023026380F83D306D
:1054E00080F83E20036C80F83C2043F00403036402
:1054F00001207047184670472DE9F84606460F46CA
:1055000091461D464FEA114A3368BAF1010F0CBFAC
:105510005C699C6927EA0404A4B2B4FA84F46409BF
:10552000A14501D0002025E06A1CEED0FFF75AFD0E
:10553000089BC01AA84201D8002DE5D13368BAF102
:10554000010F0CBF5B699B6927EA03039BB2B3FAA7
:1055500083F35B099945D7D100232022336386F872
:105560003D2086F83E30326C86F83C3042F0200216
:1055700032640120BDE8F8862DE9F04104460F466B
:10558000164698462568686927EA000080B2C0B1CF
:105590006B695A0517D52B6843F400732B606FF4C1
:1055A00080636B6120220023236384F83D2084F80C
:1055B0003E30236C43F004032364002384F83C3022
:1055C0000120BDE8F081731CDDD0FFF70BFDA0EBDF
:1055D0000800B04201D8002ED4D123685A6927EAC6
:1055E000020292B2002ACDD000232022236384F845
:1055F0003D2084F83E30236C1343DDE770B504464C
:105600000D46164623685B691B0601D500201EE087
:105610002046FFF757FFC8B96A1CF3D0FFF7E2FC3A
:10562000801BA84201D8002DECD123685B6913F0E0
:105630008003E7D12022236384F83D2084F83E30A4
:10564000226C84F83C3042F020022264012070BDBC
:105650002DE9F0431546026885B0DDE90C789946DE
:10566000136843F4807313600E463B46CDF8008008
:1056700000224FF001110446FFF73EFF236838B1C6
:105680001B68DB0502D54FF400732364032620E07A
:1056900006F0FE061E611A4943463A462046FFF7C9
:1056A0006BFFA8B9236803905A6903929B6903931F
:1056B000424639462046039BFFF7A0FF064660B1ED
:1056C000236C042B01BF2268136843F4007313603A
:1056D0000126304605B0BDE8F083B9F1010F23681B
:1056E00002D1EDB21D61F4E72A0A1A613946424639
:1056F0002046FFF783FF0028E2D12368F1E700BFCF
:10570000020001002DE9FF479A46036815461A6812
:1057100042F480621A601A68DDE90C7842F4807203
:105720001A600E463B46CDF8008000224FF0011172
:105730000446FFF7E1FE236838B11B68DB0544BF70
:105740004FF400732364032021E05FFA86F906F02A
:10575000FE061E612B4943463A462046FFF70CFFE2
:10576000A0B9236803905A6903929B690393424648
:1057700039462046039BFFF741FF58B1236C042BA9
:1057800001BF2268136843F400731360012004B062
:10579000BDE8F087BAF1010F23681AD1EDB2424695
:1057A0001D6139462046FFF729FF02460028E5D152
:1057B00021680B6843F480730B602046CDF80080AD
:1057C0003B464FF00111FFF797FE226860B1136866
:1057D000B4E72A0A1A61394642462046FFF70EFF0F
:1057E0000028CBD12368D9E749F0010313610549AB
:1057F00043463A462046FFF7BFFE003818BF012057
:10580000C5E700BF0200010070B504460D4616460C
:1058100023685B695B0701D500201EE02046FFF787
:1058200051FEC8B96A1CF3D0FFF7DCFB801BA8420D
:1058300001D8002DECD123685B6913F00403E7D194
:105840002022236384F83D2084F83E30226C84F8C3
:105850003C3042F020022264012070BD70B5044645
:105860000D46164621684B6913F0400301D0002015
:1058700011E04A69D2060FD56FF010024A6120226A
:10588000236384F83D2084F83E30236C2364002396
:1058900084F83C30012070BDFFF7A4FB801BA842B8
:1058A00001D8002DDED123685B6913F04003D9D104
:1058B0002022236384F83D2084F83E30236C134378
:1058C000E4E7000070B5044608B9012070BD90F807
:1058D0003D3003F0FF021BB980F83C20FCF792FF3B
:1058E000242384F83D3023681A6822F001021A60EC
:1058F0001A6842F400421A601A6822F400421A60E0
:1059000000F0B2FE3F4B65689D4294BF3E4B3F4B5B
:1059100098428CBF00230123002BD6D12268394E38
:1059200051683B4BB0FBF3F321F03F011943B54203
:10593000516088BF4FF49676116A88BF734321F097
:105940003F0184BF4FF47A76B3FBF6F301330B4388
:105950001362D169431E2B4821F44F41854221F047
:10596000FF0132D86D0040F6FC70B3FBF5F3013354
:10597000034242D0C3F30B031943D161D4E907308A
:105980001168034321F0C0010B4313609168D4E90F
:10599000030321F40341034321F0FF010B43936010
:1059A000D4E90530D168034321F0FF010B43D360F4
:1059B000136843F00103136000202023206484F85F
:1059C0003D30206384F83E0080E7A06850B905EBC5
:1059D0004505B3FBF5F30133C3F30B037BB143F48C
:1059E0000043C9E719206843B3FBF0F30133C3F365
:1059F0000B0323B143F44043BEE70423BCE7012378
:105A0000BAE700BFA08601007F841E00FF083D00AA
:105A100040420F002DE9F743044699460C9E0F467D
:105A20009046FFF7DFFA94F83D30202B054603D06F
:105A3000022003B0BDE8F08300903C491923012205
:105A40002046FFF759FD0028F2D194F83C30012B95
:105A5000EED02068012384F83C300368D9075EBF8C
:105A6000036843F001030360036823F400630360E9
:105A7000212384F83D30402384F83E300023236402
:105A80000A9B6362BDF82C306385638D2385284BA8
:105A9000E3624246CDE900654B4639462046FFF7B2
:105AA000D7FD00282AD00120C3E7FFF7A7FD40B1AA
:105AB000236C042B01BF2268136843F40073136046
:105AC000F1E7636A27681A4612F8011B39616262BE
:105AD000628D218D013A92B262857A69481E80B248
