:020000040800F2
:10000000000003205D06000835240008372400089E
:10001000392400083B2400083D24000800000000AB
:10002000000000000000000000000000217E000829
:100030003F24000800000000B17E00083977000866
:10004000AD060008AD060008AD060008AD060008C4
:10005000AD060008AD060008AD060008AD060008B4
:10006000AD060008AD060008AD060008AD060008A4
:10007000AD060008AD060008AD060008AD06000894
:10008000AD060008AD06000841240008AD060008D2
:10009000AD060008AD060008AD060008AD06000874
:1000A000AD060008AD060008AD060008AD06000864
:1000B000AD060008AD060008AD060008AD06000854
:1000C000AD060008AD060008AD060008AD06000844
:1000D000AD060008AD060008AD060008AD06000834
:1000E000AD060008AD060008AD060008AD06000824
:1000F000AD060008AD060008AD060008AD06000814
:10010000AD060008AD060008AD060008AD06000803
:10011000AD060008AD0600085D240008AD06000825
:10012000AD060008AD060008AD060008AD060008E3
:10013000AD060008AD060008AD060008AD060008D3
:10014000AD060008AD060008AD060008AD060008C3
:10015000AD060008AD060008AD060008AD060008B3
:10016000AD060008AD060008AD060008AD060008A3
:10017000AD060008AD060008AD060008000000004E
:10018000AD060008AD060008AD060008AD06000883
:10019000AD060008AD060008AD060008AD06000873
:0C01A00069240008AD0600087524000862
:1001B00010B5054C237833B9044B13B10448AFF3A1
:1001C00000800123237010BD800300200000000088
:1001D0004043020808B5034B1BB103490348AFF382
:1001E000008008BD00000000840300204043020896
:1001F00001F0FF01102A2BDB10F0070F08D010F8D8
:10020000013B013A8B422DD010F0070F42B3F6D1DB
:10021000F0B441EA012141EA014122F007047FF0F4
:1002200000070023F0E80256083C85EA010586EA4B
:10023000010685FA47F5A3FA87F586FA47F6A5FA87
:1002400087F68EB9EED1F0BC01F0FF0102F0070293
:1002500032B110F8013B013A83EA010313B1F8D13E
:100260000020704701387047002D06BF354603381F
:10027000073815F0010F07D1013015F4807F02BF58
:10028000013015F4C03F0130F0BC0138704700BFA9
:100290007BB972B90029BEBF00204FF0004106E0D3
:1002A00008BF00281CBF6FF000414FF0FF3000F086
:1002B000D3B9ADF1080C6DE904CE002909DB002BA0
:1002C0001ADB00F04DF8DDF804E0DDE9022304B0AC
:1002D0007047404261EB4101002B1BDB00F040F80E
:1002E000DDF804E0DDE9022304B0404261EB4101A6
:1002F000524263EB43037047524263EB430300F007
:100300002FF8DDF804E0DDE9022304B0404261EBA0
:1003100041017047524263EB430300F021F8DDF8DE
:1003200004E0DDE9022304B0524263EB430370476B
:1003300053B94AB9002908BF00281CBF4FF0FF314C
:100340004FF0FF3000F088B9ADF1080C6DE904CE34
:1003500000F006F8DDF804E0DDE9022304B07047A0
:100360002DE9F047089D8E4604468846002B4AD169
:100370008A42174662D9B2FA82F64EB1C6F120031C
:1003800001FA06F820FA03F3B74043EA0808B4403C
:100390004FEA174E1FFA87FCB8FBFEF1230C0EFB49
:1003A000118843EA084301FB0CF29A4209D9FB1871
:1003B00001F1FF3080F0EA809A4240F2E780023992
:1003C0003B449A1AA3B2B2FBFEF00EFB102243EAA2
:1003D000024300FB0CFC9C4509D9FB1800F1FF32DD
:1003E00080F0D6809C4540F2D3803B44023840EAFE
:1003F0000140A3EB0C0300211DB1F3400022C5E92D
:100400000032BDE8F0878B4205D90DB1C5E9000186
:1004100000210846F5E7B3FA83F1002946D1734578
:1004200002D3824200F20581841A6EEB030201209E
:100430009046002DE5D0C5E90048E2E7002A00F02B
:100440009080B2FA82F6002E40F0A4808A1A030C43
:100450004FEA174E80B2BCB20121B2FBFEFC0EFB8C
:100460001C2243EA024304FB0CF29A4207D9FB1810
:100470000CF1FF3802D29A4200F2E080C4469B1A87
:10048000B3FBFEF20EFB123340EA034302FB04F41B
:100490009C4207D9FB1802F1FF3002D29C4200F2C5
:1004A000CA8002461B1B42EA0C40A5E7C1F12006A8
:1004B0008B4022FA06F71F430EFA01F420FA06F3E6
:1004C0002EFA06FE4FEA1749234300FA01F81FFAF5
:1004D00087FCBEFBF9F01C0C09FB10EE44EA0E444D
:1004E00000FB0CFEA64502FA01F209D93C1900F105
:1004F000FF3A80F09C80A64540F2998002383C4447
:10050000A4EB0E041FFA83FEB4FBF9F309FB1344BA
:100510004EEA044403FB0CFCA44508D93C1903F142
:10052000FF3E80F08280A4457FD9023B3C4443EAF1
:100530000040A4EB0C04A0FB02EC64457346E146CA
:1005400062D35FD05DB1B8EB030264EB090404FA37
:1005500006F622FA01F31E43CC40C5E900640021EF
:100560004FE7B1FBF2FC010C41EA0E4180B240EAD8
:1005700001423B4638463C46B846BE462026B1FBC3
:10058000F7F1A2EB080241EA0C4166E7014618E7E1
:1005900010462CE7C6F120022EFA02F3B740B14014
:1005A00020FA02F24FEA174E0A43B3FBFEF8BCB240
:1005B0000EFB1833110C41EA034108FB04F9B0406B
:1005C00089454FEA104380B23ED9791808F1FF3CC3
:1005D00001D289451FD8A1EB0901B1FBFEF909FB46
:1005E00004F80EFB191192B242EA0142424529D2A7
:1005F000BA1809F1FF31C4D24245C2D2A9F10201B1
:100600003A44BEE7F0459DD2BEEB02036CEB070C0B
:100610000138E14696E7A7EB09094944A8F1020C25
:10062000B1FBFEF909FB04F8DBE773467FE75046B0
:1006300066E70846FDE63B44023A33E7ACF1020CBC
:100640003B441CE749469CE7A1EB0901C446B1FBCA
:10065000FEF909FB04F8C4E7704700BFDFF834D0A7
:10066000002103E00C4B5B58435004310B480C4B0A
:1006700042189A42F6D30B4A02E0002342F8043BA8
:10068000094B9A42F9D304F07DFB23F0EBF801F01B
:10069000C3F8704700000320B0EB02080000002000
:1006A0007C0100208003002090420120FEE770477B
:1006B00008B500F0BBFDBDE8084000F03FBD00F00C
:1006C000B7BD704710B50421044621F084FE2046D2
:1006D00010BD000038B50C4B0C4C18800C4B822020
:1006E00019806368984740F6110398420AD1094D72
:1006F00023682C60822098472B688220DB6898470B
:10070000002038BD0120FCE7A60300206400002083
:10071000A4030020A80300204FF4A071F020FFF7ED
:10072000D9BF0000F7B5394D2B6804461B698220FC
:100730009847208000284ED02B680DF106025B6997
:1007400001A982209847324B1B78002B4BD0BDF873
:10075000062040F674639A423FD9ADF80630BDF8E2
:1007600006209B1A9BB20A2B42D90B22B3FBF2F351
:10077000284A1288934201D9013A93B2BDF8042065
:10078000254840F6B8318A4234D8C2F571620E323B
:10079000016892B20F25B2FBF5F2204D2D88AA42D6
:1007A00084BF05F1FF35AAB28A4215468EB22AD916
:1007B000921B91B21A4E3768BB42BAB28CBF9A1ADA
:1007C000D21A92B211440529C4BF05603360036890
:1007D00063803368A38003B0F0BDB32A9CBFB4220A
:1007E000ADF80620BBE7BDF80630A3F5B473B9E752
:1007F0000023C3E7C2F56D62083292B20E2A016887
:10080000C8D800252A46891A89B2D3E7A803002050
:10081000E8220020A4030020A0030020A60300205B
:100820009C03002037B568460D461446FFF77AFF53
:10083000BDF8000030B1BDF802302B60BDF80430C7
:100840002360012003B030BD032821D8DFE800F089
:10085000020B12190F4B1A68B2FA82F252090421E4
:100860000D4804F07FBF0B4B5A68B2FA82F252096E
:100870000821F5E7074B9A68B2FA82F25209102173
:10088000EEE7044BDA68B2FA82F252092021E7E778
:10089000704700BFAC03002000100240032821D89D
:1008A000DFE800F0020B12190F4B1A68003A18BF6C
:1008B000012204210D4804F055BF0B4B5A68003A41
:1008C00018BF01220821F5E7074B9A68003A18BFC4
:1008D00001221021EEE7044BDA68003A18BF01222A
:1008E0002021E7E7704700BFAC0300200010024062
:1008F00003280DD8DFE800F00206080A04210548A5
:1009000004F035BF0821FAE71021F8E72021F6E7C7
:10091000704700BF0010024008B5032811D8DFE877
:1009200000F0020A0C0E0421074804F015FF431ED4
:100930005842584108BD0821F6E71021F4E720216C
:10094000F2E70020F3E700BF0010024070B5084D49
:1009500000240126E0B2FFF7DFFF18B12B68012B5E
:1009600018BF2E600134052C05F10405F2D170BDCD
:10097000AC030020012380F8781080F879307047AC
:100980007047002070470000034B4164003918BFD6
:1009900001211970704700BF4B35012070470020BE
:1009A0007047836B0BB10846184770474FF6FF70CE
:1009B0007047406803689B691847704770477047E5
:1009C0007047704710B5044600F048FD236803499E
:1009D000D3F890302046BDE810401847000000D002
:1009E00008B503680446D3F8843098472368204646
:1009F000DB6F984700F0ECF8236820465B6F984760
:100A0000292001F0D7F900F0E3F8236820465B6F56
:100A10009847F8E710B5044609F0F8FF2368204628
:100A2000D3F8BC30BDE81040184700F0FBBC00F024
:100A3000FFBC00F031BD00F0D1BC00F041BD00F0C2
:100A400049BD00F0D5BC09F00FBA10B584210446A9
:100A500021F0C1FC204610BD10B590F8341090F87C
:100A600078400C4B8C421A7809D03AB90A4A0B49A3
:100A70001488088810800C8001221A7010BD002A8A
:100A8000FCD0054A05491488088810800C80002293
:100A9000F3E700BF443501204035012042350120F5
:100AA00070B50D46194635B9094B0A4A0A4840F255
:100AB000FF2122F0E9FBC0E90F52084B003A18BFB2
:100AC00001221A700368BDE87040D3F890301847CF
:100AD000B0430208E8430208364402084A350120C0
:100AE00008B5094B1B888B4203D8084B1B889342DF
:100AF00005D9074B074A0848A32122F0C5FB074B3D
:100B00001980074B1A8008BD40350120423501206D
:100B10007B440208DE4402083644020846350120C0
:100B200048350120034690F87A0018B158680368E8
:100B30001B68184770470000012108B500220846CD
:100B400006F084FE0A4B186028B90A4B0A4A28218D
:100B50000A4822F099FB00220421012006F015FF2B
:100B6000074B186018B9074B034A2C21F0E708BD62
:100B7000C0030020214502086A4502089945020881
:100B8000BC030020E0450208024B4FF0FF3118681B
:100B900006F0A6BEC0030020014B186806F0CCBECC
:100BA000C0030020024B0021186806F099BE00BF68
:100BB000C0030020FFF7F0BF03480449006800238A
:100BC0001A4606F01DBF00BFBC0300200400002031
:100BD00013B5084C00231A4601A9206806F041FF0E
:100BE00020684FF0FF33002201A906F03AFF02B05F
:100BF00010BD00BFBC03002003685B6C18470120D8
:100C0000704703689B6A1847FEE740F2EF30704771
:100C1000054B0360054B4FF08062C3F88820BFF39B
:100C20004F8FBFF36F8F70475C50020800E100E008
:100C300010B504464FF45A61FFF7EAFF204621F051
:100C4000CAFB204610BD000082B0002301930E4B6A
:100C50001A6B42F400021A631A6B02F4000201924A
:100C6000019A1A6942F400021A611A6922F4000218
:100C70001A61064B064A1A61064A5A61064B4FF042
:100C800080629A6002B07047003802407C240020E5
:100C9000E90E0008090C000800E100E008B50A2888
:100CA00009D8DFE800F006100E0808080810101038
:100CB0001000022008BD054B054A0648902122F08D
:100CC000E3FA0020F6E70120F4E700BF224602081D
:100CD0003D4602088846020838B50C46887FFFF773
:100CE000DDFFA58AE28A164B2169586342EA054274
:100CF0005A64628BD963521B1A642568082D0ED181
:100D00009A611A615862207F0E4A42EA0062DA61F3
:100D1000E2681A620C4A5961D9601A6038BD002233
:100D2000D8611A61E1680A0A480902F4784200F4BD
:100D3000FC600243C1F3C4010A439A63034AECE72F
:100D400000B002400900010001230200012303005A
:100D500008B50B280BD8DFE800F00612100A0A0AC3
:100D60000A0808080808022008BD0520FCE7054B12
:100D7000054A06486F2122F087FA0020F4E7012097
:100D8000F2E700BF22460208CD4602088846020864
:100D90002DE9F04191F81D800C464046FFF7D8FF41
:100DA000A77F05463846FFF7D3FF06463846FFF7CC
:100DB00075FFA18A628B444B521A1A649A61228B86
:100DC000521A1A61E28A586342EA01425A6421695E
:100DD0006268D963DA602068802828D0227F0FD823
:100DE000202867D0402865D004281AD0364B45EA21
:100DF000026545F40035B845DD6161D0334A44E011
:100E0000B0F5807F04D0B0F5007FEFD1304800E02E
:100E1000304840EA0262DA61E2681A625E62596151
:100E200032E045EA026242F40032DA61F6E7A06895
:100E3000021DDA62227F45EA026545F40035DD6174
:100E40005E625961017841B1012921D0224B234AC8
:100E500023484FF48D7122F017FADA69418822F4A1
:100E60007F42013922F0100242EA0122DA610121B7
:100E7000154BDA6942F02002DA61DA699206FCD495
:100E800010229A600029B9D0164A1A60BDE8F08194
:100E9000B2F1FF01DA69408822F47F4200F1FF30AD
:100EA00022F0100242EA002242F0100218BF012193
:100EB000DA61DDE745EA0262034B42F40032B4E74F
:100EC00042F20132E1E700BF00B00240012301001D
:100ED000090002000A000200174702083147020811
:100EE0008846020801230200024B1B685868036809
:100EF0005B6918474C35012070B5044625460A4BFE
:100F00000C30002660602672667245F8203B602235
:100F1000294609F0D1FE04F55A63EE6024359D425E
:100F2000FBD1204670BD00BF5C500208034B1A681D
:100F3000D207FCD423229A60704700BF00B0024061
:100F40007047000030B50F4C2568ED07FCD4232511
:100F50000904A56041F001010225FF2B656361646E
:100F6000E0630AD00849656241EA0363E361074B25
:100F700022626061E060236030BDE561039BA36392
:100F8000034BF8E700B00240090001000100020035
:100F90000100030030B50E4C2568ED07FCD4232575
:100FA0001204A56042F001020225FF2B6563626412
:100FB000E063E16008D01B0643F00213E361054BD8
:100FC00065626061236030BD034BE3610123F9E793
:100FD00000B0024001000200020002FF30B50B4CDD
:100FE0002568ED07FCD4232512041B06A56043F4F5
:100FF0000033022542F0010265636264E063E16050
:10100000E361034B65626061236030BD00B0024064
:1010100001000200012070470C2070470C2303FBE5
:101020000100083070470C2303FB010008307047B3
:10103000012070474FF45D6070474FF45D6303FB20
:101040000100083070474FF45D6303FB0100083076
:101050007047012070471020704700EB01100830E6
:10106000704700EB011008307047084602F068BA7C
:1010700010B5034B0360044608F04DFC204610BD3C
:101080001451020810B50446FFF7F2FF2046142160
:1010900021F0A1F9204610BD10B5034B03600446B2
:1010A00008F039FC204610BDE050020810B5044697
:1010B000FFF7F2FF204640F6D85121F08CF9204688
:1010C00010BD000010B5034B0360044608F023FC7C
:1010D000204610BDAC50020810B50446FFF7F2FFE1
:1010E0002046182121F077F9204610BD10B5084B95
:1010F0000360044600F60460FFF7BAFF04F12C0019
:10110000FFF7CAFF04F11400FFF7DCFF204610BD13
:101110004851020808B50248FFF7E8FF08BD00BFC4
:101120009C12002010B50446FFF7E0FF204640F671
:10113000787121F050F9204610BD00002DE9F341EF
:1011400001F00CFA054601F00DFA00240146234691
:1011500028462246009412F0ABF8274B274A1A6023
:10116000204602F0A9FE264D264B274A27489A60C2
:1011700012F006F82B68BFF35B8FDB0735D42846E7
:1011800021F02BF988B3224C224B236004F61C6615
:1011900004F1140004F12C0804F604676060C4F83C
:1011A0000880E760266108F0B7FB1B4B636140468F
:1011B00008F0B2FB194BE362384608F0ADFB184B60
:1011C000C4F8043E04F6186003F0CAF9224604F697
:1011D0001861304603F07CF9304602F0B1F911484D
:1011E00022F070F8284621F004F90F4802B0BDE85B
:1011F000F041FFF7E7BB00BFB035012048040020F5
:1012000098120020680400204C04002008000020F0
:101210009C12002048510208AC500208E05002081D
:101220001451020815110008C40300207047000083
:101230000148FFF7D5BB00BFC403002070B5264EA0
:10124000264C274D274B23603046FFF755FE284696
:1012500017F034F924480FF03BFD244B2448DC60A0
:1012600000224FF48071C3E9121222491A86C3E9A1
:101270001A12214983F85820C3E91E011F49C3F8F7
:1012800080101F491F480B60F021C3E90422C3E905
:101290000622C3E90822C3E90A22C3E90E22C3E9F0
:1012A0001022C3E91422C3E917225A6683F870207A
:1012B0005A67C3E9016501801348018013484FF460
:1012C000A07101801248018012490A70012283F83E
:1012D0003420114A1A6070BDF404002094120020DA
:1012E00068040020A04302084C040020C40300202E
:1012F0000000010101000001000450001A00140068
:101300004C35012040350120463501204235012071
:101310004835012044350120704F02080148FFF78D
:1013200077BC00BFF4040020002070478180704724
:10133000C180704701817047418170477047704795
:1013400070477047704710B4C4880368121B8488C4
:101350005B6D091B12B25DF8044B09B218474FF6DA
:10136000FF7383814FF0FF3303621368C361106022
:101370007047002070478B8883800120704770473A
:1013800080F82610704790F82600704710B50022AC
:10139000B1F90840B1F90A10028042808480C1800E
:1013A00010BD0022028042808280C2807047017797
:1013B000704780ED080A704780F82410704780F865
:1013C0002510704701207047983070478C30704767
:1013D000843070477047704770470000034B90227D
:1013E00083F85A2383F85823704700BF00E100E0D8
:1013F000094A0A49D3680A48C3F30A03013B9BB26E
:101400000B801169C1F30A01013901801364536B28
:1014100043F0010353637047006801401622002027
:1014200014220020014BD3F8AC0070470068014043
:10143000024B0122C3F8AC105A62704700680140A9
:1014400010B52C21044620F0C6FF204610BD10B573
:10145000BC21044620F0BFFF204610BD70B50446F5
:1014600008F057FD23689D6E0EF0CAF9014620462C
:10147000A8472368054AD3F88C502046AC46002381
:10148000BDE87040A2F51631604700BF00B004D03F
:1014900008F026BD08F030BD08F0ECBC08F05BBEDB
:1014A00090F8252012B103685B691847704790F8DF
:1014B00025201AB190F8242002B11860704700006E
:1014C000034B4FF080629A604FF080729A607047D1
:1014D00000E100E0084B4FF08062C3F88820BFF3C2
:1014E0004F8FBFF36F8F4FF08072C3F88820BFF328
:1014F0004F8FBFF36F8F704700E100E070B500239E
:10150000124E8380124B0360336893F858200546CF
:101510000AB1D86C00B998680368DB6A98473368E9
:10152000B0FA80F4D86C640930B10368DB6A98477C
:10153000002808BF44F001042CB9064B064A0748AE
:101540002C2121F0A1FE284670BD00BF4C350120A2
:101550005C5102086F470208CD470208064802089E
:1015600070B5254E3568BFF35B8F15F0010540D18E
:10157000304620F032FF00283BD0204C204B256124
:1015800004F13400C4E90035C4E90255E584A562DC
:10159000A5850FF082FE04F158000BF041F8194BBD
:1015A000A3652046184B40F8843BFFF7A7FF174B75
:1015B000C4F884302433C4F88C304FF4C803C4E931
:1015C00028350023C4F8AC30C4F8B030C4F8B430C7
:1015D000C4F8B8300E480F4BC4F89050C4F89C5073
:1015E000C4F8A850C4F8983021F06CFE304620F0C2
:1015F00000FF024870BD00BF182200201C220020FE
:10160000785A02087C510208F45102082C5A020848
:10161000D91300080C5A020838B5184C23685BB37C
:10162000174B184A1B6C11888B4216D1164B198820
:1016300004F0A0FE236893F86A200025013283F8A5
:101640006A2083F87C50FFF7B7FA206809F0DEF9CA
:101650002846BDE83840FFF7F7B804F08BFE246851
:10166000236820461B6A9847012384F87C300020B9
:10167000BDE83840FFF712B938BD00BF4C35012036
:1016800000680140162200201422002007B5064BF6
:10169000ADF806001B68054801220DF1060105F0B2
:1016A00009FC03B05DF804FB0C0000202823002097
:1016B00008B5094D094C284603F058FC0A2003F0F0
:1016C0009BFB204603F052FC642003F095FB0120B5
:1016D00006F0B0F8EFE700BF0C250020C42400207E
:1016E000214A904213B5214C2FD103F0C3FC204B6B
:1016F00018802368013323602368022B23D11C4AFE
:101700001388A3F500631BB2B3F5967F25DC13F5B0
:10171000967F24DB5388A3F500631BB2B3F5967F55
:101720001FDC13F5967FACBF002301235B0011483B
:101730008DF8073000231A4600680DF1070106F006
:101740005FF90023236002B010BD0B4A9042D3D151
:1017500003F090FC064B5880CBE70423E7E7032314
:10176000E5E70123E3E700BF0C250020D822002095
:10177000E4220020E0220020C424002030B595B0EF
:10178000102200210AA821F0C4FF1422002103A87E
:1017900021F0BFFF00241E4B01941A6C42F08052CE
:1017A0001A641B6C03F080530193019B194B029444
:1017B0001A6842F440421A601B6803F440430293E3
:1017C0000122029B4FF48033CDE9082302254FF418
:1017D00080030821CDE90E534FF4B473CDE9101303
:1017E00008A804231393129504F01CFE04F0E0FDF6
:1017F0000F23CDE903354FF4A0504FF48053CDE9CA
:101800000603052103A8059404F0E8FF15B030BDD8
:1018100000380240007000402DE980489BB003F082
:10182000BFFAFFF7ABFF142200210DA821F071FFD2
:101830000024C84B00941A6BC748C84D42F01002F0
:101840001A631A6B02F010020092009A01941A6B4C
:1018500042F020021A631A6B02F020020192019AF0
:1018600002941A6B42F080021A631A6B02F0800233
:101870000292029A03941A6B42F004021A631A6BE2
:1018800002F004020392039A04941A6B42F00102DC
:101890001A631A6B02F001020492049A05941A6BFF
:1018A00042F002021A631A6B02F002020592059AD4
:1018B00006941A6B42F040021A631A6B02F040025F
:1018C0000692069A07941A6B42F008021A631B6B81
:1018D00003F00803224607933C21079B03F042FFD5
:1018E0009F480122022103F03DFF22469C4804212B
:1018F00003F038FF22469B484FF4405103F032FF7B
:1019000001263C23CDE90D3693480F9403230DA9FE
:101910000227109303F03CFE91480DA9CDE90D7606
:10192000CDE90F4403F034FE04238D480DA9CDE921
:101930000D36CDE90F4703F02BFE0DA94FF44053B0
:101940008848CDE90D36CDE90F4703F021FE8648E2
:10195000864B036003F012FD8548864B2C62C5E977
:1019600000034FF480432846C5E90434C5E9024426
:10197000C5E9064404F004F91021284604F048FBA8
:101980002146284604F063FB7B4DDFF80CC2AC62B5
:101990004FF48273C5E900C34FF4007E1823C5E9F4
:1019A00006E328460A23C5E90244C5E90444C5E91B
:1019B0000844EB6205F022FA8F2322463946684834
:1019C0008DF824308DF8344003F0CCFE32464FF4CD
:1019D0007A7309A9284605F06DFA4FF47A733246F6
:1019E0000DA9284605F012FC324639465C48634D85
:1019F00003F0B8FE9DF83430D32B04BF604B1E704B
:101A0000604B0126C5E900364FF010084023002442
:101A1000C5E904834FF4C073C5E906344FF400638D
:101A2000C5E908344FF400534FF0020A04274FF081
:101A3000030BAB620DA907232846CDE90DA3CDE921
:101A40000F734FF00809CDE911BAC5E90247CDF887
:101A50004CA005F0B7F84FF6FF7209A92846CDE96A
:101A60000A96089409960C9405F0CCF8304603F0D9
:101A7000C3F94FF6FF7209A92846CDE909A9CDE9B6
:101A80000B6405F0BFF84FF6FF7209A92846CDE9AF
:101A900009B9CDE90B7405F0B5F84FF40C73089350
:101AA000089B0C934FF6FF7209A92846CDE90979E6
:101AB0000B9605F0A7F840F26A51284605F0C0F8E9
:101AC000342221460DEB020021F023FE2E4D2F4B38
:101AD0002C61C5E900340923C5E905361D23C5E994
:101AE000073B40F20D1240F24313C5E9092340F2CF
:101AF000171140F247132846C5E90B13C5E9024404
:101B0000AC8685F8364004F03DFBFF21F022CDE99C
:101B100012144FF005094FF480614FF4A073CDE922
:101B20000E24CDE91419CDE916420DA92246284606
:101B3000CDE9103A164D18930D94ADF864408DF828
:101B4000664004F0EAFB134B2B601B6898472B6838
:101B500024E000BF0038024000100240282400208A
:101B600000080240000C0240BC240020003002406B
:101B7000005C0040A086010028230020F422002001
:101B8000E8220020400100A08023002000680140DE
:101B9000DC2200202C000020005001403A4DDB6880
:101BA00098473A4B2846C5E90034C5E902A4C5E97F
:101BB0000A4AC5E90C4403F0F1FB3146284603F01C
:101BC000A3FC334DDFF8F8A0FEF772FDFEF76FFDC2
:101BD000424621460DA821F09CFD2E4BAC604FF4EF
:101BE000803B2846C5E9003B2C612C7685F82040D7
:101BF000EC62C5F828A0EC60EE6185F830406E61BB
:101C000003F00EF90D230DA92846CDE90D36224D1E
:101C10000F9403F0C3FA424621460DA821F079FD46
:101C20001E4BAC602846C5E9003BC5E90AA42C61FF
:101C30002C7685F82040EC60EE6185F830406E61CE
:101C400003F0EEF80DA92846CDE90D960F9403F0A8
:101C5000A5FA05F07FFD124A3146384605F095FE9B
:101C6000104B114A18602146104805F09FFD104B9B
:101C7000104A18602146104805F098FD0F4B186077
:101C800005F07AFDFEE700BF7C24002000B0024092
:101C90000C25002000200140C42400200021014028
:101CA00014000020E02200205C520208B116000857
:101CB000F022002038520208BF060008EC22002063
:101CC0000100000F704770477FB5094B8DF8172052
:101CD0001B6802930DF117020123009201930A463B
:101CE0000146044803F0F4FF07B05DF804FB00BFB1
:101CF00010000020282400207FB500238DF8173025
:101D0000084B1B6802930A4601230DF1170100914D
:101D100001930146044804F06BF89DF8170007B0E2
:101D20005DF804FB10000020282400201FB5084C9B
:101D300024680092CDE901340A4601230146054892
:101D400004F056F8003818BF012004B010BD00BFE1
:101D5000100000202824002003F04EB810B5064CD7
:101D600000222046042103F0FDFC20460122BDE8AC
:101D70001040042103F0F6BC0008024038B50B4DBA
:101D8000044601220A484FF4005103F0EBFC002204
:101D90000421284603F0E6FC2046FFF777FC28469E
:101DA0000122BDE83840042103F0DCBC00080240F9
:101DB000000C024038B50B4D044600220A484FF48F
:101DC000005103F0CFFC00220421284603F0CAFC96
:101DD0002046FFF75BFC28460122BDE8384004217D
:101DE00003F0C0BC00080240000C0240F7B5144EDE
:101DF000144F05460C4630460022042103F0B2FC85
:101E000000224FF40051384603F0ACFC2846FFF79F
:101E10003DFC0D4B0D481B68224601A905F0F6F963
:101E2000384601224FF40051019C03F09BFC3046E0
:101E30000122042103F096FC204603B0F0BD00BF50
:101E400000080240000C02400C0000202823002063
:101E500002F0D2BF0268034B9A4201D102F0BABF2E
:101E6000704700BF001000407047000082B00E4B6A
:101E700000220092596C41F480415964596C01F47C
:101E80008041009100990192196C41F080511964D0
:101E90001B6C03F080530193019B0F216FF0010035
:101EA00002B003F02BBA00BF0038024010B5142274
:101EB0008AB0044600210DEB020021F02AFC2368C1
:101EC000254A934227D1254B2548002401945A6C7A
:101ED00042F480725A645A6C02F480720192019A40
:101EE00002941A6B42F004021A631B6B03F00403A2
:101EF00002930821029B0323CDE9051305A903F0F2
:101F000047FB12202246052103F0F8F9122003F0C6
:101F100027FA0AB010BD134A9342FAD10F4B124868
:101F2000002403945A6C42F400725A645A6C02F40E
:101F300000720392039A04941A6B42F001021A632E
:101F40001B6B03F001030493049B20220323CDE9C0
:101F5000052305A9D3E700BF002001400038024057
:101F60000008024000210140000002400268094BC5
:101F70009A4282B00BD100230193074B1A6B42F4B3
:101F800080521A631B6B03F480530193019B02B0D0
:101F9000704700BF003002400038024007B50F4BC9
:101FA00002689A4216D10022A3F5F0430192196B00
:101FB00041F4000119631B6B03F400030193052135
:101FC0005A20019B03F09AF95A2003B05DF804EB04
:101FD00003F0C6B903B05DF804FB00BF00B00240D7
:101FE0002DE9F043044689B01422002103A821F012
:101FF00090FB2268244B9A4243D1244C244800256C
:102000000095236B43F004032363236B03F0040365
:102010000093009B0195236B43F001032363236B23
:1020200003F001030193019B4FF012094FF4007379
:102030004FF001080327042603A9CDE90339CDE9B0
:102040000587079603F0A4FA4FF4807311480796AA
:1020500003A9CDE90339CDE9058703F099FA029583
:10206000236C43F400032364236C03F40003029302
:10207000029B236A43F400032362236A23F40003D0
:10208000236209B0BDE8F083005C004000380240E4
:102090000008024000000240F0B599B00446142246
:1020A000002107A821F035FB30220DEB02000021B2
:1020B00021F02FFB22685E4B9A4240F0B780082344
:1020C0000C93C0231093042312930CA84FF40033F5
:1020D000159304F04BFC08B1FFF7C6FE554B56486C
:1020E000002400945A6C42F080625A645A6C02F0E8
:1020F00080620092009A01941A6B42F020021A63E7
:102100001A6B02F020020192019A02941A6B42F0BB
:1021100001021A631A6B02F001020292029A0394FE
:102120001A6B42F002021A631A6B02F00202039267
:10213000039A04941A6B42F040021A631A6B02F07D
:1021400040020492049A05941A6B42F004021A6346
:102150001A6B02F004020592059A06941A6B42F07B
:1021600008021A631B6B03F00803069302250E2670
:10217000069B0B964FF4806307A9CDE90735CDE99F
:10218000094503F005FA41F658032C480B9607A9B8
:10219000CDE907350927CDE9094503F0F9F903230E
:1021A00027480B9707A9CDE90735CDE9094503F085
:1021B000EFF94FF4706322480B9607A9CDE9073574
:1021C000CDE9094503F0E4F94FF40C631D480B9683
:1021D00007A9CDE90735CDE9094503F0D9F9C023B1
:1021E00019480B9607A9CDE90735CDE9094503F054
:1021F000CFF9082315480B9607A9CDE90735CDE996
:10220000094503F0C5F94FF4A0530E480B9707A9F1
:10221000CDE90735CDE9094503F0BAF95820224642
:10222000052103F06BF8582003F09AF819B0F0BDBF
:1022300000680140003802400014024000000240E3
:10224000000402400018024000080240000C024056
:1022500010B5044688B01422002103A821F059FAD1
:102260002268144B9A4223D103F56843002101915F
:102270005A6C114842F480125A645A6C02F480126B
:102280000192019A02911A6B42F020021A631B6BB1
:1022900003F020030293029B4FF460720223032198
:1022A000CDE903230523CDE9061303A903F070F953
:1022B00008B010BD00500140001402402DE9F0416B
:1022C00086B0002303932B4B1C68002C4FD14FF09A
:1022D0000108C3F80080284B00949A6B274842EA13
:1022E00008029A639B6B03EA080300930227032604
:1022F0000C25009B01A94FF63F03CDE90137CDE93D
:10230000046503F045F91E48059501A9CDE901874B
:10231000CDE9034603F03CF948F23313194805951B
:1023200001A9CDE90137CDE9034603F031F94FF6B4
:1023300083731548059501A9CDE90137CDE9034619
:1023400003F026F94CF203731048059501A9CDE975
:102350000137CDE9034603F01BF960230C480595CE
:1023600001A9CDE90137CDE9034603F011F906B023
:10237000BDE8F081542500200038024000140240DE
:10238000000802400018024000100240000C024009
:102390000004024070B588B000230293204B1A6CF1
:1023A00042F010021A641B6C03F0100302930546FE
:1023B00001A903A8029B04F0BBFA069B4BBB04F0E7
:1023C000A7FA184E184B336040F2E733F360174B0F
:1023D000B0FBF3F3013B7360304600233361B3601D
:1023E000B36105F0E3F8044680B9304604F0B4FF69
:1023F000044658B9362002F0B3FF0F2D0DD82246FF
:102400002946362002F07AFF094B1D60204608B0AD
:1024100070BD04F07DFA4000D3E70124F6E700BF69
:1024200000380240582500200010004040420F00B4
:10243000940000207047FEE7FEE7FEE7FEE77047E6
:1024400008B5044802F01BFEBDE80840024802F04F
:1024500016BE00BF0C250020C4240020014804F053
:10246000B9BF00BF58250020014803F0F9BE00BFE6
:1024700080230020014802F0BDBF00BF7C24002063
:102480000120704708B521F0E7F9162303604FF0EB
:10249000FF3008BD08B521F0DFF916230360FEE721
:1024A00070B50D4614460E46731B9C4201DC204657
:1024B00070BDAFF3008006F8010BF5E770B50D466F
:1024C00014460E46731B9C4201DC204670BD16F874
:1024D000010BAFF30080F5E74FF0FF3070474FF48A
:1024E00000534B6000207047012070470020704768
:1024F0000A4A116808B5034609B90949116010680C
:10250000694603448B4206D921F0A6F90C230360E7
:102510004FF0FF3008BD1360FCE700BFA02500208E
:1025200090420120704710B5042104461FF053FF6C
:10253000204610BD012908B506D0022908D059B996
:1025400001F006FD006808BD01F002FD4068FAE7F1
:1025500001F0FEFC8068F6E70020F4E700487047D1
:102560009452020802207047806A7047704730B565
:10257000036885B06D460181D3F884300146044676
:102580002846984795E807003C3484E8070005B0E2
:1025900030BD30B5036885B06D464181D3F88430D5
:1025A000014604462846984795E807003C3484E8ED
:1025B000070005B030BD0022028042808280C280C8
:1025C000704780F83610704770B5036804461B6B7F
:1025D000154698472368294620465B6EBDE8704043
:1025E000184700207047806C7047704770477047ED
:1025F00010B5082104461FF0EEFE204610BD10B5B0
:102600004C2104461FF0E7FE204610BD10B540F6F1
:10261000EC2104461FF0DFFE204610BD08B5FEF792
:102620003FFF08BD036870B55E6B124B1B68044624
:102630008DB22BB9104B114A6C21114820F024FEA9
:102640001049828D0988914203D80F4B0B4A6D21A6
:10265000F3E713F812200D4B1B6853F822000368B0
:102660001B6B9847291A3346204609B2BDE87040D3
:10267000184700BFA43501208C480208CE48020844
:1026800009490208A835012050490208AC3501204B
:10269000074A02600022C0E90122C0E90322C0E922
:1026A0000522C0E907224FF480728284704700BF80
:1026B0006C5D02082DE9F0411D460368BDF91870F4
:1026C0001B6B0446164698472368314620465B6BD1
:1026D00098472368294620469B6B984723683946CC
:1026E0002046DB6BBDE8F0411847000010B50446FA
:1026F000FFF7CEFF024B23600023A362204610BDEC
:102700004C59020810B526220446002121F001F898
:102710002046FFF7BDFFFF23044A84F8263000233C
:10272000A3622260E3622386204610BD345C020867
:1027300000224FF0FF31C0E900218260704710B5E0
:102740000446FFF7F5FF204610BD000038B52622ED
:102750000446002120F0DDFF2046FFF799FF0B4BD8
:1027600023600B4BA3624FF6FF730025A3854FF444
:102770007F03C4E90C53258704F13C00FFF7D8FF21
:10278000044B2360A564204638BD00BF3C5B0208B3
:10279000C4520208D45202082DE9F04F0446BBB0DF
:1027A000FFF7A4FF2246D74B42F82C3B04F1580612
:1027B00010460392FFF79AFF3046FFF7A3FF04F19C
:1027C0008C0318460493FFF7C1FF04F1D8031846A1
:1027D0000593FFF78BFF04F5827318462393FFF7E9
:1027E00091FF04F59C7318460693FFF7AFFF04F5BD
:1027F000C27318460793FFF779FF04F5D87318469C
:102800002493FFF77FFF04F5F27318460893FFF750
:102810009DFF04F50C7318460993FFF767FF04F555
:10282000177318462593FFF76DFF04F524731846B8
:102830000A93FFF78BFF04F5377318460B93FFF7E6
:1028400055FF04F5427318462693FFF75BFF04F526
:102850004F7318460C93FFF779FF04F5627318461F
:102860000D93FFF743FF04F56D7318462793FFF7A9
:1028700049FF04F57A7318460E93FFF767FF04F2D9
:10288000344318460F93FFF731FF04F58C63184665
:102890002893FFF737FF04F2944318461993FFF784
:1028A00055FF04F59C6318461093FFF71FFF04F2D1
:1028B0000C5318462993FFF725FF04F5A863184623
:1028C0001A93FFF743FF04F28C5318461193FFF756
:1028D0000DFF04F5B76318462A93FFF713FF04F2C0
:1028E000EC5318461B93FFF731FF04F5C7631846F6
:1028F0001293FFF7FBFE04F2646318462B93FFF775
:1029000001FF04F5D36318461C93FFF71FFF04F281
:10291000E46318461393FFF7E9FE04F5E2631846F3
:102920002C93FFF7EFFE04F2447318461D93FFF754
:102930000DFF04F5F26318461493FFF7D7FE04F277
:10294000BC7318462D93FFF7DDFE04F5FE631846B1
:102950001E93FFF7FBFE04F63C0318461593FFF7A2
:10296000C5FE04F6680318462E93FFF7CBFE04F667
:102970009C0318461F93FFF7E9FE04F6E803184688
:102980001693FFF7B3FE04F6141318462F93FFF7C0
:10299000B9FE04F6481318462093FFF7D7FE04F655
:1029A000941318461793FFF7A1FE04F51C6318460D
:1029B0003093FFF7A7FE04F6F41318462193FFF7B0
:1029C000C5FE04F5246318461893FFF78FFE04F63E
:1029D0006C2318463193FFF795FE04F52A631846D9
:1029E0003C252293FFF7B2FE00224FF0F013A360C4
:1029F000039800952B461146FFF75CFE00222B46FC
:102A0000114630460095FFF755FE3F4B3F4A03986D
:102A1000DFF8FCB04FF005084FF00F09C4E9203291
:102A20003146A4F8888006F089FF0498CDF800901C
:102A30002B4617220021FFF73DFED4F88C30049975
:102A4000D3F8843000264FF07F4A32A8C4F8BCA0E7
:102A5000A4F8C060984732A907C937AF04F1C8038A
:102A600083E8070012230498ADF8E0303946CDF82A
:102A7000DCB00AF06DF9DDE9030106F05FFF0399B0
:102A8000204606F05BFF059800952B463246294606
:102A9000FFF710FE239800952B4632463146FFF78C
:102AA00009FE194B194A23990598A4F83481C4E901
:102AB0004B3206F043FF0698CDF800902B461722C4
:102AC0003146FFF7F7FDD4F838310699D3F8843052
:102AD000C4F868A132A8A4F86C61984732A907C964
:102AE00004F5BA7383E807000698CDF8DCB03946E0
:102AF000ADF8E0900AF02CF9DDE9050106F01EFFC3
:102B000008E000BF6453020898CCEDFFDAE0E6FF6E
:102B1000C45202080599204606F010FF0798009558
:102B20002B4632467821FFF7C5FD249800952B46A9
:102B300032463146FFF7BEFDCE4BCF4A2499079867
:102B4000A4F8E081C4E9763206F0F8FE0898CDF8E2
:102B500000902B4617223146FFF7ACFDD4F8E43144
:102B60000899D3F88430C4F814A232A8A4F81862E3
:102B7000984732A907C904F5087383E807000E23B4
:102B80000898ADF8E0303946CDF8DCB00AF0E0F84E
:102B9000DDE9070106F0D2FE0799204606F0CEFED9
:102BA000099800952B463246B421FFF783FD2598FE
:102BB00000952B4632463146FFF77CFDAD4BAE4AC1
:102BC00025990998A4F88C82C4E9A13206F0B6FED2
:102BD0000A98CDF800902B4617223146FFF76AFD80
:102BE000D4F890320A99D3F88430C4F8C0A232A83D
:102BF000A4F8C462984732A907C904F5337383E87F
:102C000007000D230A98ADF8E0303946CDF8DCB066
:102C10000AF09EF8DDE9090106F090FE09992046C8
:102C200006F08CFE0B9800952B462A463146FFF79E
:102C300041FD269800952B4632463146FFF73AFD76
:102C40008C4B8D4A26990B98A4F83883C4E9CC3272
:102C500006F074FE0C98CDF800902B4617223146F2
:102C6000FFF728FDD4F83C330C99D3F88430C4F82E
:102C70006CA332A8A4F87063984732A907C904F579
:102C80005E7383E807000C230C98ADF8E0303946FA
:102C9000CDF8DCB00AF05CF8DDE90B0106F04EFE81
:102CA0000B99204606F04AFE0D9800952B462A46C1
:102CB0002946FFF7FFFC279800952B463246314600
:102CC000FFF7F8FC6B4B6C4A27990D98A4F8E48346
:102CD000C4E9F73206F032FE0E98CDF800902B468C
:102CE00017223146FFF7E6FCD4F8E8330E99D3F803
:102CF0008430C4F818A432A8A4F81C64984732A9F8
:102D000007C904F2244383E807000B230E98ADF8AB
:102D1000E0303946CDF8DCB00AF01AF8DDE90D01F3
:102D200006F00CFE0D99204606F008FE0F9800955F
:102D30002B462A467821FFF7BDFC289800952B46A4
:102D400032463146FFF7B6FC4A4B4B4A28990F985A
:102D5000C4F88834C4F88C24A4F8908406F0EEFDFE
:102D60002B4631461998CDF800901722FFF7A2FCA8
:102D7000C4F8C4A4A4F8C8643846FFF7D9FC97E89F
:102D8000070004F59A6383E807000A231998ADF851
:102D9000E0303946CDF8DCB009F0DAFF19990F9828
:102DA00006F0CCFD0F99204606F0C8FD109800955E
:102DB0002B462A46B421FFF77DFC299800952B4627
:102DC00032463146FFF776FC2A4B2B4A2999109858
:102DD000C4F83435C4F83825A4F83C8506F0AEFDB7
:102DE0002B4631461A98CDF800901722FFF762FC67
:102DF000C4F870A5A4F874653846FFF799FC97E805
:102E0000070004F27C5383E8070009231A98ADF801
:102E1000E0303946CDF8DCB009F09AFF1A991098E5
:102E200006F08CFD1099204606F088FD119800955B
:102E30002B4631467822FFF73DFC2A9800952B4619
:102E400032463146FFF736FC0A4B0B4A2A99119855
:102E5000C4F8E035C4F8E425A4F8E88506F06EFD72
:102E60002B4631461B98CDF800901722FFF722FC25
:102E700004E000BF98CCEDFFDAE0E6FFC4F81CA642
:102E8000A4F820663846FFF753FC97E8070004F5DE
:102E9000C56383E8070008231B98ADF8E030394686
:102EA000CDF8DCB009F054FF1B99119806F046FDEF
:102EB0001199204606F042FD129800952B462946AE
:102EC0007822FFF7F7FB2B9800952B4632463146C8
:102ED000FFF7F0FBD34BD44A2B991298C4F88C36E9
:102EE000C4F89026A4F8948606F028FD2B463146B7
:102EF0001C98CDF800901722FFF7DCFBC4F8C8A699
:102F0000A4F8CC663846FFF713FC97E8070004F2F4
:102F1000D46383E8070007231C98ADF8E0303946F6
:102F2000CDF8DCB009F014FF1C99129806F006FDEC
:102F30001299204606F002FD7822139800952B4640
:102F40001146FFF7B7FB2C9800952B4632463146C9
:102F5000FFF7B0FBB34BB44A2C991398C4F8383739
:102F6000C4F83C27A4F8408706F0E8FC2B4631461D
:102F70001D98CDF800901722FFF79CFBC4F874A7AA
:102F8000A4F878673846FFF7D3FB97E8070004F505
:102F9000F06383E8070006231D98ADF8E03039465A
:102FA000CDF8DCB009F0D4FE1D99139806F0C6FCEC
:102FB0001399204606F0C2FC149800952B467822FF
:102FC000B421FFF777FB2D9800952B46324631460A
:102FD000FFF770FB934B944A2D991498C4F8E4378B
:102FE000C4F8E827A4F8EC8706F0A8FC2B46314685
:102FF0001E98CDF800901722FFF75CFBC4F820A8BC
:10300000A4F824683846FFF793FB97E8070004F616
:103010002C0383E807001E98CDF8DCB03946ADF8E4
:10302000E08009F095FE1E99149806F087FC14992B
:10303000204606F083FC159800952B463146B422B5
:10304000FFF738FB2E9800952B4632463146FFF7A6
:1030500031FB744B744A2E991598C4F89038C4F813
:103060009428A4F8988806F069FC2B4631461F98EE
:10307000CDF800901722FFF71DFBC4F8CCA8A4F8E8
:10308000D0683846FFF754FB97E8070004F6D803EA
:1030900083E8070004231F98ADF8E0303946CDF8E7
:1030A000DCB009F055FE1F99159806F047FC1599FC
:1030B000204606F043FC169800952B462946B4227C
:1030C000FFF7F8FA2F9800952B4632463146FFF766
:1030D000F1FA544B544A2F991698C4F83C39C4F865
:1030E0004029A4F8448906F029FC2B463146209853
:1030F000CDF800901722FFF7DDFAC4F878A9A4F8FC
:103100007C693846FFF714FB97E8070004F6841340
:1031100083E8070003232098ADF8E0303946CDF866
:10312000DCB009F015FE2099169806F007FC1699F8
:10313000204606F003FC179800952B46B422782110
:10314000FFF7B8FA309800952B4632463146FFF724
:10315000B1FA344B344A30991798C4F8E839C4F8B6
:10316000EC29A4F8F08906F0E9FB2B4631462198BA
:10317000CDF800901722FFF79DFAC4F824AAA4F80E
:10318000286A3846FFF7D4FA97E8070004F5236366
:1031900083E8070002232198ADF8E0303946CDF8E6
:1031A000DCB009F0D5FD2199179806F0C7FB1799F7
:1031B000204606F0C3FBB422189800952B46114612
:1031C000FFF778FA319800952B4632463146FFF7E3
:1031D00071FA144B144A31991898C4F8943AC4F807
:1031E000982AA4F89C8A06F0A9FB2B46314622981F
:1031F000CDF800901722FFF75DFAC4F8D0AAA4F822
:10320000D46A3846FFF794FA97E8070004F6DC23FF
:1032100083E8070001232298ADF8E0303946CDF865
:10322000DCB003E098CCEDFFDAE0E6FF09F090FDBA
:103230002299189806F082FB2046189906F07EFB2A
:1032400020463BB0BDE8F08F13B5002451B10368B0
:1032500001948DF8034001AA9C680DF10303A04777
:1032600002B010BD0846FBE7C0897047008A70476E
:10327000C088704780887047807A00F07F00704770
:10328000807AC00970470020704700009FED010A56
:10329000704700BF000000007047704700F598734A
:1032A0000868496803C370477047704741607047BA
:1032B00070477047064BC0F84C310023C0F85031BE
:1032C00000F5A273C0F84801C0F84031704700BF54
:1032D00075330008012303727047704710B4C26849
:1032E00041685410034601EB6200D20748BF0A59F7
:1032F0009B685DF8044B48BFD358184703464068A5
:1033000030B19A681AB9D86800F0010070470120FE
:10331000704710B50C2104461FF05DF8204610BD23
:1033200010B5102104461FF056F8204610BD10B508
:103330004FF4AE7104461FF04EF8204610BD10B594
:103340000CF05EFA0368BDE81040DB6B184710B55F
:103350000446D0F8400158B10368DB68984738B19B
:10336000D4F8400103689B6898470023C4F84031B3
:1033700010BD00002DE9F14FD0E9556A0746B0684D
:1033800003681B6A9847B0F55D6F05D2444B454A08
:10339000A32145481FF078FF706803681B6A9847AF
:1033A0000F2803D8414B3F4AA421F2E7F068036895
:1033B0001B6A98470B2803D83D4B3A4AA521E8E7FA
:1033C0000CF01EFADFF8F09004300CF03EFAD9F859
:1033D000000010B10368DB689847D9F8000010B10D
:1033E00003681B689847DFF8D480D8F8000010B154
:1033F00003685B699847D7F83C0110B103685B68C4
:103400009847D8F8000010B103681B689847D7F8B0
:103410003C0110B103689B689847F068036800217D
:103420005B6A98474FF0000B224BC0F804B004468B
:1034300080F808B00360B068036859465B6A984733
:10344000054601F0C1F87068036859465B6A984701
:103450002946064601F096F8331DC7F83C61C9F8C5
:103460000040C8F80050CAF800302B68C6F808A021
:103470002846DB68EE639847336830461B689847F8
:10348000214628460EF06CFB236820461B699847AE
:1034900023685B69204601B0BDE8F04F184700BFC4
:1034A0008E4902081C4A0208EE4A0208354B0208FF
:1034B000D84B02086454020894350120903501204D
:1034C000044B1B6893F858200AB1D86C00B998686F
:1034D000704700BF4C350120F8B5174604460E462C
:1034E0000CF050FA124B1C60124B2360124B00255B
:1034F000C4E95135114BC4E95355186803680121DB
:103500009B68C4E94F55C4E955769847284600F0B2
:10351000D3FCFFF7D5FF16F07AFEFFF7D1FF16F0C8
:10352000F1FEFFF7CDFF16F0F9FE2046F8BD00BF13
:10353000A035012010540208F85302084C35012030
:10354000064BC0F84C310023C0F8503100F5A2738F
:10355000C0F84801C0F84031704700BF753300081B
:10356000406A7047806A704770478A880B8810B538
:10357000D20A4C88C1699BB251F8220043EA044345
:10358000184410BD10B50446BAB1107B68B1537B26
:10359000D27A1B0203F4E0631A43236A03EB82032B
:1035A0001A888A4202D193F9020010BD05D8013869
:1035B00080B204330028F3D1F7E70020F5E710B517
:1035C0002C2104461EF007FF204610BD30B58BB0FD
:1035D0000446BDF860500895BDF85C5007959DF80D
:1035E000505006959DF84C5005959DF8485004950F
:1035F0009DF8445003959DF8405002959DF83C502D
:103600000195BDF8385000950DF004FF064B23607E
:10361000159BE361169B2362199B63621A9BA3624D
:1036200020460BB030BD00BF885402087047704779
:10363000704770477047704730B4C268446855108F
:10364000034604EB6200D20748BF62599B6830BC56
:1036500048BFD35818470346406830B19A681AB932
:10366000D86800F0010070470120704790F82D30B5
:1036700080F89A3080F85C30704790F82D3080F8F0
:103680005C30704710B5642104461EF0A4FE20464D
:1036900010BD10B5B42104461EF09DFE204610BD9D
:1036A00010B5102104461EF096FE204610BD10B540
:1036B0004FF41D7104461EF08EFE204610BD0146DB
:1036C000343091F82C3013B1623109F09DBC603177
:1036D000FBE708B590F82C303BB100F1B0031B6854
:1036E000C0F89430FFF7EBFF08BD00F1AC03F6E73C
:1036F00010B50446006B50B10368DB68984730B1E1
:10370000206B036821469B68BDE81040184710BD38
:1037100000F1B0028A4203D10368D3F88C30184715
:1037200070470B7970B590F82C6004460D460BB9C4
:1037300016B170BD002EFCD0B3FA83F35B0984F898
:103740002C3023682046D3F88C30984723682046D5
:103750005B699847002EECD02B79012BE9D12368C7
:103760002046D3F88830BDE87040184770B503682C
:1037700004461B6B154698472368294620465B6B19
:10378000BDE87040184770B5036804469B6B15464A
:103790009847236829462046DB6BBDE870401847F0
:1037A0000B8870B5A0F860300546138825F8623F95
:1037B000044628460FF090FD064628460FF0C0FD4F
:1037C000314602462046FFF7DEFF23682046D3F845
:1037D0008C30BDE87040184710B526220446002101
:1037E0001FF097FF2046FEF753FF044B2360FF2393
:1037F00084F826300023A362204610BDCC5B02086B
:1038000010B52622044600211FF083FF2046FEF754
:103810003FFF0A4B23600A4BA3624FF6FF73A38559
:103820004FF47F020023C4E90C3223874FF0FF32AC
:10383000C4E91023E363204610BD00BF3C5B0208CF
:10384000C452020838B5044600F16405284609F060
:103850007FFAB4F90A20B4F908102846FFF793FF5D
:1038600038BD0000F7B50446FEF712FF4FF47F4362
:103870002546A3850123002684F82430164BA66232
:10388000266345F8343B4FF6FF772622314628461B
:10389000ADF804701FF03DFF2846FEF7F9FE0F4B10
:1038A0006363BDF80430A4F85A3001A9284684F8AF
:1038B0005C7009F0A9FB324631462846A4F86070D6
:1038C000A4F86270FFF752FF2046294606F036F84A
:1038D000204603B0F0BD00BFF05402089C5C020813
:1038E00038B504462546FFF7BDFF074B45F8643B56
:1038F0002846FFF785FF00232046C4E92B332946DD
:1039000006F01CF8204638BD905502082DE9F04F0E
:1039100004468DB0A0460025FEF7BAFE7E4BA56298
:1039200048F82C3B04F1580A4046FFF755FF04F1D4
:103930008409504604F1B007FFF74EFF484604F5EE
:10394000B276FFF749FF3846FFF7CAFF3046FFF768
:10395000C7FF04F5067318460393FFF751FF6F4B3B
:10396000C4F818326E4BDFF8CCB1C4F86052C4E929
:1039700099346C4BC4E99B356B4BA3604FF4A07337
:103980002A4600932946F0234046FEF793FEC4F8EA
:1039900054B04146204605F0D1FF322300934FF446
:1039A000877229465046F023FEF784FE5F4BC4F829
:1039B00080305146204605F0C1FF142300930222B7
:1039C000F02329464846FEF775FEC4F8ACB04946D8
:1039D000204605F0B3FF4FF0010B0AAA09A93846AB
:1039E000ADF82450ADF828B0FFF7DAFE2A46294694
:1039F00004F1E400FFF7BAFE4FF02408DFF8389135
:103A0000CDF828904FF011030AA93846ADF82C30B4
:103A1000FFF718FF29460A2204F58A70CDF80080C6
:103A20006423FEF747FE424B4FF07F4AC4E9573A02
:103A30003846FFF74EFE04F51973C4F8E03040F243
:103A4000151264233846CDF800808221FEF732FE3D
:103A50003946204605F072FF0AAA0DEB08013046F0
:103A6000ADF82450ADF828B0FFF79AFE2A46294653
:103A700004F5CC70FFF77AFE10230AA93046ADF8A2
:103A80002C30CDF82890FFF7DDFE29460A2204F5F8
:103A9000E470CDF800806423FEF70CFE244B304622
:103AA000C4E9843AFFF715FE642340F2151230464C
:103AB000CDF800800B21FEF7FDFD3146204605F0D4
:103AC0003DFF112303980093052268234421FEF74C
:103AD000F1FDD4F818320399D3F88430C4F848A221
:103AE00004AE3046A4F84C52984796E8070004F517
:103AF000157383E807000398CDF828900AA9ADF85C
:103B00002C5009F025F92046039905F017FF2046AF
:103B10000DB0BDE8F08F00BF48560208D45202082D
:103B20003056020811370008F000400170630BFFA7
:103B3000393947FFDAE0E6FFC452020870477047A0
:103B400070477047704770470368DB6A184710B5C5
:103B500004466C3000F002FD04F53970BDE81040F9
:103B600000F0A0BC094B10B50360094BC0F8E4326B
:103B7000044600F53970FEF739FD2046054B40F844
:103B80006C3FFFF757FD204610BD00BFE05602080E
:103B9000185702080058020810B50446FFF7E2FF64
:103BA00020464FF45D611EF016FC204610BD00005B
:103BB0002DE9F84304460DF027FE264B2360264BE3
:103BC0000025C4E910354FF4807304F16C09A4F8A2
:103BD0006430FF2384F8663004F53978C4E912555F
:103BE000C4E91455C4E91655E5632566A56648463B
:103BF00000F094FC04F14006404600F0D9F92A4652
:103C000029463046FFF7B2FD3046F021FDF792FB22
:103C100030464FF4A071FDF78FFB271D4FF07F4317
:103C2000A3663146384605F089FE2A4629464846AD
:103C3000FFF79CFD4946384605F080FE16222946CE
:103C40004046FFF793FD3846414605F077FE204693
:103C5000BDE8F883E0560208CC5B0208704700001C
:103C600030B5164D2C6814F001048FB0BFF35B8F94
:103C700021D128461EF0B1FBE8B13F230993104B38
:103C80000893104B104911480A94CDE906430122CC
:103C90000423CDE903320A2300930B22CDE90B4420
:103CA000CDE901440594FFF791FC09481FF00AFB98
:103CB00028461EF09EFB05480FB030BDA42500200D
:103CC000507A02085C7A02089C770208A825002036
:103CD0005D3C00087047000030B5174D2C6814F0AB
:103CE00001048FB0BFF35B8F22D128461EF075FB15
:103CF000F0B13F230993114B0893114B0793012314
:103D0000CDE9054304930423CDE902430C230D4977
:103D100000931B220F23CDE90B440B480A94019416
:103D2000FFF754FC09481FF0CDFA28461EF061FB4E
:103D300005480FB030BD00BFD4250020547A0208DA
:103D4000607A020838780208D8250020D53C00089F
:103D50007047000030B5174D2C6814F001048FB087
:103D6000BFF35B8F22D128461EF037FBF0B13F2313
:103D70000993114B0893114B114912480A94CDE94C
:103D8000064301220423CDE90332282300930B22AA
:103D90002923CDE90B44CDE901440594FFF716FC36
:103DA00009481FF08FFA28461EF023FB05480FB084
:103DB00030BD00BF04260020587A0208647A020849
:103DC000B479020808260020513D00080020704701
:103DD000002070470EB403B503AB002153F8042B49
:103DE00001930CF095FD02B05DF804EB03B0704751
:103DF0000CB407B504AB53F8042B01930CF088FD09
:103E000003B05DF804EB02B070470000436C10B5DE
:103E1000044673B3038F2BB9184B194AC5211948AF
:103E20001FF032FAC38E00EB43035B8C0BB30EF032
:103E3000F0FB238F012B03D8134B144ACB21EEE761
:103E4000E28E531C9BB2092B194688BFA3F10A01CD
:103E500004EB410140F63F10498C814209D10A2B05
:103E600004EB420228BF002304EB4303508C588428
:103E700051842046BDE810400EF0CEBA7B4C0208BB
:103E8000844C02082F4D0208794D0208874D020824
:103E90000EF089BA10B586B002AC84E806001A4666
:103EA0000AAB05930193099B00932146089B0BF0F5
:103EB00045F806B010BD000038B518BB124B1348CA
:103EC0001C681349B4B1226822440260626822442B
:103ED0000A60A26814440F4B00221A8000F038F8E0
:103EE000054600F033F80C4B1C600C4B1D600C4B6E
:103EF000188007E00B4B03600B4B0B600B4B1C68EF
:103F0000002CE8D138BD00BF402600203826002014
:103F1000342600203C260020A4350120AC350120A9
:103F2000A8350120B47A0208687A0208E07A02080B
:103F3000044B1B6853F82100034B1B6803EB400044
:103F4000704700BF34260020382600201320704719
:103F5000004870474426002010B5FFF7BDFE044C12
:103F60002060FFF7F7FE6060FFF77AFEA06010BDEB
:103F70004426002010B5002404600C6014601C600E
:103F800010BD000010B5034B03600446FEF72EFB86
:103F9000204610BD1857020810B50446FFF7F2FF7F
:103FA000204640F6EC211EF016FA204610BD000017
:103FB00010B50446FEF7F0FB034B2360034B0222CF
:103FC000DA605A60204610BD18570208902700207A
:103FD000024B02EB810253F8220070479027002029
:103FE0001749F0B5002420468C4626460A4603238E
:103FF000156852F8047FBD4204D11DB16D0042E93D
:1040000001560120013BF3D10D4655F8042B013335
:1040100052B91A4651F8227077B102EB840245F882
:10402000047C4CF822600120032BEED10134042CD7
:1040300001F11001DAD1F0BD0132042AEAD1F3E72F
:10404000902700201A490022F0B510468C461646EB
:1040500001F10C0303251C6853F8047DBC4204D114
:104060001CB16400C3E900640120013DF3D101F1FA
:1040700010073D46032455F8043D013C63B923462F
:1040800051F823E0BEF1000F0DD003EB8203C5F819
:1040900000E04CF823600120002CECD10132042A0E
:1040A00004D03946D4E7013BEAD2F5E7F0BD00BFC2
:1040B000902700201849F0B5002420468C4626465B
:1040C0000A46032315681769BD4204D11DB16D006E
:1040D000156016610120013B02F11002F2D10D467C
:1040E0002A6801334AB91A461701CF597FB104EB48
:1040F00082022F604CF822600120032B05F110058D
:10410000EED10134042C01F10401D9D1F0BD01320A
:10411000042AE9D1F1E700BF90270020184A0021C6
:10412000F0B5084694460E46134603251C6B1F6ADD
:10413000BC4205F1FF3504D11CB164001C631E6252
:104140000120103B002DF1D1154603242B6B013CBF
:104150004BB923461F01D75977B101EB83032F6376
:104160004CF823600120103D002CEFD101310429CF
:1041700002F10402D8D1F0BD013BEBD2F3E700BF5E
:104180009027002030B50C4900220B46042053F83C
:10419000044B7CB1032A02D0DD68AC420AD001385E
:1041A00005D10132042A01F11001EED130BD1D68A4
:1041B000AC42ECD10120F9E7902700200022084B07
:1041C000104619680844596808449968013208443F
:1041D000D968042A084403F11003F2D1704700BFE4
:1041E0009027002002EB81020F2A37D8DFE802F087
:1041F000080A0C0F1215181B1E2124272A2D3033F4
:104200002C307047D830704700F5C270704700F509
:104210000C70704700F53770704700F5627070479A
:1042200000F23440704700F59C60704700F28C50FB
:10423000704700F5C760704700F2E460704700F512
:10424000F260704700F63C00704700F6E8007047E7
:1042500000F69410704700F5246070470020704706
:1042600002EB81020F2A38D8DFE802F0080A0D10AD
:104270001316191C1F2225282B2E31348C30704721
:1042800000F59C70704700F5F270704700F52470DF
:10429000704700F54F70704700F57A70704700F274
:1042A0009440704700F5A860704700F2EC507047EA
:1042B00000F5D360704700F24470704700F5FE606F
:1042C000704700F69C00704700F64810704700F6F3
:1042D000F410704700F52A60704700207047000016
:1042E0002DE9F041054614461E46FFF77BFF0746C1
:1042F0001EB980F82560BDE8F08122462846FFF708
:10430000AFFF0B4A012387F8253004EB8104142307
:10431000054603FB042420463346064A0A210EF0D4
:1043200021FF2B68AC6428465B69BDE8F041184763
:1043300050260020594E02082DE9F84FD0E900869A
:1043400093466FF07043A6EB0802B3EBE20F07460B
:1043500089464FEAE20402D126481EF061F846453C
:1043600014BF22460122A418A1EB080A31D294B34B
:104370009C4228BF1C46E0001EF03EF805469BE824
:10438000030005EB0A0383E80300AC464346994566
:104390000CF1080C03F108021FD1A2EB08022A4419
:1043A0009E469446B3420CF1080C1CD1A3EB0E03BD
:1043B000D618B8F1000F05D0B9684046A1EB080146
:1043C0001EF009F8C7E9005605EBC405BD60BDE85D
:1043D000F88F1C46CFE72546D1E793E80300134644
:1043E0000CE90300D3E793E8030008330CE903006A
:1043F000D8E700BF5C4E02082DE9F043002487B0E7
:10440000274E0594CDE9034437460DF10408B14623
:10441000002559F8043B5BB9DDE904319942CDE947
:10442000014535D098E8030083E80300083304937E
:104430000135042DEDD10134042C06F11006E6D12E
:10444000DDE90356AE421AD01FF000F8761BF610D5
:10445000B0FBF6F303FB16061EF0F8FF0A2390FBF1
:10446000F3F202FB130005EBC60355F836205B6838
:10447000002803EB820318BF022447F8234065B1EC
:1044800005992846491B07B0BDE8F0431DF0A3BFBE
:10449000424603A8FFF750FFCAE707B0BDE8F08324
:1044A00090270020FEF7A3B8704710B54FF4AE7107
:1044B00004461DF090FF204610BD10B50446D0F80C
:1044C000580100F050F82046BDE810400BF01ABA31
:1044D00010B50446FFF700F8014B2360204610BDDD
:1044E000AC570208D0F8743203B118477047000087
:1044F00010B5034B03600446FFF79CF8204610BD3F
:104500000058020810B50446FFF7F2FF20464FF4AA
:104510001E711DF060FF204610BD000010B504465E
:10452000FFF7F4F9014B2360204610BD0058020844
:1045300038B5084D084A04460B46284606210EF0B9
:1045400011FEC4F8605204F50670BDE838400CF066
:1045500009BB00BFD0270020594E0208FFF76BB8F7
:1045600000220260704770477047043870477047F8
:1045700010B5102104461DF02EFF204610BDA0F1FD
:104580000400F5E700228260024A026018324260AD
:10459000C1607047985802087047000010B5034B7F
:1045A00003600446FFF7DEFA204610BDC05802083B
:1045B00010B50446FFF7F2FF20464FF45D611DF091
:1045C0000AFF204610BD000010B50446FFF7F0FAC0
:1045D000024B2360024B20461C6010BDC0580208ED
:1045E000E0270020F8B500F5397407462046FFF7AC
:1045F00061FDE8B12046FFF7FFFE002600252A46B0
:1046000031462046FFF7E4FC2A4603463146204661
:104610000135FFF765FE042DF1D10136042EEDD1F1
:104620002046FFF7CBFD014607F16C00FFF780FF46
:104630002046BDE8F840FFF7A5BDF8B500F5397490
:1046400007462046FFF76AFDE8B12046FFF7D4FE93
:10465000002600252A4631462046FFF7B9FC2A46A7
:104660000346314620460135FFF73AFE042DF1D1CD
:104670000136042EEDD12046FFF7A0FD014607F1DB
:104680006C00FFF755FF2046BDE8F840FFF77ABD04
:10469000F8B500F5397407462046FFF7A1FCE8B1EC
:1046A0002046FFF7A9FE002600252A46314620466F
:1046B000FFF78EFC2A460346314620460135FFF7B8
:1046C0000FFE042DF1D10136042EEDD12046FFF767
:1046D00075FD014607F16C00FFF72AFF2046BDE893
:1046E000F840FFF74FBDF8B500F53974074620468E
:1046F000FFF7A8FCE8B12046FFF77EFE0026002564
:104700002A4631462046FFF763FC2A4603463146D7
:1047100020460135FFF7E4FD042DF1D10136042ECA
:10472000EDD12046FFF74AFD014607F16C00FFF787
:10473000FFFE2046BDE8F840FFF724BD37B5184D11
:104740002B680322013393FBF2F202EB42022B604F
:104750009B1A044615D113481A4600680DF107014B
:1047600003F07FF958B99DF80730013B032B06D8B9
:10477000DFE803F00D1102092046FFF789FF00234F
:104780002B6003B030BD2046FFF7ADFFF7E72046B2
:10479000FFF728FFF3E72046FFF74FFFEFE700BFE3
:1047A000DC270020E0220020F8B50446FFF7CFF90F
:1047B000002604F5397700252A4631463846FFF7AA
:1047C00007FC2A460346314638460135FFF788FD87
:1047D000042DF1D10136042EEDD1002104F16C003D
:1047E000FFF7A6FE014BC4F8E032F8BD31480008DF
:1047F00070B504464FF400616C3004F53974FFF76E
:1048000097FE2046FFF74EFE002600252A46314639
:104810002046FFF7DDFB2A46034631462046013598
:10482000FFF75EFD042DF1D10136042EEDD170BDF0
:10483000024B186808B1FFF7DBBF7047E027002084
:10484000FFF782B9F02070474FF4A070704729201D
:10485000FDF7B0BA2820FDF7ADBA08B5FDF77EFA2E
:10486000CA20FDF7A7FAC320FDF788FA0820FDF754
:1048700085FA5020FDF782FACF20FDF79BFA002041
:10488000FDF77CFAC120FDF779FA3020FDF776FAC2
:10489000ED20FDF78FFA6420FDF770FA0320FDF795
:1048A0006DFA1220FDF76AFA8120FDF767FAE82019
:1048B000FDF780FA8520FDF761FA0020FDF75EFA2A
:1048C0007820FDF75BFACB20FDF774FA3920FDF76D
:1048D00055FA2C20FDF752FA0020FDF74FFA34204C
:1048E000FDF74CFA0220FDF749FAF720FDF762FACE
:1048F0002020FDF743FAEA20FDF75CFA0020FDF7DF
:104900003DFA0020FDF73AFAB120FDF753FA0020F6
:10491000FDF734FA1B20FDF731FAB620FDF74AFA0D
:104920000A20FDF72BFAA220FDF728FAC020FDF798
:1049300041FA1020FDF722FAC120FDF73BFA1020C2
:10494000FDF71CFAC520FDF735FA4520FDF716FAEC
:104950001520FDF713FAC720FDF72CFA9020FDF77C
:104960000DFA3620FDF726FAC820FDF707FAF220E7
:10497000FDF720FA0020FDF701FAB020FDF71AFA42
:10498000C220FDF7FBF9B620FDF714FA0A20FDF767
:10499000F5F9A720FDF7F2F92720FDF7EFF904203C
:1049A000FDF7ECF92A20FDF705FA0020FDF7E6F9FE
:1049B0000020FDF7E3F90020FDF7E0F9EF20FDF717
:1049C000DDF92B20FDF7F6F90020FDF7D7F90020DF
:1049D000FDF7D4F90120FDF7D1F93F20FDF7CEF91D
:1049E000F620FDF7E7F90120FDF7C8F90020FDF7F3
:1049F000C5F90620FDF7C2F92C20FDF7DBF9C82028
:104A0000FDF726FA2620FDF7D5F90120FDF7B6F9C6
:104A1000E020FDF7CFF90F20FDF7B0F92920FDF7D1
:104A2000ADF92420FDF7AAF90C20FDF7A7F90E2017
:104A3000FDF7A4F90920FDF7A1F94E20FDF79EF935
:104A40007820FDF79BF93C20FDF798F90920FDF748
:104A500095F91320FDF792F90520FDF78FF917203E
:104A6000FDF78CF91120FDF789F90020FDF786F993
:104A7000E120FDF79FF90020FDF780F91620FDF7F2
:104A80007DF91B20FDF77AF90420FDF777F9112055
:104A9000FDF774F90720FDF771F93120FDF76EF984
:104AA0003320FDF76BF94220FDF768F90520FDF78B
:104AB00065F90C20FDF762F90A20FDF75FF928205F
:104AC000FDF75CF92F20FDF759F90F20FDF756F996
:104AD0001120FDF76FF9C820FDF7BAF92920FDF77D
:104AE00069F9BDE808402C20FDF764B908B5FDF769
:104AF00035F90321D320FDF779F980B208BD10B54F
:104B0000C4B2022203212046FDF7DEF80A20FDF799
:104B100023F9204600220321FDF7D6F8BDE8104016
:104B20000220FDF719B938B50446E4B2FDF7CAF81A
:104B300000212046FDF7E0F8012105462046FDF75B
:104B4000DBF840EA052080B238BD10B5C4B2402180
:104B50002046FDF7D1F8030607D54C212046FDF786
:104B6000CBF8003818BF012010BD01224B21204690
:104B7000FDF7AAF8204600224B21FDF7A5F80020FA
:104B8000F2E773B50423C4B20E461546D7210DEBE8
:104B900003022046FDF7CAF8019B1BBA1A0DC3F3A6
:104BA0000B23328020462B8001224B21FDF78CF80D
:104BB00000224B212046FDF787F802B070BD0000AF
:104BC00010B50A4A1378984204460DD051788842AD
:104BD0000AD00BB141B90123D454FDF773F8204634
:104BE000BDE81040FFF78BBF10BD00BFE4270020D9
:104BF00010B5C4B209212046FDF77EF840F001024D
:104C0000D2B220460921BDE81040FDF75DB810B5CD
:104C1000C4B209212046FDF76FF8092100F0FE0219
:104C20002046BDE81040FDF74FB838B5C4B20D4678
:104C300020460A21FDF760F840EA0502D2B220467C
:104C40000A21BDE83840FDF73FB810B50446FDF72E
:104C50003AF820461F21FFF7E8FF2046BDE8104044
:104C6000FFF7C6BF38B5C4B20D4620460A21FDF78E
:104C700043F820EA0502D2B220460A21BDE83840B6
:104C8000FDF722B810B50446FFF7C1FF20461F21EB
:104C9000BDE81040FFF7E6BF10B5C0B20C460B21CF
:104CA000FDF72AF8204010BD1F21FFF7F5BF0A4687
:104CB000C0B20B21FDF708B81F21FFF7F8BF38B5C8
:104CC000C4B20D4620461721FDF716F820EA05026A
:104CD000D2B220461721BDE83840FCF7F5BF70B5C9
:104CE000C4B2064604212046FDF706F8042100F070
:104CF000FB0205462046FCF7E7FF3046F021FFF7B0
:104D0000DEFF05F0F80220460421FCF7DDFF492212
:104D100020212046FCF7D8FF0220FDF71DF8204691
:104D200001222121FCF7D0FF20469A224121FCF7E5
:104D3000CBFF204601224A21FCF7C6FF2046012274
:104D40004B21FCF7C1FF204600224B21FCF7BCFFA2
:104D5000204601225621FCF7B7FF204601225821A8
:104D6000FCF7B2FF204601224021FCF7ADFF2046B0
:104D7000FF220B21FCF7A8FFBDE870400220FCF7E2
:104D8000EBBF0000054BD3F8882042F47002C3F853
:104D900088204FF000629A60704700BF00ED00E08D
:104DA00008B50B4B1A6842F400721A601A6842F494
:104DB00080621A601A6842F480721A60032000F060
:104DC0008BFA0020FDF7E6FAFDF750F8002008BD49
:104DD000003C0240034A044B11681B780B441360EB
:104DE000704700BFE827002090000020014B1868A2
:104DF000704700BFE827002038B50446FFF7F6FFEC
:104E0000631C1CBF054B1B78054618BFE418FFF751
:104E1000EDFF431BA342FAD338BD00BF9000002032
:104E200038B50446002800F09B80056C25B9FDF7D5
:104E30003DF8656484F83C50236CDB0600F18E80FD
:104E4000236C23F4885323F0020343F0020323640A
:104E5000444B5A6822F440325A605A6861680A43E7
:104E60005A60236821695A6822F480725A605A682D
:104E700042EA01225A605A68A16822F040725A60E0
:104E80005A680A435A609A68E16822F400629A609C
:104E90009A680A439A603449A26A8A4252D0996851
:104EA00021F07061996099680A439A609A68E16A92
:104EB00022F040529A609A680A439A609A6822F0F7
:104EC00002029A609A68217E42EA41029A6094F84E
:104ED0002020002A3ED05A68616A42F400625A607B
:104EE0005A6822F460425A605A68013942EA4132F3
:104EF0005A60DA6AE16922F47002DA62DA6A013928
:104F000042EA0152DA629A6822F400729A609A6860
:104F100094F8301042EA41229A609A68616922F45A
:104F200080629A609A68002042EA81229A606064F6
:104F3000236C23F0030343F001032364002384F86C
:104F40003C3038BD9A6822F070629A609A6822F00C
:104F50004052B2E75A6822F40062C9E70120EDE747
:104F60000120EEE7002301400100000F82B0002382
:104F7000019390F83C30012B6FD0012380F83C3036
:104F800003689A68D2070BD59A68D1071AD4036CC4
:104F900043F010030364436C43F00103436452E0A5
:104FA0009A682F4942F001029A602E4A1268B2FBB9
:104FB000F1F202EB42020192019A002AE4D0019A36
:104FC000013AF8E7026C22F4E06222F0010242F4B6
:104FD000807202645A68520541BF026C22F440524A
:104FE00042F480520264026C12F480521CBF426C84
:104FF00022F006024264002280F83C206FF0220278
:105000001A605A6842F0806242F020025A60164AE2
:10501000516811F01F0F15491CD18B4207D001F5C3
:1050200080718B420CD1526812F01F0F0BD19A681D
:1050300012F0405F07D19A6842F080429A6002E025
:105040000B498B4202D0002002B07047526812F028
:10505000100FEBE78B42F6D1E9E70220F4E700BF3F
:1050600040420F008C00002000230140002001403E
:10507000002201400368D86C70477047704703688E
:1050800070B51E685D68B20704462BD5A80629D501
:10509000226CD1065EBF226C42F4007222649A68D0
:1050A00012F0405F17D1227EAAB9DA6A12F4700FAB
:1050B00002D09A6852050ED45A6822F020025A6033
:1050C000236C23F480732364236CD8045EBF236CA9
:1050D00043F0010323642046FCF702FB23686FF0D2
:1050E00012021A60710733D52A0631D5236CDB060C
:1050F0005EBF236C43F40053236423689A6812F460
:10510000401F1ED19A6B12F4401F02D09A685005BE
:1051100017D45A68510514D49A6812F0405F10D120
:10512000227E72B95A6822F080025A60236C23F4FE
:1051300080532364236CDA055EBF236C43F00103C4
:105140002364204600F0C6F823686FF00C021A6052
:10515000F30710D568060ED523681B68D9070AD552
:10516000236C43F4803323642046FFF786FF2368D3
:105170006FF001021A60B2060ED56B010CD5636C9C
:1051800043F00203636423686FF020051D6020462E
:10519000FFF774FF23681D6070BD0000F7B50023A2
:1051A000019390F83C30012B054600F086800123E6
:1051B00080F83C3008682B688E68092884B233D99F
:1051C00004EB4402DF681E3A4FF0070C0CFA02FCB5
:1051D00027EA0C07DF60DF6806FA02F23A43DA607A
:1051E0004968062901EB81022DD8596B053A1F2623
:1051F000964021EA06015963596B04FA02F20A4308
:105200005A632F4A93420AD1122837D12D4B5A683C
:1052100022F400025A605A6842F480025A60002068
:1052200085F83C0003B0F0BD1A6900EB400C07277D
:1052300007FA0CF722EA07021A611A6906FA0CF655
:1052400016431E61CCE70C294FF01F010BD81E6BD3
:10525000233A914026EA01011963196B04FA02F21C
:105260000A431A63CDE7DE6A413A914026EA01011A
:10527000D962D96A94400C43DC62C2E7124B98426F
:1052800001D01128CBD10F4B5A6822F480025A600A
:105290005A6842F400025A600B4B9842BFD10B4B44
:1052A0000B4A1B68B3FBF2F30A2253430193019BA1
:1052B000002BB4D0019B013BF8E70220B2E700BF0E
:1052C0000020014000230140120000108C0000204B
:1052D00040420F00704700000749CA6822F4E062AC
:1052E0000302120403F4E063120C134343F0BF63A0
:1052F00043F40033CB60704700ED00E0164B30B54F
:10530000DC68C4F30224C4F10703251D042B28BF65
:105310000423062D4FF0FF358CBF033C002405FA13
:1053200003F321EA0303A54022EA0502A340002873
:1053300043EA0203ACBF00F16040084A4FEA03139E
:10534000B8BF00F00F00DBB2AABF00F561401354F4
:1053500080F8003330BD00BF00ED00E014ED00E048
:10536000002807DB044A4109012300F01F008340A5
:1053700042F82130704700BF00E100E010B504465C
:1053800050B1437903F0FF0213B90271FCF7EEFD4F
:1053900001236371002010BD0120FCE710B5044615
:1053A00020B390F8393003F0FF021BB980F83820A1
:1053B000FCF7F4FD022384F83930236861681A6829
:1053C00022F440320A431A605A6BA16822F00702A5
:1053D0000A435A631A6CE1686FF30D020A431A64B8
:1053E00000200123E06384F8393010BD0120FCE780
:1053F00070477047036870B55E681D68F207044621
:1054000014D5E90512D51A6822F480721A60C26BAD
:1054100042F00102C26301229A60042380F839300D
:10542000002380F83830436903B19847B20616D597
:10543000AB0414D523681A6822F400521A602022A3
:105440009A60E36B43F00203E363042384F839308A
:10545000002384F8383063690BB120469847300741
:1054600016D5290514D523681A6822F400621A603B
:1054700008229A60E36B43F00403E363042384F897
:105480003930002384F8383063690BB120469847DF
:1054900072070BD56B0509D523681A6822F4806260
:1054A0001A6004229A602046FFF7A2FFB00714D5C5
:1054B000A90512D523681A6822F400721A60022224
:1054C0009A60E36BE363012384F83930002384F8A6
:1054D000383023690BB120469847F20613D5EB0408
:1054E00011D523681A6822F480521A6010229A603B
:1054F000E36BE363012384F83930002384F8383008
:105500002046FFF776FF70BDF0B590F83820012AED
:1055100003464FF002002BD0012283F8382083F895
:10552000390003EB0112D2E90740556A174F44EAEC
:105530000040093C012C9CBF05F07F4210434FEA1C
:1055400001161A6888BF40EA056091B9516A39406E
:1055500001435162012C9969916103D8596A21F084
:105560007F4191620122002083F8392083F83800BE
:10557000F0BDD16939400143D1619919012C896984
:1055800011619CBF25F07F451562EBE7F0FFFC0041
:105590002DE9F74FDFF8BC916C4A00230D68012418
:1055A0009C4004EA0506AC4340F0B7804D680327F1
:1055B00005F003044FEA430807FA08FC671E012FB1
:1055C0006FEA0C0C34D8876807EA0C0ECF6807FA2C
:1055D00008F747EA0E078760476827EA060EC5F313
:1055E00000179F4047EA0E074760C76807EA0C0E9E
:1055F0008F6807FA08F747EA0E07022CC76019D12F
:105600004FEAD30A00EB8A0A03F0070BDAF820709E
:105610004FEA8B0B4FF00F0E0EFA0BFE27EA0E0E21
:105620000F6907FA0BF747EA0E07CAF8207001E086
:10563000032CDAD1076804FA08F407EA0C073C43A4
:1056400015F4403F046068D000240194D9F8444028
:1056500044F48044C9F84440D9F8444023F0030797
:1056600007F1804704F4804407F59C37019403F068
:10567000030C019CD7F808E04FEA8C0C0F2404FAC5
:105680000CF42EEA040E324CA0424DD004F5806496
:10569000A0424BD004F58064A04249D004F5806458
:1056A000A04247D004F58064A04245D004F5806450
:1056B000A04243D004F58064A04241D004F5806448
:1056C000A0423FD004F58064A0423DD004F5806440
:1056D000A04214BF0A24092404FA0CF444EA0E047C
:1056E000BC609468F74315F4801F0CBF3C40344302
:1056F0009460D46815F4001F0CBF3C403443D46060
:10570000546815F4003F0CBF3C40344354601468A7
:10571000ED0354BF3C40344314600133102B7FF43D
:105720003DAF03B0BDE8F08F0024D5E70124D3E7F7
:105730000224D1E70324CFE70424CDE70524CBE7F7
:105740000624C9E70724C7E70824C5E7003C014051
:1057500000000240003802400369194214BF0120D2
:10576000002070470AB1816170470904FBE7436973
:1057700001EA030221EA030141EA02418161704723
:1057800001684B6913F480634FF0000210D06FF48E
:1057900080634B612023026380F83D3080F83E2017
:1057A000036C80F83C2043F004030364012070473D
:1057B000184670472DE9F84606460F4691461D46A5
:1057C0004FEA114A3368BAF1010F0CBF5C699C695A
:1057D00027EA0404A4B2B4FA84F46409A14501D010
:1057E000002025E06A1CEED0FFF700FB089BC01AE2
:1057F000A84201D8002DE5D13368BAF1010F0CBFE2
:105800005B699B6927EA03039BB2B3FA83F35B09E5
:105810009945D7D100232022336386F83D2086F8AE
:105820003E30326C86F83C3042F020023264012077
:10583000BDE8F8862DE9F04104460F461646984625
:105840002568686927EA000080B2C0B16B695A0513
:1058500017D52B6843F400732B606FF480636B6182
:1058600020220023236384F83D2084F83E30236CFB
:1058700043F004032364002384F83C300120BDE896
:10588000F081731CDDD0FFF7B1FAA0EB0800B04245
:1058900001D8002ED4D123685A6927EA020292B2B5
:1058A000002ACDD000232022236384F83D2084F8F1
:1058B0003E30236C1343DDE770B504460D461646B3
:1058C00023685B691B0601D500201EE02046FFF718
:1058D00057FFC8B96A1CF3D0FFF788FA801BA842AB
:1058E00001D8002DECD123685B6913F08003E7D168
:1058F0002022236384F83D2084F83E30226C84F813
:105900003C3042F020022264012070BD2DE9F043BA
:105910001546026885B0DDE90C789946136843F4B2
:10592000807313600E463B46CDF8008000224FF096
:1059300001110446FFF73EFF236838B11B68DB0501
:1059400002D54FF400732364032620E006F0FE0620
:105950001E611A4943463A462046FFF76BFFA8B935
:10596000236803905A6903929B6903934246394620
:105970002046039BFFF7A0FF064660B1236C042B73
:1059800001BF2268136843F4007313600126304698
:1059900005B0BDE8F083B9F1010F236802D1EDB283
:1059A0001D61F4E72A0A1A61394642462046FFF78C
:1059B00083FF0028E2D12368F1E700BF0200010065
:1059C0002DE9FF479A46036815461A6842F480623B
:1059D0001A601A68DDE90C7842F480721A600E468B
:1059E0003B46CDF8008000224FF001110446FFF73E
:1059F000E1FE236838B11B68DB0544BF4FF4007338
:105A00002364032021E05FFA86F906F0FE061E619A
:105A10002B4943463A462046FFF70CFFA0B92368BE
:105A200003905A6903929B69039342463946204684
:105A3000039BFFF741FF58B1236C042B01BF226881
:105A4000136843F400731360012004B0BDE8F087CD
:105A5000BAF1010F23681AD1EDB242461D613946F1
:105A60002046FFF729FF02460028E5D121680B6890
:105A700043F480730B602046CDF800803B464FF026
:105A80000111FFF797FE226860B11368B4E72A0A94
:105A90001A61394642462046FFF70EFF0028CBD157
:105AA0002368D9E749F001031361054943463A46A3
:105AB0002046FFF7BFFE003818BF0120C5E700BF32
:105AC0000200010070B504460D46164623685B6966
:105AD0005B0701D500201EE02046FFF751FEC8B944
