:020000040800F2
:10000000000003205D060008A1260008A3260008C2
:10001000A5260008A7260008A92600080000000061
:10002000000000000000000000000000B18F000888
:10003000AB2600080000000041900008D7880008A7
:10004000AD060008AD060008AD060008AD060008C4
:10005000AD060008AD060008AD060008AD060008B4
:10006000AD060008AD060008AD060008AD060008A4
:10007000AD060008AD060008AD060008AD06000894
:10008000AD060008AD060008AD260008AD06000864
:10009000AD060008AD060008AD060008AD06000874
:1000A000AD060008AD060008AD060008AD06000864
:1000B000AD060008AD060008AD060008AD06000854
:1000C000AD060008AD060008AD060008AD06000844
:1000D000AD060008AD060008AD060008AD06000834
:1000E000AD060008AD060008AD060008AD06000824
:1000F000AD060008AD060008AD060008AD06000814
:10010000AD060008AD060008AD060008AD06000803
:10011000AD060008AD060008C9260008AD060008B7
:10012000AD060008AD060008AD060008AD060008E3
:10013000AD060008AD060008AD060008AD060008D3
:10014000AD060008AD060008AD060008AD060008C3
:10015000AD060008AD060008AD060008AD060008B3
:10016000AD060008AD060008AD060008AD060008A3
:10017000AD060008AD060008AD060008000000004E
:10018000AD060008AD060008AD060008AD06000883
:10019000AD060008AD060008AD060008AD06000873
:0C01A000D5260008AD060008E126000886
:1001B00010B5054C237833B9044B13B10448AFF3A1
:1001C00000800123237010BD800300200000000088
:1001D0000C58020808B5034B1BB103490348AFF3A1
:1001E000008008BD00000000840300200C580208B5
:1001F00001F0FF01102A2BDB10F0070F08D010F8D8
:10020000013B013A8B422DD010F0070F42B3F6D1DB
:10021000F0B441EA012141EA014122F007047FF0F4
:1002200000070023F0E80256083C85EA010586EA4B
:10023000010685FA47F5A3FA87F586FA47F6A5FA87
:1002400087F68EB9EED1F0BC01F0FF0102F0070293
:1002500032B110F8013B013A83EA010313B1F8D13E
:100260000020704701387047002D06BF354603381F
:10027000073815F0010F07D1013015F4807F02BF58
:10028000013015F4C03F0130F0BC0138704700BFA9
:100290007BB972B90029BEBF00204FF0004106E0D3
:1002A00008BF00281CBF6FF000414FF0FF3000F086
:1002B000D3B9ADF1080C6DE904CE002909DB002BA0
:1002C0001ADB00F04DF8DDF804E0DDE9022304B0AC
:1002D0007047404261EB4101002B1BDB00F040F80E
:1002E000DDF804E0DDE9022304B0404261EB4101A6
:1002F000524263EB43037047524263EB430300F007
:100300002FF8DDF804E0DDE9022304B0404261EBA0
:1003100041017047524263EB430300F021F8DDF8DE
:1003200004E0DDE9022304B0524263EB430370476B
:1003300053B94AB9002908BF00281CBF4FF0FF314C
:100340004FF0FF3000F088B9ADF1080C6DE904CE34
:1003500000F006F8DDF804E0DDE9022304B07047A0
:100360002DE9F047089D8E4604468846002B4AD169
:100370008A42174662D9B2FA82F64EB1C6F120031C
:1003800001FA06F820FA03F3B74043EA0808B4403C
:100390004FEA174E1FFA87FCB8FBFEF1230C0EFB49
:1003A000118843EA084301FB0CF29A4209D9FB1871
:1003B00001F1FF3080F0EA809A4240F2E780023992
:1003C0003B449A1AA3B2B2FBFEF00EFB102243EAA2
:1003D000024300FB0CFC9C4509D9FB1800F1FF32DD
:1003E00080F0D6809C4540F2D3803B44023840EAFE
:1003F0000140A3EB0C0300211DB1F3400022C5E92D
:100400000032BDE8F0878B4205D90DB1C5E9000186
:1004100000210846F5E7B3FA83F1002946D1734578
:1004200002D3824200F20581841A6EEB030201209E
:100430009046002DE5D0C5E90048E2E7002A00F02B
:100440009080B2FA82F6002E40F0A4808A1A030C43
:100450004FEA174E80B2BCB20121B2FBFEFC0EFB8C
:100460001C2243EA024304FB0CF29A4207D9FB1810
:100470000CF1FF3802D29A4200F2E080C4469B1A87
:10048000B3FBFEF20EFB123340EA034302FB04F41B
:100490009C4207D9FB1802F1FF3002D29C4200F2C5
:1004A000CA8002461B1B42EA0C40A5E7C1F12006A8
:1004B0008B4022FA06F71F430EFA01F420FA06F3E6
:1004C0002EFA06FE4FEA1749234300FA01F81FFAF5
:1004D00087FCBEFBF9F01C0C09FB10EE44EA0E444D
:1004E00000FB0CFEA64502FA01F209D93C1900F105
:1004F000FF3A80F09C80A64540F2998002383C4447
:10050000A4EB0E041FFA83FEB4FBF9F309FB1344BA
:100510004EEA044403FB0CFCA44508D93C1903F142
:10052000FF3E80F08280A4457FD9023B3C4443EAF1
:100530000040A4EB0C04A0FB02EC64457346E146CA
:1005400062D35FD05DB1B8EB030264EB090404FA37
:1005500006F622FA01F31E43CC40C5E900640021EF
:100560004FE7B1FBF2FC010C41EA0E4180B240EAD8
:1005700001423B4638463C46B846BE462026B1FBC3
:10058000F7F1A2EB080241EA0C4166E7014618E7E1
:1005900010462CE7C6F120022EFA02F3B740B14014
:1005A00020FA02F24FEA174E0A43B3FBFEF8BCB240
:1005B0000EFB1833110C41EA034108FB04F9B0406B
:1005C00089454FEA104380B23ED9791808F1FF3CC3
:1005D00001D289451FD8A1EB0901B1FBFEF909FB46
:1005E00004F80EFB191192B242EA0142424529D2A7
:1005F000BA1809F1FF31C4D24245C2D2A9F10201B1
:100600003A44BEE7F0459DD2BEEB02036CEB070C0B
:100610000138E14696E7A7EB09094944A8F1020C25
:10062000B1FBFEF909FB04F8DBE773467FE75046B0
:1006300066E70846FDE63B44023A33E7ACF1020CBC
:100640003B441CE749469CE7A1EB0901C446B1FBCA
:10065000FEF909FB04F8C4E7704700BFDFF834D0A7
:10066000002103E00C4B5B58435004310B480C4B0A
:1006700042189A42F6D30B4A02E0002342F8043BA8
:10068000094B9A42F9D305F099FA24F0A1F901F047
:100690009DF9704700000320D80D030800000020DA
:1006A000680100208003002028430120FEE77047F6
:1006B00008B500F0BBFDBDE8084000F03FBD00F00C
:1006C000B7BD704710B50421044622F05EFF2046F6
:1006D00010BD000038B50C4B0C4C18800C4B822020
:1006E00019806368984740F6110398420AD1094D72
:1006F00023682C60822098472B688220DB6898470B
:10070000002038BD0120FCE7A60300205000002097
:10071000A4030020A80300204FF4A071F020FFF7ED
:10072000D9BF0000F7B5394D2B6804461B698220FC
:100730009847208000284ED02B680DF106025B6997
:1007400001A982209847324B1B78002B4BD0BDF873
:10075000062040F674639A423FD9ADF80630BDF8E2
:1007600006209B1A9BB20A2B42D90B22B3FBF2F351
:10077000284A1288934201D9013A93B2BDF8042065
:10078000254840F6B8318A4234D8C2F571620E323B
:10079000016892B20F25B2FBF5F2204D2D88AA42D6
:1007A00084BF05F1FF35AAB28A4215468EB22AD916
:1007B000921B91B21A4E3768BB42BAB28CBF9A1ADA
:1007C000D21A92B211440529C4BF05603360036890
:1007D00063803368A38003B0F0BDB32A9CBFB4220A
:1007E000ADF80620BBE7BDF80630A3F5B473B9E752
:1007F0000023C3E7C2F56D62083292B20E2A016887
:10080000C8D800252A46891A89B2D3E7A803002050
:1008100004230020A4030020A0030020A60300203E
:100820009C03002037B568460D461446FFF77AFF53
:10083000BDF8000030B1BDF802302B60BDF80430C7
:100840002360012003B030BD032821D8DFE800F089
:10085000020B12190F4B1A68B2FA82F252090421E4
:100860000D4805F003BF0B4B5A68B2FA82F25209E9
:100870000821F5E7074B9A68B2FA82F25209102173
:10088000EEE7044BDA68B2FA82F252092021E7E778
:10089000704700BFAC03002000100240032821D89D
:1008A000DFE800F0020B12190F4B1A68003A18BF6C
:1008B000012204210D4805F0D9BE0B4B5A68003ABD
:1008C00018BF01220821F5E7074B9A68003A18BFC4
:1008D00001221021EEE7044BDA68003A18BF01222A
:1008E0002021E7E7704700BFAC0300200010024062
:1008F00003280DD8DFE800F00206080A04210548A5
:1009000005F0B9BE0821FAE71021F8E72021F6E743
:10091000704700BF0010024008B5032811D8DFE877
:1009200000F0020A0C0E0421074805F099FE431E50
:100930005842584108BD0821F6E71021F4E720216C
:10094000F2E70020F3E700BF0010024070B5084D49
:1009500000240126E0B2FFF7DFFF18B12B68012B5E
:1009600018BF2E600134052C05F10405F2D170BDCD
:10097000AC030020012380F8781080F879307047AC
:100980007047002070470000034B4164003918BFD6
:1009900001211970704700BFE73501207047002022
:1009A0007047836B0BB10846184770474FF6FF70CE
:1009B0007047406803689B691847704770477047E5
:1009C0007047704710B5044600F048FD236803499E
:1009D000D3F890302046BDE810401847000000D002
:1009E00008B503680446D3F8843098472368204646
:1009F000DB6F984700F0ECF8236820465B6F984760
:100A0000292001F0D7FA00F0E3F8236820465B6F55
:100A10009847F8E710B504460BF0C0F82368204665
:100A2000D3F8BC30BDE81040184700F0FBBC00F024
:100A3000FFBC00F031BD00F0D1BC00F041BD00F0C2
:100A400049BD00F0D5BC0AF0D7BA10B584210446E0
:100A500022F09BFD204610BD10B590F8341090F8A0
:100A600078400C4B8C421A7809D03AB90A4A0B49A3
:100A70001488088810800C8001221A7010BD002A8A
:100A8000FCD0054A05491488088810800C80002293
:100A9000F3E700BFE0350120DC350120DE35012021
:100AA00070B50D46194635B9094B0A4A0A4840F255
:100AB000FF2123F0A7FCC0E90F52084B003A18BFF2
:100AC00001221A700368BDE87040D3F890301847CF
:100AD00090580208C858020816590208E635012045
:100AE00008B5094B1B888B4203D8084B1B889342DF
:100AF00005D9074B074A0848A32123F083FC074B7D
:100B00001980074B1A8008BDDC350120DE35012035
:100B10005B590208BE59020816590208E235012045
:100B2000E4350120034690F87A0018B1586803684C
:100B30001B68184770470000012108B500220846CD
:100B400007F052FF0A4B186028B90A4B0A4A2821BD
:100B50000A4823F057FC00220421012007F0E3FF9C
:100B6000074B186018B9074B034A2C21F0E708BD62
:100B7000C0030020015A02084A5A0208795A0208A2
:100B8000BC030020C55A0208024B4FF0FF31186821
:100B900007F074BFC0030020014B186807F09ABF2C
:100BA000C0030020024B0021186807F067BF00BF98
:100BB000C0030020FFF7F0BF03480449006800238A
:100BC0001A4607F0EBBF00BFBC0300200400002062
:100BD00013B5084C00231A4601A9206808F00FF845
:100BE00020684FF0FF33002201A908F008F802B096
:100BF00010BD00BFBC03002003685B6C18470120D8
:100C0000704703689B6A1847FEE740F2EF30704771
:100C1000054B0360054B4FF08062C3F88820BFF39B
:100C20004F8FBFF36F8F7047F06B020800E100E059
:100C300010B504464FF45A61FFF7EAFF204622F050
:100C4000A4FC204610BD000082B0002301930E4B8F
:100C50001A6B42F400021A631A6B02F4000201924A
:100C6000019A1A6942F400021A611A6922F4000218
:100C70001A61064B064A1A61064A5A61064B4FF042
:100C800080629A6002B0704700380240E024002081
:100C9000E90E0008090C000800E100E008B50A2888
:100CA00009D8DFE800F006100E0808080810101038
:100CB0001000022008BD054B054A0648902123F08C
:100CC000A1FB0020F6E70120F4E700BF075B020864
:100CD000225B02086D5B020838B50C46887FFFF77F
:100CE000DDFFA58AE28A164B2169586342EA054274
:100CF0005A64628BD963521B1A642568082D0ED181
:100D00009A611A615862207F0E4A42EA0062DA61F3
:100D1000E2681A620C4A5961D9601A6038BD002233
:100D2000D8611A61E1680A0A480902F4784200F4BD
:100D3000FC600243C1F3C4010A439A63034AECE72F
:100D400000B002400900010001230200012303005A
:100D500008B50B280BD8DFE800F00612100A0A0AC3
:100D60000A0808080808022008BD0520FCE7054B12
:100D7000054A06486F2123F045FB0020F4E70120D7
:100D8000F2E700BF075B0208B75B02086D5B020871
:100D90002DE9F04191F81D800C464046FFF7D8FF41
:100DA000A77F05463846FFF7D3FF06463846FFF7CC
:100DB00075FFA18A628B444B521A1A649A61228B86
:100DC000521A1A61E28A586342EA01425A6421695E
:100DD0006268D963DA602068802828D0227F0FD823
:100DE000202867D0402865D004281AD0364B45EA21
:100DF000026545F40035B845DD6161D0334A44E011
:100E0000B0F5807F04D0B0F5007FEFD1304800E02E
:100E1000304840EA0262DA61E2681A625E62596151
:100E200032E045EA026242F40032DA61F6E7A06895
:100E3000021DDA62227F45EA026545F40035DD6174
:100E40005E625961017841B1012921D0224B234AC8
:100E500023484FF48D7123F0D5FADA69418822F4E2
:100E60007F42013922F0100242EA0122DA610121B7
:100E7000154BDA6942F02002DA61DA699206FCD495
:100E800010229A600029B9D0164A1A60BDE8F08194
:100E9000B2F1FF01DA69408822F47F4200F1FF30AD
:100EA00022F0100242EA002242F0100218BF012193
:100EB000DA61DDE745EA0262034B42F40032B4E74F
:100EC00042F20132E1E700BF00B00240012301001D
:100ED000090002000A000200015C02081B5C020813
:100EE0006D5B020801230200024B1B68586803680F
:100EF0005B691847E835012070B5044625460A4B62
:100F00000C30002660602672667245F8203B602235
:100F100029460AF099FF04F55A63EE6024359D4294
:100F2000FBD1204670BD00BFF06B0208034B1A686E
:100F3000D207FCD423229A60704700BF00B0024061
:100F40007047000030B50F4C2568ED07FCD4232511
:100F50000904A56041F001010225FF2B656361646E
:100F6000E0630AD00849656241EA0363E361074B25
:100F700022626061E060236030BDE561039BA36392
:100F8000034BF8E700B00240090001000100020035
:100F90000100030030B50E4C2568ED07FCD4232575
:100FA0001204A56042F001020225FF2B6563626412
:100FB000E063E16008D01B0643F00213E361054BD8
:100FC00065626061236030BD034BE3610123F9E793
:100FD00000B0024001000200020002FF30B50B4CDD
:100FE0002568ED07FCD4232512041B06A56043F4F5
:100FF0000033022542F0010265636264E063E16050
:10100000E361034B65626061236030BD00B0024064
:1010100001000200012070470C2070470C2303FBE5
:101020000100083070470C2303FB010008307047B3
:10103000012070474FF45D6070474FF45D6303FB20
:101040000100083070474FF45D6303FB0100083076
:101050007047012070471020704700EB01100830E6
:10106000704700EB011008307047084602F06ABD77
:1010700010B5034B0360044609F015FD204610BD72
:10108000A86C020810B50446FFF7F2FF20461421B1
:1010900022F07BFA204610BD10B5034B03600446D6
:1010A00009F001FD204610BD746C020810B504461D
:1010B000FFF7F2FF204640F6D85122F066FA2046AC
:1010C00010BD000010B5034B0360044609F0EBFCB3
:1010D000204610BD406C020810B50446FFF7F2FF31
:1010E0002046182122F051FA204610BD10B5084BB9
:1010F0000360044600F60460FFF7BAFF04F12C0019
:10110000FFF7CAFF04F11400FFF7DCFF204610BD13
:10111000DC6C020808B50248FFF7E8FF08BD00BF15
:101120009C12002010B50446FFF7E0FF20464FF464
:10113000786122F02AFA204610BD00002DE9F34123
:1011400001F042FB054601F043FB00240146234623
:1011500028462246009413F085F9274B274A1A6047
:10116000204603F0FBF9264D264B274A27489A6074
:1011700013F0E0F82B68BFF35B8FDB0735D428460C
:1011800022F005FA88B3224C224B236004F61C6639
:1011900004F1140004F12C0804F604676060C4F83C
:1011A0000880E760266109F07FFC1B4B63614046C5
:1011B00009F07AFC194BE362384609F075FC184BCC
:1011C000C4F8043E04F6186003F07AFD224604F6E3
:1011D0001861304603F018FD304602F0B3FC1148A8
:1011E00023F02EF9284622F0DEF90F4802B0BDE8C0
:1011F000F041FFF7E7BB00BF4C3601204804002058
:1012000098120020680400204C04002008000020F0
:101210009C120020DC6C0208406C0208746C02080E
:10122000A86C020815110008C403002070470000D4
:101230000148FFF7D5BB00BFC403002070B5264EA0
:10124000264C274D274B23603046FFF755FE284696
:1012500018F00EFA244810F003FE244B2448DC60FA
:1012600000224FF48071C3E9121222491A86C3E9A1
:101270001A12214983F85820C3E91E011F49C3F8F7
:1012800080101F491F480B60F021C3E90422C3E905
:101290000622C3E90822C3E90A22C3E90E22C3E9F0
:1012A0001022C3E91422C3E917225A6683F870207A
:1012B0005A67C3E9016501801348018013484FF460
:1012C000A07101801248018012490A70012283F83E
:1012D0003420114A1A6070BDF404002094120020DA
:1012E00068040020805802084C040020C403002039
:1012F0000000010101000001000450001A00140068
:10130000E8350120DC350120E2350120DE35012001
:10131000E4350120E0350120046B02080148FFF7A5
:1013200077BC00BFF4040020002070478180704724
:10133000C180704701817047418170477047704795
:1013400070477047704710B4C4880368121B8488C4
:101350005B6D091B12B25DF8044B09B218474FF6DA
:10136000FF7383814FF0FF3303621368C361106022
:101370007047002070478B8883800120704770473A
:1013800080F82610704790F82600704710B50022AC
:10139000B1F90840B1F90A10028042808480C1800E
:1013A00010BD0022028042808280C2807047017797
:1013B000704780ED080A704780F82410704780F865
:1013C0002510704701207047983070478C30704767
:1013D000843070477047704770470000034B90227D
:1013E00083F85A2383F85823704700BF00E100E0D8
:1013F000094A0A49D3680A48C3F30A03013B9BB26E
:101400000B801169C1F30A01013901801364536B28
:1014100043F0010353637047006801401E2200201F
:101420001C220020014BD3F8AC007047006801403B
:10143000024B0122C3F8AC105A62704700680140A9
:1014400010B52C21044622F0A0F8204610BD10B59E
:10145000BC21044622F099F8204610BD70B5044620
:1014600009F01FFE23689D6E0FF092FA0146204698
:10147000A8472368054AD3F88C502046AC46002381
:10148000BDE87040A2F51631604700BF00B004D03F
:1014900009F0EEBD09F0F8BD09F0B4BD09F023BFB5
:1014A00090F8252012B103685B691847704790F8DF
:1014B00025201AB190F8242002B11860704700006E
:1014C000034B4FF080629A604FF080729A607047D1
:1014D00000E100E0084B4FF08062C3F88820BFF3C2
:1014E0004F8FBFF36F8F4FF08072C3F88820BFF328
:1014F0004F8FBFF36F8F704700E100E070B500239E
:10150000124E8380124B0360336893F858200546CF
:101510000AB1D86C00B998680368DB6A98473368E9
:10152000B0FA80F4D86C640930B10368DB6A98477C
:10153000002808BF44F001042CB9064B064A0748AE
:101540002C2122F05FFF284670BD00BFE835012046
:10155000F06C0208595C0208B75C0208F05C0208F3
:1015600070B5254E3568BFF35B8F15F0010540D18E
:10157000304622F00CF800283BD0204C204B25614F
:1015800004F13400C4E90035C4E90255E584A562DC
:10159000A58510F04AFF04F158000CF009F9194B29
:1015A000A3652046184B40F8843BFFF7A7FF174B75
:1015B000C4F884302433C4F88C304FF4C803C4E931
:1015C00028350023C4F8AC30C4F8B030C4F8B430C7
:1015D000C4F8B8300E480F4BC4F89050C4F89C5073
:1015E000C4F8A850C4F8983022F02AFF304621F001
:1015F000DAFF024870BD00BF202200202422002014
:1016000068780208106D0208886D02081C780208CC
:10161000D9130008FC77020838B5184C23685BB36F
:10162000174B184A1B6C11888B4216D1164B198820
:1016300005F024FE236893F86A200025013283F820
:101640006A2083F87C50FFF7B7FA20680AF0A6FA00
:101650002846BDE83840FFF7F7B805F00FFE2468CC
:10166000236820461B6A9847012384F87C300020B9
:10167000BDE83840FFF712B938BD00BFE83501209A
:10168000006801401E2200201C220020A0F5F26309
:10169000B3F5957F04D8A1F27773B3F5957F26D97A
:1016A00002B2A2F625020BB2002AA3F60C03B8BFC1
:1016B0005242002BB8BF5B4212B21BB29A420ADD03
:1016C00040F6BB03984214D840F28E7188428CBF1A
:1016D00000200120704740F2757399420BD940F603
:1016E000A203994294BF002001208000704700208F
:1016F00070470220704703207047000038B50A4D3C
:10170000284604F04FFB4FF0FF31284604F0E3FB7E
:10171000284604F033FC84B2284604F0C1FB034B96
:1017200020461C8038BD00BF702500200E00002020
:1017300038B50A4D284604F035FB4FF0FF312846F6
:1017400004F0C9FB284604F019FC84B2284604F0D2
:10175000A7FB034B20461C8038BD00BF2825002076
:101760000C00002010B5084A0121082007F0DBF921
:10177000064B1860FFF7C2FF0446FFF7D9FF044B82
:101780001C80044B188010BDE06D0208F822002078
:101790000E0000200C00002010B592B0FFF7AEFF45
:1017A0000446FFF7C5FF01462046FFF76FFF8DF89F
:1017B000070004F037FA9DF80730184A63B3117830
:1017C000994204D0164C2168411A962902D800206B
:1017D00012B010BD206013481370002300681A4631
:1017E0000DF1070107F0DAF998B99DF80730042BDD
:1017F00096BF0D4A0D4B52F823300D4A402102A8E6
:1018000022F0C4FF4FF0FF3382B202A9094806F06C
:101810007CFF9DF80700DBE71370D8E7F422002077
:10182000F0220020F8220020CC6D0208525D020850
:101830005A5D0208442300202DE9F04192B004F0E3
:10184000F1F90446FFF75AFF1B4D1C4F2880FFF7A4
:101850006FFF014638802888DFF87C80FFF716FF8D
:1018600088F80000FFF798FF18B1154A1368013394
:101870001360144E3368E31AB3F5FA7F18D398F85F
:101880000030042B96BF104A104B52F823300193BE
:101890003B8800932B880E4A402102A822F076FF55
:1018A0004FF0FF3382B202A90A4806F02EFF3460DF
:1018B00012B0BDE8F08100BFEC220020EA22002037
:1018C000E4220020E0220020CC6D0208525D0208D4
:1018D0007B5D020844230020E822002003490448DD
:1018E0004FF0FF33742206F010BF00BFA15D020865
:1018F0004423002007B5064BADF806001B680548D9
:1019000001220DF1060106F069FA03B05DF804FB4F
:10191000100000208C23002008B5642007F058F840
:10192000FBE708B5FFF788FF322007F051F8F9E729
:1019300030B595B0102200210AA822F0A0FF142291
:10194000002103A822F09BFF00241E4B01941A6C77
:1019500042F080521A641B6C03F080530193019B88
:10196000194B02941A6842F440421A601B6803F44F
:10197000404302930122029B4FF48033CDE90823B8
:1019800002254FF480030821CDE90E534FF4B473C0
:10199000CDE9101308A804231393129505F0C6FC93
:1019A00005F08AFC0F23CDE903354FF4A0504FF426
:1019B0008053CDE90603052103A8059405F092FEA6
:1019C00015B030BD00380240007000402DE980485D
:1019D0009BB004F001F9FFF7ABFF142200210DA822
:1019E00022F04DFF0024C94B00941A6BC84842F006
:1019F00010021A631A6B02F010020092009A01940E
:101A00001A6B42F020021A631A6B02F02002019254
:101A1000019A02941A6B42F080021A631A6B02F068
:101A200080020292029A03941A6B42F004021A6333
:101A30001A6B02F004020392039A04941A6B42F0A8
:101A400001021A631A6B02F001020492049A0594CF
:101A50001A6B42F002021A631A6B02F0020205923C
:101A6000059A06941A6B42F040021A631A6B02F050
:101A700040020692069A07941A6B42F008021A6313
:101A80001B6B03F00803224607933C21079B04F0DD
:101A9000EDFDA0480122022104F0E8FD22469D4808
:101AA000042104F0E3FD22469B484FF4405104F02A
:101AB000DDFD01263C23032595480F940DA902273F
:101AC000CDE90D36109504F0E7FC92480DA9CDE95B
:101AD0000D76CDE90F4404F0DFFC04238D480DA9F9
:101AE000CDE90D36CDE90F4704F0D6FC4FF4405355
:101AF00089480DA9CDE90D36CDE90F4704F0CCFC9E
:101B0000082384480F940DA9CDE90D3504F0C4FCD9
:101B10000DA9202381480F94CDE90D3504F0BCFCBC
:101B20007F48804B804D036004F0ACFBDFF818C2A7
:101B30007E4B2C62C5E900C328464FF48043C5E9BB
:101B40000434C5E90244C5E9064404F09DFF1021B0
:101B5000284605F0E1F92146284605F0FCF9744DC8
:101B6000DFF8E8E1AC624FF48273C5E900E34FF4BB
:101B700000781823C5E9068328460A23C5E90244EC
:101B8000C5E90444C5E90844EB6206F0CBF88F23AD
:101B9000224639465F488DF824308DF8344004F0F1
:101BA00065FD32464FF47A7309A9284606F016F906
:101BB0004FF47A7332460DA9284606F0BBFA324636
:101BC000394654485B4D04F051FD9DF83430D32B19
:101BD00004BF594B1E70594B0126C5E900364FF022
:101BE000100840230024C5E904834FF4C073C5E9FD
:101BF00006344FF40063C5E908344FF4005302275C
:101C00004FF0040AAB624FF0030B07230DA92846DF
:101C1000CDE90D73CDE90FA34FF00809C5E9024ADC
:101C2000CDE911B7139705F061FF4FF6FF7209A9CF
:101C30002846CDE90A96089409960C9405F076FF9B
:101C4000304603F0F5FF4FF6FF7209A92846CDE9AB
:101C50000979CDE90B6405F069FF4FF6FF7209A918
:101C60002846CDE909B9CDE90BA405F05FFF4FF493
:101C70000C730893089B0C934FF6FF7209A9284632
:101C8000CDE909A90B9605F051FF40F26A512846AB
:101C900005F06AFF342221460DEB020022F0EFFD31
:101CA000274D284B2C61C5E900340923C5E90536C9
:101CB0001D23C5E9073B40F20D1240F24313C5E96D
:101CC000092340F2171140F247132846C5E90B13C8
:101CD000C5E90244AC8685F8364005F0D7F9FF2106
:101CE000F022CDE912144FF005094FF480614FF452
:101CF000A073CDE90E24CDE91419CDE916420DA942
:101D000022462846CDE9103722E000BF00380240C5
:101D10000010024000080240000C02400000024097
:101D200020250020003002408C240020A0860100E5
:101D30008C2300201023002004230020400100A059
:101D4000E423002000680140005C00400050014096
:101D5000484D18930D94ADF864408DF8664005F039
:101D600060FA454B2B601B6898472B68434DDB6836
:101D70009847434B2846C5E90034C5E90274C5E9D4
:101D80000A47C5E90C4404F08DFA3146284604F0B0
:101D90003FFB3C4D3C4F424621460DA822F06FFDD3
:101DA0003A4BAC602846C5E900342C612C7685F8A6
:101DB0002040EC62AF62EC60EE6185F830406E610D
:101DC00003F04AFF0D230DA92846CDE90D36304D0D
:101DD0000F9404F067F9424621460DA822F04FFD0A
:101DE0002C4BAC602846C5E90034C5E90A742C6167
:101DF0002C7685F82040EC60EE6185F830406E610D
:101E000003F02AFF0DA92846CDE90D96224D0F9427
:101E100004F048F921484FF4E133C0E900530C23A2
:101E2000C0E90534C0E902440461C46106F03EFC27
:101E3000FEF73EFCFEF73BFCFFF794FCFFF74EFD80
:101E400006F056FD164A1748214606F07DFD164B52
:101E5000164A18602146164806F076FD154B164ABC
:101E600018602146154806F06FFD154B186006F006
:101E700051FDFEE7FC22002018000020E024002095
:101E800000B00240702500200100000F002001403A
:101E9000282500200021014000100140442300209B
:101EA000406E0208191900080C2300201C6E02085D
:101EB000BF06000808230020F86D02082319000857
:101EC00000230020704770477FB5094B8DF817201D
:101ED0001B6802930DF117020123009201930A4639
:101EE0000146044804F078FE07B05DF804FB00BF2B
:101EF000140000208C2400207FB500238DF81730BB
:101F0000084B1B6802930A4601230DF1170100914B
:101F100001930146044804F0EFFE9DF8170007B056
:101F20005DF804FB140000208C2400201FB5084C31
:101F300024680092CDE901340A4601230146054890
:101F400004F0DAFE003818BF012004B010BD00BF55
:101F5000140000208C24002003F06ABE10B5064C4B
:101F600000222046042104F081FB20460122BDE826
:101F70001040042104F07ABB0008024038B50B4D34
:101F8000044601220A484FF4005104F06FFB00227E
:101F90000421284604F06AFB2046FFF7ABFC2846E4
:101FA0000122BDE83840042104F060BB0008024073
:101FB000000C024038B50B4D044600220A484FF48D
:101FC000005104F053FB00220421284604F04EFB8C
:101FD0002046FFF78FFC28460122BDE83840042147
:101FE00004F044BB00080240000C0240F7B5144E58
:101FF000144F05460C4630460022042104F036FBFF
:1020000000224FF40051384604F030FB2846FFF719
:1020100071FC0D4B0D481B68224601A906F08AF899
:10202000384601224FF40051019C04F01FFB30465A
:102030000122042104F01AFB204603B0F0BD00BFCA
:1020400000080240000C0240100000208C230020F9
:1020500003F0EEBD0268034B9A4201D103F0D6BDF6
:10206000704700BF001000407047000082B00E4B68
:1020700000220092596C41F480415964596C01F47A
:102080008041009100990192196C41F080511964CE
:102090001B6C03F080530193019B0F216FF0010033
:1020A00002B004F0AFB800BF0038024010B51422EF
:1020B0008AB0044600210DEB020022F0E0FB236809
:1020C000254A934227D1254B2548002401945A6C78
:1020D00042F480725A645A6C02F480720192019A3E
:1020E00002941A6B42F004021A631B6B03F00403A0
:1020F00002930821029B0323CDE9051305A904F0EF
:10210000CBF912202246052104F07CF8122004F0BD
:10211000ABF80AB010BD134A9342FAD10F4B1248E4
:10212000002403945A6C42F400725A645A6C02F40C
:1021300000720392039A04941A6B42F001021A632C
:102140001B6B03F001030493049B20220323CDE9BE
:10215000052305A9D3E700BF002001400038024055
:102160000008024000210140000002400268094BC3
:102170009A4282B00BD100230193074B1A6B42F4B1
:1021800080521A631B6B03F480530193019B02B0CE
:10219000704700BF003002400038024007B50F4BC7
:1021A00002689A4216D10022A3F5F0430192196BFE
:1021B00041F4000119631B6B03F400030193052133
:1021C0005A20019B04F01EF85A2003B05DF804EB7E
:1021D00004F04AB803B05DF804FB00BF00B0024051
:1021E0002DE9F043044689B01422002103A822F00F
:1021F00046FB2268244B9A4243D1244C24480025B4
:102200000095236B43F004032363236B03F0040363
:102210000093009B0195236B43F001032363236B21
:1022200003F001030193019B4FF012094FF4007377
:102230004FF001080327042603A9CDE90339CDE9AE
:102240000587079604F028F94FF480731148079624
:1022500003A9CDE90339CDE9058704F01DF90295FD
:10226000236C43F400032364236C03F40003029300
:10227000029B236A43F400032362236A23F40003CE
:10228000236209B0BDE8F083005C004000380240E2
:102290000008024000000240F0B599B00446142244
:1022A000002107A822F0EBFA30220DEB02000021FA
:1022B00022F0E5FA22685E4B9A4240F0B78008238C
:1022C0000C93C0231093042312930CA84FF40033F3
:1022D000159305F0DFFA08B1FFF7C6FE554B5648D7
:1022E000002400945A6C42F080625A645A6C02F0E6
:1022F00080620092009A01941A6B42F020021A63E5
:102300001A6B02F020020192019A02941A6B42F0B9
:1023100001021A631A6B02F001020292029A0394FC
:102320001A6B42F002021A631A6B02F00202039265
:10233000039A04941A6B42F040021A631A6B02F07B
:1023400040020492049A05941A6B42F004021A6344
:102350001A6B02F004020592059A06941A6B42F079
:1023600008021A631B6B03F00803069302250E266E
:10237000069B0B964FF4806307A9CDE90735CDE99D
:10238000094504F089F841F658032C480B9607A933
:10239000CDE907350927CDE9094504F07DF8032388
:1023A00027480B9707A9CDE90735CDE9094504F082
:1023B00073F84FF4706322480B9607A9CDE90735EF
:1023C000CDE9094504F068F84FF40C631D480B96FD
:1023D00007A9CDE90735CDE9094504F05DF8C0232B
:1023E00019480B9607A9CDE90735CDE9094504F051
:1023F00053F8082315480B9607A9CDE90735CDE911
:10240000094504F049F84FF4A0530E480B9707A96B
:10241000CDE90735CDE9094504F03EF858202246BC
:10242000052103F0EFFE582003F01EFF19B0F0BDA8
:1024300000680140003802400014024000000240E1
:10244000000402400018024000080240000C024054
:1024500010B5044688B01422002103A822F00FFA18
:102460002268144B9A4223D103F56843002101915D
:102470005A6C114842F480125A645A6C02F4801269
:102480000192019A02911A6B42F020021A631B6BAF
:1024900003F020030293029B4FF460720223032196
:1024A000CDE903230523CDE9061303A903F0F4FFC7
:1024B00008B010BD005001400014024010B50446A1
:1024C00088B01422002103A822F0D9F92268144B05
:1024D0009A4223D103F59433002101915A6C11489B
:1024E00042F010025A645A6C02F010020192019AF2
:1024F00002911A6B42F001021A631B6B03F0010395
:102500000293029B4FF4C06202230321CDE903230F
:102510000723CDE9061303A903F0BEFF08B010BDE1
:1025200000100140000002402DE9F04186B0002378
:1025300003932B4B1C68002C4FD14FF00108C3F8BC
:102540000080284B00949A6B274842EA08029A635D
:102550009B6B03EA08030093022703260C25009BCC
:1025600001A94FF63F03CDE90137CDE9046503F03A
:1025700093FF1E48059501A9CDE90187CDE90346E2
:1025800003F08AFF48F233131948059501A9CDE9F4
:102590000137CDE9034603F07FFF4FF683731548FB
:1025A000059501A9CDE90137CDE9034603F074FF94
:1025B0004CF203731048059501A9CDE90137CDE927
:1025C000034603F069FF60230C48059501A9CDE996
:1025D0000137CDE9034603F05FFF06B0BDE8F081A7
:1025E000B8250020003802400014024000080240D4
:1025F0000018024000100240000C0240000402409B
:1026000070B588B000230293204B1A6C42F0100280
:102610001A641B6C03F010030293054601A903A87A
:10262000029B05F019F9069B4BBB05F0F5F8184E17
:10263000184B336040F2E733F360174BB0FBF3F312
:10264000013B7360304600233361B360B36105F032
:1026500041FF044680B9304605F012FE044658B9E1
:10266000362003F001FE0F2D0DD8224629463620D4
:1026700003F0C8FD094B1D60204608B070BD05F091
:10268000CBF84000D3E70124F6E700BF0038024052
:10269000BC2500200010004040420F0080000020B8
:1026A0007047FEE7FEE7FEE7FEE7704708B504481F
:1026B00003F06AFCBDE80840024803F065BC00BFB7
:1026C0007025002028250020014805F017BE00BF16
:1026D000BC250020014804F047BD00BFE4230020D2
:1026E000014803F00BBE00BFE0240020012070472A
:1026F00008B522F067F9162303604FF0FF3008BDDC
:1027000008B522F05FF916230360FEE770B50D46A9
:1027100014460E46731B9C4201DC204670BDAFF38D
:10272000008006F8010BF5E770B50D4614460E461D
:10273000731B9C4201DC204670BD16F8010BAFF301
:102740000080F5E74FF0FF3070474FF400534B60C7
:102750000020704701207047002070470A4A116826
:1027600008B5034609B90949116010686946034470
:102770008B4206D922F026F90C2303604FF0FF307C
:1027800008BD1360FCE700BF042600202843012099
:10279000704710B50421044620F0F7FE204610BD16
:1027A000012908B506D0022908D059B901F022FF45
:1027B000006808BD01F01EFF4068FAE701F01AFF4B
:1027C0008068F6E70020F4E700487047786E02085A
:1027D00002207047806A7047704730B5036885B043
:1027E0006D460181D3F88430014604462846984757
:1027F00095E807003C3484E8070005B030BD30B5EB
:10280000036885B06D464181D3F8843001460446A3
:102810002846984795E807003C3484E8070005B04F
:1028200030BD0022028042808280C280704780F8E2
:102830003610704770B5036804461B6B1546984701
:102840002368294620465B6EBDE87040184700208B
:102850007047806C704770477047704710B508210B
:10286000044620F092FE204610BD10B54C210446CF
:1028700020F08BFE204610BD10B540F6EC2104463A
:1028800020F083FE204610BD08B5FEF709FE08BD06
:10289000036870B55E6B124B1B6804468DB22BB992
:1028A000104B114A6C21114821F0ACFD1049828D6A
:1028B0000988914203D80F4B0B4A6D21F3E713F8B7
:1028C00012200D4B1B6853F8220003681B6B9847BE
:1028D000291A3346204609B2BDE87040184700BFA8
:1028E000403601205F5E0208A15E0208DC5E02083D
:1028F00044360120235F020848360120074A02605F
:102900000022C0E90122C0E90322C0E90522C0E992
:1029100007224FF480728284704700BF5C7B0208FC
:102920002DE9F0411D460368BDF918701B6B044684
:10293000164698472368314620465B6B98472368C4
:10294000294620469B6B9847236839462046DB6B17
:10295000BDE8F0411847000010B50446FFF7CEFF70
:10296000024B23600023A362204610BD3C7702087F
:1029700010B526220446002121F081FF2046FFF7F2
:10298000BDFFFF23044A84F826300023A36222609F
:10299000E3622386204610BD247A020800224FF00D
:1029A000FF31C0E900218260704710B50446FFF78F
:1029B000F5FF204610BD000038B526220446002150
:1029C00021F05DFF2046FFF799FF0B4B23600B4B77
:1029D000A3624FF6FF730025A3854FF47F03C4E97C
:1029E0000C53258704F13C00FFF7D8FF044B23600C
:1029F000A564204638BD00BF2C790208A86E0208E5
:102A0000B86E02082DE9F04F0446BBB0FFF7A4FFF3
:102A10002246D64B42F82C3B04F15806104603924E
:102A2000FFF79AFF3046FFF7A3FF04F18C03184627
:102A30000493FFF7C1FF04F1D80318460593FFF78D
:102A40008BFF04F5827318462393FFF791FF04F57B
:102A50009C7318460693FFF7AFFF04F5C273184640
:102A60000793FFF779FF04F5D87318462493FFF70F
:102A70007FFF04F5F27318460893FFF79DFF04F5F6
:102A80000C7318460993FFF767FF04F51773184690
:102A90002593FFF76DFF04F5247318460A93FFF79B
:102AA0008BFF04F5377318460B93FFF755FF04F5BA
:102AB000427318462693FFF75BFF04F54F731846E1
:102AC0000C93FFF779FF04F5627318460D93FFF737
:102AD00043FF04F56D7318462793FFF749FF04F58C
:102AE0007A7318460E93FFF767FF04F234431846D3
:102AF0000F93FFF731FF04F58C6318462893FFF717
:102B000037FF04F2944318461993FFF755FF04F575
:102B10009C6318461093FFF71FFF04F20C531846EE
:102B20002993FFF725FF04F5A86318461A93FFF7CA
:102B300043FF04F28C5318461193FFF70DFF04F581
:102B4000B76318462A93FFF713FF04F2EC531846B5
:102B50001B93FFF731FF04F5C76318461293FFF785
:102B6000FBFE04F2646318462B93FFF701FF04F5A4
:102B7000D36318461C93FFF71FFF04F2E463184663
:102B80001393FFF7E9FE04F5E26318462C93FFF771
:102B9000EFFE04F2447318461D93FFF70DFF04F592
:102BA000F26318461493FFF7D7FE04F2BC7318467D
:102BB0002D93FFF7DDFE04F5FE6318461E93FFF725
:102BC000FBFE04F63C0318461593FFF7C5FE04F61A
:102BD000680318462E93FFF7CBFE04F69C031846B5
:102BE0001F93FFF7E9FE04F6E80318461693FFF774
:102BF000B3FE04F6141318462F93FFF7B9FE04F63C
:102C0000481318462093FFF7D7FE04F6941318468E
:102C10001793FFF7A1FE04F51C6318463093FFF7E6
:102C2000A7FE04F6F41318462193FFF7C5FE04F53A
:102C3000246318461893FFF78FFE04F66C2318469A
:102C40003193FFF795FE04F52A6318463C2522933D
:102C5000FFF7B2FE00224FF0F013A3600398009537
:102C60002B461146FFF75CFE00222B4611463046EC
:102C70000095FFF755FE3E4B3E4A0398DFF8F8A05B
:102C80004FF0050B4FF00F09C4E920323146A4F88C
:102C900088B007F01BFF0498CDF800902B46172250
:102CA0000021FFF73DFED4F88C300499D3F884302E
:102CB00000264FF07F4832A8C4F8BC80A4F8C0605A
:102CC000984732A907C937AF04F1C80383E8070062
:102CD00016230498ADF8E0303946CDF8DCA00BF0AF
:102CE000FFF8DDE9030107F0F1FE0399204607F044
:102CF000EDFE059800952B4632462946FFF710FE5B
:102D0000239800952B4632463146FFF709FE184BB3
:102D1000184A23990598A4F834B1C4E94B3207F056
:102D2000D5FE0698CDF800902B4617223146FFF7C6
:102D3000F7FDD4F838310699D3F88430C4F86881A7
:102D400032A8A4F86C61984732A907C904F5BA7390
:102D500083E8070013230698ADF8E0303946CDF834
:102D6000DCA00BF0BDF8DDE9050107E0486F0208C3
:102D700098CCEDFFDAE0E6FFA86E020807F0A6FEA9
:102D80000599204607F0A2FE079800952B4632468B
:102D90007821FFF7C5FD249800952B463246314631
:102DA000FFF7BEFDCE4BCF4A24990798A4F8E0B1B7
:102DB000C4E9763207F08AFE0898CDF800902B46D9
:102DC00017223146FFF7ACFDD4F8E4310899D3F867
:102DD0008430C4F8148232A8A4F81862984732A943
:102DE00007C904F5087383E8070012230898ADF8B3
:102DF000E0303946CDF8DCA00BF072F8DDE90701D0
:102E000007F064FE0799204607F060FE09980095D8
:102E10002B463246B421FFF783FD259800952B46BB
:102E200032463146FFF77CFDAD4BAE4A25990998F5
:102E3000A4F88CB2C4E9A13207F048FE0A98CDF894
:102E400000902B4617223146FFF76AFDD4F89032E6
:102E50000A99D3F88430C4F8C08232A8A4F8C462B6
:102E6000984732A907C904F5337383E80700112393
:102E70000A98ADF8E0303946CDF8DCA00BF030F818
:102E8000DDE9090107F022FE0999204607F01EFE40
:102E90000B9800952B462A463146FFF741FD2698B0
:102EA00000952B4632463146FFF73AFD8C4B8D4A52
:102EB00026990B98A4F838B3C4E9CC3207F006FE83
:102EC0000C98CDF800902B4617223146FFF728FDCD
:102ED000D4F83C330C99D3F88430C4F86C8332A80E
:102EE000A4F87063984732A907C904F55E7383E8B4
:102EF000070010230C98ADF8E0303946CDF8DCA07F
:102F00000AF0EEFFDDE90B0107F0E0FD0B9920462A
:102F100007F0DCFD0D9800952B462A462946FFF761
:102F2000FFFC279800952B4632463146FFF7F8FC08
:102F30006B4B6C4A27990D98A4F8E4B3C4E9F732B7
:102F400007F0C4FD0E98CDF800902B4617223146AD
:102F5000FFF7E6FCD4F8E8330E99D3F88430C4F8D0
:102F6000188432A8A4F81C64984732A907C904F24F
:102F7000244383E807000E98CDF8DCA03946ADF86D
:102F8000E0900AF0ADFFDDE90D0107F09FFD0D991E
:102F9000204607F09BFD0F9800952B462A46782186
:102FA000FFF7BEFC289800952B4632463146FFF7C6
:102FB000B7FC4B4B4B4A28990F98C4F88834C4F897
:102FC0008C24A4F890B407F081FD2B463146199863
:102FD000CDF800901722FFF7A3FCC4F8C484A4F82E
:102FE000C8643846FFF7DAFC97E8070004F59A63EF
:102FF00083E807000E231998ADF8E0303946CDF884
:10300000DCA00AF06DFF19990F9807F05FFD0F998A
:10301000204607F05BFD109800952B462A46B42108
:10302000FFF77EFC299800952B4632463146FFF784
:1030300077FC2B4B2B4A29991098C4F83435C4F8E7
:103040003825A4F83CB507F041FD2B4631461A98C7
:10305000CDF800901722FFF763FCC4F87085A4F840
:1030600074653846FFF79AFC97E8070004F27C5332
:1030700083E807000D231A98ADF8E0303946CDF803
:10308000DCA00AF02DFF1A99109807F01FFD109987
:10309000204607F01BFD119800952B4631467822FB
:1030A000FFF73EFC2A9800952B4632463146FFF743
:1030B00037FC0B4B0B4A2A991198C4F8E035C4F839
:1030C000E425A4F8E8B507F001FD2B4631461B982E
:1030D000CDF800901722FFF723FCC4F81C8603E00C
:1030E00098CCEDFFDAE0E6FFA4F820663846FFF75B
:1030F00055FC97E8070004F5C56383E807000C2337
:103100001B98ADF8E0303946CDF8DCA00AF0E8FEB7
:103110001B99119807F0DAFC1199204607F0D6FCAC
:10312000129800952B4629467822FFF7F9FB2B9839
:1031300000952B4632463146FFF7F2FBD34BD44A7B
:103140002B991298C4F88C36C4F89026A4F894B63B
:1031500007F0BCFC2B4631461C98CDF80090172296
:10316000FFF7DEFBC4F8C886A4F8CC663846FFF744
:1031700015FC97E8070004F2D46383E807000B23EB
:103180001C98ADF8E0303946CDF8DCA00AF0A8FE76
:103190001C99129807F09AFC1299204607F096FCA9
:1031A0007822139800952B461146FFF7B9FB2C980F
:1031B00000952B4632463146FFF7B2FBB34BB44A7B
:1031C0002C991398C4F83837C4F83C27A4F840B7B2
:1031D00007F07CFC2B4631461D98CDF80090172255
:1031E000FFF79EFBC4F87487A4F878673846FFF7AA
:1031F000D5FB97E8070004F5F06383E807000A238E
:103200001D98ADF8E0303946CDF8DCA00AF068FE34
:103210001D99139807F05AFC1399204607F056FCA5
:10322000149800952B467822B421FFF779FB2D984E
:1032300000952B4632463146FFF772FB934B944A7A
:103240002D991498C4F8E437C4F8E827A4F8ECB72B
:1032500007F03CFC2B4631461E98CDF80090172213
:10326000FFF75EFBC4F82088A4F824683846FFF70F
:1032700095FB97E8070004F62C0383E80700092371
:103280001E98ADF8E0303946CDF8DCA00AF028FEF3
:103290001E99149807F01AFC1499204607F016FCA2
:1032A000159800952B463146B422FFF739FB2E982E
:1032B00000952B4632463146FFF732FB734B744A7A
:1032C0002E991598C4F89038C4F89428A4F898B8A2
:1032D00007F0FCFB2B4631461F98CDF800901722D3
:1032E000FFF71EFBC4F8CC88A4F8D0683846FFF777
:1032F00055FB97E8070004F6D80383E80700082386
:103300001F98ADF8E0303946CDF8DCA00AF0E8FDB2
:103310001F99159807F0DAFB1599204607F0D6FBA0
:10332000169800952B462946B422FFF7F9FA2F98F4
:1033300000952B4632463146FFF7F2FA534B544A7A
:103340002F991698C4F83C39C4F84029A4F844B918
:1033500007F0BCFB2B4631462098CDF80090172291
:10336000FFF7DEFAC4F87889A4F87C693846FFF7DD
:1033700015FB97E8070004F6841383E8070007238A
:103380002098ADF8E0303946CDF8DCA00AF0A8FD71
:103390002099169807F09AFB1699204607F096FB9D
:1033A000179800952B46B4227821FFF7B9FA309888
:1033B00000952B4632463146FFF7B2FA334B344A7A
:1033C00030991798C4F8E839C4F8EC29A4F8F0B992
:1033D00007F07CFB2B4631462198CDF80090172250
:1033E000FFF79EFAC4F8248AA4F8286A3846FFF743
:1033F000D5FA97E8070004F5236383E8070006235E
:103400002198ADF8E0303946CDF8DCA00AF068FD2F
:103410002199179807F05AFB1799204607F056FB99
:10342000B422189800952B461146FFF779FA319887
:1034300000952B4632463146FFF772FA134B144A79
:1034400031991898C4F8943AC4F8982AA4F89CBA08
:1034500007F03CFB2B4631462298CDF8009017220E
:10346000FFF75EFAC4F8D08AA4F8D46A3846FFF7AA
:1034700095FA97E8070004F6DC2383E80700229812
:10348000CDF8DCA03946ADF8E0B003E098CCEDFF14
:10349000DAE0E6FF0AF024FD2299189807F016FBFF
:1034A0002046189907F012FB20463BB0BDE8F08F8C
:1034B00013B5002451B1036801948DF8034001AAAB
:1034C0009C680DF10303A04702B010BD0846FBE75E
:1034D000C0897047008A7047C088704780887047ED
:1034E000807A00F07F007047807AC0097047002022
:1034F000704700009FED010A704700BF0000000008
:103500007047704710B54FF4C271044620F03DF883
:10351000204610BD70B5036804461B6B15469847DE
:103520002368294620465B6BBDE8704018470000C1
:1035300010B526220446002121F0A1F92046FFF70C
:10354000DDF90A4B23600A4BA3624FF6FF73A38594
:103550004FF47F020023C4E90C3223874FF0FF327F
:10356000C4E91023E363204610BD00BF2C79020894
:10357000A86E02082DE9F04F044689B025460026C2
:10358000FFF7BCF96C4BA66245F82C3B4FF0260BBD
:103590005A463146284621F072F92846FFF7AEF91F
:1035A000664BE36204F1580AFF2384F8523004F1B9
:1035B000A409634F66655046FFF7BAFF04F1F008AF
:1035C000A765C4F8A0604846FFF7B2FFC4F8A4702E
:1035D000C4F8EC604046FFF7ABFFC4F8F07004F5A8
:1035E0009E77C4F838613846FFF7A2FF554BA360B9
:1035F0004FF4A0733246009331462846F023FFF77C
:103600008FF9514B63652946204607F05FFA112375
:103610000093A02259465046A523FFF781F9A36DD8
:10362000A4F88C6002AD4FF07F4B51462846D3F88A
:103630008430C4F888B0984795E8070004F19403F3
:1036400083E80700414B069306A901235046ADF8D5
:103650001C300AF045FC5146204607F037FA122389
:10366000009374224846B0232021FFF759F9D4F87B
:10367000A430C4F8D4B049462846D3F88430A4F81E
:10368000D860984795E8070004F1E00383E8070055
:103690002E4B069306A902234846ADF81C300AF0CB
:1036A0001FFC4946204607F011FA3E2240465E21A3
:1036B000FFF730FFD4F8F030C4F820B14146284677
:1036C000D3F88430A4F82461984795E8070004F5FE
:1036D000967383E807001D4B069306A90323404613
:1036E000ADF81C300AF0FCFB4146204607F0EEF92D
:1036F000D92238461821FFF70DFF39462846C4F86D
:103700006CB1A4F870610AF051F995E8070004F56E
:10371000BC7383E807000D4B069306A93846ADF845
:103720001C600AF0DDFB2046394607F0CFF9204641
:1037300009B0BDE8F08F00BFDC6F0208BC79020859
:10374000B86E0208F0004001DAE0E6FFA86E020859
:103750007047704700F598730868496803C370475D
:10376000704770474160704770477047064BC0F81C
:103770004C310023C0F8503100F5A273C0F8480165
:10378000C0F84031704700BF793900080123037247
:103790007047704710B4C26841685410034601EB8B
:1037A0006200D20748BF0A599B685DF8044B48BFC6
:1037B000D35818470346406830B19A681AB9D86898
:1037C00000F0010070470120704710B50C2104463D
:1037D0001FF0DBFE204610BD10B5102104461FF07F
:1037E000D4FE204610BD10B54FF4AE7104461FF054
:1037F000CCFE204610BD10B50DF0CAF80368BDE838
:103800001040DB6B184710B50446D0F8400158B1A2
:103810000368DB68984738B1D4F8400103689B68B7
:1038200098470023C4F8403110BD00002DE9F14F46
:10383000D0E9556A0746B06803681B6A9847B0F537
:10384000FE7F05D2444B454AA321454820F0DAFDCE
:10385000706803681B6A98470F2803D8414B3F4A9A
:10386000A421F2E7F06803681B6A98470B2803D885
:103870003D4B3A4AA521E8E70DF08AF8DFF8F090D1
:1038800004300DF0AAF8D9F8000010B10368DB6825
:103890009847D9F8000010B103681B689847DFF813
:1038A000D480D8F8000010B103685B699847D7F856
:1038B0003C0110B103685B689847D8F8000010B16C
:1038C00003681B689847D7F83C0110B103689B68F0
:1038D0009847F068036800215B6A98474FF0000B37
:1038E000224BC0F804B0044680F808B00360B0680A
:1038F000036859465B6A9847054601F08BFD70687E
:10390000036859465B6A98472946064601F060FD00
:10391000331DC7F83C61C9F80040C8F80050CAF828
:1039200000302B68C6F808A02846DB68EE6398478D
:10393000336830461B689847214628460FF0D8F96F
:10394000236820461B69984723685B69204601B0BD
:10395000BDE8F04F184700BF615F0208EF5F020843
:10396000C160020808610208AB610208DC7002084D
:10397000303601202C3601202DE9F14FD0E9556A6F
:103980000746B06803681B6A9847B0F55D6F05D2BB
:10399000444B454AA321454820F034FD7068036834
:1039A0001B6A98470F2803D8414B3F4AA421F2E7EE
:1039B000F06803681B6A98470B2803D83D4B3A4AC6
:1039C000A521E8E70CF0E4FFDFF8F09004300DF0FB
:1039D00004F8D9F8000010B10368DB689847D9F8FB
:1039E000000010B103681B689847DFF8D480D8F84E
:1039F000000010B103685B699847D7F83C0110B12B
:103A000003685B689847D8F8000010B103681B682A
:103A10009847D7F83C0110B103689B689847F06855
:103A2000036800215B6A98474FF0000B224BC0F8F7
:103A300004B0044680F808B00360B06803685946D3
:103A40005B6A9847054601F06FF97068036859464C
:103A50005B6A98472946064601F044F9331DC7F8CA
:103A60003C61C9F80040C8F80050CAF800302B6823
:103A7000C6F808A02846DB68EE63984733683046EE
:103A80001B689847214628460FF032F923682046E4
:103A90001B69984723685B69204601B0BDE8F04F79
:103AA000184700BF615F02084E620208C160020849
:103AB00008610208AB610208DC70020830360120A0
:103AC0002C360120044B1B6893F858200AB1D86C9F
:103AD00000B99868704700BFE8350120F8B517466F
:103AE00004460E460DF016F8124B1C60124B236074
:103AF000124B0025C4E95135114BC4E953551868E0
:103B0000036801219B68C4E94F55C4E9557698477D
:103B1000284600F023FDFFF7D5FF17F052FCFFF712
:103B2000D1FF17F0C9FCFFF7CDFF17F0D1FC2046FD
:103B3000F8BD00BF3C360120887002087070020892
:103B4000E8350120064BC0F84C310023C0F8503155
:103B500000F5A273C0F84801C0F84031704700BFBB
:103B600079390008064BC0F84C310023C0F85031B9
:103B700000F5A273C0F84801C0F84031704700BF9B
:103B80002D380008406A7047806A704770478A88FD
:103B90000B8810B5D20A4C88C1699BB251F822003B
:103BA00043EA0443184410BD10B50446BAB1107B73
:103BB00068B1537BD27A1B0203F4E0631A43236A91
:103BC00003EB82031A888A4202D193F9020010BDE6
:103BD00005D8013880B204330028F3D1F7E700207C
:103BE000F5E710B52C2104461FF0CFFC204610BD90
:103BF00030B58BB00446BDF860500895BDF85C50F8
:103C000007959DF8505006959DF84C5005959DF8E8
:103C1000485004959DF8445003959DF840500295F6
:103C20009DF83C500195BDF8385000950EF0BAFC57
:103C3000064B2360159BE361169B2362199B63620D
:103C40001A9BA36220460BB030BD00BF0071020872
:103C500070477047704770477047704730B4C2680C
:103C600044685510034604EB6200D20748BF62590E
:103C70009B6830BC48BFD35818470346406830B1F2
:103C80009A681AB9D86800F001007047012070479F
:103C900090F82D3080F89A3080F85C30704790F8BA
:103CA0002D3080F85C30704710B5642104461FF059
:103CB0006CFC204610BD10B5B42104461FF065FC15
:103CC000204610BD10B5102104461FF05EFC2046B2
:103CD00010BD10B54FF41D7104461FF056FC204670
:103CE00010BD0146343091F82C3013B162310AF026
:103CF00053BA6031FBE708B590F82C303BB100F1C6
:103D0000B0031B68C0F89430FFF7EBFF08BD00F16B
:103D1000AC03F6E710B50446006B50B10368DB68EE
:103D2000984730B1206B036821469B68BDE810407E
:103D3000184710BD00F1B0028A4203D10368D3F8DE
:103D40008C30184770470B7970B590F82C6004469A
:103D50000D460BB916B170BD002EFCD0B3FA83F33B
:103D60005B0984F82C3023682046D3F88C309847C0
:103D7000236820465B699847002EECD02B79012BF5
:103D8000E9D123682046D3F88830BDE87040184751
:103D900070B5036804469B6B15469847236829460F
:103DA0002046DB6BBDE8704018470B8870B5A0F863
:103DB00060300546138825F8623F0446284610F017
:103DC00065FB0646284610F095FB31460246204624
:103DD000FFF7DEFF23682046D3F88C30BDE8704043
:103DE0001847000010B526220446002120F047FDA8
:103DF0002046FEF783FD044B2360FF2384F8263022
:103E00000023A362204610BDBC79020838B50446E1
:103E100000F1640528460AF063F8B4F90A20B4F901
:103E200008102846FFF7B4FF38BD0000F7B5044678
:103E3000FEF764FD4FF47F432546A385012300264A
:103E400084F82430164BA662266345F8343B4FF6BF
:103E5000FF77262231462846ADF8047020F00FFD8A
:103E60002846FEF74BFD0F4B6363BDF80430A4F802
:103E70005A3001A9284684F85C700AF08DF9324660
:103E800031462846A4F86070A4F86270FFF742FB40
:103E90002046294606F01AFE204603B0F0BD00BFBA
:103EA000687102088C7A020838B504462546FFF787
:103EB000BDFF074B45F8643B2846FFF739FB00235D
:103EC0002046C4E92B33294606F000FE204638BDC3
:103ED000087202082DE9F04F04468BB0A046002579
:103EE000FEF70CFD7E4BA56248F82C3B04F1580A06
:103EF0004046FFF777FF04F18409504604F1B0070C
:103F0000FFF770FF484604F5B276FFF76BFF3846BF
:103F1000FFF7CAFF04F5067B3046FFF7C5FF58469A
:103F2000FFF706FB6F4BC4F818326F4BC4F86052B2
:103F3000C4E999346D4BC4E99B356D4BA3604FF4D4
:103F4000A0732A46009329464046F023FEF7E8FC7A
:103F5000684B63654146204606F0B8FD3223009366
:103F60004FF4877229465046F023FEF7D9FC624B86
:103F7000C4F880305146204606F0A8FD1422009275
:103F8000294602224846F023FEF7CAFC594BC4F8E2
:103F9000AC304946204606F099FD4FF0010308AACF
:103FA00007A93846ADF82030ADF81C50FFF7FDFEEC
:103FB0002A46294604F1E400FFF7ACFA4FF0240842
:103FC000DFF83C91CDF82090152308A93846ADF8CC
:103FD0002430FFF71BFF29460A2204F58A70CDF82A
:103FE00000806423FEF79CFC444B4FF07F4AC4E9F9
:103FF000573A3846FFF77FFE04F51973C4F8E030EE
:1040000040F2151264233846CDF800808221FEF775
:1040100087FC3946204606F059FD4FF00102ADF805
:10402000202007A908AA3046ADF81C50FFF7BDFEB6
:104030002A46294604F5CC70FFF76CFA4FF01402BB
:1040400008A93046ADF82420CDF82090FFF7DEFE19
:1040500029460A2204F5E470CDF800806423FEF7B7
:104060005FFC264B3046C4E9843AFFF744FE6423E4
:1040700040F215123046CDF800800B21FEF750FCBF
:104080003146204606F022FD1123009305225846B2
:1040900068234421FEF744FCD4F81832A4F84C52AB
:1040A00002AD59462846D3F88430C4F848A2984750
:1040B00095E8070004F5157383E80700042308A9B1
:1040C0005846ADF82430CDF8209009F009FF20467D
:1040D000594606F0FBFC20460BB0BDE8F08F00BF50
:1040E000C0720208B86E0208A8720208353D0008C6
:1040F000F0004001DAE0E6FF70630BFF393947FF5B
:10410000A86E020870477047704770477047704745
:104110000368DB6A184710B504466C3000F0CEFD2A
:1041200004F53970BDE8104000F026BD094B10B50C
:104130000360094BC0F8E432044600F53970FEF71D
:104140008BFB2046054B40F86C3FFFF785FD204672
:1041500010BD00BF58730208C873020844750208F6
:1041600010B50446FFF7E2FF20464FF45D611FF0F3
:104170000CFA204610BD00002DE9F84304460EF06D
:104180000BFC264B2360264B0025C4E910354FF469
:10419000807304F16C09A4F86430FF2384F866305E
:1041A00004F53978C4E91255C4E91455C4E9165523
:1041B000E5632566A566484600F060FD04F140060B
:1041C000404600F047FA2A4629463046FFF7A2F952
:1041D0003046F021FDF7AEF830464FF4A071FDF700
:1041E000ABF8271D4FF07F43A3663146384606F0F3
:1041F0006DFC2A4629464846FFF78CF94946384661
:1042000006F064FC162229464046FFF783F938463B
:10421000414606F05BFC2046BDE8F883587302086F
:10422000BC79020870470368DB6A18476C3000F0FD
:10423000D4BC000010B5054B0360054B044640F8A4
:104240006C3FFFF75DF9204610BD00BF9073020878
:104250005C74020810B50446FFF7ECFF20464FF4EB
:10426000F8711FF092F9204610BD00002DE9F041D1
:1042700004460EF091FB204B2360204B0025C4E93F
:1042800010354FF4807304F16C07A4F86430FF23F9
:1042900084F8663004F14006C4E91255C4E91455A7
:1042A000C4E91655E5632566A566384600F07CFC32
:1042B0002A4629463046FFF72DF93046F021FDF712
:1042C00039F830464FF4A071FDF736F804F10408D0
:1042D0004FF07F43A3663146404606F0F7FB2A467F
:1042E00029463846FFF716F94046394606F0EEFBF8
:1042F0002046BDE8F08100BF90730208BC79020837
:104300007047000030B5164D2C6814F001048FB0D2
:10431000BFF35B8F21D128461FF039F9E8B13F2365
:104320000993104B0893104B104911480A94CDE99A
:10433000064301220423CDE903320A2300930B2212
:10434000CDE90B44CDE901440594FFF751FC094840
:1043500020F076F828461FF026F905480FB030BD4A
:1043600008260020549B0208609B0208B4970208AC
:104370000C260020014300087047000030B5174D9F
:104380002C6814F001048FB0BFF35B8F22D1284654
:104390001FF0FDF8F0B13F230993114B0893114B27
:1043A00007930123CDE9054304930423CDE9024398
:1043B0000C230D4900932C220F23CDE90B440B480D
:1043C0000A940194FFF714FC094820F039F82846B4
:1043D0001FF0E9F805480FB030BD00BF38260020B7
:1043E000589B0208649B0208509802083C26002053
:1043F000794300087047000030B5174D2C6814F061
:1044000001048FB0BFF35B8F22D128461FF0BFF8A5
:10441000F0B13F230993114B0893114B11491248F6
:104420000A94CDE9064301220423CDE9033228236F
:1044300000930B222923CDE90B44CDE901440594D7
:10444000FFF7D6FB09481FF0FBFF28461FF0ABF82B
:1044500005480FB030BD00BF682600205C9B0208F5
:10446000689B0208B89A02086C260020F5430008F1
:1044700000207047002070470EB403B503AB002145
:1044800053F8042B01930DF00BFB02B05DF804EB25
:1044900003B070470CB407B504AB53F8042B019379
:1044A0000DF0FEFA03B05DF804EB02B070470000B7
:1044B000436C10B5044673B3038F2BB9184B194ADC
:1044C000C52119481FF09EFFC38E00EB43035B8C90
:1044D0000BB30FF066F9238F012B03D8134B144A4B
:1044E000CB21EEE7E28E531C9BB2092B194688BF05
:1044F000A3F10A0104EB410140F63F10498C8142CF
:1045000009D10A2B04EB420228BF002304EB43032A
:10451000508C588451842046BDE810400FF044B8B8
:104520002063020829630208D46302081E6402089B
:104530002C6402080EF0FFBF10B586B002AC84E810
:1045400006001A460AAB05930193099B0093214686
:10455000089B0BF0BBFD06B010BD000038B518BBC2
:10456000124B13481C681349B4B1226822440260FC
:10457000626822440A60A26814440F4B00221A8029
:1045800000F038F8054600F033F80C4B1C600C4B7B
:104590001D600C4B188007E00B4B03600B4B0B604E
:1045A0000B4B1C68002CE8D138BD00BFA4260020AE
:1045B0009C26002098260020A026002040360120BE
:1045C0004836012044360120D89B02086C9B020823
:1045D000F89C0208044B1B6853F82100034B1B682E
:1045E00003EB4000704700BF982600209C26002067
:1045F0001B20704700487047A826002010B5FFF721
:10460000BDFE044C2060FFF7F7FE6060FFF77AFE06
:10461000A06010BDA826002010B5002404600C6026
:1046200014601C6010BD000010B5034B036004460D
:10463000FEF712F9204610BDC873020810B50446F3
:10464000FFF7F2FF204640F6EC211EF09EFF2046C9
:1046500010BD000010B50446FEF7D4F9054B2360E9
:10466000054B02225A619A62044B00221A702046BE
:1046700010BD00BFC8730208FC270020B826002028
:10468000024B02EB810253F822007047FC27002006
:1046900070B51C490022A0B010460C460D46002300
:1046A00055F8046B3EB920AE06EB8006013046F8A3
:1046B000802C46F8403C0133042BF1D10132042A0E
:1046C00001F11001EAD1D0B10F490B6807330B603B
:1046D00093FBF0F100FB113120A800EB81010A20CF
:1046E00051F8805C51F8401C93FBF0F600FB163348
:1046F000092B01EB850318BF022244F8232020B0C8
:1047000070BD00BFFC270020B42600201B49F0B577
:10471000002420468C4626464FF0010E0A4603230D
:10472000156852F8047FBD420AD14DB16800B5F555
:10473000806F42E9010604BF114880F800E00120C3
:10474000013BEDD10D4655F8042B013352B91A4601
:1047500051F8227077B102EB840245F8047C4CF8E2
:1047600022600120032BEED10134042C01F1100151
:10477000D4D1F0BD0132042AEAD1F3E7FC270020AE
:10478000B82600201F4900222DE9F04110468C4632
:1047900016464FF0010E01F10C0303251C6853F877
:1047A000047DBC420AD14CB16000B4F5806FC3E90E
:1047B000006004BF144880F800E00120013DEDD105
:1047C00001F110073D46032455F8043D013C63B94F
:1047D000234651F82380B8F1000F0DD003EB82037C
:1047E000C5F800804CF823600120002CECD1013288
:1047F000042A04D03946CEE7013BEAD2F5E7BDE80A
:10480000F08100BFFC270020B826002020492DE9B8
:10481000F04100242046884626464FF0010C0A4607
:10482000032315681769BD420BD155B16800B5F572
:10483000806F106008BF1748166108BF80F800C07D
:104840000120013B02F11002EBD10D462A68013331
:1048500072B91A464FEA021E51F80EE0BEF1000F7F
:1048600011D004EB8202C5F800E048F82260012074
:10487000032B05F11005E9D10134042C01F10401E9
:10488000CDD1BDE8F0810132042AE3D1F0E700BFC9
:10489000FC270020B8260020204A00212DE9F04105
:1048A000084690460E464FF0010C134603251C6B3C
:1048B0001F6ABC4205F1FF350BD154B16000B4F55D
:1048C000806F186308BF16481E6208BF80F800C0DA
:1048D0000120103B002DEAD1154603242B6B013C2F
:1048E00073B923464FEA031E52F80EE0BEF1000FE3
:1048F00010D001EB8303C5F830E048F823600120B5
:10490000103D002CEAD10131042902F10402CCD17E
:10491000BDE8F081013BE5D2F2E700BFFC270020B3
:10492000B826002030B50C4900220B46042053F86D
:10493000044B7CB1032A02D0DD68AC420AD00138B6
:1049400005D10132042A01F11001EED130BD1D68FC
:10495000AC42ECD10120F9E7FC2700200022084BF3
:104960001046196808445968084499680132084497
:10497000D968042A084403F11003F2D1704700BF3C
:10498000FC2700200B4B187830B580B90A4A014645
:104990001446002354F8045BB5F5006F08D00133CA
:1049A000042BF7D10131042902F11002F0D130BDFE
:1049B0000120FCE7B8260020FC27002008B5FFF7FF
:1049C000B1FF80F00100C0B208BD10B50446FFF78A
:1049D000D9FF20B92046BDE81040FFF7EFBF10BD5A
:1049E000094B002118460A4601310429C3E9002277
:1049F000C3E9022203F11003F6D1044B1A7002231B
:104A000043618362704700BFFC270020B826002066
:104A100002EB81020F2A37D8DFE802F0080A0C0FF8
:104A20001215181B1E2124272A2D30332C307047D5
:104A3000D830704700F5C270704700F50C707047B1
:104A400000F53770704700F56270704700F234402F
:104A5000704700F59C60704700F28C50704700F57D
:104A6000C760704700F2E460704700F5F26070477D
:104A700000F63C00704700F6E800704700F694101E
:104A8000704700F5246070470020704702EB8102F8
:104A90000F2A38D8DFE802F0080A0D101316191C87
:104AA0001F2225282B2E31348C30704700F59C7046
:104AB000704700F5F270704700F52470704700F5FC
:104AC0004F70704700F57A70704700F2944070475D
:104AD00000F5A860704700F2EC50704700F5D36015
:104AE000704700F24470704700F5FE60704700F6B2
:104AF0009C00704700F64810704700F6F4107047AD
:104B000000F52A6070470020704700002DE9F04151
:104B1000054616461F46FFF77BFF044637B9036874
:104B200080F825705B69BDE8F04118473246284699
:104B3000FFF7ACFF0E4A012384F8253006EB81060F
:104B40001423054603FB06260A210A4A3B46304643
:104B50000FF0E2FB2B68AE649B69284698472B68F0
:104B600028465B699847236820465B69DBE700BFFE
:104B7000BA260020FE640208FDF76FBE10B5034B95
:104B800003600446FEF7BCFC204610BD5C740208BE
:104B900010B50446FFF7F2FF20464FF4C2711EF035
:104BA000F4FC204610BD000010B50446FEF7E2FC00
:104BB000014B2360204610BD5C740208C0F8EC1065
:104BC000A4300DF097B8C0F8A01058300DF092B88E
:104BD000C0F83811F0300DF08DB8FEF792BC704778
:104BE00010B54FF4B27104461EF0CFFC204610BD44
:104BF00010B50446D0F8580100F065F82046BDE82D
:104C000010400BF047BF000010B50446FEF766FFEA
:104C1000044B23600023C4F85C3184F860312046E3
:104C200010BD00BFF0740208024B1A688A42B8BF78
:104C3000196070473C280020C0F85C1180F86021A2
:104C4000FFF7F2BFD0F8743203B118477047000085
:104C500010B5034B03600446FEF7FEFF204610BD6F
:104C60004475020810B50446FFF7F2FF20464FF4E2
:104C70001E711EF08AFC204610BD000010B50446CF
:104C8000FFF728F9014B2360204610BD4475020848
:104C900038B5084D084A04460B46284606210FF051
:104CA0003BFBC4F8605204F50670BDE838400DF0D7
:104CB00021B800BF40280020FE640208FEF7CDBFE7
:104CC0000022026070477047704704387047704791
:104CD00010B5102104461EF058FC204610BDA0F16E
:104CE0000400F5E700228260024A02601832426046
:104CF000C1607047DC7502087047000010B5034BB7
:104D000003600446FFF712FA204610BD047602083D
:104D100010B50446FFF7F2FF20464FF45D611EF028
:104D200034FC204610BD000010B50446FFF724FAFD
:104D3000024B2360024B20461C6010BD0476020823
:104D400054280020F8B500F5397706463846FFF7B5
:104D500047FE00250024224629463846FFF790FCEE
:104D600022460346294638460134FFF7CFFE042C7D
:104D7000F1D10135042DEDD13846FFF7EFFD0146A5
:104D800006F16C00BDE8F840FFF782BF024B1868DF
:104D900008B1FFF7D7BF70475428002030B505464B
:104DA0009BB00C46D9B10F4901A81FF038FE4FF057
:104DB000FF3301A931220C4803F0A7FC05F5397037
:104DC000FFF7CCFD05460BF0E3FD22462946FFF731
:104DD00033FF0BF0DDFDFEF7C5FE1BB030BD034910
:104DE000E2E700BF016502084423002033650208A2
:104DF00038B500F5397504462846FFF7E6FD50B191
:104E00002846FFF7BFFD014600B101212046BDE85D
:104E10003840FFF7C3BF38BD2DE9F0479CB00646C8
:104E2000FFF779F92149DFF89090DFF884A003A813
:104E30001FF0F5FD1E484FF0FF33242203A903F0B5
:104E400064FC002506F539780024224629464046B0
:104E5000FFF716FC22460746034629464046FFF761
:104E600055FE77B12B464A466421CDE9004703A899
:104E70001FF08CFC4FF0FF3382B203A9504603F0C1
:104E800044FC0134042CE0D10135042DDCD1404632
:104E9000FFF764FD014606F16C00FFF7F9FE054BD4
:104EA000C6F8E0321CB0BDE8F08700BF65650208B7
:104EB000442300208D4D00088A650208F0B59BB0A0
:104EC0003549044601A81FF0AAFD04F53975334899
:104ED0004FF0FF331E2201A903F017FC2846FFF70D
:104EE00095FC00284FD02E4901A81FF098FD4FF0E7
:104EF000FF33302201A9294803F007FC2846FFF7B9
:104F0000C7FB00270026324639462846FFF7B8FB84
:104F100032460346394628460136FFF7F7FD042E90
:104F2000F1D10137042FEDD12846FFF717FD04F129
:104F30006C0601463046FFF7ABFE0BF029FD036817
:104F4000DB6A9847201D0CF0D5FE28460CF0D2FEF7
:104F500030460CF0CFFE134B186803689B699847E6
:104F60000A2003F035FD104901A81FF058FD4FF04D
:104F7000FF33202201A9094803F0C7FB2046FFF7B1
:104F800037FF1BB0F0BD094901A81FF048FD4FF0E5
:104F9000FF332B22EEE700BFAA650208442300205E
:104FA000C9650208E8350120FA6502081B66020897
:104FB000F0B59BB03549044601A81FF030FD04F55B
:104FC000397533484FF0FF33202201A903F09DFBD0
:104FD0002846FFF761FC00284FD02E4901A81FF09A
:104FE0001EFD4FF0FF33322201A9294803F08DFB4B
:104FF0002846FFF74DFB0027002632463946284653
:10500000FFF73EFB32460346394628460136FFF796
:105010007DFD042EF1D10137042FEDD12846FFF795
:105020009DFC04F16C0601463046FFF731FE0BF0A3
:10503000AFFC0368DB6A9847201D0CF05BFE284636
:105040000CF058FE30460CF055FE134B1868036800
:105050009B6998470A2003F0BBFC104901A81FF088
:10506000DEFC4FF0FF33222201A9094803F04DFB7B
:105070002046FFF7BDFE1BB0F0BD094901A81FF097
:10508000CEFC4FF0FF332D22EEE700BF476602084B
:105090004423002068660208E83501209B66020868
:1050A000BE660208F0B59BB03549044601A81FF062
:1050B000B6FC04F5397533484FF0FF33202201A9BF
:1050C00003F023FB2846FFF721FB00284FD02E4991
:1050D00001A81FF0A4FC4FF0FF33322201A9294898
:1050E00003F013FB2846FFF7D3FA002700263246C9
:1050F00039462846FFF7C4FA324603463946284661
:105100000136FFF703FD042EF1D10137042FEDD155
:105110002846FFF723FC04F16C0601463046FFF7F2
:10512000B7FD0BF035FC0368DB6A9847201D0CF0D7
:10513000E1FD28460CF0DEFD30460CF0DBFD134BA4
:10514000186803689B6998470A2003F041FC1049DE
:1051500001A81FF064FC4FF0FF33222201A9094887
:1051600003F0D3FA2046FFF743FE1BB0F0BD094918
:1051700001A81FF054FC4FF0FF332D22EEE700BFD3
:10518000EC660208442300200D670208E835012080
:105190004067020863670208F0B59BB035490446D2
:1051A00001A81FF03CFC04F5397533484FF0FF337C
:1051B000212201A903F0A9FA2846FFF7E3FA002803
:1051C0004FD02E4901A81FF02AFC4FF0FF333322A5
:1051D00001A9294803F099FA2846FFF759FA002750
:1051E0000026324639462846FFF74AFA3246034639
:1051F000394628460136FFF789FC042EF1D10137E4
:10520000042FEDD12846FFF7A9FB04F16C060146F7
:105210003046FFF73DFD0BF0BBFB0368DB6A9847A8
:10522000201D0CF067FD28460CF064FD30460CF0A4
:1052300061FD134B186803689B6998470A2003F0C7
:10524000C7FB104901A81FF0EAFB4FF0FF332322F0
:1052500001A9094803F059FA2046FFF7C9FD1BB020
:10526000F0BD094901A81FF0DAFB4FF0FF332E22F1
:10527000EEE700BF9167020844230020B3670208ED
:10528000E8350120E76702080B6802082DE9F041C4
:105290003D4DDFF818812B683C4F0133A0B0064626
:1052A0002B6000F0BFFCD8F80030C31AB3F5FA6FDA
:1052B00004461CD32B68364A642107A81FF066FAFF
:1052C0004FF0FF3382B207A9324803F01EFA3B6861
:1052D000002B3CD0304907A81FF0A1FB4FF0FF3353
:1052E000322207A92B4803F010FAC8F800403868AA
:1052F000002839D000231A460DF1070103F07FFC86
:10530000002831D1254D0FCD02AC0FC42B6823608E
:105310009DF80730042B9BBF20AA02EB8303204B90
:1053200053F8783C1F4A402107A81FF02FFA4FF08E
:10533000FF3382B207A9174803F0E7F99DF8073059
:10534000013B032B10D8DFE803F00C12161A1649A4
:1053500007A81FF064FB1C224FF0FF330DEB020186
:10536000C0E73046FFF79EFE20B0BDE8F081304632
:10537000FFF712FFF8E73046FFF7A0FDF4E73046ED
:10538000FFF716FEF0E700BF50280020F8220020AB
:105390003A6802084423002065680208245802087D
:1053A000525D0208B5680208986802084C2800207F
:1053B000FEF7AEBE704704387047704710B5102135
:1053C00004461EF0E2F8204610BDA0F10400F5E707
:1053D00000228260024A026018324260C160704757
:1053E0003C7602087047000010B5034B036004468A
:1053F000FEF720FF204610BDB076020810B5044627
:10540000FFF7F2FF20464FF4FE711EF0BEF8204673
:1054100010BD000010B50446FEF728FF044B2360C2
:105420000023C4E97C3384F8F831204610BD00BF66
:10543000B076020830B5104D104A9BB004460B46BA
:10544000C0F8F0110A2128460EF066FF294604F143
:105450006C00FFF7B3FBD4F8F031094A642101A8CE
:105460001FF094F94FF0FF3382B201A9054803F011
:105470004CF91BB030BD00BF6C280020FE64020850
:10548000E06802084423002030B5104D104A9BB05C
:1054900004460B46C0F8F4110A2128460EF03CFFE2
:1054A000294604F16C00FFF78EFBD4F8F431094A69
:1054B000642101A81FF06AF94FF0FF3382B201A9FD
:1054C000054803F022F91BB030BD00BF582800206A
:1054D000FE640208096902084423002010B5142262
:1054E000A4B000F16C0480F8F811A1B1124901A830
:1054F0000EF09FFB01A92046FFF76AFB0F490BA89E
:105500001FF08DFA4FF0FF331E220BA90C4803F059
:10551000FCF824B010BD0B4901A80EF08AFB01A9CC
:105520002046FFF755FB08490BA81FF078FA4FF00B
:10553000FF331C22E9E700BF5C76020834690208E9
:1055400044230020807602085369020810B5154CE8
:105550001549ADF5356D68461FF061FA4FF0FF3320
:105560003D226946204603F0D0F819A8FFF772F8EB
:1055700019A8FFF735FA0D4968461FF050FA422284
:1055800069464FF0FF33204603F0BFF80BF000FAF6
:10559000FEF7D8FA064B199319A8FDF75DF90DF53A
:1055A000356D10BD4423002070690208AE69020801
:1055B000C873020810B50E4B044618689AB0A0B123
:1055C00000231A460DF1030103F019FB68B90949DC
:1055D00001A81FF024FA08484FF0FF333B2201A92D
:1055E00003F093F82046FFF7B1FF1AB010BD00BFDB
:1055F000F8220020F169020844230020F0B59DB094
:105600000446FEF713FE0BF0C3F9D0F85C510BF023
:10561000BFF990F860710BF0BBF9124B1E68294678
:105620002046FFF707FF31462046FFF72DFF39469A
:105630002046FFF753FF0C4A0C4B002F18BF1346B0
:10564000CDE900630A4A2B46642103A81FF09EF8A7
:105650004FF0FF3382B203A9064803F056F81DB09D
:10566000F0BD00BF3C2800202D6A0208316A020804
:10567000346A020844230020FEF7D5BDF0207047AD
:105680004FF4A07070472920FCF794BC2820FCF749
:1056900091BC08B5FCF762FCCA20FCF78BFCC32068
:1056A000FCF76CFC0820FCF769FC5020FCF766FC5A
:1056B000CF20FCF77FFC0020FCF760FCC120FCF74A
:1056C0005DFC3020FCF75AFCED20FCF773FC6420F5
:1056D000FCF754FC0320FCF751FC1220FCF74EFCB5
:1056E0008120FCF74BFCE820FCF764FC8520FCF7EC
:1056F00045FC0020FCF742FC7820FCF73FFCCB2067
:10570000FCF758FC3920FCF739FC2C20FCF736FC60
:105710000020FCF733FC3420FCF730FC0220FCF7BF
:105720002DFCF720FCF746FC2020FCF727FCEA20A4
:10573000FCF740FC0020FCF721FC0020FCF71EFCDD
:10574000B120FCF737FC0020FCF718FC1B20FCF70D
:1057500015FCB620FCF72EFC0A20FCF70FFCA2205B
:10576000FCF70CFCC020FCF725FC1020FCF706FC25
:10577000C120FCF71FFC1020FCF700FCC520FCF743
:1057800019FC4520FCF7FAFB1520FCF7F7FBC720B6
:10579000FCF710FC9020FCF7F1FB3620FCF70AFC2C
:1057A000C820FCF7EBFBF220FCF704FC0020FCF720
:1057B000E5FBB020FCF7FEFBC220FCF7DFFBB620C8
:1057C000FCF7F8FB0A20FCF7D9FBA720FCF7D6FB77
:1057D0002720FCF7D3FB0420FCF7D0FB2A20FCF7A2
:1057E000E9FB0020FCF7CAFB0020FCF7C7FB002008
:1057F000FCF7C4FBEF20FCF7C1FB2B20FCF7DAFB26
:105800000020FCF7BBFB0020FCF7B8FB0120FCF7F5
:10581000B5FB3F20FCF7B2FBF620FCF7CBFB0120E9
:10582000FCF7ACFB0020FCF7A9FB0620FCF7A6FB6D
:105830002C20FCF7BFFBC820FCF70AFC2620FCF755
:10584000B9FB0120FCF79AFBE020FCF7B3FB0F202B
:10585000FCF794FB2920FCF791FB2420FCF78EFB3E
:105860000C20FCF78BFB0E20FCF788FB0920FCF7D3
:1058700085FB4E20FCF782FB7820FCF77FFB3C2069
:10588000FCF77CFB0920FCF779FB1320FCF776FB87
:105890000520FCF773FB1720FCF770FB1120FCF7C9
:1058A0006DFB0020FCF76AFBE120FCF783FB002086
:1058B000FCF764FB1620FCF761FB1B20FCF75EFB8A
:1058C0000420FCF75BFB1120FCF758FB0720FCF7DA
:1058D00055FB3120FCF752FB3320FCF74FFB4220F5
:1058E000FCF74CFB0520FCF749FB0C20FCF746FBC2
:1058F0000A20FCF743FB2820FCF740FB2F20FCF795
:105900003DFB0F20FCF73AFB1120FCF753FBC820AE
:10591000FCF79EFB2920FCF74DFBBDE808402C203E
:10592000FCF748BB08B5FCF719FB0321D320FCF7B3
:105930005DFB80B208BD10B5C4B20222032120462F
:10594000FCF7C2FA0A20FCF707FB204600220321DD
:10595000FCF7BAFABDE810400220FCF7FDBA38B5F2
:105960000446E4B2FCF7AEFA00212046FCF7C4FA84
:10597000012105462046FCF7BFFA40EA052080B227
:1059800038BD10B5C4B240212046FCF7B5FA030675
:1059900007D54C212046FCF7AFFA003818BF01208C
:1059A00010BD01224B212046FCF78EFA2046002232
:1059B0004B21FCF789FA0020F2E773B50423C4B247
:1059C0000E461546D7210DEB03022046FCF7AEFA32
:1059D000019B1BBA1A0DC3F30B23328020462B8088
:1059E00001224B21FCF770FA00224B212046FCF7E4
:1059F0006BFA02B070BD000010B50A4A13789842E5
:105A000004460DD0517888420AD00BB141B9012328
:105A1000D454FCF757FA2046BDE81040FFF78BBF7F
:105A200010BD00BF8028002010B5C4B20921204657
:105A3000FCF762FA40F00102D2B220460921BDE82B
:105A40001040FCF741BA10B5C4B209212046FCF75A
:105A500053FA092100F0FE022046BDE81040FCF791
:105A600033BA38B5C4B20D4620460A21FCF744FAD1
:105A700040EA0502D2B220460A21BDE83840FCF7D0
:105A800023BA10B50446FCF71EFA20461F21FFF783
:105A9000E8FF2046BDE81040FFF7C6BF38B5C4B2E6
:105AA0000D4620460A21FCF727FA20EA0502D2B269
:105AB00020460A21BDE83840FCF706BA10B5044676
:105AC000FFF7C1FF20461F21BDE81040FFF7E6BFEA
:105AD00010B5C0B20C460B21FCF70EFA204010BDE9
